{
  "_format": "hh-sol-artifact-1",
  "contractName": "TokenERC721",
  "sourceName": "contracts/TokenERC721.sol",
  "abi": [
    {
      "inputs": [
        {
          "internalType": "string",
          "name": "name",
          "type": "string"
        },
        {
          "internalType": "string",
          "name": "symbol",
          "type": "string"
        }
      ],
      "stateMutability": "nonpayable",
      "type": "constructor"
    },
    {
      "anonymous": false,
      "inputs": [
        {
          "indexed": true,
          "internalType": "address",
          "name": "owner",
          "type": "address"
        },
        {
          "indexed": true,
          "internalType": "address",
          "name": "approved",
          "type": "address"
        },
        {
          "indexed": true,
          "internalType": "uint256",
          "name": "tokenId",
          "type": "uint256"
        }
      ],
      "name": "Approval",
      "type": "event"
    },
    {
      "anonymous": false,
      "inputs": [
        {
          "indexed": true,
          "internalType": "address",
          "name": "owner",
          "type": "address"
        },
        {
          "indexed": true,
          "internalType": "address",
          "name": "operator",
          "type": "address"
        },
        {
          "indexed": false,
          "internalType": "bool",
          "name": "approved",
          "type": "bool"
        }
      ],
      "name": "ApprovalForAll",
      "type": "event"
    },
    {
      "anonymous": false,
      "inputs": [
        {
          "indexed": true,
          "internalType": "address",
          "name": "previousOwner",
          "type": "address"
        },
        {
          "indexed": true,
          "internalType": "address",
          "name": "newOwner",
          "type": "address"
        }
      ],
      "name": "OwnershipTransferred",
      "type": "event"
    },
    {
      "anonymous": false,
      "inputs": [
        {
          "indexed": true,
          "internalType": "address",
          "name": "from",
          "type": "address"
        },
        {
          "indexed": true,
          "internalType": "address",
          "name": "to",
          "type": "address"
        },
        {
          "indexed": true,
          "internalType": "uint256",
          "name": "tokenId",
          "type": "uint256"
        }
      ],
      "name": "Transfer",
      "type": "event"
    },
    {
      "inputs": [
        {
          "internalType": "address",
          "name": "to",
          "type": "address"
        },
        {
          "internalType": "uint256",
          "name": "tokenId",
          "type": "uint256"
        }
      ],
      "name": "approve",
      "outputs": [],
      "stateMutability": "nonpayable",
      "type": "function"
    },
    {
      "inputs": [
        {
          "internalType": "address",
          "name": "owner",
          "type": "address"
        }
      ],
      "name": "balanceOf",
      "outputs": [
        {
          "internalType": "uint256",
          "name": "",
          "type": "uint256"
        }
      ],
      "stateMutability": "view",
      "type": "function"
    },
    {
      "inputs": [
        {
          "internalType": "string",
          "name": "tokenURI",
          "type": "string"
        }
      ],
      "name": "claimItem",
      "outputs": [
        {
          "internalType": "uint256",
          "name": "",
          "type": "uint256"
        }
      ],
      "stateMutability": "nonpayable",
      "type": "function"
    },
    {
      "inputs": [
        {
          "internalType": "uint256",
          "name": "tokenId",
          "type": "uint256"
        }
      ],
      "name": "getApproved",
      "outputs": [
        {
          "internalType": "address",
          "name": "",
          "type": "address"
        }
      ],
      "stateMutability": "view",
      "type": "function"
    },
    {
      "inputs": [
        {
          "internalType": "address",
          "name": "owner",
          "type": "address"
        },
        {
          "internalType": "address",
          "name": "operator",
          "type": "address"
        }
      ],
      "name": "isApprovedForAll",
      "outputs": [
        {
          "internalType": "bool",
          "name": "",
          "type": "bool"
        }
      ],
      "stateMutability": "view",
      "type": "function"
    },
    {
      "inputs": [],
      "name": "name",
      "outputs": [
        {
          "internalType": "string",
          "name": "",
          "type": "string"
        }
      ],
      "stateMutability": "view",
      "type": "function"
    },
    {
      "inputs": [],
      "name": "owner",
      "outputs": [
        {
          "internalType": "address",
          "name": "",
          "type": "address"
        }
      ],
      "stateMutability": "view",
      "type": "function"
    },
    {
      "inputs": [
        {
          "internalType": "uint256",
          "name": "tokenId",
          "type": "uint256"
        }
      ],
      "name": "ownerOf",
      "outputs": [
        {
          "internalType": "address",
          "name": "",
          "type": "address"
        }
      ],
      "stateMutability": "view",
      "type": "function"
    },
    {
      "inputs": [],
      "name": "renounceOwnership",
      "outputs": [],
      "stateMutability": "nonpayable",
      "type": "function"
    },
    {
      "inputs": [
        {
          "internalType": "address",
          "name": "from",
          "type": "address"
        },
        {
          "internalType": "address",
          "name": "to",
          "type": "address"
        },
        {
          "internalType": "uint256",
          "name": "tokenId",
          "type": "uint256"
        }
      ],
      "name": "safeTransferFrom",
      "outputs": [],
      "stateMutability": "nonpayable",
      "type": "function"
    },
    {
      "inputs": [
        {
          "internalType": "address",
          "name": "from",
          "type": "address"
        },
        {
          "internalType": "address",
          "name": "to",
          "type": "address"
        },
        {
          "internalType": "uint256",
          "name": "tokenId",
          "type": "uint256"
        },
        {
          "internalType": "bytes",
          "name": "data",
          "type": "bytes"
        }
      ],
      "name": "safeTransferFrom",
      "outputs": [],
      "stateMutability": "nonpayable",
      "type": "function"
    },
    {
      "inputs": [
        {
          "internalType": "address",
          "name": "operator",
          "type": "address"
        },
        {
          "internalType": "bool",
          "name": "approved",
          "type": "bool"
        }
      ],
      "name": "setApprovalForAll",
      "outputs": [],
      "stateMutability": "nonpayable",
      "type": "function"
    },
    {
      "inputs": [
        {
          "internalType": "string",
          "name": "baseURI_",
          "type": "string"
        }
      ],
      "name": "setBaseURI",
      "outputs": [],
      "stateMutability": "nonpayable",
      "type": "function"
    },
    {
      "inputs": [
        {
          "internalType": "bytes4",
          "name": "interfaceId",
          "type": "bytes4"
        }
      ],
      "name": "supportsInterface",
      "outputs": [
        {
          "internalType": "bool",
          "name": "",
          "type": "bool"
        }
      ],
      "stateMutability": "view",
      "type": "function"
    },
    {
      "inputs": [],
      "name": "symbol",
      "outputs": [
        {
          "internalType": "string",
          "name": "",
          "type": "string"
        }
      ],
      "stateMutability": "view",
      "type": "function"
    },
    {
      "inputs": [
        {
          "internalType": "uint256",
          "name": "tokenId",
          "type": "uint256"
        }
      ],
      "name": "tokenURI",
      "outputs": [
        {
          "internalType": "string",
          "name": "",
          "type": "string"
        }
      ],
      "stateMutability": "view",
      "type": "function"
    },
    {
      "inputs": [],
      "name": "totalSupply",
      "outputs": [
        {
          "internalType": "uint256",
          "name": "",
          "type": "uint256"
        }
      ],
      "stateMutability": "view",
      "type": "function"
    },
    {
      "inputs": [
        {
          "internalType": "address",
          "name": "from",
          "type": "address"
        },
        {
          "internalType": "address",
          "name": "to",
          "type": "address"
        },
        {
          "internalType": "uint256",
          "name": "tokenId",
          "type": "uint256"
        }
      ],
      "name": "transferFrom",
      "outputs": [],
      "stateMutability": "nonpayable",
      "type": "function"
    },
    {
      "inputs": [
        {
          "internalType": "address",
          "name": "newOwner",
          "type": "address"
        }
      ],
      "name": "transferOwnership",
      "outputs": [],
      "stateMutability": "nonpayable",
      "type": "function"
    }
  ],
  "bytecode": "0x60806040523480156200001157600080fd5b5060405162001ae138038062001ae1833981016040819052620000349162000220565b8181620000413362000077565b815162000056906001906020850190620000c7565b5080516200006c906002906020840190620000c7565b5050505050620002da565b600080546001600160a01b038381166001600160a01b0319831681178455604051919092169283917f8be0079c531659141344cd1fd0a4f28419497f9722a3daafe3b4186f6b6457e09190a35050565b828054620000d59062000287565b90600052602060002090601f016020900481019282620000f9576000855562000144565b82601f106200011457805160ff191683800117855562000144565b8280016001018555821562000144579182015b828111156200014457825182559160200191906001019062000127565b506200015292915062000156565b5090565b5b8082111562000152576000815560010162000157565b600082601f8301126200017e578081fd5b81516001600160401b03808211156200019b576200019b620002c4565b604051601f8301601f19908116603f01168101908282118183101715620001c657620001c6620002c4565b81604052838152602092508683858801011115620001e2578485fd5b8491505b83821015620002055785820183015181830184015290820190620001e6565b838211156200021657848385830101525b9695505050505050565b6000806040838503121562000233578182fd5b82516001600160401b03808211156200024a578384fd5b62000258868387016200016d565b935060208501519150808211156200026e578283fd5b506200027d858286016200016d565b9150509250929050565b600181811c908216806200029c57607f821691505b60208210811415620002be57634e487b7160e01b600052602260045260246000fd5b50919050565b634e487b7160e01b600052604160045260246000fd5b6117f780620002ea6000396000f3fe608060405234801561001057600080fd5b50600436106101215760003560e01c806370a08231116100ad578063a850e8bd11610071578063a850e8bd1461024c578063b88d4fde1461025f578063c87b56dd14610272578063e985e9c514610285578063f2fde38b146102c157600080fd5b806370a0823114610205578063715018a6146102185780638da5cb5b1461022057806395d89b4114610231578063a22cb4651461023957600080fd5b806318160ddd116100f457806318160ddd146101a357806323b872dd146101b957806342842e0e146101cc57806355f804b3146101df5780636352211e146101f257600080fd5b806301ffc9a71461012657806306fdde031461014e578063081812fc14610163578063095ea7b31461018e575b600080fd5b610139610134366004611473565b6102d4565b60405190151581526020015b60405180910390f35b610156610326565b60405161014591906115dd565b6101766101713660046114f1565b6103b8565b6040516001600160a01b039091168152602001610145565b6101a161019c36600461144a565b6103df565b005b6101ab6104fa565b604051908152602001610145565b6101a16101c736600461135c565b61050a565b6101a16101da36600461135c565b61053b565b6101a16101ed3660046114ab565b610556565b6101766102003660046114f1565b610575565b6101ab610213366004611309565b6105d5565b6101a161065b565b6000546001600160a01b0316610176565b61015661066f565b6101a1610247366004611410565b61067e565b6101ab61025a3660046114ab565b610689565b6101a161026d366004611397565b6106ba565b6101566102803660046114f1565b6106f2565b61013961029336600461132a565b6001600160a01b03918216600090815260066020908152604080832093909416825291909152205460ff1690565b6101a16102cf366004611309565b610874565b60006001600160e01b031982166380ac58cd60e01b148061030557506001600160e01b03198216635b5e139f60e01b145b8061032057506301ffc9a760e01b6001600160e01b03198316145b92915050565b606060018054610335906116ff565b80601f0160208091040260200160405190810160405280929190818152602001828054610361906116ff565b80156103ae5780601f10610383576101008083540402835291602001916103ae565b820191906000526020600020905b81548152906001019060200180831161039157829003601f168201915b5050505050905090565b60006103c3826108ed565b506000908152600560205260409020546001600160a01b031690565b60006103ea82610575565b9050806001600160a01b0316836001600160a01b0316141561045d5760405162461bcd60e51b815260206004820152602160248201527f4552433732313a20617070726f76616c20746f2063757272656e74206f776e656044820152603960f91b60648201526084015b60405180910390fd5b336001600160a01b038216148061047957506104798133610293565b6104eb5760405162461bcd60e51b815260206004820152603e60248201527f4552433732313a20617070726f76652063616c6c6572206973206e6f7420746f60448201527f6b656e206f776e6572206e6f7220617070726f76656420666f7220616c6c00006064820152608401610454565b6104f5838361094c565b505050565b600061050560075490565b905090565b61051433826109ba565b6105305760405162461bcd60e51b815260040161045490611642565b6104f5838383610a39565b6104f5838383604051806020016040528060008152506106ba565b61055e610bd5565b80516105719060099060208401906111de565b5050565b6000818152600360205260408120546001600160a01b0316806103205760405162461bcd60e51b8152602060048201526018602482015277115490cdcc8c4e881a5b9d985b1a59081d1bdad95b88125160421b6044820152606401610454565b60006001600160a01b03821661063f5760405162461bcd60e51b815260206004820152602960248201527f4552433732313a2061646472657373207a65726f206973206e6f7420612076616044820152683634b21037bbb732b960b91b6064820152608401610454565b506001600160a01b031660009081526004602052604090205490565b610663610bd5565b61066d6000610c2f565b565b606060028054610335906116ff565b610571338383610c7f565b6000610699600780546001019055565b60006106a460075490565b90506106b03382610d4e565b6103208184610d68565b6106c433836109ba565b6106e05760405162461bcd60e51b815260040161045490611642565b6106ec84848484610e00565b50505050565b6000818152600360205260409020546060906001600160a01b03166107715760405162461bcd60e51b815260206004820152602f60248201527f4552433732314d657461646174613a2055524920717565727920666f72206e6f60448201526e3732bc34b9ba32b73a103a37b5b2b760891b6064820152608401610454565b6000828152600860205260408120805461078a906116ff565b80601f01602080910402602001604051908101604052809291908181526020018280546107b6906116ff565b80156108035780601f106107d857610100808354040283529160200191610803565b820191906000526020600020905b8154815290600101906020018083116107e657829003601f168201915b505050505090506000610814610e33565b9050805160001415610827575092915050565b815115610859578082604051602001610841929190611535565b60405160208183030381529060405292505050919050565b8061086385610e42565b604051602001610841929190611564565b61087c610bd5565b6001600160a01b0381166108e15760405162461bcd60e51b815260206004820152602660248201527f4f776e61626c653a206e6577206f776e657220697320746865207a65726f206160448201526564647265737360d01b6064820152608401610454565b6108ea81610c2f565b50565b6000818152600360205260409020546001600160a01b03166108ea5760405162461bcd60e51b8152602060048201526018602482015277115490cdcc8c4e881a5b9d985b1a59081d1bdad95b88125160421b6044820152606401610454565b600081815260056020526040902080546001600160a01b0319166001600160a01b038416908117909155819061098182610575565b6001600160a01b03167f8c5be1e5ebec7d5bd14f71427d1e84f3dd0314c0f7b2291e5b200ac8c7c3b92560405160405180910390a45050565b6000806109c683610575565b9050806001600160a01b0316846001600160a01b03161480610a0d57506001600160a01b0380821660009081526006602090815260408083209388168352929052205460ff165b80610a315750836001600160a01b0316610a26846103b8565b6001600160a01b0316145b949350505050565b826001600160a01b0316610a4c82610575565b6001600160a01b031614610ab05760405162461bcd60e51b815260206004820152602560248201527f4552433732313a207472616e736665722066726f6d20696e636f72726563742060448201526437bbb732b960d91b6064820152608401610454565b6001600160a01b038216610b125760405162461bcd60e51b8152602060048201526024808201527f4552433732313a207472616e7366657220746f20746865207a65726f206164646044820152637265737360e01b6064820152608401610454565b610b1d60008261094c565b6001600160a01b0383166000908152600460205260408120805460019290610b469084906116bc565b90915550506001600160a01b0382166000908152600460205260408120805460019290610b74908490611690565b909155505060008181526003602052604080822080546001600160a01b0319166001600160a01b0386811691821790925591518493918716917fddf252ad1be2c89b69c2b068fc378daa952ba7f163c4a11628f55a4df523b3ef91a4505050565b6000546001600160a01b0316331461066d5760405162461bcd60e51b815260206004820181905260248201527f4f776e61626c653a2063616c6c6572206973206e6f7420746865206f776e65726044820152606401610454565b600080546001600160a01b038381166001600160a01b0319831681178455604051919092169283917f8be0079c531659141344cd1fd0a4f28419497f9722a3daafe3b4186f6b6457e09190a35050565b816001600160a01b0316836001600160a01b03161415610ce15760405162461bcd60e51b815260206004820152601960248201527f4552433732313a20617070726f766520746f2063616c6c6572000000000000006044820152606401610454565b6001600160a01b03838116600081815260066020908152604080832094871680845294825291829020805460ff191686151590811790915591519182527f17307eab39ab6107e8899845ad3d59bd9653f200f220920489ca2b5937696c31910160405180910390a3505050565b610571828260405180602001604052806000815250610f5c565b6000828152600360205260409020546001600160a01b0316610de15760405162461bcd60e51b815260206004820152602c60248201527f4552433732314d657461646174613a2055524920736574206f66206e6f6e657860448201526b34b9ba32b73a103a37b5b2b760a11b6064820152608401610454565b600082815260086020908152604090912082516104f5928401906111de565b610e0b848484610a39565b610e1784848484610f8f565b6106ec5760405162461bcd60e51b8152600401610454906115f0565b606060098054610335906116ff565b606081610e665750506040805180820190915260018152600360fc1b602082015290565b8160005b8115610e905780610e7a8161173a565b9150610e899050600a836116a8565b9150610e6a565b60008167ffffffffffffffff811115610eb957634e487b7160e01b600052604160045260246000fd5b6040519080825280601f01601f191660200182016040528015610ee3576020820181803683370190505b5090505b8415610a3157610ef86001836116bc565b9150610f05600a86611755565b610f10906030611690565b60f81b818381518110610f3357634e487b7160e01b600052603260045260246000fd5b60200101906001600160f81b031916908160001a905350610f55600a866116a8565b9450610ee7565b610f66838361109c565b610f736000848484610f8f565b6104f55760405162461bcd60e51b8152600401610454906115f0565b60006001600160a01b0384163b1561109157604051630a85bd0160e11b81526001600160a01b0385169063150b7a0290610fd39033908990889088906004016115a0565b602060405180830381600087803b158015610fed57600080fd5b505af192505050801561101d575060408051601f3d908101601f1916820190925261101a9181019061148f565b60015b611077573d80801561104b576040519150601f19603f3d011682016040523d82523d6000602084013e611050565b606091505b50805161106f5760405162461bcd60e51b8152600401610454906115f0565b805181602001fd5b6001600160e01b031916630a85bd0160e11b149050610a31565b506001949350505050565b6001600160a01b0382166110f25760405162461bcd60e51b815260206004820181905260248201527f4552433732313a206d696e7420746f20746865207a65726f20616464726573736044820152606401610454565b6000818152600360205260409020546001600160a01b0316156111575760405162461bcd60e51b815260206004820152601c60248201527f4552433732313a20746f6b656e20616c7265616479206d696e746564000000006044820152606401610454565b6001600160a01b0382166000908152600460205260408120805460019290611180908490611690565b909155505060008181526003602052604080822080546001600160a01b0319166001600160a01b03861690811790915590518392907fddf252ad1be2c89b69c2b068fc378daa952ba7f163c4a11628f55a4df523b3ef908290a45050565b8280546111ea906116ff565b90600052602060002090601f01602090048101928261120c5760008555611252565b82601f1061122557805160ff1916838001178555611252565b82800160010185558215611252579182015b82811115611252578251825591602001919060010190611237565b5061125e929150611262565b5090565b5b8082111561125e5760008155600101611263565b600067ffffffffffffffff8084111561129257611292611795565b604051601f8501601f19908116603f011681019082821181831017156112ba576112ba611795565b816040528093508581528686860111156112d357600080fd5b858560208301376000602087830101525050509392505050565b80356001600160a01b038116811461130457600080fd5b919050565b60006020828403121561131a578081fd5b611323826112ed565b9392505050565b6000806040838503121561133c578081fd5b611345836112ed565b9150611353602084016112ed565b90509250929050565b600080600060608486031215611370578081fd5b611379846112ed565b9250611387602085016112ed565b9150604084013590509250925092565b600080600080608085870312156113ac578081fd5b6113b5856112ed565b93506113c3602086016112ed565b925060408501359150606085013567ffffffffffffffff8111156113e5578182fd5b8501601f810187136113f5578182fd5b61140487823560208401611277565b91505092959194509250565b60008060408385031215611422578182fd5b61142b836112ed565b91506020830135801515811461143f578182fd5b809150509250929050565b6000806040838503121561145c578182fd5b611465836112ed565b946020939093013593505050565b600060208284031215611484578081fd5b8135611323816117ab565b6000602082840312156114a0578081fd5b8151611323816117ab565b6000602082840312156114bc578081fd5b813567ffffffffffffffff8111156114d2578182fd5b8201601f810184136114e2578182fd5b610a3184823560208401611277565b600060208284031215611502578081fd5b5035919050565b600081518084526115218160208601602086016116d3565b601f01601f19169290920160200192915050565b600083516115478184602088016116d3565b83519083019061155b8183602088016116d3565b01949350505050565b600083516115768184602088016116d3565b602f60f81b90830190815283516115948160018401602088016116d3565b01600101949350505050565b6001600160a01b03858116825284166020820152604081018390526080606082018190526000906115d390830184611509565b9695505050505050565b6020815260006113236020830184611509565b60208082526032908201527f4552433732313a207472616e7366657220746f206e6f6e20455243373231526560408201527131b2b4bb32b91034b6b83632b6b2b73a32b960711b606082015260800190565b6020808252602e908201527f4552433732313a2063616c6c6572206973206e6f7420746f6b656e206f776e6560408201526d1c881b9bdc88185c1c1c9bdd995960921b606082015260800190565b600082198211156116a3576116a3611769565b500190565b6000826116b7576116b761177f565b500490565b6000828210156116ce576116ce611769565b500390565b60005b838110156116ee5781810151838201526020016116d6565b838111156106ec5750506000910152565b600181811c9082168061171357607f821691505b6020821081141561173457634e487b7160e01b600052602260045260246000fd5b50919050565b600060001982141561174e5761174e611769565b5060010190565b6000826117645761176461177f565b500690565b634e487b7160e01b600052601160045260246000fd5b634e487b7160e01b600052601260045260246000fd5b634e487b7160e01b600052604160045260246000fd5b6001600160e01b0319811681146108ea57600080fdfea264697066735822122072511f68a76506e52b23a8765176d84a82d2cac067c5c18c1e7ecf016c01291764736f6c63430008040033",
  "linkReferences": {},
  "deployedLinkReferences": {}
}