{
  "_format": "hh-sol-artifact-1",
  "contractName": "TokenERC721",
  "sourceName": "contracts/TokenERC721.sol",
  "abi": [
    {
      "inputs": [
        {
          "internalType": "string",
          "name": "name",
          "type": "string"
        },
        {
          "internalType": "string",
          "name": "symbol",
          "type": "string"
        }
      ],
      "stateMutability": "nonpayable",
      "type": "constructor"
    },
    {
      "anonymous": false,
      "inputs": [
        {
          "indexed": true,
          "internalType": "address",
          "name": "owner",
          "type": "address"
        },
        {
          "indexed": true,
          "internalType": "address",
          "name": "approved",
          "type": "address"
        },
        {
          "indexed": true,
          "internalType": "uint256",
          "name": "tokenId",
          "type": "uint256"
        }
      ],
      "name": "Approval",
      "type": "event"
    },
    {
      "anonymous": false,
      "inputs": [
        {
          "indexed": true,
          "internalType": "address",
          "name": "owner",
          "type": "address"
        },
        {
          "indexed": true,
          "internalType": "address",
          "name": "operator",
          "type": "address"
        },
        {
          "indexed": false,
          "internalType": "bool",
          "name": "approved",
          "type": "bool"
        }
      ],
      "name": "ApprovalForAll",
      "type": "event"
    },
    {
      "anonymous": false,
      "inputs": [
        {
          "indexed": true,
          "internalType": "address",
          "name": "previousOwner",
          "type": "address"
        },
        {
          "indexed": true,
          "internalType": "address",
          "name": "newOwner",
          "type": "address"
        }
      ],
      "name": "OwnershipTransferred",
      "type": "event"
    },
    {
      "anonymous": false,
      "inputs": [
        {
          "indexed": true,
          "internalType": "address",
          "name": "from",
          "type": "address"
        },
        {
          "indexed": true,
          "internalType": "address",
          "name": "to",
          "type": "address"
        },
        {
          "indexed": true,
          "internalType": "uint256",
          "name": "tokenId",
          "type": "uint256"
        }
      ],
      "name": "Transfer",
      "type": "event"
    },
    {
      "inputs": [
        {
          "internalType": "address",
          "name": "to",
          "type": "address"
        },
        {
          "internalType": "uint256",
          "name": "tokenId",
          "type": "uint256"
        }
      ],
      "name": "approve",
      "outputs": [],
      "stateMutability": "nonpayable",
      "type": "function"
    },
    {
      "inputs": [
        {
          "internalType": "address",
          "name": "owner",
          "type": "address"
        }
      ],
      "name": "balanceOf",
      "outputs": [
        {
          "internalType": "uint256",
          "name": "",
          "type": "uint256"
        }
      ],
      "stateMutability": "view",
      "type": "function"
    },
    {
      "inputs": [
        {
          "internalType": "string",
          "name": "tokenURI",
          "type": "string"
        }
      ],
      "name": "claimItem",
      "outputs": [
        {
          "internalType": "uint256",
          "name": "",
          "type": "uint256"
        }
      ],
      "stateMutability": "nonpayable",
      "type": "function"
    },
    {
      "inputs": [
        {
          "internalType": "uint256",
          "name": "tokenId",
          "type": "uint256"
        }
      ],
      "name": "getApproved",
      "outputs": [
        {
          "internalType": "address",
          "name": "",
          "type": "address"
        }
      ],
      "stateMutability": "view",
      "type": "function"
    },
    {
      "inputs": [
        {
          "internalType": "address",
          "name": "owner",
          "type": "address"
        },
        {
          "internalType": "address",
          "name": "operator",
          "type": "address"
        }
      ],
      "name": "isApprovedForAll",
      "outputs": [
        {
          "internalType": "bool",
          "name": "",
          "type": "bool"
        }
      ],
      "stateMutability": "view",
      "type": "function"
    },
    {
      "inputs": [],
      "name": "name",
      "outputs": [
        {
          "internalType": "string",
          "name": "",
          "type": "string"
        }
      ],
      "stateMutability": "view",
      "type": "function"
    },
    {
      "inputs": [],
      "name": "owner",
      "outputs": [
        {
          "internalType": "address",
          "name": "",
          "type": "address"
        }
      ],
      "stateMutability": "view",
      "type": "function"
    },
    {
      "inputs": [
        {
          "internalType": "uint256",
          "name": "tokenId",
          "type": "uint256"
        }
      ],
      "name": "ownerOf",
      "outputs": [
        {
          "internalType": "address",
          "name": "",
          "type": "address"
        }
      ],
      "stateMutability": "view",
      "type": "function"
    },
    {
      "inputs": [],
      "name": "renounceOwnership",
      "outputs": [],
      "stateMutability": "nonpayable",
      "type": "function"
    },
    {
      "inputs": [
        {
          "internalType": "address",
          "name": "from",
          "type": "address"
        },
        {
          "internalType": "address",
          "name": "to",
          "type": "address"
        },
        {
          "internalType": "uint256",
          "name": "tokenId",
          "type": "uint256"
        }
      ],
      "name": "safeTransferFrom",
      "outputs": [],
      "stateMutability": "nonpayable",
      "type": "function"
    },
    {
      "inputs": [
        {
          "internalType": "address",
          "name": "from",
          "type": "address"
        },
        {
          "internalType": "address",
          "name": "to",
          "type": "address"
        },
        {
          "internalType": "uint256",
          "name": "tokenId",
          "type": "uint256"
        },
        {
          "internalType": "bytes",
          "name": "data",
          "type": "bytes"
        }
      ],
      "name": "safeTransferFrom",
      "outputs": [],
      "stateMutability": "nonpayable",
      "type": "function"
    },
    {
      "inputs": [
        {
          "internalType": "address",
          "name": "operator",
          "type": "address"
        },
        {
          "internalType": "bool",
          "name": "approved",
          "type": "bool"
        }
      ],
      "name": "setApprovalForAll",
      "outputs": [],
      "stateMutability": "nonpayable",
      "type": "function"
    },
    {
      "inputs": [
        {
          "internalType": "string",
          "name": "baseURI_",
          "type": "string"
        }
      ],
      "name": "setBaseURI",
      "outputs": [],
      "stateMutability": "nonpayable",
      "type": "function"
    },
    {
      "inputs": [
        {
          "internalType": "bytes4",
          "name": "interfaceId",
          "type": "bytes4"
        }
      ],
      "name": "supportsInterface",
      "outputs": [
        {
          "internalType": "bool",
          "name": "",
          "type": "bool"
        }
      ],
      "stateMutability": "view",
      "type": "function"
    },
    {
      "inputs": [],
      "name": "symbol",
      "outputs": [
        {
          "internalType": "string",
          "name": "",
          "type": "string"
        }
      ],
      "stateMutability": "view",
      "type": "function"
    },
    {
      "inputs": [
        {
          "internalType": "uint256",
          "name": "tokenId",
          "type": "uint256"
        }
      ],
      "name": "tokenURI",
      "outputs": [
        {
          "internalType": "string",
          "name": "",
          "type": "string"
        }
      ],
      "stateMutability": "view",
      "type": "function"
    },
    {
      "inputs": [],
      "name": "totalSupply",
      "outputs": [
        {
          "internalType": "uint256",
          "name": "",
          "type": "uint256"
        }
      ],
      "stateMutability": "view",
      "type": "function"
    },
    {
      "inputs": [
        {
          "internalType": "address",
          "name": "from",
          "type": "address"
        },
        {
          "internalType": "address",
          "name": "to",
          "type": "address"
        },
        {
          "internalType": "uint256",
          "name": "tokenId",
          "type": "uint256"
        }
      ],
      "name": "transferFrom",
      "outputs": [],
      "stateMutability": "nonpayable",
      "type": "function"
    },
    {
      "inputs": [
        {
          "internalType": "address",
          "name": "newOwner",
          "type": "address"
        }
      ],
      "name": "transferOwnership",
      "outputs": [],
      "stateMutability": "nonpayable",
      "type": "function"
    }
  ],
  "bytecode": "0x60806040523480156200001157600080fd5b506040516200331e3803806200331e8339818101604052810190620000379190620003ae565b8181620000596200004d6200009560201b60201c565b6200009d60201b60201c565b81600190805190602001906200007192919062000161565b5080600290805190602001906200008a92919062000161565b505050505062000498565b600033905090565b60008060009054906101000a900473ffffffffffffffffffffffffffffffffffffffff169050816000806101000a81548173ffffffffffffffffffffffffffffffffffffffff021916908373ffffffffffffffffffffffffffffffffffffffff1602179055508173ffffffffffffffffffffffffffffffffffffffff168173ffffffffffffffffffffffffffffffffffffffff167f8be0079c531659141344cd1fd0a4f28419497f9722a3daafe3b4186f6b6457e060405160405180910390a35050565b8280546200016f9062000462565b90600052602060002090601f016020900481019282620001935760008555620001df565b82601f10620001ae57805160ff1916838001178555620001df565b82800160010185558215620001df579182015b82811115620001de578251825591602001919060010190620001c1565b5b509050620001ee9190620001f2565b5090565b5b808211156200020d576000816000905550600101620001f3565b5090565b6000604051905090565b600080fd5b600080fd5b600080fd5b600080fd5b6000601f19601f8301169050919050565b7f4e487b7100000000000000000000000000000000000000000000000000000000600052604160045260246000fd5b6200027a826200022f565b810181811067ffffffffffffffff821117156200029c576200029b62000240565b5b80604052505050565b6000620002b162000211565b9050620002bf82826200026f565b919050565b600067ffffffffffffffff821115620002e257620002e162000240565b5b620002ed826200022f565b9050602081019050919050565b60005b838110156200031a578082015181840152602081019050620002fd565b838111156200032a576000848401525b50505050565b6000620003476200034184620002c4565b620002a5565b9050828152602081018484840111156200036657620003656200022a565b5b62000373848285620002fa565b509392505050565b600082601f83011262000393576200039262000225565b5b8151620003a584826020860162000330565b91505092915050565b60008060408385031215620003c857620003c76200021b565b5b600083015167ffffffffffffffff811115620003e957620003e862000220565b5b620003f7858286016200037b565b925050602083015167ffffffffffffffff8111156200041b576200041a62000220565b5b62000429858286016200037b565b9150509250929050565b7f4e487b7100000000000000000000000000000000000000000000000000000000600052602260045260246000fd5b600060028204905060018216806200047b57607f821691505b6020821081141562000492576200049162000433565b5b50919050565b612e7680620004a86000396000f3fe608060405234801561001057600080fd5b50600436106101215760003560e01c806370a08231116100ad578063a850e8bd11610071578063a850e8bd146102f4578063b88d4fde14610324578063c87b56dd14610340578063e985e9c514610370578063f2fde38b146103a057610121565b806370a0823114610262578063715018a6146102925780638da5cb5b1461029c57806395d89b41146102ba578063a22cb465146102d857610121565b806318160ddd116100f457806318160ddd146101c057806323b872dd146101de57806342842e0e146101fa57806355f804b3146102165780636352211e1461023257610121565b806301ffc9a71461012657806306fdde0314610156578063081812fc14610174578063095ea7b3146101a4575b600080fd5b610140600480360381019061013b9190611c4e565b6103bc565b60405161014d9190611c96565b60405180910390f35b61015e61049e565b60405161016b9190611d4a565b60405180910390f35b61018e60048036038101906101899190611da2565b610530565b60405161019b9190611e10565b60405180910390f35b6101be60048036038101906101b99190611e57565b610576565b005b6101c861068e565b6040516101d59190611ea6565b60405180910390f35b6101f860048036038101906101f39190611ec1565b61069f565b005b610214600480360381019061020f9190611ec1565b6106ff565b005b610230600480360381019061022b9190612049565b61071f565b005b61024c60048036038101906102479190611da2565b610741565b6040516102599190611e10565b60405180910390f35b61027c60048036038101906102779190612092565b6107f3565b6040516102899190611ea6565b60405180910390f35b61029a6108ab565b005b6102a46108bf565b6040516102b19190611e10565b60405180910390f35b6102c26108e8565b6040516102cf9190611d4a565b60405180910390f35b6102f260048036038101906102ed91906120eb565b61097a565b005b61030e60048036038101906103099190612049565b610990565b60405161031b9190611ea6565b60405180910390f35b61033e600480360381019061033991906121cc565b6109c7565b005b61035a60048036038101906103559190611da2565b610a29565b6040516103679190611d4a565b60405180910390f35b61038a6004803603810190610385919061224f565b610b9c565b6040516103979190611c96565b60405180910390f35b6103ba60048036038101906103b59190612092565b610c30565b005b60007f80ac58cd000000000000000000000000000000000000000000000000000000007bffffffffffffffffffffffffffffffffffffffffffffffffffffffff1916827bffffffffffffffffffffffffffffffffffffffffffffffffffffffff1916148061048757507f5b5e139f000000000000000000000000000000000000000000000000000000007bffffffffffffffffffffffffffffffffffffffffffffffffffffffff1916827bffffffffffffffffffffffffffffffffffffffffffffffffffffffff1916145b80610497575061049682610cb4565b5b9050919050565b6060600180546104ad906122be565b80601f01602080910402602001604051908101604052809291908181526020018280546104d9906122be565b80156105265780601f106104fb57610100808354040283529160200191610526565b820191906000526020600020905b81548152906001019060200180831161050957829003601f168201915b5050505050905090565b600061053b82610d1e565b6005600083815260200190815260200160002060009054906101000a900473ffffffffffffffffffffffffffffffffffffffff169050919050565b600061058182610741565b90508073ffffffffffffffffffffffffffffffffffffffff168373ffffffffffffffffffffffffffffffffffffffff1614156105f2576040517f08c379a00000000000000000000000000000000000000000000000000000000081526004016105e990612362565b60405180910390fd5b8073ffffffffffffffffffffffffffffffffffffffff16610611610d69565b73ffffffffffffffffffffffffffffffffffffffff161480610640575061063f8161063a610d69565b610b9c565b5b61067f576040517f08c379a0000000000000000000000000000000000000000000000000000000008152600401610676906123f4565b60405180910390fd5b6106898383610d71565b505050565b600061069a6007610e2a565b905090565b6106b06106aa610d69565b82610e38565b6106ef576040517f08c379a00000000000000000000000000000000000000000000000000000000081526004016106e690612486565b60405180910390fd5b6106fa838383610ecd565b505050565b61071a838383604051806020016040528060008152506109c7565b505050565b610727611134565b806009908051906020019061073d929190611b3f565b5050565b6000806003600084815260200190815260200160002060009054906101000a900473ffffffffffffffffffffffffffffffffffffffff169050600073ffffffffffffffffffffffffffffffffffffffff168173ffffffffffffffffffffffffffffffffffffffff1614156107ea576040517f08c379a00000000000000000000000000000000000000000000000000000000081526004016107e1906124f2565b60405180910390fd5b80915050919050565b60008073ffffffffffffffffffffffffffffffffffffffff168273ffffffffffffffffffffffffffffffffffffffff161415610864576040517f08c379a000000000000000000000000000000000000000000000000000000000815260040161085b90612584565b60405180910390fd5b600460008373ffffffffffffffffffffffffffffffffffffffff1673ffffffffffffffffffffffffffffffffffffffff168152602001908152602001600020549050919050565b6108b3611134565b6108bd60006111b2565b565b60008060009054906101000a900473ffffffffffffffffffffffffffffffffffffffff16905090565b6060600280546108f7906122be565b80601f0160208091040260200160405190810160405280929190818152602001828054610923906122be565b80156109705780601f1061094557610100808354040283529160200191610970565b820191906000526020600020905b81548152906001019060200180831161095357829003601f168201915b5050505050905090565b61098c610985610d69565b8383611276565b5050565b600061099c60076113e3565b60006109a86007610e2a565b90506109b433826113f9565b6109be8184611417565b80915050919050565b6109d86109d2610d69565b83610e38565b610a17576040517f08c379a0000000000000000000000000000000000000000000000000000000008152600401610a0e90612486565b60405180910390fd5b610a238484848461148b565b50505050565b6060610a34826114e7565b610a73576040517f08c379a0000000000000000000000000000000000000000000000000000000008152600401610a6a90612616565b60405180910390fd5b6000600860008481526020019081526020016000208054610a93906122be565b80601f0160208091040260200160405190810160405280929190818152602001828054610abf906122be565b8015610b0c5780601f10610ae157610100808354040283529160200191610b0c565b820191906000526020600020905b815481529060010190602001808311610aef57829003601f168201915b505050505090506000610b1d611553565b9050600081511415610b33578192505050610b97565b600082511115610b68578082604051602001610b50929190612672565b60405160208183030381529060405292505050610b97565b80610b72856115e5565b604051602001610b839291906126e2565b604051602081830303815290604052925050505b919050565b6000600660008473ffffffffffffffffffffffffffffffffffffffff1673ffffffffffffffffffffffffffffffffffffffff16815260200190815260200160002060008373ffffffffffffffffffffffffffffffffffffffff1673ffffffffffffffffffffffffffffffffffffffff16815260200190815260200160002060009054906101000a900460ff16905092915050565b610c38611134565b600073ffffffffffffffffffffffffffffffffffffffff168173ffffffffffffffffffffffffffffffffffffffff161415610ca8576040517f08c379a0000000000000000000000000000000000000000000000000000000008152600401610c9f90612783565b60405180910390fd5b610cb1816111b2565b50565b60007f01ffc9a7000000000000000000000000000000000000000000000000000000007bffffffffffffffffffffffffffffffffffffffffffffffffffffffff1916827bffffffffffffffffffffffffffffffffffffffffffffffffffffffff1916149050919050565b610d27816114e7565b610d66576040517f08c379a0000000000000000000000000000000000000000000000000000000008152600401610d5d906124f2565b60405180910390fd5b50565b600033905090565b816005600083815260200190815260200160002060006101000a81548173ffffffffffffffffffffffffffffffffffffffff021916908373ffffffffffffffffffffffffffffffffffffffff160217905550808273ffffffffffffffffffffffffffffffffffffffff16610de483610741565b73ffffffffffffffffffffffffffffffffffffffff167f8c5be1e5ebec7d5bd14f71427d1e84f3dd0314c0f7b2291e5b200ac8c7c3b92560405160405180910390a45050565b600081600001549050919050565b600080610e4483610741565b90508073ffffffffffffffffffffffffffffffffffffffff168473ffffffffffffffffffffffffffffffffffffffff161480610e865750610e858185610b9c565b5b80610ec457508373ffffffffffffffffffffffffffffffffffffffff16610eac84610530565b73ffffffffffffffffffffffffffffffffffffffff16145b91505092915050565b8273ffffffffffffffffffffffffffffffffffffffff16610eed82610741565b73ffffffffffffffffffffffffffffffffffffffff1614610f43576040517f08c379a0000000000000000000000000000000000000000000000000000000008152600401610f3a90612815565b60405180910390fd5b600073ffffffffffffffffffffffffffffffffffffffff168273ffffffffffffffffffffffffffffffffffffffff161415610fb3576040517f08c379a0000000000000000000000000000000000000000000000000000000008152600401610faa906128a7565b60405180910390fd5b610fbe838383611746565b610fc9600082610d71565b6001600460008573ffffffffffffffffffffffffffffffffffffffff1673ffffffffffffffffffffffffffffffffffffffff168152602001908152602001600020600082825461101991906128f6565b925050819055506001600460008473ffffffffffffffffffffffffffffffffffffffff1673ffffffffffffffffffffffffffffffffffffffff1681526020019081526020016000206000828254611070919061292a565b92505081905550816003600083815260200190815260200160002060006101000a81548173ffffffffffffffffffffffffffffffffffffffff021916908373ffffffffffffffffffffffffffffffffffffffff160217905550808273ffffffffffffffffffffffffffffffffffffffff168473ffffffffffffffffffffffffffffffffffffffff167fddf252ad1be2c89b69c2b068fc378daa952ba7f163c4a11628f55a4df523b3ef60405160405180910390a461112f83838361174b565b505050565b61113c610d69565b73ffffffffffffffffffffffffffffffffffffffff1661115a6108bf565b73ffffffffffffffffffffffffffffffffffffffff16146111b0576040517f08c379a00000000000000000000000000000000000000000000000000000000081526004016111a7906129cc565b60405180910390fd5b565b60008060009054906101000a900473ffffffffffffffffffffffffffffffffffffffff169050816000806101000a81548173ffffffffffffffffffffffffffffffffffffffff021916908373ffffffffffffffffffffffffffffffffffffffff1602179055508173ffffffffffffffffffffffffffffffffffffffff168173ffffffffffffffffffffffffffffffffffffffff167f8be0079c531659141344cd1fd0a4f28419497f9722a3daafe3b4186f6b6457e060405160405180910390a35050565b8173ffffffffffffffffffffffffffffffffffffffff168373ffffffffffffffffffffffffffffffffffffffff1614156112e5576040517f08c379a00000000000000000000000000000000000000000000000000000000081526004016112dc90612a38565b60405180910390fd5b80600660008573ffffffffffffffffffffffffffffffffffffffff1673ffffffffffffffffffffffffffffffffffffffff16815260200190815260200160002060008473ffffffffffffffffffffffffffffffffffffffff1673ffffffffffffffffffffffffffffffffffffffff16815260200190815260200160002060006101000a81548160ff0219169083151502179055508173ffffffffffffffffffffffffffffffffffffffff168373ffffffffffffffffffffffffffffffffffffffff167f17307eab39ab6107e8899845ad3d59bd9653f200f220920489ca2b5937696c31836040516113d69190611c96565b60405180910390a3505050565b6001816000016000828254019250508190555050565b611413828260405180602001604052806000815250611750565b5050565b611420826114e7565b61145f576040517f08c379a000000000000000000000000000000000000000000000000000000000815260040161145690612aca565b60405180910390fd5b80600860008481526020019081526020016000209080519060200190611486929190611b3f565b505050565b611496848484610ecd565b6114a2848484846117ab565b6114e1576040517f08c379a00000000000000000000000000000000000000000000000000000000081526004016114d890612b5c565b60405180910390fd5b50505050565b60008073ffffffffffffffffffffffffffffffffffffffff166003600084815260200190815260200160002060009054906101000a900473ffffffffffffffffffffffffffffffffffffffff1673ffffffffffffffffffffffffffffffffffffffff1614159050919050565b606060098054611562906122be565b80601f016020809104026020016040519081016040528092919081815260200182805461158e906122be565b80156115db5780601f106115b0576101008083540402835291602001916115db565b820191906000526020600020905b8154815290600101906020018083116115be57829003601f168201915b5050505050905090565b6060600082141561162d576040518060400160405280600181526020017f30000000000000000000000000000000000000000000000000000000000000008152509050611741565b600082905060005b6000821461165f57808061164890612b7c565b915050600a826116589190612bf4565b9150611635565b60008167ffffffffffffffff81111561167b5761167a611f1e565b5b6040519080825280601f01601f1916602001820160405280156116ad5781602001600182028036833780820191505090505b5090505b6000851461173a576001826116c691906128f6565b9150600a856116d59190612c25565b60306116e1919061292a565b60f81b8183815181106116f7576116f6612c56565b5b60200101907effffffffffffffffffffffffffffffffffffffffffffffffffffffffffffff1916908160001a905350600a856117339190612bf4565b94506116b1565b8093505050505b919050565b505050565b505050565b61175a8383611942565b61176760008484846117ab565b6117a6576040517f08c379a000000000000000000000000000000000000000000000000000000000815260040161179d90612b5c565b60405180910390fd5b505050565b60006117cc8473ffffffffffffffffffffffffffffffffffffffff16611b1c565b15611935578373ffffffffffffffffffffffffffffffffffffffff1663150b7a026117f5610d69565b8786866040518563ffffffff1660e01b81526004016118179493929190612cda565b602060405180830381600087803b15801561183157600080fd5b505af192505050801561186257506040513d601f19601f8201168201806040525081019061185f9190612d3b565b60015b6118e5573d8060008114611892576040519150601f19603f3d011682016040523d82523d6000602084013e611897565b606091505b506000815114156118dd576040517f08c379a00000000000000000000000000000000000000000000000000000000081526004016118d490612b5c565b60405180910390fd5b805181602001fd5b63150b7a0260e01b7bffffffffffffffffffffffffffffffffffffffffffffffffffffffff1916817bffffffffffffffffffffffffffffffffffffffffffffffffffffffff19161491505061193a565b600190505b949350505050565b600073ffffffffffffffffffffffffffffffffffffffff168273ffffffffffffffffffffffffffffffffffffffff1614156119b2576040517f08c379a00000000000000000000000000000000000000000000000000000000081526004016119a990612db4565b60405180910390fd5b6119bb816114e7565b156119fb576040517f08c379a00000000000000000000000000000000000000000000000000000000081526004016119f290612e20565b60405180910390fd5b611a0760008383611746565b6001600460008473ffffffffffffffffffffffffffffffffffffffff1673ffffffffffffffffffffffffffffffffffffffff1681526020019081526020016000206000828254611a57919061292a565b92505081905550816003600083815260200190815260200160002060006101000a81548173ffffffffffffffffffffffffffffffffffffffff021916908373ffffffffffffffffffffffffffffffffffffffff160217905550808273ffffffffffffffffffffffffffffffffffffffff16600073ffffffffffffffffffffffffffffffffffffffff167fddf252ad1be2c89b69c2b068fc378daa952ba7f163c4a11628f55a4df523b3ef60405160405180910390a4611b186000838361174b565b5050565b6000808273ffffffffffffffffffffffffffffffffffffffff163b119050919050565b828054611b4b906122be565b90600052602060002090601f016020900481019282611b6d5760008555611bb4565b82601f10611b8657805160ff1916838001178555611bb4565b82800160010185558215611bb4579182015b82811115611bb3578251825591602001919060010190611b98565b5b509050611bc19190611bc5565b5090565b5b80821115611bde576000816000905550600101611bc6565b5090565b6000604051905090565b600080fd5b600080fd5b60007fffffffff0000000000000000000000000000000000000000000000000000000082169050919050565b611c2b81611bf6565b8114611c3657600080fd5b50565b600081359050611c4881611c22565b92915050565b600060208284031215611c6457611c63611bec565b5b6000611c7284828501611c39565b91505092915050565b60008115159050919050565b611c9081611c7b565b82525050565b6000602082019050611cab6000830184611c87565b92915050565b600081519050919050565b600082825260208201905092915050565b60005b83811015611ceb578082015181840152602081019050611cd0565b83811115611cfa576000848401525b50505050565b6000601f19601f8301169050919050565b6000611d1c82611cb1565b611d268185611cbc565b9350611d36818560208601611ccd565b611d3f81611d00565b840191505092915050565b60006020820190508181036000830152611d648184611d11565b905092915050565b6000819050919050565b611d7f81611d6c565b8114611d8a57600080fd5b50565b600081359050611d9c81611d76565b92915050565b600060208284031215611db857611db7611bec565b5b6000611dc684828501611d8d565b91505092915050565b600073ffffffffffffffffffffffffffffffffffffffff82169050919050565b6000611dfa82611dcf565b9050919050565b611e0a81611def565b82525050565b6000602082019050611e256000830184611e01565b92915050565b611e3481611def565b8114611e3f57600080fd5b50565b600081359050611e5181611e2b565b92915050565b60008060408385031215611e6e57611e6d611bec565b5b6000611e7c85828601611e42565b9250506020611e8d85828601611d8d565b9150509250929050565b611ea081611d6c565b82525050565b6000602082019050611ebb6000830184611e97565b92915050565b600080600060608486031215611eda57611ed9611bec565b5b6000611ee886828701611e42565b9350506020611ef986828701611e42565b9250506040611f0a86828701611d8d565b9150509250925092565b600080fd5b600080fd5b7f4e487b7100000000000000000000000000000000000000000000000000000000600052604160045260246000fd5b611f5682611d00565b810181811067ffffffffffffffff82111715611f7557611f74611f1e565b5b80604052505050565b6000611f88611be2565b9050611f948282611f4d565b919050565b600067ffffffffffffffff821115611fb457611fb3611f1e565b5b611fbd82611d00565b9050602081019050919050565b82818337600083830152505050565b6000611fec611fe784611f99565b611f7e565b90508281526020810184848401111561200857612007611f19565b5b612013848285611fca565b509392505050565b600082601f8301126120305761202f611f14565b5b8135612040848260208601611fd9565b91505092915050565b60006020828403121561205f5761205e611bec565b5b600082013567ffffffffffffffff81111561207d5761207c611bf1565b5b6120898482850161201b565b91505092915050565b6000602082840312156120a8576120a7611bec565b5b60006120b684828501611e42565b91505092915050565b6120c881611c7b565b81146120d357600080fd5b50565b6000813590506120e5816120bf565b92915050565b6000806040838503121561210257612101611bec565b5b600061211085828601611e42565b9250506020612121858286016120d6565b9150509250929050565b600067ffffffffffffffff82111561214657612145611f1e565b5b61214f82611d00565b9050602081019050919050565b600061216f61216a8461212b565b611f7e565b90508281526020810184848401111561218b5761218a611f19565b5b612196848285611fca565b509392505050565b600082601f8301126121b3576121b2611f14565b5b81356121c384826020860161215c565b91505092915050565b600080600080608085870312156121e6576121e5611bec565b5b60006121f487828801611e42565b945050602061220587828801611e42565b935050604061221687828801611d8d565b925050606085013567ffffffffffffffff81111561223757612236611bf1565b5b6122438782880161219e565b91505092959194509250565b6000806040838503121561226657612265611bec565b5b600061227485828601611e42565b925050602061228585828601611e42565b9150509250929050565b7f4e487b7100000000000000000000000000000000000000000000000000000000600052602260045260246000fd5b600060028204905060018216806122d657607f821691505b602082108114156122ea576122e961228f565b5b50919050565b7f4552433732313a20617070726f76616c20746f2063757272656e74206f776e6560008201527f7200000000000000000000000000000000000000000000000000000000000000602082015250565b600061234c602183611cbc565b9150612357826122f0565b604082019050919050565b6000602082019050818103600083015261237b8161233f565b9050919050565b7f4552433732313a20617070726f76652063616c6c6572206973206e6f7420746f60008201527f6b656e206f776e6572206e6f7220617070726f76656420666f7220616c6c0000602082015250565b60006123de603e83611cbc565b91506123e982612382565b604082019050919050565b6000602082019050818103600083015261240d816123d1565b9050919050565b7f4552433732313a2063616c6c6572206973206e6f7420746f6b656e206f776e6560008201527f72206e6f7220617070726f766564000000000000000000000000000000000000602082015250565b6000612470602e83611cbc565b915061247b82612414565b604082019050919050565b6000602082019050818103600083015261249f81612463565b9050919050565b7f4552433732313a20696e76616c696420746f6b656e2049440000000000000000600082015250565b60006124dc601883611cbc565b91506124e7826124a6565b602082019050919050565b6000602082019050818103600083015261250b816124cf565b9050919050565b7f4552433732313a2061646472657373207a65726f206973206e6f74206120766160008201527f6c6964206f776e65720000000000000000000000000000000000000000000000602082015250565b600061256e602983611cbc565b915061257982612512565b604082019050919050565b6000602082019050818103600083015261259d81612561565b9050919050565b7f4552433732314d657461646174613a2055524920717565727920666f72206e6f60008201527f6e6578697374656e7420746f6b656e0000000000000000000000000000000000602082015250565b6000612600602f83611cbc565b915061260b826125a4565b604082019050919050565b6000602082019050818103600083015261262f816125f3565b9050919050565b600081905092915050565b600061264c82611cb1565b6126568185612636565b9350612666818560208601611ccd565b80840191505092915050565b600061267e8285612641565b915061268a8284612641565b91508190509392505050565b7f2f00000000000000000000000000000000000000000000000000000000000000600082015250565b60006126cc600183612636565b91506126d782612696565b600182019050919050565b60006126ee8285612641565b91506126f9826126bf565b91506127058284612641565b91508190509392505050565b7f4f776e61626c653a206e6577206f776e657220697320746865207a65726f206160008201527f6464726573730000000000000000000000000000000000000000000000000000602082015250565b600061276d602683611cbc565b915061277882612711565b604082019050919050565b6000602082019050818103600083015261279c81612760565b9050919050565b7f4552433732313a207472616e736665722066726f6d20696e636f72726563742060008201527f6f776e6572000000000000000000000000000000000000000000000000000000602082015250565b60006127ff602583611cbc565b915061280a826127a3565b604082019050919050565b6000602082019050818103600083015261282e816127f2565b9050919050565b7f4552433732313a207472616e7366657220746f20746865207a65726f2061646460008201527f7265737300000000000000000000000000000000000000000000000000000000602082015250565b6000612891602483611cbc565b915061289c82612835565b604082019050919050565b600060208201905081810360008301526128c081612884565b9050919050565b7f4e487b7100000000000000000000000000000000000000000000000000000000600052601160045260246000fd5b600061290182611d6c565b915061290c83611d6c565b92508282101561291f5761291e6128c7565b5b828203905092915050565b600061293582611d6c565b915061294083611d6c565b9250827fffffffffffffffffffffffffffffffffffffffffffffffffffffffffffffffff03821115612975576129746128c7565b5b828201905092915050565b7f4f776e61626c653a2063616c6c6572206973206e6f7420746865206f776e6572600082015250565b60006129b6602083611cbc565b91506129c182612980565b602082019050919050565b600060208201905081810360008301526129e5816129a9565b9050919050565b7f4552433732313a20617070726f766520746f2063616c6c657200000000000000600082015250565b6000612a22601983611cbc565b9150612a2d826129ec565b602082019050919050565b60006020820190508181036000830152612a5181612a15565b9050919050565b7f4552433732314d657461646174613a2055524920736574206f66206e6f6e657860008201527f697374656e7420746f6b656e0000000000000000000000000000000000000000602082015250565b6000612ab4602c83611cbc565b9150612abf82612a58565b604082019050919050565b60006020820190508181036000830152612ae381612aa7565b9050919050565b7f4552433732313a207472616e7366657220746f206e6f6e20455243373231526560008201527f63656976657220696d706c656d656e7465720000000000000000000000000000602082015250565b6000612b46603283611cbc565b9150612b5182612aea565b604082019050919050565b60006020820190508181036000830152612b7581612b39565b9050919050565b6000612b8782611d6c565b91507fffffffffffffffffffffffffffffffffffffffffffffffffffffffffffffffff821415612bba57612bb96128c7565b5b600182019050919050565b7f4e487b7100000000000000000000000000000000000000000000000000000000600052601260045260246000fd5b6000612bff82611d6c565b9150612c0a83611d6c565b925082612c1a57612c19612bc5565b5b828204905092915050565b6000612c3082611d6c565b9150612c3b83611d6c565b925082612c4b57612c4a612bc5565b5b828206905092915050565b7f4e487b7100000000000000000000000000000000000000000000000000000000600052603260045260246000fd5b600081519050919050565b600082825260208201905092915050565b6000612cac82612c85565b612cb68185612c90565b9350612cc6818560208601611ccd565b612ccf81611d00565b840191505092915050565b6000608082019050612cef6000830187611e01565b612cfc6020830186611e01565b612d096040830185611e97565b8181036060830152612d1b8184612ca1565b905095945050505050565b600081519050612d3581611c22565b92915050565b600060208284031215612d5157612d50611bec565b5b6000612d5f84828501612d26565b91505092915050565b7f4552433732313a206d696e7420746f20746865207a65726f2061646472657373600082015250565b6000612d9e602083611cbc565b9150612da982612d68565b602082019050919050565b60006020820190508181036000830152612dcd81612d91565b9050919050565b7f4552433732313a20746f6b656e20616c7265616479206d696e74656400000000600082015250565b6000612e0a601c83611cbc565b9150612e1582612dd4565b602082019050919050565b60006020820190508181036000830152612e3981612dfd565b905091905056fea264697066735822122039b9a8e278b862547163e62580dbe240cebe07207064a8b9016f52292734ec0b64736f6c63430008090033",
  "linkReferences": {},
  "deployedLinkReferences": {}
}