{
  "_format": "hh-sol-artifact-1",
  "contractName": "LendingToken",
  "sourceName": "contracts/LendingToken.sol",
  "abi": [
    {
      "anonymous": false,
      "inputs": [
        {
          "indexed": false,
          "internalType": "address",
          "name": "token",
          "type": "address"
        },
        {
          "indexed": false,
          "internalType": "string",
          "name": "symbol",
          "type": "string"
        },
        {
          "indexed": false,
          "internalType": "uint8",
          "name": "decimals",
          "type": "uint8"
        },
        {
          "indexed": false,
          "internalType": "uint256",
          "name": "interestRateNumerator",
          "type": "uint256"
        },
        {
          "indexed": false,
          "internalType": "uint256",
          "name": "interestRateDenominator",
          "type": "uint256"
        },
        {
          "indexed": false,
          "internalType": "uint256",
          "name": "extendedRateNumerator",
          "type": "uint256"
        },
        {
          "indexed": false,
          "internalType": "uint256",
          "name": "extendedRateDenominator",
          "type": "uint256"
        },
        {
          "indexed": false,
          "internalType": "uint256",
          "name": "earlyRateNumerator",
          "type": "uint256"
        },
        {
          "indexed": false,
          "internalType": "uint256",
          "name": "earlyRateDenominator",
          "type": "uint256"
        }
      ],
      "name": "AddTokenRate",
      "type": "event"
    },
    {
      "anonymous": false,
      "inputs": [
        {
          "indexed": false,
          "internalType": "uint256",
          "name": "loanId",
          "type": "uint256"
        },
        {
          "indexed": false,
          "internalType": "enum LendingToken.LoanState",
          "name": "state",
          "type": "uint8"
        },
        {
          "indexed": false,
          "internalType": "uint256",
          "name": "startDate",
          "type": "uint256"
        },
        {
          "indexed": false,
          "internalType": "uint256",
          "name": "dueDate",
          "type": "uint256"
        }
      ],
      "name": "LoanAcceptedOrRejected",
      "type": "event"
    },
    {
      "anonymous": false,
      "inputs": [
        {
          "indexed": false,
          "internalType": "uint256",
          "name": "loanId",
          "type": "uint256"
        },
        {
          "indexed": false,
          "internalType": "uint256",
          "name": "extendedAt",
          "type": "uint256"
        },
        {
          "indexed": false,
          "internalType": "uint256",
          "name": "extendedDuration",
          "type": "uint256"
        },
        {
          "indexed": false,
          "internalType": "uint256",
          "name": "extendFee",
          "type": "uint256"
        },
        {
          "indexed": false,
          "internalType": "uint256",
          "name": "dueDate",
          "type": "uint256"
        }
      ],
      "name": "LoanExtension",
      "type": "event"
    },
    {
      "anonymous": false,
      "inputs": [
        {
          "indexed": false,
          "internalType": "uint256",
          "name": "loanId",
          "type": "uint256"
        },
        {
          "indexed": false,
          "internalType": "enum LendingToken.LoanState",
          "name": "state",
          "type": "uint8"
        },
        {
          "indexed": false,
          "internalType": "uint256",
          "name": "repaiedAt",
          "type": "uint256"
        }
      ],
      "name": "LoanRepaied",
      "type": "event"
    },
    {
      "anonymous": false,
      "inputs": [
        {
          "indexed": false,
          "internalType": "uint256",
          "name": "loanId",
          "type": "uint256"
        },
        {
          "indexed": false,
          "internalType": "enum LendingToken.LoanState",
          "name": "state",
          "type": "uint8"
        },
        {
          "indexed": false,
          "internalType": "uint256",
          "name": "repaiedEarlyAt",
          "type": "uint256"
        },
        {
          "indexed": false,
          "internalType": "uint256",
          "name": "repaiedEarlyFee",
          "type": "uint256"
        }
      ],
      "name": "LoanRepaiedEarly",
      "type": "event"
    },
    {
      "anonymous": false,
      "inputs": [
        {
          "indexed": false,
          "internalType": "uint256",
          "name": "loanId",
          "type": "uint256"
        },
        {
          "indexed": false,
          "internalType": "address",
          "name": "borrower",
          "type": "address"
        },
        {
          "indexed": false,
          "internalType": "address",
          "name": "nft",
          "type": "address"
        },
        {
          "indexed": false,
          "internalType": "uint256",
          "name": "nftTokenId",
          "type": "uint256"
        },
        {
          "indexed": false,
          "internalType": "address",
          "name": "tokenAddr",
          "type": "address"
        },
        {
          "indexed": false,
          "internalType": "uint256",
          "name": "loanAmount",
          "type": "uint256"
        },
        {
          "indexed": false,
          "internalType": "uint256",
          "name": "payoffAmount",
          "type": "uint256"
        },
        {
          "indexed": false,
          "internalType": "uint256",
          "name": "loanDuration",
          "type": "uint256"
        },
        {
          "indexed": false,
          "internalType": "enum LendingToken.LoanState",
          "name": "state",
          "type": "uint8"
        },
        {
          "indexed": false,
          "internalType": "uint256",
          "name": "createdAt",
          "type": "uint256"
        }
      ],
      "name": "LoanRequest",
      "type": "event"
    },
    {
      "anonymous": false,
      "inputs": [
        {
          "indexed": false,
          "internalType": "address",
          "name": "nft",
          "type": "address"
        },
        {
          "indexed": false,
          "internalType": "uint256",
          "name": "nftTokenId",
          "type": "uint256"
        }
      ],
      "name": "NftWithdraw",
      "type": "event"
    },
    {
      "anonymous": false,
      "inputs": [
        {
          "indexed": true,
          "internalType": "address",
          "name": "previousOwner",
          "type": "address"
        },
        {
          "indexed": true,
          "internalType": "address",
          "name": "newOwner",
          "type": "address"
        }
      ],
      "name": "OwnershipTransferred",
      "type": "event"
    },
    {
      "anonymous": false,
      "inputs": [
        {
          "indexed": false,
          "internalType": "uint256",
          "name": "loanId",
          "type": "uint256"
        },
        {
          "indexed": false,
          "internalType": "enum LendingToken.LoanState",
          "name": "state",
          "type": "uint8"
        },
        {
          "indexed": false,
          "internalType": "uint256",
          "name": "currentTime",
          "type": "uint256"
        }
      ],
      "name": "PaymentMissing",
      "type": "event"
    },
    {
      "anonymous": false,
      "inputs": [
        {
          "indexed": false,
          "internalType": "address",
          "name": "token",
          "type": "address"
        },
        {
          "indexed": false,
          "internalType": "uint256",
          "name": "amount",
          "type": "uint256"
        }
      ],
      "name": "TokenDeposit",
      "type": "event"
    },
    {
      "anonymous": false,
      "inputs": [
        {
          "indexed": false,
          "internalType": "address",
          "name": "token",
          "type": "address"
        },
        {
          "indexed": false,
          "internalType": "uint256",
          "name": "amount",
          "type": "uint256"
        }
      ],
      "name": "TokenWithdraw",
      "type": "event"
    },
    {
      "anonymous": false,
      "inputs": [
        {
          "indexed": false,
          "internalType": "address",
          "name": "tokenAddr",
          "type": "address"
        },
        {
          "indexed": false,
          "internalType": "uint256",
          "name": "interestRateNumerator",
          "type": "uint256"
        },
        {
          "indexed": false,
          "internalType": "uint256",
          "name": "interestRateDenominator",
          "type": "uint256"
        },
        {
          "indexed": false,
          "internalType": "uint256",
          "name": "extendedRateNumerator",
          "type": "uint256"
        },
        {
          "indexed": false,
          "internalType": "uint256",
          "name": "extendedRateDenominator",
          "type": "uint256"
        },
        {
          "indexed": false,
          "internalType": "uint256",
          "name": "earlyRateNumerator",
          "type": "uint256"
        },
        {
          "indexed": false,
          "internalType": "uint256",
          "name": "earlyRateDenominator",
          "type": "uint256"
        }
      ],
      "name": "UpdateTokenRate",
      "type": "event"
    },
    {
      "inputs": [],
      "name": "TIME_DURATION",
      "outputs": [
        {
          "internalType": "uint256",
          "name": "",
          "type": "uint256"
        }
      ],
      "stateMutability": "view",
      "type": "function"
    },
    {
      "inputs": [
        {
          "internalType": "address",
          "name": "",
          "type": "address"
        },
        {
          "internalType": "uint256",
          "name": "",
          "type": "uint256"
        }
      ],
      "name": "_nftToLoanIds",
      "outputs": [
        {
          "internalType": "uint256",
          "name": "",
          "type": "uint256"
        }
      ],
      "stateMutability": "view",
      "type": "function"
    },
    {
      "inputs": [
        {
          "internalType": "address",
          "name": "tokenAddr",
          "type": "address"
        },
        {
          "internalType": "uint256",
          "name": "interestRateNumerator",
          "type": "uint256"
        },
        {
          "internalType": "uint256",
          "name": "interestRateDenominator",
          "type": "uint256"
        },
        {
          "internalType": "uint256",
          "name": "extendedRateNumerator",
          "type": "uint256"
        },
        {
          "internalType": "uint256",
          "name": "extendedRateDenominator",
          "type": "uint256"
        },
        {
          "internalType": "uint256",
          "name": "earlyRateNumerator",
          "type": "uint256"
        },
        {
          "internalType": "uint256",
          "name": "earlyRateDenominator",
          "type": "uint256"
        }
      ],
      "name": "addToken",
      "outputs": [],
      "stateMutability": "nonpayable",
      "type": "function"
    },
    {
      "inputs": [
        {
          "internalType": "uint256",
          "name": "amount",
          "type": "uint256"
        },
        {
          "internalType": "uint256",
          "name": "num",
          "type": "uint256"
        },
        {
          "internalType": "uint256",
          "name": "de",
          "type": "uint256"
        }
      ],
      "name": "calculateFee",
      "outputs": [
        {
          "internalType": "uint256",
          "name": "",
          "type": "uint256"
        }
      ],
      "stateMutability": "pure",
      "type": "function"
    },
    {
      "inputs": [
        {
          "internalType": "address",
          "name": "token",
          "type": "address"
        },
        {
          "internalType": "uint256",
          "name": "amount",
          "type": "uint256"
        }
      ],
      "name": "deposit",
      "outputs": [],
      "stateMutability": "nonpayable",
      "type": "function"
    },
    {
      "inputs": [
        {
          "internalType": "address",
          "name": "nft",
          "type": "address"
        },
        {
          "internalType": "uint256",
          "name": "nftTokenId",
          "type": "uint256"
        },
        {
          "internalType": "uint256",
          "name": "extendedDuration",
          "type": "uint256"
        }
      ],
      "name": "extendLoan",
      "outputs": [],
      "stateMutability": "nonpayable",
      "type": "function"
    },
    {
      "inputs": [
        {
          "internalType": "address",
          "name": "nft",
          "type": "address"
        },
        {
          "internalType": "uint256",
          "name": "nftTokenId",
          "type": "uint256"
        }
      ],
      "name": "getLoanAgreement",
      "outputs": [
        {
          "components": [
            {
              "internalType": "address",
              "name": "borrower",
              "type": "address"
            },
            {
              "internalType": "address",
              "name": "nft",
              "type": "address"
            },
            {
              "internalType": "uint256",
              "name": "nftTokenId",
              "type": "uint256"
            },
            {
              "internalType": "address",
              "name": "token",
              "type": "address"
            },
            {
              "internalType": "uint256",
              "name": "loanAmount",
              "type": "uint256"
            },
            {
              "internalType": "uint256",
              "name": "payoffAmount",
              "type": "uint256"
            },
            {
              "internalType": "uint256",
              "name": "startDate",
              "type": "uint256"
            },
            {
              "internalType": "uint256",
              "name": "loanDuration",
              "type": "uint256"
            },
            {
              "internalType": "uint256",
              "name": "dueDate",
              "type": "uint256"
            },
            {
              "internalType": "enum LendingToken.LoanState",
              "name": "state",
              "type": "uint8"
            },
            {
              "internalType": "uint256",
              "name": "createdAt",
              "type": "uint256"
            }
          ],
          "internalType": "struct LendingToken.LoanAgreement",
          "name": "loanAgreement",
          "type": "tuple"
        }
      ],
      "stateMutability": "view",
      "type": "function"
    },
    {
      "inputs": [
        {
          "internalType": "address",
          "name": "nft",
          "type": "address"
        },
        {
          "internalType": "uint256",
          "name": "nftTokenId",
          "type": "uint256"
        }
      ],
      "name": "getLoanId",
      "outputs": [
        {
          "internalType": "uint256",
          "name": "",
          "type": "uint256"
        }
      ],
      "stateMutability": "view",
      "type": "function"
    },
    {
      "inputs": [
        {
          "internalType": "address",
          "name": "tokenAddr",
          "type": "address"
        }
      ],
      "name": "getTokenErc",
      "outputs": [
        {
          "components": [
            {
              "internalType": "address",
              "name": "seller",
              "type": "address"
            },
            {
              "internalType": "address",
              "name": "addr",
              "type": "address"
            },
            {
              "internalType": "string",
              "name": "symbol",
              "type": "string"
            },
            {
              "internalType": "uint8",
              "name": "decimals",
              "type": "uint8"
            },
            {
              "components": [
                {
                  "internalType": "uint256",
                  "name": "numerator",
                  "type": "uint256"
                },
                {
                  "internalType": "uint256",
                  "name": "denominator",
                  "type": "uint256"
                }
              ],
              "internalType": "struct LendingToken.Rational",
              "name": "interestRate",
              "type": "tuple"
            },
            {
              "components": [
                {
                  "internalType": "uint256",
                  "name": "numerator",
                  "type": "uint256"
                },
                {
                  "internalType": "uint256",
                  "name": "denominator",
                  "type": "uint256"
                }
              ],
              "internalType": "struct LendingToken.Rational",
              "name": "extendedRate",
              "type": "tuple"
            },
            {
              "components": [
                {
                  "internalType": "uint256",
                  "name": "numerator",
                  "type": "uint256"
                },
                {
                  "internalType": "uint256",
                  "name": "denominator",
                  "type": "uint256"
                }
              ],
              "internalType": "struct LendingToken.Rational",
              "name": "earlyRate",
              "type": "tuple"
            },
            {
              "internalType": "bool",
              "name": "exists",
              "type": "bool"
            }
          ],
          "internalType": "struct LendingToken.Token",
          "name": "token",
          "type": "tuple"
        }
      ],
      "stateMutability": "view",
      "type": "function"
    },
    {
      "inputs": [
        {
          "internalType": "address",
          "name": "nft",
          "type": "address"
        },
        {
          "internalType": "uint256",
          "name": "nftTokenId",
          "type": "uint256"
        }
      ],
      "name": "liquidate",
      "outputs": [],
      "stateMutability": "nonpayable",
      "type": "function"
    },
    {
      "inputs": [
        {
          "internalType": "address",
          "name": "",
          "type": "address"
        }
      ],
      "name": "listingsToken",
      "outputs": [
        {
          "internalType": "address",
          "name": "seller",
          "type": "address"
        },
        {
          "internalType": "address",
          "name": "addr",
          "type": "address"
        },
        {
          "internalType": "string",
          "name": "symbol",
          "type": "string"
        },
        {
          "internalType": "uint8",
          "name": "decimals",
          "type": "uint8"
        },
        {
          "components": [
            {
              "internalType": "uint256",
              "name": "numerator",
              "type": "uint256"
            },
            {
              "internalType": "uint256",
              "name": "denominator",
              "type": "uint256"
            }
          ],
          "internalType": "struct LendingToken.Rational",
          "name": "interestRate",
          "type": "tuple"
        },
        {
          "components": [
            {
              "internalType": "uint256",
              "name": "numerator",
              "type": "uint256"
            },
            {
              "internalType": "uint256",
              "name": "denominator",
              "type": "uint256"
            }
          ],
          "internalType": "struct LendingToken.Rational",
          "name": "extendedRate",
          "type": "tuple"
        },
        {
          "components": [
            {
              "internalType": "uint256",
              "name": "numerator",
              "type": "uint256"
            },
            {
              "internalType": "uint256",
              "name": "denominator",
              "type": "uint256"
            }
          ],
          "internalType": "struct LendingToken.Rational",
          "name": "earlyRate",
          "type": "tuple"
        },
        {
          "internalType": "bool",
          "name": "exists",
          "type": "bool"
        }
      ],
      "stateMutability": "view",
      "type": "function"
    },
    {
      "inputs": [
        {
          "internalType": "uint256",
          "name": "",
          "type": "uint256"
        }
      ],
      "name": "loanAgreements",
      "outputs": [
        {
          "internalType": "address",
          "name": "borrower",
          "type": "address"
        },
        {
          "internalType": "address",
          "name": "nft",
          "type": "address"
        },
        {
          "internalType": "uint256",
          "name": "nftTokenId",
          "type": "uint256"
        },
        {
          "internalType": "address",
          "name": "token",
          "type": "address"
        },
        {
          "internalType": "uint256",
          "name": "loanAmount",
          "type": "uint256"
        },
        {
          "internalType": "uint256",
          "name": "payoffAmount",
          "type": "uint256"
        },
        {
          "internalType": "uint256",
          "name": "startDate",
          "type": "uint256"
        },
        {
          "internalType": "uint256",
          "name": "loanDuration",
          "type": "uint256"
        },
        {
          "internalType": "uint256",
          "name": "dueDate",
          "type": "uint256"
        },
        {
          "internalType": "enum LendingToken.LoanState",
          "name": "state",
          "type": "uint8"
        },
        {
          "internalType": "uint256",
          "name": "createdAt",
          "type": "uint256"
        }
      ],
      "stateMutability": "view",
      "type": "function"
    },
    {
      "inputs": [
        {
          "internalType": "address",
          "name": "nft",
          "type": "address"
        },
        {
          "internalType": "uint256",
          "name": "nftTokenId",
          "type": "uint256"
        }
      ],
      "name": "missedPayment",
      "outputs": [
        {
          "internalType": "bool",
          "name": "",
          "type": "bool"
        }
      ],
      "stateMutability": "nonpayable",
      "type": "function"
    },
    {
      "inputs": [
        {
          "internalType": "address",
          "name": "operator",
          "type": "address"
        },
        {
          "internalType": "address",
          "name": "from",
          "type": "address"
        },
        {
          "internalType": "uint256",
          "name": "tokenId",
          "type": "uint256"
        },
        {
          "internalType": "bytes",
          "name": "data",
          "type": "bytes"
        }
      ],
      "name": "onERC721Received",
      "outputs": [
        {
          "internalType": "bytes4",
          "name": "",
          "type": "bytes4"
        }
      ],
      "stateMutability": "nonpayable",
      "type": "function"
    },
    {
      "inputs": [],
      "name": "owner",
      "outputs": [
        {
          "internalType": "address",
          "name": "",
          "type": "address"
        }
      ],
      "stateMutability": "view",
      "type": "function"
    },
    {
      "inputs": [],
      "name": "renounceOwnership",
      "outputs": [],
      "stateMutability": "nonpayable",
      "type": "function"
    },
    {
      "inputs": [
        {
          "internalType": "address",
          "name": "nft",
          "type": "address"
        },
        {
          "internalType": "uint256",
          "name": "nftTokenId",
          "type": "uint256"
        }
      ],
      "name": "repaiedEarly",
      "outputs": [],
      "stateMutability": "nonpayable",
      "type": "function"
    },
    {
      "inputs": [
        {
          "internalType": "address",
          "name": "nft",
          "type": "address"
        },
        {
          "internalType": "uint256",
          "name": "nftTokenId",
          "type": "uint256"
        }
      ],
      "name": "repayLoan",
      "outputs": [],
      "stateMutability": "nonpayable",
      "type": "function"
    },
    {
      "inputs": [
        {
          "internalType": "address",
          "name": "nft",
          "type": "address"
        },
        {
          "internalType": "uint256",
          "name": "nftTokenId",
          "type": "uint256"
        },
        {
          "internalType": "address",
          "name": "tokenAddr",
          "type": "address"
        },
        {
          "internalType": "uint256",
          "name": "loanAmount",
          "type": "uint256"
        },
        {
          "internalType": "uint256",
          "name": "loanDuration",
          "type": "uint256"
        }
      ],
      "name": "requestLoan",
      "outputs": [],
      "stateMutability": "nonpayable",
      "type": "function"
    },
    {
      "inputs": [
        {
          "internalType": "uint256",
          "name": "time",
          "type": "uint256"
        }
      ],
      "name": "setTime",
      "outputs": [],
      "stateMutability": "nonpayable",
      "type": "function"
    },
    {
      "inputs": [
        {
          "internalType": "address",
          "name": "nft",
          "type": "address"
        },
        {
          "internalType": "uint256",
          "name": "nftTokenId",
          "type": "uint256"
        },
        {
          "internalType": "enum LendingToken.LoanState",
          "name": "state",
          "type": "uint8"
        }
      ],
      "name": "takeALoan",
      "outputs": [],
      "stateMutability": "nonpayable",
      "type": "function"
    },
    {
      "inputs": [
        {
          "internalType": "address",
          "name": "newOwner",
          "type": "address"
        }
      ],
      "name": "transferOwnership",
      "outputs": [],
      "stateMutability": "nonpayable",
      "type": "function"
    },
    {
      "inputs": [
        {
          "internalType": "address",
          "name": "tokenAddr",
          "type": "address"
        },
        {
          "internalType": "uint256",
          "name": "interestRateNumerator",
          "type": "uint256"
        },
        {
          "internalType": "uint256",
          "name": "interestRateDenominator",
          "type": "uint256"
        },
        {
          "internalType": "uint256",
          "name": "extendedRateNumerator",
          "type": "uint256"
        },
        {
          "internalType": "uint256",
          "name": "extendedRateDenominator",
          "type": "uint256"
        },
        {
          "internalType": "uint256",
          "name": "earlyRateNumerator",
          "type": "uint256"
        },
        {
          "internalType": "uint256",
          "name": "earlyRateDenominator",
          "type": "uint256"
        }
      ],
      "name": "updateToken",
      "outputs": [],
      "stateMutability": "nonpayable",
      "type": "function"
    },
    {
      "inputs": [
        {
          "internalType": "address",
          "name": "token",
          "type": "address"
        },
        {
          "internalType": "uint256",
          "name": "amount",
          "type": "uint256"
        }
      ],
      "name": "withdraw",
      "outputs": [],
      "stateMutability": "nonpayable",
      "type": "function"
    }
  ],
  "bytecode": "0x60806040523480156200001157600080fd5b5062000032620000266200003860201b60201c565b6200004060201b60201c565b62000104565b600033905090565b60008060009054906101000a900473ffffffffffffffffffffffffffffffffffffffff169050816000806101000a81548173ffffffffffffffffffffffffffffffffffffffff021916908373ffffffffffffffffffffffffffffffffffffffff1602179055508173ffffffffffffffffffffffffffffffffffffffff168173ffffffffffffffffffffffffffffffffffffffff167f8be0079c531659141344cd1fd0a4f28419497f9722a3daafe3b4186f6b6457e060405160405180910390a35050565b61600080620001146000396000f3fe608060405234801561001057600080fd5b50600436106101585760003560e01c8063815083df116100c3578063bcbaf4871161007c578063bcbaf487146103ee578063bfd04a5d1461040a578063c8304dfb14610426578063f2fde38b14610460578063f3fef3a31461047c578063f56cc9151461049857610158565b8063815083df1461032e5780638da5cb5b1461034a57806393a595f5146103685780639694268f14610384578063a48e84e3146103b4578063b6805d20146103d257610158565b806335c16bca1161011557806335c16bca146102705780633699e7d11461028c5780633beb26c4146102bc57806347e7ef24146102d85780635357b989146102f4578063715018a61461032457610158565b80630be369b41461015d57806311615d301461018d578063150b7a02146101bd57806319dbb6d2146101ed57806325ae23931461021d57806329c7f9e014610254575b600080fd5b610177600480360381019061017291906141ed565b6104b4565b60405161018491906143f3565b60405180910390f35b6101a760048036038101906101a29190614441565b61076c565b6040516101b49190614490565b60405180910390f35b6101d760048036038101906101d29190614510565b61085a565b6040516101e491906145d3565b60405180910390f35b61020760048036038101906102029190614441565b610888565b6040516102149190614746565b60405180910390f35b610237600480360381019061023291906141ed565b610c75565b60405161024b989796959493929190614808565b60405180910390f35b61026e60048036038101906102699190614441565b610df9565b005b61028a6004803603810190610285919061488f565b6112f3565b005b6102a660048036038101906102a19190614441565b611826565b6040516102b39190614490565b60405180910390f35b6102d660048036038101906102d19190614931565b61184b565b005b6102f260048036038101906102ed9190614441565b61185d565b005b61030e6004803603810190610309919061495e565b6119e5565b60405161031b9190614490565b60405180910390f35b61032c611a19565b005b610348600480360381019061034391906149d6565b611a2d565b005b61035261207a565b60405161035f9190614a29565b60405180910390f35b610382600480360381019061037d9190614441565b6120a3565b005b61039e60048036038101906103999190614441565b612577565b6040516103ab9190614a44565b60405180910390f35b6103bc61293d565b6040516103c99190614490565b60405180910390f35b6103ec60048036038101906103e79190614a5f565b612943565b005b61040860048036038101906104039190614441565b6132c8565b005b610424600480360381019061041f919061488f565b613552565b005b610440600480360381019061043b9190614931565b613747565b6040516104579b9a99989796959493929190614ae9565b60405180910390f35b61047a600480360381019061047591906141ed565b61380e565b005b61049660048036038101906104919190614441565b613892565b005b6104b260048036038101906104ad9190614b94565b613a18565b005b6104bc613f88565b600073ffffffffffffffffffffffffffffffffffffffff163373ffffffffffffffffffffffffffffffffffffffff16141561052c576040517f08c379a000000000000000000000000000000000000000000000000000000000815260040161052390614c59565b60405180910390fd5b600560008373ffffffffffffffffffffffffffffffffffffffff1673ffffffffffffffffffffffffffffffffffffffff168152602001908152602001600020604051806101000160405290816000820160009054906101000a900473ffffffffffffffffffffffffffffffffffffffff1673ffffffffffffffffffffffffffffffffffffffff1673ffffffffffffffffffffffffffffffffffffffff1681526020016001820160009054906101000a900473ffffffffffffffffffffffffffffffffffffffff1673ffffffffffffffffffffffffffffffffffffffff1673ffffffffffffffffffffffffffffffffffffffff16815260200160028201805461063390614ca8565b80601f016020809104026020016040519081016040528092919081815260200182805461065f90614ca8565b80156106ac5780601f10610681576101008083540402835291602001916106ac565b820191906000526020600020905b81548152906001019060200180831161068f57829003601f168201915b505050505081526020016003820160009054906101000a900460ff1660ff1660ff168152602001600482016040518060400160405290816000820154815260200160018201548152505081526020016006820160405180604001604052908160008201548152602001600182015481525050815260200160088201604051806040016040529081600082015481526020016001820154815250508152602001600a820160009054906101000a900460ff1615151515815250509050919050565b600080600360008573ffffffffffffffffffffffffffffffffffffffff1673ffffffffffffffffffffffffffffffffffffffff1681526020019081526020016000206000848152602001908152602001600020541415610801576040517f08c379a00000000000000000000000000000000000000000000000000000000081526004016107f890614d26565b60405180910390fd5b600360008473ffffffffffffffffffffffffffffffffffffffff1673ffffffffffffffffffffffffffffffffffffffff168152602001908152602001600020600083815260200190815260200160002054905092915050565b60007f150b7a023d4804d13e8c85fb27262cb750cf6ba9f9dd3bb30d90f482ceeb4b1f905095945050505050565b610890614010565b600073ffffffffffffffffffffffffffffffffffffffff163373ffffffffffffffffffffffffffffffffffffffff161415610900576040517f08c379a00000000000000000000000000000000000000000000000000000000081526004016108f790614c59565b60405180910390fd5b6000600360008573ffffffffffffffffffffffffffffffffffffffff1673ffffffffffffffffffffffffffffffffffffffff1681526020019081526020016000206000848152602001908152602001600020541415610994576040517f08c379a000000000000000000000000000000000000000000000000000000000815260040161098b90614d26565b60405180910390fd5b6000600360008573ffffffffffffffffffffffffffffffffffffffff1673ffffffffffffffffffffffffffffffffffffffff16815260200190815260200160002060008481526020019081526020016000205490506109f161207a565b73ffffffffffffffffffffffffffffffffffffffff163373ffffffffffffffffffffffffffffffffffffffff161480610a8b57506004600082815260200190815260200160002060000160009054906101000a900473ffffffffffffffffffffffffffffffffffffffff1673ffffffffffffffffffffffffffffffffffffffff163373ffffffffffffffffffffffffffffffffffffffff16145b610aca576040517f08c379a0000000000000000000000000000000000000000000000000000000008152600401610ac190614db8565b60405180910390fd5b60046000828152602001908152602001600020604051806101600160405290816000820160009054906101000a900473ffffffffffffffffffffffffffffffffffffffff1673ffffffffffffffffffffffffffffffffffffffff1673ffffffffffffffffffffffffffffffffffffffff1681526020016001820160009054906101000a900473ffffffffffffffffffffffffffffffffffffffff1673ffffffffffffffffffffffffffffffffffffffff1673ffffffffffffffffffffffffffffffffffffffff168152602001600282015481526020016003820160009054906101000a900473ffffffffffffffffffffffffffffffffffffffff1673ffffffffffffffffffffffffffffffffffffffff1673ffffffffffffffffffffffffffffffffffffffff16815260200160048201548152602001600582015481526020016006820154815260200160078201548152602001600882015481526020016009820160009054906101000a900460ff166007811115610c4c57610c4b6145ee565b5b6007811115610c5e57610c5d6145ee565b5b8152602001600a8201548152505091505092915050565b60056020528060005260406000206000915090508060000160009054906101000a900473ffffffffffffffffffffffffffffffffffffffff16908060010160009054906101000a900473ffffffffffffffffffffffffffffffffffffffff1690806002018054610ce490614ca8565b80601f0160208091040260200160405190810160405280929190818152602001828054610d1090614ca8565b8015610d5d5780601f10610d3257610100808354040283529160200191610d5d565b820191906000526020600020905b815481529060010190602001808311610d4057829003601f168201915b5050505050908060030160009054906101000a900460ff169080600401604051806040016040529081600082015481526020016001820154815250509080600601604051806040016040529081600082015481526020016001820154815250509080600801604051806040016040529081600082015481526020016001820154815250509080600a0160009054906101000a900460ff16905088565b6000600360008473ffffffffffffffffffffffffffffffffffffffff1673ffffffffffffffffffffffffffffffffffffffff1681526020019081526020016000206000838152602001908152602001600020541415610e8d576040517f08c379a0000000000000000000000000000000000000000000000000000000008152600401610e8490614d26565b60405180910390fd5b6000600360008473ffffffffffffffffffffffffffffffffffffffff1673ffffffffffffffffffffffffffffffffffffffff168152602001908152602001600020600083815260200190815260200160002054905060006004600083815260200190815260200160002090508060000160009054906101000a900473ffffffffffffffffffffffffffffffffffffffff1673ffffffffffffffffffffffffffffffffffffffff163373ffffffffffffffffffffffffffffffffffffffff1614610f8b576040517f08c379a0000000000000000000000000000000000000000000000000000000008152600401610f8290614e24565b60405180910390fd5b60026007811115610f9f57610f9e6145ee565b5b8160090160009054906101000a900460ff166007811115610fc357610fc26145ee565b5b14611003576040517f08c379a0000000000000000000000000000000000000000000000000000000008152600401610ffa90614e90565b60405180910390fd5b600042905062015180826008015461101b9190614edf565b811061105c576040517f08c379a000000000000000000000000000000000000000000000000000000000815260040161105390614f85565b60405180910390fd5b60006110f08360040154600560008660030160009054906101000a900473ffffffffffffffffffffffffffffffffffffffff1673ffffffffffffffffffffffffffffffffffffffff1673ffffffffffffffffffffffffffffffffffffffff16815260200190815260200160002060080160405180604001604052908160008201548152602001600182015481525050613d9b565b90508260030160009054906101000a900473ffffffffffffffffffffffffffffffffffffffff1673ffffffffffffffffffffffffffffffffffffffff166323b872dd33308660050154856111449190614fa5565b6040518463ffffffff1660e01b815260040161116293929190614ffb565b602060405180830381600087803b15801561117c57600080fd5b505af1158015611190573d6000803e3d6000fd5b505050506040513d601f19601f820116820180604052508101906111b4919061505e565b508260010160009054906101000a900473ffffffffffffffffffffffffffffffffffffffff1673ffffffffffffffffffffffffffffffffffffffff166342842e0e308560000160009054906101000a900473ffffffffffffffffffffffffffffffffffffffff1686600201546040518463ffffffff1660e01b815260040161123e93929190614ffb565b600060405180830381600087803b15801561125857600080fd5b505af115801561126c573d6000803e3d6000fd5b5050505060048360090160006101000a81548160ff02191690836007811115611298576112976145ee565b5b02179055507fffea83d119975b9ab264cb298ccda9a83f83f9a4ba8ba3bae0e9e449a5c38d6f848460090160009054906101000a900460ff1684846040516112e3949392919061508b565b60405180910390a1505050505050565b6112fb613dfb565b600073ffffffffffffffffffffffffffffffffffffffff168773ffffffffffffffffffffffffffffffffffffffff16141561136b576040517f08c379a000000000000000000000000000000000000000000000000000000000815260040161136290615142565b60405180910390fd5b60001515600560008973ffffffffffffffffffffffffffffffffffffffff1673ffffffffffffffffffffffffffffffffffffffff168152602001908152602001600020600a0160009054906101000a900460ff16151514611401576040517f08c379a00000000000000000000000000000000000000000000000000000000081526004016113f8906151ae565b60405180910390fd5b6000861180156114115750600085115b801561141d5750600084115b80156114295750600083115b80156114355750600082115b80156114415750600081115b611480576040517f08c379a00000000000000000000000000000000000000000000000000000000081526004016114779061521a565b60405180910390fd5b60006040518060400160405280888152602001878152509050600060405180604001604052808781526020018681525090506000604051806040016040528086815260200185815250905060008a73ffffffffffffffffffffffffffffffffffffffff166395d89b416040518163ffffffff1660e01b815260040160006040518083038186803b15801561151357600080fd5b505afa158015611527573d6000803e3d6000fd5b505050506040513d6000823e3d601f19601f82011682018060405250810190611550919061535b565b905060008b73ffffffffffffffffffffffffffffffffffffffff1663313ce5676040518163ffffffff1660e01b815260040160206040518083038186803b15801561159a57600080fd5b505afa1580156115ae573d6000803e3d6000fd5b505050506040513d601f19601f820116820180604052508101906115d291906153d0565b905060006040518061010001604052803373ffffffffffffffffffffffffffffffffffffffff1681526020018e73ffffffffffffffffffffffffffffffffffffffff1681526020018481526020018360ff16815260200187815260200186815260200185815260200160011515815250905080600560008f73ffffffffffffffffffffffffffffffffffffffff1673ffffffffffffffffffffffffffffffffffffffff16815260200190815260200160002060008201518160000160006101000a81548173ffffffffffffffffffffffffffffffffffffffff021916908373ffffffffffffffffffffffffffffffffffffffff16021790555060208201518160010160006101000a81548173ffffffffffffffffffffffffffffffffffffffff021916908373ffffffffffffffffffffffffffffffffffffffff160217905550604082015181600201908051906020019061172e9291906140be565b5060608201518160030160006101000a81548160ff021916908360ff1602179055506080820151816004016000820151816000015560208201518160010155505060a0820151816006016000820151816000015560208201518160010155505060c0820151816008016000820151816000015560208201518160010155505060e082015181600a0160006101000a81548160ff0219169083151502179055509050507fe4c4d61c208e86f9adea5be59f72850d1802d624b3f5a9d023469b2a81fb3a9b8d84848f8f8f8f8f8f60405161180f999897969594939291906153fd565b60405180910390a150505050505050505050505050565b6003602052816000526040600020602052806000526040600020600091509150505481565b611853613dfb565b8060028190555050565b611865613dfb565b600073ffffffffffffffffffffffffffffffffffffffff168273ffffffffffffffffffffffffffffffffffffffff1614156118d5576040517f08c379a00000000000000000000000000000000000000000000000000000000081526004016118cc90615142565b60405180910390fd5b60008111611918576040517f08c379a000000000000000000000000000000000000000000000000000000000815260040161190f906154dd565b60405180910390fd5b8173ffffffffffffffffffffffffffffffffffffffff166323b872dd3330846040518463ffffffff1660e01b815260040161195593929190614ffb565b602060405180830381600087803b15801561196f57600080fd5b505af1158015611983573d6000803e3d6000fd5b505050506040513d601f19601f820116820180604052508101906119a7919061505e565b507f20b3fc91390f6ceba342f697a9490734680fd3556633f40efa146f1dbe79d05f82826040516119d99291906154fd565b60405180910390a15050565b60008060405180604001604052808581526020018481525090506000611a0b8683613d9b565b905080925050509392505050565b611a21613dfb565b611a2b6000613e79565b565b611a35613dfb565b6000600360008573ffffffffffffffffffffffffffffffffffffffff1673ffffffffffffffffffffffffffffffffffffffff1681526020019081526020016000206000848152602001908152602001600020541415611ac9576040517f08c379a0000000000000000000000000000000000000000000000000000000008152600401611ac090614d26565b60405180910390fd5b60016007811115611add57611adc6145ee565b5b816007811115611af057611aef6145ee565b5b1480611b20575060026007811115611b0b57611b0a6145ee565b5b816007811115611b1e57611b1d6145ee565b5b145b611b5f576040517f08c379a0000000000000000000000000000000000000000000000000000000008152600401611b5690615572565b60405180910390fd5b6000600360008573ffffffffffffffffffffffffffffffffffffffff1673ffffffffffffffffffffffffffffffffffffffff1681526020019081526020016000206000848152602001908152602001600020549050600060046000838152602001908152602001600020905060008160010160009054906101000a900473ffffffffffffffffffffffffffffffffffffffff1690508073ffffffffffffffffffffffffffffffffffffffff16636352211e83600201546040518263ffffffff1660e01b8152600401611c319190614490565b60206040518083038186803b158015611c4957600080fd5b505afa158015611c5d573d6000803e3d6000fd5b505050506040513d601f19601f82011682018060405250810190611c8191906155a7565b73ffffffffffffffffffffffffffffffffffffffff168260000160009054906101000a900473ffffffffffffffffffffffffffffffffffffffff1673ffffffffffffffffffffffffffffffffffffffff1614611d12576040517f08c379a0000000000000000000000000000000000000000000000000000000008152600401611d0990615620565b60405180910390fd5b60008260030160009054906101000a900473ffffffffffffffffffffffffffffffffffffffff16905060006007811115611d4f57611d4e6145ee565b5b8360090160009054906101000a900460ff166007811115611d7357611d726145ee565b5b14611db3576040517f08c379a0000000000000000000000000000000000000000000000000000000008152600401611daa9061568c565b60405180910390fd5b848360090160006101000a81548160ff02191690836007811115611dda57611dd96145ee565b5b021790555060004290506000620151808560070154611df991906156ac565b82611e049190614fa5565b905060026007811115611e1a57611e196145ee565b5b876007811115611e2d57611e2c6145ee565b5b1415611fdb578185600601819055508085600801819055508373ffffffffffffffffffffffffffffffffffffffff166342842e0e8660000160009054906101000a900473ffffffffffffffffffffffffffffffffffffffff163088600201546040518463ffffffff1660e01b8152600401611eaa93929190614ffb565b600060405180830381600087803b158015611ec457600080fd5b505af1158015611ed8573d6000803e3d6000fd5b5050505060008373ffffffffffffffffffffffffffffffffffffffff1663a9059cbb8760000160009054906101000a900473ffffffffffffffffffffffffffffffffffffffff1688600401546040518363ffffffff1660e01b8152600401611f419291906154fd565b602060405180830381600087803b158015611f5b57600080fd5b505af1158015611f6f573d6000803e3d6000fd5b505050506040513d601f19601f82011682018060405250810190611f93919061505e565b905080611fd5576040517f08c379a0000000000000000000000000000000000000000000000000000000008152600401611fcc90615752565b60405180910390fd5b50612032565b6000600360008b73ffffffffffffffffffffffffffffffffffffffff1673ffffffffffffffffffffffffffffffffffffffff16815260200190815260200160002060008a8152602001908152602001600020819055505b7f4cc556f6664640f451fdc3abfad3e41a2cd1fc739ff53b722b7376c235a7173386888484604051612067949392919061508b565b60405180910390a1505050505050505050565b60008060009054906101000a900473ffffffffffffffffffffffffffffffffffffffff16905090565b6000600360008473ffffffffffffffffffffffffffffffffffffffff1673ffffffffffffffffffffffffffffffffffffffff1681526020019081526020016000206000838152602001908152602001600020541415612137576040517f08c379a000000000000000000000000000000000000000000000000000000000815260040161212e90614d26565b60405180910390fd5b6000600360008473ffffffffffffffffffffffffffffffffffffffff1673ffffffffffffffffffffffffffffffffffffffff168152602001908152602001600020600083815260200190815260200160002054905060006004600083815260200190815260200160002090508060000160009054906101000a900473ffffffffffffffffffffffffffffffffffffffff1673ffffffffffffffffffffffffffffffffffffffff163373ffffffffffffffffffffffffffffffffffffffff1614612235576040517f08c379a000000000000000000000000000000000000000000000000000000000815260040161222c906157be565b60405180910390fd5b60026007811115612249576122486145ee565b5b8160090160009054906101000a900460ff16600781111561226d5761226c6145ee565b5b146122ad576040517f08c379a00000000000000000000000000000000000000000000000000000000081526004016122a490614e90565b60405180910390fd5b60004290508160080154811080156122d757506201518082600801546122d39190614edf565b8110155b612316576040517f08c379a000000000000000000000000000000000000000000000000000000000815260040161230d9061582a565b60405180910390fd5b8160030160009054906101000a900473ffffffffffffffffffffffffffffffffffffffff1673ffffffffffffffffffffffffffffffffffffffff166323b872dd333085600501546040518463ffffffff1660e01b815260040161237b93929190614ffb565b602060405180830381600087803b15801561239557600080fd5b505af11580156123a9573d6000803e3d6000fd5b505050506040513d601f19601f820116820180604052508101906123cd919061505e565b508160010160009054906101000a900473ffffffffffffffffffffffffffffffffffffffff1673ffffffffffffffffffffffffffffffffffffffff166342842e0e308460000160009054906101000a900473ffffffffffffffffffffffffffffffffffffffff1685600201546040518463ffffffff1660e01b815260040161245793929190614ffb565b600060405180830381600087803b15801561247157600080fd5b505af1158015612485573d6000803e3d6000fd5b505050506000600360008460010160009054906101000a900473ffffffffffffffffffffffffffffffffffffffff1673ffffffffffffffffffffffffffffffffffffffff1673ffffffffffffffffffffffffffffffffffffffff1681526020019081526020016000206000846002015481526020019081526020016000208190555060038260090160006101000a81548160ff0219169083600781111561252f5761252e6145ee565b5b02179055507f78707ab4c079702301d623fc15df9d6eb85d349c3ea6066331a6562baa4cd40e836003836040516125689392919061584a565b60405180910390a15050505050565b600080600360008573ffffffffffffffffffffffffffffffffffffffff1673ffffffffffffffffffffffffffffffffffffffff168152602001908152602001600020600084815260200190815260200160002054141561260c576040517f08c379a000000000000000000000000000000000000000000000000000000000815260040161260390614d26565b60405180910390fd5b6000600360008573ffffffffffffffffffffffffffffffffffffffff1673ffffffffffffffffffffffffffffffffffffffff168152602001908152602001600020600084815260200190815260200160002054905060006004600083815260200190815260200160002090506002600781111561268c5761268b6145ee565b5b8160090160009054906101000a900460ff1660078111156126b0576126af6145ee565b5b14806126f15750600060078111156126cb576126ca6145ee565b5b8160090160009054906101000a900460ff1660078111156126ef576126ee6145ee565b5b145b612730576040517f08c379a000000000000000000000000000000000000000000000000000000000815260040161272790614e90565b60405180910390fd5b600042905081600801548111801561277d575060026007811115612757576127566145ee565b5b8260090160009054906101000a900460ff16600781111561277b5761277a6145ee565b5b145b156128075760058260090160006101000a81548160ff021916908360078111156127aa576127a96145ee565b5b02179055507f0752f13270456db0a99c87d0b2467caaca2391a9da85d8a33dbf84f6e044099f838360090160009054906101000a900460ff16836040516127f39392919061584a565b60405180910390a160019350505050612937565b81600801548111801561284f575060006007811115612829576128286145ee565b5b8260090160009054906101000a900460ff16600781111561284d5761284c6145ee565b5b145b1561292f5760068260090160006101000a81548160ff0219169083600781111561287c5761287b6145ee565b5b02179055506000600360008873ffffffffffffffffffffffffffffffffffffffff1673ffffffffffffffffffffffffffffffffffffffff1681526020019081526020016000206000878152602001908152602001600020819055507f0752f13270456db0a99c87d0b2467caaca2391a9da85d8a33dbf84f6e044099f838360090160009054906101000a900460ff168360405161291b9392919061584a565b60405180910390a160019350505050612937565b600093505050505b92915050565b60025481565b600073ffffffffffffffffffffffffffffffffffffffff163373ffffffffffffffffffffffffffffffffffffffff1614156129b3576040517f08c379a00000000000000000000000000000000000000000000000000000000081526004016129aa906158cd565b60405180910390fd5b600073ffffffffffffffffffffffffffffffffffffffff168573ffffffffffffffffffffffffffffffffffffffff161415612a23576040517f08c379a0000000000000000000000000000000000000000000000000000000008152600401612a1a90615939565b60405180910390fd5b612a2b61207a565b73ffffffffffffffffffffffffffffffffffffffff163373ffffffffffffffffffffffffffffffffffffffff161415612a99576040517f08c379a0000000000000000000000000000000000000000000000000000000008152600401612a90906159a5565b60405180910390fd5b6000600360008773ffffffffffffffffffffffffffffffffffffffff1673ffffffffffffffffffffffffffffffffffffffff16815260200190815260200160002060008681526020019081526020016000205414612b2c576040517f08c379a0000000000000000000000000000000000000000000000000000000008152600401612b2390615a11565b60405180910390fd5b60008211612b6f576040517f08c379a0000000000000000000000000000000000000000000000000000000008152600401612b6690615a7d565b60405180910390fd5b6002548114612bb3576040517f08c379a0000000000000000000000000000000000000000000000000000000008152600401612baa90615ae9565b60405180910390fd5b60008590508073ffffffffffffffffffffffffffffffffffffffff16636352211e866040518263ffffffff1660e01b8152600401612bf19190614490565b60206040518083038186803b158015612c0957600080fd5b505afa158015612c1d573d6000803e3d6000fd5b505050506040513d601f19601f82011682018060405250810190612c4191906155a7565b73ffffffffffffffffffffffffffffffffffffffff163373ffffffffffffffffffffffffffffffffffffffff1614612cae576040517f08c379a0000000000000000000000000000000000000000000000000000000008152600401612ca590614e24565b60405180910390fd5b3073ffffffffffffffffffffffffffffffffffffffff168173ffffffffffffffffffffffffffffffffffffffff1663081812fc876040518263ffffffff1660e01b8152600401612cfe9190614490565b60206040518083038186803b158015612d1657600080fd5b505afa158015612d2a573d6000803e3d6000fd5b505050506040513d601f19601f82011682018060405250810190612d4e91906155a7565b73ffffffffffffffffffffffffffffffffffffffff1614612da4576040517f08c379a0000000000000000000000000000000000000000000000000000000008152600401612d9b90615b7b565b60405180910390fd5b6000600560008673ffffffffffffffffffffffffffffffffffffffff1673ffffffffffffffffffffffffffffffffffffffff168152602001908152602001600020604051806101000160405290816000820160009054906101000a900473ffffffffffffffffffffffffffffffffffffffff1673ffffffffffffffffffffffffffffffffffffffff1673ffffffffffffffffffffffffffffffffffffffff1681526020016001820160009054906101000a900473ffffffffffffffffffffffffffffffffffffffff1673ffffffffffffffffffffffffffffffffffffffff1673ffffffffffffffffffffffffffffffffffffffff168152602001600282018054612ead90614ca8565b80601f0160208091040260200160405190810160405280929190818152602001828054612ed990614ca8565b8015612f265780601f10612efb57610100808354040283529160200191612f26565b820191906000526020600020905b815481529060010190602001808311612f0957829003601f168201915b505050505081526020016003820160009054906101000a900460ff1660ff1660ff168152602001600482016040518060400160405290816000820154815260200160018201548152505081526020016006820160405180604001604052908160008201548152602001600182015481525050815260200160088201604051806040016040529081600082015481526020016001820154815250508152602001600a820160009054906101000a900460ff16151515158152505090506000612ff1858360800151613f3d565b905060004290506130026001613f5c565b600061300e6001613f72565b905080600360008c73ffffffffffffffffffffffffffffffffffffffff1673ffffffffffffffffffffffffffffffffffffffff16815260200190815260200160002060008b81526020019081526020016000208190555060006040518061016001604052803373ffffffffffffffffffffffffffffffffffffffff1681526020018c73ffffffffffffffffffffffffffffffffffffffff1681526020018b81526020018a73ffffffffffffffffffffffffffffffffffffffff168152602001898152602001858152602001600081526020018881526020016000815260200160006007811115613101576131006145ee565b5b8152602001848152509050806004600084815260200190815260200160002060008201518160000160006101000a81548173ffffffffffffffffffffffffffffffffffffffff021916908373ffffffffffffffffffffffffffffffffffffffff16021790555060208201518160010160006101000a81548173ffffffffffffffffffffffffffffffffffffffff021916908373ffffffffffffffffffffffffffffffffffffffff1602179055506040820151816002015560608201518160030160006101000a81548173ffffffffffffffffffffffffffffffffffffffff021916908373ffffffffffffffffffffffffffffffffffffffff1602179055506080820151816004015560a0820151816005015560c0820151816006015560e0820151816007015561010082015181600801556101208201518160090160006101000a81548160ff0219169083600781111561325e5761325d6145ee565b5b021790555061014082015181600a01559050507f0eb403bc00910e26137e0474bbb869873ce17b514d6605571661c46ed36b3fb582338d8d8d8d8a8e60008c6040516132b39a99989796959493929190615b9b565b60405180910390a15050505050505050505050565b6132d0613dfb565b6000600360008473ffffffffffffffffffffffffffffffffffffffff1673ffffffffffffffffffffffffffffffffffffffff1681526020019081526020016000206000838152602001908152602001600020541415613364576040517f08c379a000000000000000000000000000000000000000000000000000000000815260040161335b90614d26565b60405180910390fd5b6000600360008473ffffffffffffffffffffffffffffffffffffffff1673ffffffffffffffffffffffffffffffffffffffff16815260200190815260200160002060008381526020019081526020016000205490506000600460008381526020019081526020016000209050600560078111156133e4576133e36145ee565b5b8160090160009054906101000a900460ff166007811115613408576134076145ee565b5b14613448576040517f08c379a000000000000000000000000000000000000000000000000000000000815260040161343f90615c83565b60405180910390fd5b8060010160009054906101000a900473ffffffffffffffffffffffffffffffffffffffff1673ffffffffffffffffffffffffffffffffffffffff166342842e0e3061349161207a565b84600201546040518463ffffffff1660e01b81526004016134b493929190614ffb565b600060405180830381600087803b1580156134ce57600080fd5b505af11580156134e2573d6000803e3d6000fd5b5050505060078160090160006101000a81548160ff0219169083600781111561350e5761350d6145ee565b5b02179055507f9d9ee3f16e5351d026a6e31775ac0d5d28adbb28ba184e297fe1b57c3bb6346084846040516135449291906154fd565b60405180910390a150505050565b61355a613dfb565b60011515600560008973ffffffffffffffffffffffffffffffffffffffff1673ffffffffffffffffffffffffffffffffffffffff168152602001908152602001600020600a0160009054906101000a900460ff161515146135f0576040517f08c379a00000000000000000000000000000000000000000000000000000000081526004016135e790615cef565b60405180910390fd5b6000861180156136005750600085115b801561360c5750600084115b80156136185750600083115b80156136245750600082115b80156136305750600081115b61366f576040517f08c379a00000000000000000000000000000000000000000000000000000000081526004016136669061521a565b60405180910390fd5b6000600560008973ffffffffffffffffffffffffffffffffffffffff1673ffffffffffffffffffffffffffffffffffffffff16815260200190815260200160002090508681600401600001819055508581600401600101819055508481600601600001819055508381600601600101819055508281600801600001819055508181600801600101819055507f4712a776f4507790315ae66c18c7bfcfeff4c1a5480788047ccb96d24a98c1ab888888888888886040516137359796959493929190615d0f565b60405180910390a15050505050505050565b60046020528060005260406000206000915090508060000160009054906101000a900473ffffffffffffffffffffffffffffffffffffffff16908060010160009054906101000a900473ffffffffffffffffffffffffffffffffffffffff16908060020154908060030160009054906101000a900473ffffffffffffffffffffffffffffffffffffffff16908060040154908060050154908060060154908060070154908060080154908060090160009054906101000a900460ff169080600a015490508b565b613816613dfb565b600073ffffffffffffffffffffffffffffffffffffffff168173ffffffffffffffffffffffffffffffffffffffff161415613886576040517f08c379a000000000000000000000000000000000000000000000000000000000815260040161387d90615df0565b60405180910390fd5b61388f81613e79565b50565b61389a613dfb565b600073ffffffffffffffffffffffffffffffffffffffff168273ffffffffffffffffffffffffffffffffffffffff16141561390a576040517f08c379a000000000000000000000000000000000000000000000000000000000815260040161390190615142565b60405180910390fd5b6000811161394d576040517f08c379a0000000000000000000000000000000000000000000000000000000008152600401613944906154dd565b60405180910390fd5b8173ffffffffffffffffffffffffffffffffffffffff1663a9059cbb33836040518363ffffffff1660e01b81526004016139889291906154fd565b602060405180830381600087803b1580156139a257600080fd5b505af11580156139b6573d6000803e3d6000fd5b505050506040513d601f19601f820116820180604052508101906139da919061505e565b507f68577e4d693c1b056a60bc4e39438810239a0bfe64869c4eb7e3baebb5f656348282604051613a0c9291906154fd565b60405180910390a15050565b6000600360008573ffffffffffffffffffffffffffffffffffffffff1673ffffffffffffffffffffffffffffffffffffffff1681526020019081526020016000206000848152602001908152602001600020541415613aac576040517f08c379a0000000000000000000000000000000000000000000000000000000008152600401613aa390614d26565b60405180910390fd5b6002548114613af0576040517f08c379a0000000000000000000000000000000000000000000000000000000008152600401613ae790615e5c565b60405180910390fd5b6000600360008573ffffffffffffffffffffffffffffffffffffffff1673ffffffffffffffffffffffffffffffffffffffff1681526020019081526020016000206000848152602001908152602001600020549050600060046000838152602001908152602001600020905060026007811115613b7057613b6f6145ee565b5b8160090160009054906101000a900460ff166007811115613b9457613b936145ee565b5b14613bd4576040517f08c379a0000000000000000000000000000000000000000000000000000000008152600401613bcb90614e90565b60405180910390fd5b6000613c688260040154600560008560030160009054906101000a900473ffffffffffffffffffffffffffffffffffffffff1673ffffffffffffffffffffffffffffffffffffffff1673ffffffffffffffffffffffffffffffffffffffff16815260200190815260200160002060060160405180604001604052908160008201548152602001600182015481525050613d9b565b90508160030160009054906101000a900473ffffffffffffffffffffffffffffffffffffffff1673ffffffffffffffffffffffffffffffffffffffff166323b872dd3330846040518463ffffffff1660e01b8152600401613ccb93929190614ffb565b602060405180830381600087803b158015613ce557600080fd5b505af1158015613cf9573d6000803e3d6000fd5b505050506040513d601f19601f82011682018060405250810190613d1d919061505e565b5060004290506000836008015490506201518086613d3b91906156ac565b81613d469190614fa5565b84600801819055507fbeedae6c6c669cbdd40f471f452f6941be0f408deac94349f1f9a06bf8eae7c3858388868860080154604051613d89959493929190615e7c565b60405180910390a15050505050505050565b600080831415613dae5760009050613df5565b6000826000015184613dc091906156ac565b905082600001518482613dd39190615efe565b14613de157613de0615f2f565b5b826020015181613df19190615efe565b9150505b92915050565b613e03613f80565b73ffffffffffffffffffffffffffffffffffffffff16613e2161207a565b73ffffffffffffffffffffffffffffffffffffffff1614613e77576040517f08c379a0000000000000000000000000000000000000000000000000000000008152600401613e6e90615faa565b60405180910390fd5b565b60008060009054906101000a900473ffffffffffffffffffffffffffffffffffffffff169050816000806101000a81548173ffffffffffffffffffffffffffffffffffffffff021916908373ffffffffffffffffffffffffffffffffffffffff1602179055508173ffffffffffffffffffffffffffffffffffffffff168173ffffffffffffffffffffffffffffffffffffffff167f8be0079c531659141344cd1fd0a4f28419497f9722a3daafe3b4186f6b6457e060405160405180910390a35050565b6000613f498383613d9b565b83613f549190614fa5565b905092915050565b6001816000016000828254019250508190555050565b600081600001549050919050565b600033905090565b604051806101000160405280600073ffffffffffffffffffffffffffffffffffffffff168152602001600073ffffffffffffffffffffffffffffffffffffffff16815260200160608152602001600060ff168152602001613fe7614144565b8152602001613ff4614144565b8152602001614001614144565b81526020016000151581525090565b604051806101600160405280600073ffffffffffffffffffffffffffffffffffffffff168152602001600073ffffffffffffffffffffffffffffffffffffffff16815260200160008152602001600073ffffffffffffffffffffffffffffffffffffffff1681526020016000815260200160008152602001600081526020016000815260200160008152602001600060078111156140b1576140b06145ee565b5b8152602001600081525090565b8280546140ca90614ca8565b90600052602060002090601f0160209004810192826140ec5760008555614133565b82601f1061410557805160ff1916838001178555614133565b82800160010185558215614133579182015b82811115614132578251825591602001919060010190614117565b5b509050614140919061415e565b5090565b604051806040016040528060008152602001600081525090565b5b8082111561417757600081600090555060010161415f565b5090565b6000604051905090565b600080fd5b600080fd5b600073ffffffffffffffffffffffffffffffffffffffff82169050919050565b60006141ba8261418f565b9050919050565b6141ca816141af565b81146141d557600080fd5b50565b6000813590506141e7816141c1565b92915050565b60006020828403121561420357614202614185565b5b6000614211848285016141d8565b91505092915050565b614223816141af565b82525050565b600081519050919050565b600082825260208201905092915050565b60005b83811015614263578082015181840152602081019050614248565b83811115614272576000848401525b50505050565b6000601f19601f8301169050919050565b600061429482614229565b61429e8185614234565b93506142ae818560208601614245565b6142b781614278565b840191505092915050565b600060ff82169050919050565b6142d8816142c2565b82525050565b6000819050919050565b6142f1816142de565b82525050565b60408201600082015161430d60008501826142e8565b50602082015161432060208501826142e8565b50505050565b60008115159050919050565b61433b81614326565b82525050565b60006101608301600083015161435a600086018261421a565b50602083015161436d602086018261421a565b50604083015184820360408601526143858282614289565b915050606083015161439a60608601826142cf565b5060808301516143ad60808601826142f7565b5060a08301516143c060c08601826142f7565b5060c08301516143d46101008601826142f7565b5060e08301516143e8610140860182614332565b508091505092915050565b6000602082019050818103600083015261440d8184614341565b905092915050565b61441e816142de565b811461442957600080fd5b50565b60008135905061443b81614415565b92915050565b6000806040838503121561445857614457614185565b5b6000614466858286016141d8565b92505060206144778582860161442c565b9150509250929050565b61448a816142de565b82525050565b60006020820190506144a56000830184614481565b92915050565b600080fd5b600080fd5b600080fd5b60008083601f8401126144d0576144cf6144ab565b5b8235905067ffffffffffffffff8111156144ed576144ec6144b0565b5b602083019150836001820283011115614509576145086144b5565b5b9250929050565b60008060008060006080868803121561452c5761452b614185565b5b600061453a888289016141d8565b955050602061454b888289016141d8565b945050604061455c8882890161442c565b935050606086013567ffffffffffffffff81111561457d5761457c61418a565b5b614589888289016144ba565b92509250509295509295909350565b60007fffffffff0000000000000000000000000000000000000000000000000000000082169050919050565b6145cd81614598565b82525050565b60006020820190506145e860008301846145c4565b92915050565b7f4e487b7100000000000000000000000000000000000000000000000000000000600052602160045260246000fd5b6008811061462e5761462d6145ee565b5b50565b600081905061463f8261461d565b919050565b600061464f82614631565b9050919050565b61465f81614644565b82525050565b6101608201600082015161467c600085018261421a565b50602082015161468f602085018261421a565b5060408201516146a260408501826142e8565b5060608201516146b5606085018261421a565b5060808201516146c860808501826142e8565b5060a08201516146db60a08501826142e8565b5060c08201516146ee60c08501826142e8565b5060e082015161470160e08501826142e8565b506101008201516147166101008501826142e8565b5061012082015161472b610120850182614656565b506101408201516147406101408501826142e8565b50505050565b60006101608201905061475c6000830184614665565b92915050565b61476b816141af565b82525050565b600082825260208201905092915050565b600061478d82614229565b6147978185614771565b93506147a7818560208601614245565b6147b081614278565b840191505092915050565b6147c4816142c2565b82525050565b6040820160008201516147e060008501826142e8565b5060208201516147f360208501826142e8565b50505050565b61480281614326565b82525050565b60006101608201905061481e600083018b614762565b61482b602083018a614762565b818103604083015261483d8189614782565b905061484c60608301886147bb565b61485960808301876147ca565b61486660c08301866147ca565b6148746101008301856147ca565b6148826101408301846147f9565b9998505050505050505050565b600080600080600080600060e0888a0312156148ae576148ad614185565b5b60006148bc8a828b016141d8565b97505060206148cd8a828b0161442c565b96505060406148de8a828b0161442c565b95505060606148ef8a828b0161442c565b94505060806149008a828b0161442c565b93505060a06149118a828b0161442c565b92505060c06149228a828b0161442c565b91505092959891949750929550565b60006020828403121561494757614946614185565b5b60006149558482850161442c565b91505092915050565b60008060006060848603121561497757614976614185565b5b60006149858682870161442c565b93505060206149968682870161442c565b92505060406149a78682870161442c565b9150509250925092565b600881106149be57600080fd5b50565b6000813590506149d0816149b1565b92915050565b6000806000606084860312156149ef576149ee614185565b5b60006149fd868287016141d8565b9350506020614a0e8682870161442c565b9250506040614a1f868287016149c1565b9150509250925092565b6000602082019050614a3e6000830184614762565b92915050565b6000602082019050614a5960008301846147f9565b92915050565b600080600080600060a08688031215614a7b57614a7a614185565b5b6000614a89888289016141d8565b9550506020614a9a8882890161442c565b9450506040614aab888289016141d8565b9350506060614abc8882890161442c565b9250506080614acd8882890161442c565b9150509295509295909350565b614ae381614644565b82525050565b600061016082019050614aff600083018e614762565b614b0c602083018d614762565b614b19604083018c614481565b614b26606083018b614762565b614b33608083018a614481565b614b4060a0830189614481565b614b4d60c0830188614481565b614b5a60e0830187614481565b614b68610100830186614481565b614b76610120830185614ada565b614b84610140830184614481565b9c9b505050505050505050505050565b600080600060608486031215614bad57614bac614185565b5b6000614bbb868287016141d8565b9350506020614bcc8682870161442c565b9250506040614bdd8682870161442c565b9150509250925092565b7f61646472657373207a65726f206973206e6f7420612076616c6964206164647260008201527f6573730000000000000000000000000000000000000000000000000000000000602082015250565b6000614c43602383614771565b9150614c4e82614be7565b604082019050919050565b60006020820190508181036000830152614c7281614c36565b9050919050565b7f4e487b7100000000000000000000000000000000000000000000000000000000600052602260045260246000fd5b60006002820490506001821680614cc057607f821691505b60208210811415614cd457614cd3614c79565b5b50919050565b7f4e465420686173206e6f742075736520617320636f6c6c61746572616c000000600082015250565b6000614d10601d83614771565b9150614d1b82614cda565b602082019050919050565b60006020820190508181036000830152614d3f81614d03565b9050919050565b7f43616c6c6572206d757374206265206f776e6572206e6674206f722061646d6960008201527f6e00000000000000000000000000000000000000000000000000000000000000602082015250565b6000614da2602183614771565b9150614dad82614d46565b604082019050919050565b60006020820190508181036000830152614dd181614d95565b9050919050565b7f43616c6c6572206d757374206265206f776e6572206e66740000000000000000600082015250565b6000614e0e601883614771565b9150614e1982614dd8565b602082019050919050565b60006020820190508181036000830152614e3d81614e01565b9050919050565b7f4c6f616e20737461746520697320696e76616c69640000000000000000000000600082015250565b6000614e7a601583614771565b9150614e8582614e44565b602082019050919050565b60006020820190508181036000830152614ea981614e6d565b9050919050565b7f4e487b7100000000000000000000000000000000000000000000000000000000600052601160045260246000fd5b6000614eea826142de565b9150614ef5836142de565b925082821015614f0857614f07614eb0565b5b828203905092915050565b7f4561726c79206c69717569646174696f6e2074696d6520697320696e76616c6960008201527f6400000000000000000000000000000000000000000000000000000000000000602082015250565b6000614f6f602183614771565b9150614f7a82614f13565b604082019050919050565b60006020820190508181036000830152614f9e81614f62565b9050919050565b6000614fb0826142de565b9150614fbb836142de565b9250827fffffffffffffffffffffffffffffffffffffffffffffffffffffffffffffffff03821115614ff057614fef614eb0565b5b828201905092915050565b60006060820190506150106000830186614762565b61501d6020830185614762565b61502a6040830184614481565b949350505050565b61503b81614326565b811461504657600080fd5b50565b60008151905061505881615032565b92915050565b60006020828403121561507457615073614185565b5b600061508284828501615049565b91505092915050565b60006080820190506150a06000830187614481565b6150ad6020830186614ada565b6150ba6040830185614481565b6150c76060830184614481565b95945050505050565b7f546f6b656e206164647265737320697320746865207a65726f2061646472657360008201527f7300000000000000000000000000000000000000000000000000000000000000602082015250565b600061512c602183614771565b9150615137826150d0565b604082019050919050565b6000602082019050818103600083015261515b8161511f565b9050919050565b7f546f6b656e206578697374656400000000000000000000000000000000000000600082015250565b6000615198600d83614771565b91506151a382615162565b602082019050919050565b600060208201905081810360008301526151c78161518b565b9050919050565b7f52617465206d757374206265203e203000000000000000000000000000000000600082015250565b6000615204601083614771565b915061520f826151ce565b602082019050919050565b60006020820190508181036000830152615233816151f7565b9050919050565b600080fd5b7f4e487b7100000000000000000000000000000000000000000000000000000000600052604160045260246000fd5b61527782614278565b810181811067ffffffffffffffff821117156152965761529561523f565b5b80604052505050565b60006152a961417b565b90506152b5828261526e565b919050565b600067ffffffffffffffff8211156152d5576152d461523f565b5b6152de82614278565b9050602081019050919050565b60006152fe6152f9846152ba565b61529f565b90508281526020810184848401111561531a5761531961523a565b5b615325848285614245565b509392505050565b600082601f830112615342576153416144ab565b5b81516153528482602086016152eb565b91505092915050565b60006020828403121561537157615370614185565b5b600082015167ffffffffffffffff81111561538f5761538e61418a565b5b61539b8482850161532d565b91505092915050565b6153ad816142c2565b81146153b857600080fd5b50565b6000815190506153ca816153a4565b92915050565b6000602082840312156153e6576153e5614185565b5b60006153f4848285016153bb565b91505092915050565b600061012082019050615413600083018c614762565b8181036020830152615425818b614782565b9050615434604083018a6147bb565b6154416060830189614481565b61544e6080830188614481565b61545b60a0830187614481565b61546860c0830186614481565b61547560e0830185614481565b615483610100830184614481565b9a9950505050505050505050565b7f416d6f756e7420746f6b656e20697320746f6f206c6f77000000000000000000600082015250565b60006154c7601783614771565b91506154d282615491565b602082019050919050565b600060208201905081810360008301526154f6816154ba565b9050919050565b60006040820190506155126000830185614762565b61551f6020830184614481565b9392505050565b7f696e76616c696420737461746520696e70757400000000000000000000000000600082015250565b600061555c601383614771565b915061556782615526565b602082019050919050565b6000602082019050818103600083015261558b8161554f565b9050919050565b6000815190506155a1816141c1565b92915050565b6000602082840312156155bd576155bc614185565b5b60006155cb84828501615592565b91505092915050565b7f426f72726f776572206d757374206265206f776e6572206e6674000000000000600082015250565b600061560a601a83614771565b9150615615826155d4565b602082019050919050565b60006020820190508181036000830152615639816155fd565b9050919050565b7f496e76616c6964204c6f616e2073746174650000000000000000000000000000600082015250565b6000615676601283614771565b915061568182615640565b602082019050919050565b600060208201905081810360008301526156a581615669565b9050919050565b60006156b7826142de565b91506156c2836142de565b9250817fffffffffffffffffffffffffffffffffffffffffffffffffffffffffffffffff04831182151516156156fb576156fa614eb0565b5b828202905092915050565b7f546f6b656e207472616e73666572206661696c65640000000000000000000000600082015250565b600061573c601583614771565b915061574782615706565b602082019050919050565b6000602082019050818103600083015261576b8161572f565b9050919050565b7f43616c6c6572206d75737420626520626f72726f776572000000000000000000600082015250565b60006157a8601783614771565b91506157b382615772565b602082019050919050565b600060208201905081810360008301526157d78161579b565b9050919050565b7f496e76616c69642074696d652072657061796d656e7400000000000000000000600082015250565b6000615814601683614771565b915061581f826157de565b602082019050919050565b6000602082019050818103600083015261584381615807565b9050919050565b600060608201905061585f6000830186614481565b61586c6020830185614ada565b6158796040830184614481565b949350505050565b7f43616c6c657220697320746865207a65726f2061646472657373000000000000600082015250565b60006158b7601a83614771565b91506158c282615881565b602082019050919050565b600060208201905081810360008301526158e6816158aa565b9050919050565b7f4e6674206164647265737320697320746865207a65726f206164647265737300600082015250565b6000615923601f83614771565b915061592e826158ed565b602082019050919050565b6000602082019050818103600083015261595281615916565b9050919050565b7f43616c6c65722068617665206e6f7420746f2062652061646d696e0000000000600082015250565b600061598f601b83614771565b915061599a82615959565b602082019050919050565b600060208201905081810360008301526159be81615982565b9050919050565b7f4e465420686173207573657320617320636f6c6c61746572616c000000000000600082015250565b60006159fb601a83614771565b9150615a06826159c5565b602082019050919050565b60006020820190508181036000830152615a2a816159ee565b9050919050565b7f496e76616c6964206c6f616e20616d6f756e7400000000000000000000000000600082015250565b6000615a67601383614771565b9150615a7282615a31565b602082019050919050565b60006020820190508181036000830152615a9681615a5a565b9050919050565b7f696e76616c6964206c6f616e206475726174696f6e0000000000000000000000600082015250565b6000615ad3601583614771565b9150615ade82615a9d565b602082019050919050565b60006020820190508181036000830152615b0281615ac6565b9050919050565b7f43616c6c657220646964206e6f7420617070726f766520666f72206e6674546f60008201527f6b656e496420746f6b656e2e0000000000000000000000000000000000000000602082015250565b6000615b65602c83614771565b9150615b7082615b09565b604082019050919050565b60006020820190508181036000830152615b9481615b58565b9050919050565b600061014082019050615bb1600083018d614481565b615bbe602083018c614762565b615bcb604083018b614762565b615bd8606083018a614481565b615be56080830189614762565b615bf260a0830188614481565b615bff60c0830187614481565b615c0c60e0830186614481565b615c1a610100830185614ada565b615c28610120830184614481565b9b9a5050505050505050505050565b7f4c6f616e20737461747573206973206e6f7420636f7272656374000000000000600082015250565b6000615c6d601a83614771565b9150615c7882615c37565b602082019050919050565b60006020820190508181036000830152615c9c81615c60565b9050919050565b7f546f6b656e206d75737420657869737400000000000000000000000000000000600082015250565b6000615cd9601083614771565b9150615ce482615ca3565b602082019050919050565b60006020820190508181036000830152615d0881615ccc565b9050919050565b600060e082019050615d24600083018a614762565b615d316020830189614481565b615d3e6040830188614481565b615d4b6060830187614481565b615d586080830186614481565b615d6560a0830185614481565b615d7260c0830184614481565b98975050505050505050565b7f4f776e61626c653a206e6577206f776e657220697320746865207a65726f206160008201527f6464726573730000000000000000000000000000000000000000000000000000602082015250565b6000615dda602683614771565b9150615de582615d7e565b604082019050919050565b60006020820190508181036000830152615e0981615dcd565b9050919050565b7f4c6f616e20657874656e73696f6e206973206c696d6974656400000000000000600082015250565b6000615e46601983614771565b9150615e5182615e10565b602082019050919050565b60006020820190508181036000830152615e7581615e39565b9050919050565b600060a082019050615e916000830188614481565b615e9e6020830187614481565b615eab6040830186614481565b615eb86060830185614481565b615ec56080830184614481565b9695505050505050565b7f4e487b7100000000000000000000000000000000000000000000000000000000600052601260045260246000fd5b6000615f09826142de565b9150615f14836142de565b925082615f2457615f23615ecf565b5b828204905092915050565b7f4e487b7100000000000000000000000000000000000000000000000000000000600052600160045260246000fd5b7f4f776e61626c653a2063616c6c6572206973206e6f7420746865206f776e6572600082015250565b6000615f94602083614771565b9150615f9f82615f5e565b602082019050919050565b60006020820190508181036000830152615fc381615f87565b905091905056fea2646970667358221220c0176ad3076361693ff68d644159521838af6a7d34f43504f052804fc446359664736f6c63430008090033",
  "linkReferences": {},
  "deployedLinkReferences": {}
}