{"contracts/LendingToken.sol":{"LendingToken":{"abi":[{"anonymous":false,"inputs":[{"indexed":false,"internalType":"address","name":"token","type":"address"},{"indexed":false,"internalType":"string","name":"symbol","type":"string"},{"indexed":false,"internalType":"uint8","name":"decimals","type":"uint8"},{"indexed":false,"internalType":"uint256","name":"interestRateNumerator","type":"uint256"},{"indexed":false,"internalType":"uint256","name":"interestRateDenominator","type":"uint256"},{"indexed":false,"internalType":"uint256","name":"extendedRateNumerator","type":"uint256"},{"indexed":false,"internalType":"uint256","name":"extendedRateDenominator","type":"uint256"},{"indexed":false,"internalType":"uint256","name":"earlyRateNumerator","type":"uint256"},{"indexed":false,"internalType":"uint256","name":"earlyRateDenominator","type":"uint256"}],"name":"AddTokenRate","type":"event"},{"anonymous":false,"inputs":[{"indexed":false,"internalType":"uint256","name":"loanId","type":"uint256"},{"indexed":false,"internalType":"enum LendingToken.LoanState","name":"state","type":"uint8"},{"indexed":false,"internalType":"uint256","name":"startDate","type":"uint256"},{"indexed":false,"internalType":"uint256","name":"dueDate","type":"uint256"}],"name":"LoanAcceptedOrRejected","type":"event"},{"anonymous":false,"inputs":[{"indexed":false,"internalType":"uint256","name":"loanId","type":"uint256"},{"indexed":false,"internalType":"uint256","name":"extendedAt","type":"uint256"},{"indexed":false,"internalType":"uint256","name":"extendedDuration","type":"uint256"},{"indexed":false,"internalType":"uint256","name":"extendFee","type":"uint256"},{"indexed":false,"internalType":"uint256","name":"dueDate","type":"uint256"}],"name":"LoanExtension","type":"event"},{"anonymous":false,"inputs":[{"indexed":false,"internalType":"uint256","name":"loanId","type":"uint256"},{"indexed":false,"internalType":"enum LendingToken.LoanState","name":"state","type":"uint8"},{"indexed":false,"internalType":"uint256","name":"repaiedAt","type":"uint256"}],"name":"LoanRepaied","type":"event"},{"anonymous":false,"inputs":[{"indexed":false,"internalType":"uint256","name":"loanId","type":"uint256"},{"indexed":false,"internalType":"enum LendingToken.LoanState","name":"state","type":"uint8"},{"indexed":false,"internalType":"uint256","name":"repaiedEarlyAt","type":"uint256"},{"indexed":false,"internalType":"uint256","name":"repaiedEarlyFee","type":"uint256"}],"name":"LoanRepaiedEarly","type":"event"},{"anonymous":false,"inputs":[{"indexed":false,"internalType":"uint256","name":"loanId","type":"uint256"},{"indexed":false,"internalType":"address","name":"borrower","type":"address"},{"indexed":false,"internalType":"address","name":"nft","type":"address"},{"indexed":false,"internalType":"uint256","name":"nftTokenId","type":"uint256"},{"indexed":false,"internalType":"address","name":"tokenAddr","type":"address"},{"indexed":false,"internalType":"uint256","name":"loanAmount","type":"uint256"},{"indexed":false,"internalType":"uint256","name":"payoffAmount","type":"uint256"},{"indexed":false,"internalType":"uint256","name":"loanDuration","type":"uint256"},{"indexed":false,"internalType":"enum LendingToken.LoanState","name":"state","type":"uint8"},{"indexed":false,"internalType":"uint256","name":"createdAt","type":"uint256"}],"name":"LoanRequest","type":"event"},{"anonymous":false,"inputs":[{"indexed":false,"internalType":"address","name":"nft","type":"address"},{"indexed":false,"internalType":"uint256","name":"nftTokenId","type":"uint256"}],"name":"NftWithdraw","type":"event"},{"anonymous":false,"inputs":[{"indexed":true,"internalType":"address","name":"previousOwner","type":"address"},{"indexed":true,"internalType":"address","name":"newOwner","type":"address"}],"name":"OwnershipTransferred","type":"event"},{"anonymous":false,"inputs":[{"indexed":false,"internalType":"uint256","name":"loanId","type":"uint256"},{"indexed":false,"internalType":"enum LendingToken.LoanState","name":"state","type":"uint8"},{"indexed":false,"internalType":"uint256","name":"currentTime","type":"uint256"}],"name":"PaymentMissing","type":"event"},{"anonymous":false,"inputs":[{"indexed":false,"internalType":"address","name":"token","type":"address"},{"indexed":false,"internalType":"uint256","name":"amount","type":"uint256"}],"name":"TokenDeposit","type":"event"},{"anonymous":false,"inputs":[{"indexed":false,"internalType":"address","name":"token","type":"address"},{"indexed":false,"internalType":"uint256","name":"amount","type":"uint256"}],"name":"TokenWithdraw","type":"event"},{"anonymous":false,"inputs":[{"indexed":false,"internalType":"address","name":"tokenAddr","type":"address"},{"indexed":false,"internalType":"uint256","name":"interestRateNumerator","type":"uint256"},{"indexed":false,"internalType":"uint256","name":"interestRateDenominator","type":"uint256"},{"indexed":false,"internalType":"uint256","name":"extendedRateNumerator","type":"uint256"},{"indexed":false,"internalType":"uint256","name":"extendedRateDenominator","type":"uint256"},{"indexed":false,"internalType":"uint256","name":"earlyRateNumerator","type":"uint256"},{"indexed":false,"internalType":"uint256","name":"earlyRateDenominator","type":"uint256"}],"name":"UpdateTokenRate","type":"event"},{"inputs":[],"name":"TIME_DURATION","outputs":[{"internalType":"uint256","name":"","type":"uint256"}],"stateMutability":"view","type":"function"},{"inputs":[{"internalType":"address","name":"","type":"address"},{"internalType":"uint256","name":"","type":"uint256"}],"name":"_nftToLoanIds","outputs":[{"internalType":"uint256","name":"","type":"uint256"}],"stateMutability":"view","type":"function"},{"inputs":[{"internalType":"address","name":"tokenAddr","type":"address"},{"internalType":"uint256","name":"interestRateNumerator","type":"uint256"},{"internalType":"uint256","name":"interestRateDenominator","type":"uint256"},{"internalType":"uint256","name":"extendedRateNumerator","type":"uint256"},{"internalType":"uint256","name":"extendedRateDenominator","type":"uint256"},{"internalType":"uint256","name":"earlyRateNumerator","type":"uint256"},{"internalType":"uint256","name":"earlyRateDenominator","type":"uint256"}],"name":"addToken","outputs":[],"stateMutability":"nonpayable","type":"function"},{"inputs":[{"internalType":"uint256","name":"amount","type":"uint256"},{"internalType":"uint256","name":"num","type":"uint256"},{"internalType":"uint256","name":"de","type":"uint256"}],"name":"calculateFee","outputs":[{"internalType":"uint256","name":"","type":"uint256"}],"stateMutability":"pure","type":"function"},{"inputs":[{"internalType":"address","name":"token","type":"address"},{"internalType":"uint256","name":"amount","type":"uint256"}],"name":"deposit","outputs":[],"stateMutability":"nonpayable","type":"function"},{"inputs":[{"internalType":"address","name":"nft","type":"address"},{"internalType":"uint256","name":"nftTokenId","type":"uint256"},{"internalType":"uint256","name":"extendedDuration","type":"uint256"}],"name":"extendLoan","outputs":[],"stateMutability":"nonpayable","type":"function"},{"inputs":[{"internalType":"address","name":"nft","type":"address"},{"internalType":"uint256","name":"nftTokenId","type":"uint256"}],"name":"getLoanAgreement","outputs":[{"components":[{"internalType":"address","name":"borrower","type":"address"},{"internalType":"address","name":"nft","type":"address"},{"internalType":"uint256","name":"nftTokenId","type":"uint256"},{"internalType":"address","name":"token","type":"address"},{"internalType":"uint256","name":"loanAmount","type":"uint256"},{"internalType":"uint256","name":"payoffAmount","type":"uint256"},{"internalType":"uint256","name":"startDate","type":"uint256"},{"internalType":"uint256","name":"loanDuration","type":"uint256"},{"internalType":"uint256","name":"dueDate","type":"uint256"},{"internalType":"enum LendingToken.LoanState","name":"state","type":"uint8"},{"internalType":"uint256","name":"createdAt","type":"uint256"}],"internalType":"struct LendingToken.LoanAgreement","name":"loanAgreement","type":"tuple"}],"stateMutability":"view","type":"function"},{"inputs":[{"internalType":"address","name":"nft","type":"address"},{"internalType":"uint256","name":"nftTokenId","type":"uint256"}],"name":"getLoanId","outputs":[{"internalType":"uint256","name":"","type":"uint256"}],"stateMutability":"view","type":"function"},{"inputs":[{"internalType":"address","name":"tokenAddr","type":"address"}],"name":"getTokenErc","outputs":[{"components":[{"internalType":"address","name":"seller","type":"address"},{"internalType":"address","name":"addr","type":"address"},{"internalType":"string","name":"symbol","type":"string"},{"internalType":"uint8","name":"decimals","type":"uint8"},{"components":[{"internalType":"uint256","name":"numerator","type":"uint256"},{"internalType":"uint256","name":"denominator","type":"uint256"}],"internalType":"struct LendingToken.Rational","name":"interestRate","type":"tuple"},{"components":[{"internalType":"uint256","name":"numerator","type":"uint256"},{"internalType":"uint256","name":"denominator","type":"uint256"}],"internalType":"struct LendingToken.Rational","name":"extendedRate","type":"tuple"},{"components":[{"internalType":"uint256","name":"numerator","type":"uint256"},{"internalType":"uint256","name":"denominator","type":"uint256"}],"internalType":"struct LendingToken.Rational","name":"earlyRate","type":"tuple"},{"internalType":"bool","name":"exists","type":"bool"}],"internalType":"struct LendingToken.Token","name":"token","type":"tuple"}],"stateMutability":"view","type":"function"},{"inputs":[{"internalType":"address","name":"nft","type":"address"},{"internalType":"uint256","name":"nftTokenId","type":"uint256"}],"name":"liquidate","outputs":[],"stateMutability":"nonpayable","type":"function"},{"inputs":[{"internalType":"address","name":"","type":"address"}],"name":"listingsToken","outputs":[{"internalType":"address","name":"seller","type":"address"},{"internalType":"address","name":"addr","type":"address"},{"internalType":"string","name":"symbol","type":"string"},{"internalType":"uint8","name":"decimals","type":"uint8"},{"components":[{"internalType":"uint256","name":"numerator","type":"uint256"},{"internalType":"uint256","name":"denominator","type":"uint256"}],"internalType":"struct LendingToken.Rational","name":"interestRate","type":"tuple"},{"components":[{"internalType":"uint256","name":"numerator","type":"uint256"},{"internalType":"uint256","name":"denominator","type":"uint256"}],"internalType":"struct LendingToken.Rational","name":"extendedRate","type":"tuple"},{"components":[{"internalType":"uint256","name":"numerator","type":"uint256"},{"internalType":"uint256","name":"denominator","type":"uint256"}],"internalType":"struct LendingToken.Rational","name":"earlyRate","type":"tuple"},{"internalType":"bool","name":"exists","type":"bool"}],"stateMutability":"view","type":"function"},{"inputs":[{"internalType":"uint256","name":"","type":"uint256"}],"name":"loanAgreements","outputs":[{"internalType":"address","name":"borrower","type":"address"},{"internalType":"address","name":"nft","type":"address"},{"internalType":"uint256","name":"nftTokenId","type":"uint256"},{"internalType":"address","name":"token","type":"address"},{"internalType":"uint256","name":"loanAmount","type":"uint256"},{"internalType":"uint256","name":"payoffAmount","type":"uint256"},{"internalType":"uint256","name":"startDate","type":"uint256"},{"internalType":"uint256","name":"loanDuration","type":"uint256"},{"internalType":"uint256","name":"dueDate","type":"uint256"},{"internalType":"enum LendingToken.LoanState","name":"state","type":"uint8"},{"internalType":"uint256","name":"createdAt","type":"uint256"}],"stateMutability":"view","type":"function"},{"inputs":[{"internalType":"address","name":"nft","type":"address"},{"internalType":"uint256","name":"nftTokenId","type":"uint256"}],"name":"missedPayment","outputs":[{"internalType":"bool","name":"","type":"bool"}],"stateMutability":"nonpayable","type":"function"},{"inputs":[{"internalType":"address","name":"operator","type":"address"},{"internalType":"address","name":"from","type":"address"},{"internalType":"uint256","name":"tokenId","type":"uint256"},{"internalType":"bytes","name":"data","type":"bytes"}],"name":"onERC721Received","outputs":[{"internalType":"bytes4","name":"","type":"bytes4"}],"stateMutability":"nonpayable","type":"function"},{"inputs":[],"name":"owner","outputs":[{"internalType":"address","name":"","type":"address"}],"stateMutability":"view","type":"function"},{"inputs":[],"name":"renounceOwnership","outputs":[],"stateMutability":"nonpayable","type":"function"},{"inputs":[{"internalType":"address","name":"nft","type":"address"},{"internalType":"uint256","name":"nftTokenId","type":"uint256"}],"name":"repaiedEarly","outputs":[],"stateMutability":"nonpayable","type":"function"},{"inputs":[{"internalType":"address","name":"nft","type":"address"},{"internalType":"uint256","name":"nftTokenId","type":"uint256"}],"name":"repayLoan","outputs":[],"stateMutability":"nonpayable","type":"function"},{"inputs":[{"internalType":"address","name":"nft","type":"address"},{"internalType":"uint256","name":"nftTokenId","type":"uint256"},{"internalType":"address","name":"tokenAddr","type":"address"},{"internalType":"uint256","name":"loanAmount","type":"uint256"},{"internalType":"uint256","name":"loanDuration","type":"uint256"}],"name":"requestLoan","outputs":[],"stateMutability":"nonpayable","type":"function"},{"inputs":[{"internalType":"uint256","name":"time","type":"uint256"}],"name":"setTime","outputs":[],"stateMutability":"nonpayable","type":"function"},{"inputs":[{"internalType":"address","name":"nft","type":"address"},{"internalType":"uint256","name":"nftTokenId","type":"uint256"},{"internalType":"enum LendingToken.LoanState","name":"state","type":"uint8"}],"name":"takeALoan","outputs":[],"stateMutability":"nonpayable","type":"function"},{"inputs":[{"internalType":"address","name":"newOwner","type":"address"}],"name":"transferOwnership","outputs":[],"stateMutability":"nonpayable","type":"function"},{"inputs":[{"internalType":"address","name":"tokenAddr","type":"address"},{"internalType":"uint256","name":"interestRateNumerator","type":"uint256"},{"internalType":"uint256","name":"interestRateDenominator","type":"uint256"},{"internalType":"uint256","name":"extendedRateNumerator","type":"uint256"},{"internalType":"uint256","name":"extendedRateDenominator","type":"uint256"},{"internalType":"uint256","name":"earlyRateNumerator","type":"uint256"},{"internalType":"uint256","name":"earlyRateDenominator","type":"uint256"}],"name":"updateToken","outputs":[],"stateMutability":"nonpayable","type":"function"},{"inputs":[{"internalType":"address","name":"token","type":"address"},{"internalType":"uint256","name":"amount","type":"uint256"}],"name":"withdraw","outputs":[],"stateMutability":"nonpayable","type":"function"}],"evm":{"bytecode":{"linkReferences":{},"object":"60806040523480156200001157600080fd5b5062000032620000266200003860201b60201c565b6200004060201b60201c565b62000104565b600033905090565b60008060009054906101000a900473ffffffffffffffffffffffffffffffffffffffff169050816000806101000a81548173ffffffffffffffffffffffffffffffffffffffff021916908373ffffffffffffffffffffffffffffffffffffffff1602179055508173ffffffffffffffffffffffffffffffffffffffff168173ffffffffffffffffffffffffffffffffffffffff167f8be0079c531659141344cd1fd0a4f28419497f9722a3daafe3b4186f6b6457e060405160405180910390a35050565b61600080620001146000396000f3fe608060405234801561001057600080fd5b50600436106101585760003560e01c8063815083df116100c3578063bcbaf4871161007c578063bcbaf487146103ee578063bfd04a5d1461040a578063c8304dfb14610426578063f2fde38b14610460578063f3fef3a31461047c578063f56cc9151461049857610158565b8063815083df1461032e5780638da5cb5b1461034a57806393a595f5146103685780639694268f14610384578063a48e84e3146103b4578063b6805d20146103d257610158565b806335c16bca1161011557806335c16bca146102705780633699e7d11461028c5780633beb26c4146102bc57806347e7ef24146102d85780635357b989146102f4578063715018a61461032457610158565b80630be369b41461015d57806311615d301461018d578063150b7a02146101bd57806319dbb6d2146101ed57806325ae23931461021d57806329c7f9e014610254575b600080fd5b610177600480360381019061017291906141ed565b6104b4565b60405161018491906143f3565b60405180910390f35b6101a760048036038101906101a29190614441565b61076c565b6040516101b49190614490565b60405180910390f35b6101d760048036038101906101d29190614510565b61085a565b6040516101e491906145d3565b60405180910390f35b61020760048036038101906102029190614441565b610888565b6040516102149190614746565b60405180910390f35b610237600480360381019061023291906141ed565b610c75565b60405161024b989796959493929190614808565b60405180910390f35b61026e60048036038101906102699190614441565b610df9565b005b61028a6004803603810190610285919061488f565b6112f3565b005b6102a660048036038101906102a19190614441565b611826565b6040516102b39190614490565b60405180910390f35b6102d660048036038101906102d19190614931565b61184b565b005b6102f260048036038101906102ed9190614441565b61185d565b005b61030e6004803603810190610309919061495e565b6119e5565b60405161031b9190614490565b60405180910390f35b61032c611a19565b005b610348600480360381019061034391906149d6565b611a2d565b005b61035261207a565b60405161035f9190614a29565b60405180910390f35b610382600480360381019061037d9190614441565b6120a3565b005b61039e60048036038101906103999190614441565b612577565b6040516103ab9190614a44565b60405180910390f35b6103bc61293d565b6040516103c99190614490565b60405180910390f35b6103ec60048036038101906103e79190614a5f565b612943565b005b61040860048036038101906104039190614441565b6132c8565b005b610424600480360381019061041f919061488f565b613552565b005b610440600480360381019061043b9190614931565b613747565b6040516104579b9a99989796959493929190614ae9565b60405180910390f35b61047a600480360381019061047591906141ed565b61380e565b005b61049660048036038101906104919190614441565b613892565b005b6104b260048036038101906104ad9190614b94565b613a18565b005b6104bc613f88565b600073ffffffffffffffffffffffffffffffffffffffff163373ffffffffffffffffffffffffffffffffffffffff16141561052c576040517f08c379a000000000000000000000000000000000000000000000000000000000815260040161052390614c59565b60405180910390fd5b600560008373ffffffffffffffffffffffffffffffffffffffff1673ffffffffffffffffffffffffffffffffffffffff168152602001908152602001600020604051806101000160405290816000820160009054906101000a900473ffffffffffffffffffffffffffffffffffffffff1673ffffffffffffffffffffffffffffffffffffffff1673ffffffffffffffffffffffffffffffffffffffff1681526020016001820160009054906101000a900473ffffffffffffffffffffffffffffffffffffffff1673ffffffffffffffffffffffffffffffffffffffff1673ffffffffffffffffffffffffffffffffffffffff16815260200160028201805461063390614ca8565b80601f016020809104026020016040519081016040528092919081815260200182805461065f90614ca8565b80156106ac5780601f10610681576101008083540402835291602001916106ac565b820191906000526020600020905b81548152906001019060200180831161068f57829003601f168201915b505050505081526020016003820160009054906101000a900460ff1660ff1660ff168152602001600482016040518060400160405290816000820154815260200160018201548152505081526020016006820160405180604001604052908160008201548152602001600182015481525050815260200160088201604051806040016040529081600082015481526020016001820154815250508152602001600a820160009054906101000a900460ff1615151515815250509050919050565b600080600360008573ffffffffffffffffffffffffffffffffffffffff1673ffffffffffffffffffffffffffffffffffffffff1681526020019081526020016000206000848152602001908152602001600020541415610801576040517f08c379a00000000000000000000000000000000000000000000000000000000081526004016107f890614d26565b60405180910390fd5b600360008473ffffffffffffffffffffffffffffffffffffffff1673ffffffffffffffffffffffffffffffffffffffff168152602001908152602001600020600083815260200190815260200160002054905092915050565b60007f150b7a023d4804d13e8c85fb27262cb750cf6ba9f9dd3bb30d90f482ceeb4b1f905095945050505050565b610890614010565b600073ffffffffffffffffffffffffffffffffffffffff163373ffffffffffffffffffffffffffffffffffffffff161415610900576040517f08c379a00000000000000000000000000000000000000000000000000000000081526004016108f790614c59565b60405180910390fd5b6000600360008573ffffffffffffffffffffffffffffffffffffffff1673ffffffffffffffffffffffffffffffffffffffff1681526020019081526020016000206000848152602001908152602001600020541415610994576040517f08c379a000000000000000000000000000000000000000000000000000000000815260040161098b90614d26565b60405180910390fd5b6000600360008573ffffffffffffffffffffffffffffffffffffffff1673ffffffffffffffffffffffffffffffffffffffff16815260200190815260200160002060008481526020019081526020016000205490506109f161207a565b73ffffffffffffffffffffffffffffffffffffffff163373ffffffffffffffffffffffffffffffffffffffff161480610a8b57506004600082815260200190815260200160002060000160009054906101000a900473ffffffffffffffffffffffffffffffffffffffff1673ffffffffffffffffffffffffffffffffffffffff163373ffffffffffffffffffffffffffffffffffffffff16145b610aca576040517f08c379a0000000000000000000000000000000000000000000000000000000008152600401610ac190614db8565b60405180910390fd5b60046000828152602001908152602001600020604051806101600160405290816000820160009054906101000a900473ffffffffffffffffffffffffffffffffffffffff1673ffffffffffffffffffffffffffffffffffffffff1673ffffffffffffffffffffffffffffffffffffffff1681526020016001820160009054906101000a900473ffffffffffffffffffffffffffffffffffffffff1673ffffffffffffffffffffffffffffffffffffffff1673ffffffffffffffffffffffffffffffffffffffff168152602001600282015481526020016003820160009054906101000a900473ffffffffffffffffffffffffffffffffffffffff1673ffffffffffffffffffffffffffffffffffffffff1673ffffffffffffffffffffffffffffffffffffffff16815260200160048201548152602001600582015481526020016006820154815260200160078201548152602001600882015481526020016009820160009054906101000a900460ff166007811115610c4c57610c4b6145ee565b5b6007811115610c5e57610c5d6145ee565b5b8152602001600a8201548152505091505092915050565b60056020528060005260406000206000915090508060000160009054906101000a900473ffffffffffffffffffffffffffffffffffffffff16908060010160009054906101000a900473ffffffffffffffffffffffffffffffffffffffff1690806002018054610ce490614ca8565b80601f0160208091040260200160405190810160405280929190818152602001828054610d1090614ca8565b8015610d5d5780601f10610d3257610100808354040283529160200191610d5d565b820191906000526020600020905b815481529060010190602001808311610d4057829003601f168201915b5050505050908060030160009054906101000a900460ff169080600401604051806040016040529081600082015481526020016001820154815250509080600601604051806040016040529081600082015481526020016001820154815250509080600801604051806040016040529081600082015481526020016001820154815250509080600a0160009054906101000a900460ff16905088565b6000600360008473ffffffffffffffffffffffffffffffffffffffff1673ffffffffffffffffffffffffffffffffffffffff1681526020019081526020016000206000838152602001908152602001600020541415610e8d576040517f08c379a0000000000000000000000000000000000000000000000000000000008152600401610e8490614d26565b60405180910390fd5b6000600360008473ffffffffffffffffffffffffffffffffffffffff1673ffffffffffffffffffffffffffffffffffffffff168152602001908152602001600020600083815260200190815260200160002054905060006004600083815260200190815260200160002090508060000160009054906101000a900473ffffffffffffffffffffffffffffffffffffffff1673ffffffffffffffffffffffffffffffffffffffff163373ffffffffffffffffffffffffffffffffffffffff1614610f8b576040517f08c379a0000000000000000000000000000000000000000000000000000000008152600401610f8290614e24565b60405180910390fd5b60026007811115610f9f57610f9e6145ee565b5b8160090160009054906101000a900460ff166007811115610fc357610fc26145ee565b5b14611003576040517f08c379a0000000000000000000000000000000000000000000000000000000008152600401610ffa90614e90565b60405180910390fd5b600042905062015180826008015461101b9190614edf565b811061105c576040517f08c379a000000000000000000000000000000000000000000000000000000000815260040161105390614f85565b60405180910390fd5b60006110f08360040154600560008660030160009054906101000a900473ffffffffffffffffffffffffffffffffffffffff1673ffffffffffffffffffffffffffffffffffffffff1673ffffffffffffffffffffffffffffffffffffffff16815260200190815260200160002060080160405180604001604052908160008201548152602001600182015481525050613d9b565b90508260030160009054906101000a900473ffffffffffffffffffffffffffffffffffffffff1673ffffffffffffffffffffffffffffffffffffffff166323b872dd33308660050154856111449190614fa5565b6040518463ffffffff1660e01b815260040161116293929190614ffb565b602060405180830381600087803b15801561117c57600080fd5b505af1158015611190573d6000803e3d6000fd5b505050506040513d601f19601f820116820180604052508101906111b4919061505e565b508260010160009054906101000a900473ffffffffffffffffffffffffffffffffffffffff1673ffffffffffffffffffffffffffffffffffffffff166342842e0e308560000160009054906101000a900473ffffffffffffffffffffffffffffffffffffffff1686600201546040518463ffffffff1660e01b815260040161123e93929190614ffb565b600060405180830381600087803b15801561125857600080fd5b505af115801561126c573d6000803e3d6000fd5b5050505060048360090160006101000a81548160ff02191690836007811115611298576112976145ee565b5b02179055507fffea83d119975b9ab264cb298ccda9a83f83f9a4ba8ba3bae0e9e449a5c38d6f848460090160009054906101000a900460ff1684846040516112e3949392919061508b565b60405180910390a1505050505050565b6112fb613dfb565b600073ffffffffffffffffffffffffffffffffffffffff168773ffffffffffffffffffffffffffffffffffffffff16141561136b576040517f08c379a000000000000000000000000000000000000000000000000000000000815260040161136290615142565b60405180910390fd5b60001515600560008973ffffffffffffffffffffffffffffffffffffffff1673ffffffffffffffffffffffffffffffffffffffff168152602001908152602001600020600a0160009054906101000a900460ff16151514611401576040517f08c379a00000000000000000000000000000000000000000000000000000000081526004016113f8906151ae565b60405180910390fd5b6000861180156114115750600085115b801561141d5750600084115b80156114295750600083115b80156114355750600082115b80156114415750600081115b611480576040517f08c379a00000000000000000000000000000000000000000000000000000000081526004016114779061521a565b60405180910390fd5b60006040518060400160405280888152602001878152509050600060405180604001604052808781526020018681525090506000604051806040016040528086815260200185815250905060008a73ffffffffffffffffffffffffffffffffffffffff166395d89b416040518163ffffffff1660e01b815260040160006040518083038186803b15801561151357600080fd5b505afa158015611527573d6000803e3d6000fd5b505050506040513d6000823e3d601f19601f82011682018060405250810190611550919061535b565b905060008b73ffffffffffffffffffffffffffffffffffffffff1663313ce5676040518163ffffffff1660e01b815260040160206040518083038186803b15801561159a57600080fd5b505afa1580156115ae573d6000803e3d6000fd5b505050506040513d601f19601f820116820180604052508101906115d291906153d0565b905060006040518061010001604052803373ffffffffffffffffffffffffffffffffffffffff1681526020018e73ffffffffffffffffffffffffffffffffffffffff1681526020018481526020018360ff16815260200187815260200186815260200185815260200160011515815250905080600560008f73ffffffffffffffffffffffffffffffffffffffff1673ffffffffffffffffffffffffffffffffffffffff16815260200190815260200160002060008201518160000160006101000a81548173ffffffffffffffffffffffffffffffffffffffff021916908373ffffffffffffffffffffffffffffffffffffffff16021790555060208201518160010160006101000a81548173ffffffffffffffffffffffffffffffffffffffff021916908373ffffffffffffffffffffffffffffffffffffffff160217905550604082015181600201908051906020019061172e9291906140be565b5060608201518160030160006101000a81548160ff021916908360ff1602179055506080820151816004016000820151816000015560208201518160010155505060a0820151816006016000820151816000015560208201518160010155505060c0820151816008016000820151816000015560208201518160010155505060e082015181600a0160006101000a81548160ff0219169083151502179055509050507fe4c4d61c208e86f9adea5be59f72850d1802d624b3f5a9d023469b2a81fb3a9b8d84848f8f8f8f8f8f60405161180f999897969594939291906153fd565b60405180910390a150505050505050505050505050565b6003602052816000526040600020602052806000526040600020600091509150505481565b611853613dfb565b8060028190555050565b611865613dfb565b600073ffffffffffffffffffffffffffffffffffffffff168273ffffffffffffffffffffffffffffffffffffffff1614156118d5576040517f08c379a00000000000000000000000000000000000000000000000000000000081526004016118cc90615142565b60405180910390fd5b60008111611918576040517f08c379a000000000000000000000000000000000000000000000000000000000815260040161190f906154dd565b60405180910390fd5b8173ffffffffffffffffffffffffffffffffffffffff166323b872dd3330846040518463ffffffff1660e01b815260040161195593929190614ffb565b602060405180830381600087803b15801561196f57600080fd5b505af1158015611983573d6000803e3d6000fd5b505050506040513d601f19601f820116820180604052508101906119a7919061505e565b507f20b3fc91390f6ceba342f697a9490734680fd3556633f40efa146f1dbe79d05f82826040516119d99291906154fd565b60405180910390a15050565b60008060405180604001604052808581526020018481525090506000611a0b8683613d9b565b905080925050509392505050565b611a21613dfb565b611a2b6000613e79565b565b611a35613dfb565b6000600360008573ffffffffffffffffffffffffffffffffffffffff1673ffffffffffffffffffffffffffffffffffffffff1681526020019081526020016000206000848152602001908152602001600020541415611ac9576040517f08c379a0000000000000000000000000000000000000000000000000000000008152600401611ac090614d26565b60405180910390fd5b60016007811115611add57611adc6145ee565b5b816007811115611af057611aef6145ee565b5b1480611b20575060026007811115611b0b57611b0a6145ee565b5b816007811115611b1e57611b1d6145ee565b5b145b611b5f576040517f08c379a0000000000000000000000000000000000000000000000000000000008152600401611b5690615572565b60405180910390fd5b6000600360008573ffffffffffffffffffffffffffffffffffffffff1673ffffffffffffffffffffffffffffffffffffffff1681526020019081526020016000206000848152602001908152602001600020549050600060046000838152602001908152602001600020905060008160010160009054906101000a900473ffffffffffffffffffffffffffffffffffffffff1690508073ffffffffffffffffffffffffffffffffffffffff16636352211e83600201546040518263ffffffff1660e01b8152600401611c319190614490565b60206040518083038186803b158015611c4957600080fd5b505afa158015611c5d573d6000803e3d6000fd5b505050506040513d601f19601f82011682018060405250810190611c8191906155a7565b73ffffffffffffffffffffffffffffffffffffffff168260000160009054906101000a900473ffffffffffffffffffffffffffffffffffffffff1673ffffffffffffffffffffffffffffffffffffffff1614611d12576040517f08c379a0000000000000000000000000000000000000000000000000000000008152600401611d0990615620565b60405180910390fd5b60008260030160009054906101000a900473ffffffffffffffffffffffffffffffffffffffff16905060006007811115611d4f57611d4e6145ee565b5b8360090160009054906101000a900460ff166007811115611d7357611d726145ee565b5b14611db3576040517f08c379a0000000000000000000000000000000000000000000000000000000008152600401611daa9061568c565b60405180910390fd5b848360090160006101000a81548160ff02191690836007811115611dda57611dd96145ee565b5b021790555060004290506000620151808560070154611df991906156ac565b82611e049190614fa5565b905060026007811115611e1a57611e196145ee565b5b876007811115611e2d57611e2c6145ee565b5b1415611fdb578185600601819055508085600801819055508373ffffffffffffffffffffffffffffffffffffffff166342842e0e8660000160009054906101000a900473ffffffffffffffffffffffffffffffffffffffff163088600201546040518463ffffffff1660e01b8152600401611eaa93929190614ffb565b600060405180830381600087803b158015611ec457600080fd5b505af1158015611ed8573d6000803e3d6000fd5b5050505060008373ffffffffffffffffffffffffffffffffffffffff1663a9059cbb8760000160009054906101000a900473ffffffffffffffffffffffffffffffffffffffff1688600401546040518363ffffffff1660e01b8152600401611f419291906154fd565b602060405180830381600087803b158015611f5b57600080fd5b505af1158015611f6f573d6000803e3d6000fd5b505050506040513d601f19601f82011682018060405250810190611f93919061505e565b905080611fd5576040517f08c379a0000000000000000000000000000000000000000000000000000000008152600401611fcc90615752565b60405180910390fd5b50612032565b6000600360008b73ffffffffffffffffffffffffffffffffffffffff1673ffffffffffffffffffffffffffffffffffffffff16815260200190815260200160002060008a8152602001908152602001600020819055505b7f4cc556f6664640f451fdc3abfad3e41a2cd1fc739ff53b722b7376c235a7173386888484604051612067949392919061508b565b60405180910390a1505050505050505050565b60008060009054906101000a900473ffffffffffffffffffffffffffffffffffffffff16905090565b6000600360008473ffffffffffffffffffffffffffffffffffffffff1673ffffffffffffffffffffffffffffffffffffffff1681526020019081526020016000206000838152602001908152602001600020541415612137576040517f08c379a000000000000000000000000000000000000000000000000000000000815260040161212e90614d26565b60405180910390fd5b6000600360008473ffffffffffffffffffffffffffffffffffffffff1673ffffffffffffffffffffffffffffffffffffffff168152602001908152602001600020600083815260200190815260200160002054905060006004600083815260200190815260200160002090508060000160009054906101000a900473ffffffffffffffffffffffffffffffffffffffff1673ffffffffffffffffffffffffffffffffffffffff163373ffffffffffffffffffffffffffffffffffffffff1614612235576040517f08c379a000000000000000000000000000000000000000000000000000000000815260040161222c906157be565b60405180910390fd5b60026007811115612249576122486145ee565b5b8160090160009054906101000a900460ff16600781111561226d5761226c6145ee565b5b146122ad576040517f08c379a00000000000000000000000000000000000000000000000000000000081526004016122a490614e90565b60405180910390fd5b60004290508160080154811080156122d757506201518082600801546122d39190614edf565b8110155b612316576040517f08c379a000000000000000000000000000000000000000000000000000000000815260040161230d9061582a565b60405180910390fd5b8160030160009054906101000a900473ffffffffffffffffffffffffffffffffffffffff1673ffffffffffffffffffffffffffffffffffffffff166323b872dd333085600501546040518463ffffffff1660e01b815260040161237b93929190614ffb565b602060405180830381600087803b15801561239557600080fd5b505af11580156123a9573d6000803e3d6000fd5b505050506040513d601f19601f820116820180604052508101906123cd919061505e565b508160010160009054906101000a900473ffffffffffffffffffffffffffffffffffffffff1673ffffffffffffffffffffffffffffffffffffffff166342842e0e308460000160009054906101000a900473ffffffffffffffffffffffffffffffffffffffff1685600201546040518463ffffffff1660e01b815260040161245793929190614ffb565b600060405180830381600087803b15801561247157600080fd5b505af1158015612485573d6000803e3d6000fd5b505050506000600360008460010160009054906101000a900473ffffffffffffffffffffffffffffffffffffffff1673ffffffffffffffffffffffffffffffffffffffff1673ffffffffffffffffffffffffffffffffffffffff1681526020019081526020016000206000846002015481526020019081526020016000208190555060038260090160006101000a81548160ff0219169083600781111561252f5761252e6145ee565b5b02179055507f78707ab4c079702301d623fc15df9d6eb85d349c3ea6066331a6562baa4cd40e836003836040516125689392919061584a565b60405180910390a15050505050565b600080600360008573ffffffffffffffffffffffffffffffffffffffff1673ffffffffffffffffffffffffffffffffffffffff168152602001908152602001600020600084815260200190815260200160002054141561260c576040517f08c379a000000000000000000000000000000000000000000000000000000000815260040161260390614d26565b60405180910390fd5b6000600360008573ffffffffffffffffffffffffffffffffffffffff1673ffffffffffffffffffffffffffffffffffffffff168152602001908152602001600020600084815260200190815260200160002054905060006004600083815260200190815260200160002090506002600781111561268c5761268b6145ee565b5b8160090160009054906101000a900460ff1660078111156126b0576126af6145ee565b5b14806126f15750600060078111156126cb576126ca6145ee565b5b8160090160009054906101000a900460ff1660078111156126ef576126ee6145ee565b5b145b612730576040517f08c379a000000000000000000000000000000000000000000000000000000000815260040161272790614e90565b60405180910390fd5b600042905081600801548111801561277d575060026007811115612757576127566145ee565b5b8260090160009054906101000a900460ff16600781111561277b5761277a6145ee565b5b145b156128075760058260090160006101000a81548160ff021916908360078111156127aa576127a96145ee565b5b02179055507f0752f13270456db0a99c87d0b2467caaca2391a9da85d8a33dbf84f6e044099f838360090160009054906101000a900460ff16836040516127f39392919061584a565b60405180910390a160019350505050612937565b81600801548111801561284f575060006007811115612829576128286145ee565b5b8260090160009054906101000a900460ff16600781111561284d5761284c6145ee565b5b145b1561292f5760068260090160006101000a81548160ff0219169083600781111561287c5761287b6145ee565b5b02179055506000600360008873ffffffffffffffffffffffffffffffffffffffff1673ffffffffffffffffffffffffffffffffffffffff1681526020019081526020016000206000878152602001908152602001600020819055507f0752f13270456db0a99c87d0b2467caaca2391a9da85d8a33dbf84f6e044099f838360090160009054906101000a900460ff168360405161291b9392919061584a565b60405180910390a160019350505050612937565b600093505050505b92915050565b60025481565b600073ffffffffffffffffffffffffffffffffffffffff163373ffffffffffffffffffffffffffffffffffffffff1614156129b3576040517f08c379a00000000000000000000000000000000000000000000000000000000081526004016129aa906158cd565b60405180910390fd5b600073ffffffffffffffffffffffffffffffffffffffff168573ffffffffffffffffffffffffffffffffffffffff161415612a23576040517f08c379a0000000000000000000000000000000000000000000000000000000008152600401612a1a90615939565b60405180910390fd5b612a2b61207a565b73ffffffffffffffffffffffffffffffffffffffff163373ffffffffffffffffffffffffffffffffffffffff161415612a99576040517f08c379a0000000000000000000000000000000000000000000000000000000008152600401612a90906159a5565b60405180910390fd5b6000600360008773ffffffffffffffffffffffffffffffffffffffff1673ffffffffffffffffffffffffffffffffffffffff16815260200190815260200160002060008681526020019081526020016000205414612b2c576040517f08c379a0000000000000000000000000000000000000000000000000000000008152600401612b2390615a11565b60405180910390fd5b60008211612b6f576040517f08c379a0000000000000000000000000000000000000000000000000000000008152600401612b6690615a7d565b60405180910390fd5b6002548114612bb3576040517f08c379a0000000000000000000000000000000000000000000000000000000008152600401612baa90615ae9565b60405180910390fd5b60008590508073ffffffffffffffffffffffffffffffffffffffff16636352211e866040518263ffffffff1660e01b8152600401612bf19190614490565b60206040518083038186803b158015612c0957600080fd5b505afa158015612c1d573d6000803e3d6000fd5b505050506040513d601f19601f82011682018060405250810190612c4191906155a7565b73ffffffffffffffffffffffffffffffffffffffff163373ffffffffffffffffffffffffffffffffffffffff1614612cae576040517f08c379a0000000000000000000000000000000000000000000000000000000008152600401612ca590614e24565b60405180910390fd5b3073ffffffffffffffffffffffffffffffffffffffff168173ffffffffffffffffffffffffffffffffffffffff1663081812fc876040518263ffffffff1660e01b8152600401612cfe9190614490565b60206040518083038186803b158015612d1657600080fd5b505afa158015612d2a573d6000803e3d6000fd5b505050506040513d601f19601f82011682018060405250810190612d4e91906155a7565b73ffffffffffffffffffffffffffffffffffffffff1614612da4576040517f08c379a0000000000000000000000000000000000000000000000000000000008152600401612d9b90615b7b565b60405180910390fd5b6000600560008673ffffffffffffffffffffffffffffffffffffffff1673ffffffffffffffffffffffffffffffffffffffff168152602001908152602001600020604051806101000160405290816000820160009054906101000a900473ffffffffffffffffffffffffffffffffffffffff1673ffffffffffffffffffffffffffffffffffffffff1673ffffffffffffffffffffffffffffffffffffffff1681526020016001820160009054906101000a900473ffffffffffffffffffffffffffffffffffffffff1673ffffffffffffffffffffffffffffffffffffffff1673ffffffffffffffffffffffffffffffffffffffff168152602001600282018054612ead90614ca8565b80601f0160208091040260200160405190810160405280929190818152602001828054612ed990614ca8565b8015612f265780601f10612efb57610100808354040283529160200191612f26565b820191906000526020600020905b815481529060010190602001808311612f0957829003601f168201915b505050505081526020016003820160009054906101000a900460ff1660ff1660ff168152602001600482016040518060400160405290816000820154815260200160018201548152505081526020016006820160405180604001604052908160008201548152602001600182015481525050815260200160088201604051806040016040529081600082015481526020016001820154815250508152602001600a820160009054906101000a900460ff16151515158152505090506000612ff1858360800151613f3d565b905060004290506130026001613f5c565b600061300e6001613f72565b905080600360008c73ffffffffffffffffffffffffffffffffffffffff1673ffffffffffffffffffffffffffffffffffffffff16815260200190815260200160002060008b81526020019081526020016000208190555060006040518061016001604052803373ffffffffffffffffffffffffffffffffffffffff1681526020018c73ffffffffffffffffffffffffffffffffffffffff1681526020018b81526020018a73ffffffffffffffffffffffffffffffffffffffff168152602001898152602001858152602001600081526020018881526020016000815260200160006007811115613101576131006145ee565b5b8152602001848152509050806004600084815260200190815260200160002060008201518160000160006101000a81548173ffffffffffffffffffffffffffffffffffffffff021916908373ffffffffffffffffffffffffffffffffffffffff16021790555060208201518160010160006101000a81548173ffffffffffffffffffffffffffffffffffffffff021916908373ffffffffffffffffffffffffffffffffffffffff1602179055506040820151816002015560608201518160030160006101000a81548173ffffffffffffffffffffffffffffffffffffffff021916908373ffffffffffffffffffffffffffffffffffffffff1602179055506080820151816004015560a0820151816005015560c0820151816006015560e0820151816007015561010082015181600801556101208201518160090160006101000a81548160ff0219169083600781111561325e5761325d6145ee565b5b021790555061014082015181600a01559050507f0eb403bc00910e26137e0474bbb869873ce17b514d6605571661c46ed36b3fb582338d8d8d8d8a8e60008c6040516132b39a99989796959493929190615b9b565b60405180910390a15050505050505050505050565b6132d0613dfb565b6000600360008473ffffffffffffffffffffffffffffffffffffffff1673ffffffffffffffffffffffffffffffffffffffff1681526020019081526020016000206000838152602001908152602001600020541415613364576040517f08c379a000000000000000000000000000000000000000000000000000000000815260040161335b90614d26565b60405180910390fd5b6000600360008473ffffffffffffffffffffffffffffffffffffffff1673ffffffffffffffffffffffffffffffffffffffff16815260200190815260200160002060008381526020019081526020016000205490506000600460008381526020019081526020016000209050600560078111156133e4576133e36145ee565b5b8160090160009054906101000a900460ff166007811115613408576134076145ee565b5b14613448576040517f08c379a000000000000000000000000000000000000000000000000000000000815260040161343f90615c83565b60405180910390fd5b8060010160009054906101000a900473ffffffffffffffffffffffffffffffffffffffff1673ffffffffffffffffffffffffffffffffffffffff166342842e0e3061349161207a565b84600201546040518463ffffffff1660e01b81526004016134b493929190614ffb565b600060405180830381600087803b1580156134ce57600080fd5b505af11580156134e2573d6000803e3d6000fd5b5050505060078160090160006101000a81548160ff0219169083600781111561350e5761350d6145ee565b5b02179055507f9d9ee3f16e5351d026a6e31775ac0d5d28adbb28ba184e297fe1b57c3bb6346084846040516135449291906154fd565b60405180910390a150505050565b61355a613dfb565b60011515600560008973ffffffffffffffffffffffffffffffffffffffff1673ffffffffffffffffffffffffffffffffffffffff168152602001908152602001600020600a0160009054906101000a900460ff161515146135f0576040517f08c379a00000000000000000000000000000000000000000000000000000000081526004016135e790615cef565b60405180910390fd5b6000861180156136005750600085115b801561360c5750600084115b80156136185750600083115b80156136245750600082115b80156136305750600081115b61366f576040517f08c379a00000000000000000000000000000000000000000000000000000000081526004016136669061521a565b60405180910390fd5b6000600560008973ffffffffffffffffffffffffffffffffffffffff1673ffffffffffffffffffffffffffffffffffffffff16815260200190815260200160002090508681600401600001819055508581600401600101819055508481600601600001819055508381600601600101819055508281600801600001819055508181600801600101819055507f4712a776f4507790315ae66c18c7bfcfeff4c1a5480788047ccb96d24a98c1ab888888888888886040516137359796959493929190615d0f565b60405180910390a15050505050505050565b60046020528060005260406000206000915090508060000160009054906101000a900473ffffffffffffffffffffffffffffffffffffffff16908060010160009054906101000a900473ffffffffffffffffffffffffffffffffffffffff16908060020154908060030160009054906101000a900473ffffffffffffffffffffffffffffffffffffffff16908060040154908060050154908060060154908060070154908060080154908060090160009054906101000a900460ff169080600a015490508b565b613816613dfb565b600073ffffffffffffffffffffffffffffffffffffffff168173ffffffffffffffffffffffffffffffffffffffff161415613886576040517f08c379a000000000000000000000000000000000000000000000000000000000815260040161387d90615df0565b60405180910390fd5b61388f81613e79565b50565b61389a613dfb565b600073ffffffffffffffffffffffffffffffffffffffff168273ffffffffffffffffffffffffffffffffffffffff16141561390a576040517f08c379a000000000000000000000000000000000000000000000000000000000815260040161390190615142565b60405180910390fd5b6000811161394d576040517f08c379a0000000000000000000000000000000000000000000000000000000008152600401613944906154dd565b60405180910390fd5b8173ffffffffffffffffffffffffffffffffffffffff1663a9059cbb33836040518363ffffffff1660e01b81526004016139889291906154fd565b602060405180830381600087803b1580156139a257600080fd5b505af11580156139b6573d6000803e3d6000fd5b505050506040513d601f19601f820116820180604052508101906139da919061505e565b507f68577e4d693c1b056a60bc4e39438810239a0bfe64869c4eb7e3baebb5f656348282604051613a0c9291906154fd565b60405180910390a15050565b6000600360008573ffffffffffffffffffffffffffffffffffffffff1673ffffffffffffffffffffffffffffffffffffffff1681526020019081526020016000206000848152602001908152602001600020541415613aac576040517f08c379a0000000000000000000000000000000000000000000000000000000008152600401613aa390614d26565b60405180910390fd5b6002548114613af0576040517f08c379a0000000000000000000000000000000000000000000000000000000008152600401613ae790615e5c565b60405180910390fd5b6000600360008573ffffffffffffffffffffffffffffffffffffffff1673ffffffffffffffffffffffffffffffffffffffff1681526020019081526020016000206000848152602001908152602001600020549050600060046000838152602001908152602001600020905060026007811115613b7057613b6f6145ee565b5b8160090160009054906101000a900460ff166007811115613b9457613b936145ee565b5b14613bd4576040517f08c379a0000000000000000000000000000000000000000000000000000000008152600401613bcb90614e90565b60405180910390fd5b6000613c688260040154600560008560030160009054906101000a900473ffffffffffffffffffffffffffffffffffffffff1673ffffffffffffffffffffffffffffffffffffffff1673ffffffffffffffffffffffffffffffffffffffff16815260200190815260200160002060060160405180604001604052908160008201548152602001600182015481525050613d9b565b90508160030160009054906101000a900473ffffffffffffffffffffffffffffffffffffffff1673ffffffffffffffffffffffffffffffffffffffff166323b872dd3330846040518463ffffffff1660e01b8152600401613ccb93929190614ffb565b602060405180830381600087803b158015613ce557600080fd5b505af1158015613cf9573d6000803e3d6000fd5b505050506040513d601f19601f82011682018060405250810190613d1d919061505e565b5060004290506000836008015490506201518086613d3b91906156ac565b81613d469190614fa5565b84600801819055507fbeedae6c6c669cbdd40f471f452f6941be0f408deac94349f1f9a06bf8eae7c3858388868860080154604051613d89959493929190615e7c565b60405180910390a15050505050505050565b600080831415613dae5760009050613df5565b6000826000015184613dc091906156ac565b905082600001518482613dd39190615efe565b14613de157613de0615f2f565b5b826020015181613df19190615efe565b9150505b92915050565b613e03613f80565b73ffffffffffffffffffffffffffffffffffffffff16613e2161207a565b73ffffffffffffffffffffffffffffffffffffffff1614613e77576040517f08c379a0000000000000000000000000000000000000000000000000000000008152600401613e6e90615faa565b60405180910390fd5b565b60008060009054906101000a900473ffffffffffffffffffffffffffffffffffffffff169050816000806101000a81548173ffffffffffffffffffffffffffffffffffffffff021916908373ffffffffffffffffffffffffffffffffffffffff1602179055508173ffffffffffffffffffffffffffffffffffffffff168173ffffffffffffffffffffffffffffffffffffffff167f8be0079c531659141344cd1fd0a4f28419497f9722a3daafe3b4186f6b6457e060405160405180910390a35050565b6000613f498383613d9b565b83613f549190614fa5565b905092915050565b6001816000016000828254019250508190555050565b600081600001549050919050565b600033905090565b604051806101000160405280600073ffffffffffffffffffffffffffffffffffffffff168152602001600073ffffffffffffffffffffffffffffffffffffffff16815260200160608152602001600060ff168152602001613fe7614144565b8152602001613ff4614144565b8152602001614001614144565b81526020016000151581525090565b604051806101600160405280600073ffffffffffffffffffffffffffffffffffffffff168152602001600073ffffffffffffffffffffffffffffffffffffffff16815260200160008152602001600073ffffffffffffffffffffffffffffffffffffffff1681526020016000815260200160008152602001600081526020016000815260200160008152602001600060078111156140b1576140b06145ee565b5b8152602001600081525090565b8280546140ca90614ca8565b90600052602060002090601f0160209004810192826140ec5760008555614133565b82601f1061410557805160ff1916838001178555614133565b82800160010185558215614133579182015b82811115614132578251825591602001919060010190614117565b5b509050614140919061415e565b5090565b604051806040016040528060008152602001600081525090565b5b8082111561417757600081600090555060010161415f565b5090565b6000604051905090565b600080fd5b600080fd5b600073ffffffffffffffffffffffffffffffffffffffff82169050919050565b60006141ba8261418f565b9050919050565b6141ca816141af565b81146141d557600080fd5b50565b6000813590506141e7816141c1565b92915050565b60006020828403121561420357614202614185565b5b6000614211848285016141d8565b91505092915050565b614223816141af565b82525050565b600081519050919050565b600082825260208201905092915050565b60005b83811015614263578082015181840152602081019050614248565b83811115614272576000848401525b50505050565b6000601f19601f8301169050919050565b600061429482614229565b61429e8185614234565b93506142ae818560208601614245565b6142b781614278565b840191505092915050565b600060ff82169050919050565b6142d8816142c2565b82525050565b6000819050919050565b6142f1816142de565b82525050565b60408201600082015161430d60008501826142e8565b50602082015161432060208501826142e8565b50505050565b60008115159050919050565b61433b81614326565b82525050565b60006101608301600083015161435a600086018261421a565b50602083015161436d602086018261421a565b50604083015184820360408601526143858282614289565b915050606083015161439a60608601826142cf565b5060808301516143ad60808601826142f7565b5060a08301516143c060c08601826142f7565b5060c08301516143d46101008601826142f7565b5060e08301516143e8610140860182614332565b508091505092915050565b6000602082019050818103600083015261440d8184614341565b905092915050565b61441e816142de565b811461442957600080fd5b50565b60008135905061443b81614415565b92915050565b6000806040838503121561445857614457614185565b5b6000614466858286016141d8565b92505060206144778582860161442c565b9150509250929050565b61448a816142de565b82525050565b60006020820190506144a56000830184614481565b92915050565b600080fd5b600080fd5b600080fd5b60008083601f8401126144d0576144cf6144ab565b5b8235905067ffffffffffffffff8111156144ed576144ec6144b0565b5b602083019150836001820283011115614509576145086144b5565b5b9250929050565b60008060008060006080868803121561452c5761452b614185565b5b600061453a888289016141d8565b955050602061454b888289016141d8565b945050604061455c8882890161442c565b935050606086013567ffffffffffffffff81111561457d5761457c61418a565b5b614589888289016144ba565b92509250509295509295909350565b60007fffffffff0000000000000000000000000000000000000000000000000000000082169050919050565b6145cd81614598565b82525050565b60006020820190506145e860008301846145c4565b92915050565b7f4e487b7100000000000000000000000000000000000000000000000000000000600052602160045260246000fd5b6008811061462e5761462d6145ee565b5b50565b600081905061463f8261461d565b919050565b600061464f82614631565b9050919050565b61465f81614644565b82525050565b6101608201600082015161467c600085018261421a565b50602082015161468f602085018261421a565b5060408201516146a260408501826142e8565b5060608201516146b5606085018261421a565b5060808201516146c860808501826142e8565b5060a08201516146db60a08501826142e8565b5060c08201516146ee60c08501826142e8565b5060e082015161470160e08501826142e8565b506101008201516147166101008501826142e8565b5061012082015161472b610120850182614656565b506101408201516147406101408501826142e8565b50505050565b60006101608201905061475c6000830184614665565b92915050565b61476b816141af565b82525050565b600082825260208201905092915050565b600061478d82614229565b6147978185614771565b93506147a7818560208601614245565b6147b081614278565b840191505092915050565b6147c4816142c2565b82525050565b6040820160008201516147e060008501826142e8565b5060208201516147f360208501826142e8565b50505050565b61480281614326565b82525050565b60006101608201905061481e600083018b614762565b61482b602083018a614762565b818103604083015261483d8189614782565b905061484c60608301886147bb565b61485960808301876147ca565b61486660c08301866147ca565b6148746101008301856147ca565b6148826101408301846147f9565b9998505050505050505050565b600080600080600080600060e0888a0312156148ae576148ad614185565b5b60006148bc8a828b016141d8565b97505060206148cd8a828b0161442c565b96505060406148de8a828b0161442c565b95505060606148ef8a828b0161442c565b94505060806149008a828b0161442c565b93505060a06149118a828b0161442c565b92505060c06149228a828b0161442c565b91505092959891949750929550565b60006020828403121561494757614946614185565b5b60006149558482850161442c565b91505092915050565b60008060006060848603121561497757614976614185565b5b60006149858682870161442c565b93505060206149968682870161442c565b92505060406149a78682870161442c565b9150509250925092565b600881106149be57600080fd5b50565b6000813590506149d0816149b1565b92915050565b6000806000606084860312156149ef576149ee614185565b5b60006149fd868287016141d8565b9350506020614a0e8682870161442c565b9250506040614a1f868287016149c1565b9150509250925092565b6000602082019050614a3e6000830184614762565b92915050565b6000602082019050614a5960008301846147f9565b92915050565b600080600080600060a08688031215614a7b57614a7a614185565b5b6000614a89888289016141d8565b9550506020614a9a8882890161442c565b9450506040614aab888289016141d8565b9350506060614abc8882890161442c565b9250506080614acd8882890161442c565b9150509295509295909350565b614ae381614644565b82525050565b600061016082019050614aff600083018e614762565b614b0c602083018d614762565b614b19604083018c614481565b614b26606083018b614762565b614b33608083018a614481565b614b4060a0830189614481565b614b4d60c0830188614481565b614b5a60e0830187614481565b614b68610100830186614481565b614b76610120830185614ada565b614b84610140830184614481565b9c9b505050505050505050505050565b600080600060608486031215614bad57614bac614185565b5b6000614bbb868287016141d8565b9350506020614bcc8682870161442c565b9250506040614bdd8682870161442c565b9150509250925092565b7f61646472657373207a65726f206973206e6f7420612076616c6964206164647260008201527f6573730000000000000000000000000000000000000000000000000000000000602082015250565b6000614c43602383614771565b9150614c4e82614be7565b604082019050919050565b60006020820190508181036000830152614c7281614c36565b9050919050565b7f4e487b7100000000000000000000000000000000000000000000000000000000600052602260045260246000fd5b60006002820490506001821680614cc057607f821691505b60208210811415614cd457614cd3614c79565b5b50919050565b7f4e465420686173206e6f742075736520617320636f6c6c61746572616c000000600082015250565b6000614d10601d83614771565b9150614d1b82614cda565b602082019050919050565b60006020820190508181036000830152614d3f81614d03565b9050919050565b7f43616c6c6572206d757374206265206f776e6572206e6674206f722061646d6960008201527f6e00000000000000000000000000000000000000000000000000000000000000602082015250565b6000614da2602183614771565b9150614dad82614d46565b604082019050919050565b60006020820190508181036000830152614dd181614d95565b9050919050565b7f43616c6c6572206d757374206265206f776e6572206e66740000000000000000600082015250565b6000614e0e601883614771565b9150614e1982614dd8565b602082019050919050565b60006020820190508181036000830152614e3d81614e01565b9050919050565b7f4c6f616e20737461746520697320696e76616c69640000000000000000000000600082015250565b6000614e7a601583614771565b9150614e8582614e44565b602082019050919050565b60006020820190508181036000830152614ea981614e6d565b9050919050565b7f4e487b7100000000000000000000000000000000000000000000000000000000600052601160045260246000fd5b6000614eea826142de565b9150614ef5836142de565b925082821015614f0857614f07614eb0565b5b828203905092915050565b7f4561726c79206c69717569646174696f6e2074696d6520697320696e76616c6960008201527f6400000000000000000000000000000000000000000000000000000000000000602082015250565b6000614f6f602183614771565b9150614f7a82614f13565b604082019050919050565b60006020820190508181036000830152614f9e81614f62565b9050919050565b6000614fb0826142de565b9150614fbb836142de565b9250827fffffffffffffffffffffffffffffffffffffffffffffffffffffffffffffffff03821115614ff057614fef614eb0565b5b828201905092915050565b60006060820190506150106000830186614762565b61501d6020830185614762565b61502a6040830184614481565b949350505050565b61503b81614326565b811461504657600080fd5b50565b60008151905061505881615032565b92915050565b60006020828403121561507457615073614185565b5b600061508284828501615049565b91505092915050565b60006080820190506150a06000830187614481565b6150ad6020830186614ada565b6150ba6040830185614481565b6150c76060830184614481565b95945050505050565b7f546f6b656e206164647265737320697320746865207a65726f2061646472657360008201527f7300000000000000000000000000000000000000000000000000000000000000602082015250565b600061512c602183614771565b9150615137826150d0565b604082019050919050565b6000602082019050818103600083015261515b8161511f565b9050919050565b7f546f6b656e206578697374656400000000000000000000000000000000000000600082015250565b6000615198600d83614771565b91506151a382615162565b602082019050919050565b600060208201905081810360008301526151c78161518b565b9050919050565b7f52617465206d757374206265203e203000000000000000000000000000000000600082015250565b6000615204601083614771565b915061520f826151ce565b602082019050919050565b60006020820190508181036000830152615233816151f7565b9050919050565b600080fd5b7f4e487b7100000000000000000000000000000000000000000000000000000000600052604160045260246000fd5b61527782614278565b810181811067ffffffffffffffff821117156152965761529561523f565b5b80604052505050565b60006152a961417b565b90506152b5828261526e565b919050565b600067ffffffffffffffff8211156152d5576152d461523f565b5b6152de82614278565b9050602081019050919050565b60006152fe6152f9846152ba565b61529f565b90508281526020810184848401111561531a5761531961523a565b5b615325848285614245565b509392505050565b600082601f830112615342576153416144ab565b5b81516153528482602086016152eb565b91505092915050565b60006020828403121561537157615370614185565b5b600082015167ffffffffffffffff81111561538f5761538e61418a565b5b61539b8482850161532d565b91505092915050565b6153ad816142c2565b81146153b857600080fd5b50565b6000815190506153ca816153a4565b92915050565b6000602082840312156153e6576153e5614185565b5b60006153f4848285016153bb565b91505092915050565b600061012082019050615413600083018c614762565b8181036020830152615425818b614782565b9050615434604083018a6147bb565b6154416060830189614481565b61544e6080830188614481565b61545b60a0830187614481565b61546860c0830186614481565b61547560e0830185614481565b615483610100830184614481565b9a9950505050505050505050565b7f416d6f756e7420746f6b656e20697320746f6f206c6f77000000000000000000600082015250565b60006154c7601783614771565b91506154d282615491565b602082019050919050565b600060208201905081810360008301526154f6816154ba565b9050919050565b60006040820190506155126000830185614762565b61551f6020830184614481565b9392505050565b7f696e76616c696420737461746520696e70757400000000000000000000000000600082015250565b600061555c601383614771565b915061556782615526565b602082019050919050565b6000602082019050818103600083015261558b8161554f565b9050919050565b6000815190506155a1816141c1565b92915050565b6000602082840312156155bd576155bc614185565b5b60006155cb84828501615592565b91505092915050565b7f426f72726f776572206d757374206265206f776e6572206e6674000000000000600082015250565b600061560a601a83614771565b9150615615826155d4565b602082019050919050565b60006020820190508181036000830152615639816155fd565b9050919050565b7f496e76616c6964204c6f616e2073746174650000000000000000000000000000600082015250565b6000615676601283614771565b915061568182615640565b602082019050919050565b600060208201905081810360008301526156a581615669565b9050919050565b60006156b7826142de565b91506156c2836142de565b9250817fffffffffffffffffffffffffffffffffffffffffffffffffffffffffffffffff04831182151516156156fb576156fa614eb0565b5b828202905092915050565b7f546f6b656e207472616e73666572206661696c65640000000000000000000000600082015250565b600061573c601583614771565b915061574782615706565b602082019050919050565b6000602082019050818103600083015261576b8161572f565b9050919050565b7f43616c6c6572206d75737420626520626f72726f776572000000000000000000600082015250565b60006157a8601783614771565b91506157b382615772565b602082019050919050565b600060208201905081810360008301526157d78161579b565b9050919050565b7f496e76616c69642074696d652072657061796d656e7400000000000000000000600082015250565b6000615814601683614771565b915061581f826157de565b602082019050919050565b6000602082019050818103600083015261584381615807565b9050919050565b600060608201905061585f6000830186614481565b61586c6020830185614ada565b6158796040830184614481565b949350505050565b7f43616c6c657220697320746865207a65726f2061646472657373000000000000600082015250565b60006158b7601a83614771565b91506158c282615881565b602082019050919050565b600060208201905081810360008301526158e6816158aa565b9050919050565b7f4e6674206164647265737320697320746865207a65726f206164647265737300600082015250565b6000615923601f83614771565b915061592e826158ed565b602082019050919050565b6000602082019050818103600083015261595281615916565b9050919050565b7f43616c6c65722068617665206e6f7420746f2062652061646d696e0000000000600082015250565b600061598f601b83614771565b915061599a82615959565b602082019050919050565b600060208201905081810360008301526159be81615982565b9050919050565b7f4e465420686173207573657320617320636f6c6c61746572616c000000000000600082015250565b60006159fb601a83614771565b9150615a06826159c5565b602082019050919050565b60006020820190508181036000830152615a2a816159ee565b9050919050565b7f496e76616c6964206c6f616e20616d6f756e7400000000000000000000000000600082015250565b6000615a67601383614771565b9150615a7282615a31565b602082019050919050565b60006020820190508181036000830152615a9681615a5a565b9050919050565b7f696e76616c6964206c6f616e206475726174696f6e0000000000000000000000600082015250565b6000615ad3601583614771565b9150615ade82615a9d565b602082019050919050565b60006020820190508181036000830152615b0281615ac6565b9050919050565b7f43616c6c657220646964206e6f7420617070726f766520666f72206e6674546f60008201527f6b656e496420746f6b656e2e0000000000000000000000000000000000000000602082015250565b6000615b65602c83614771565b9150615b7082615b09565b604082019050919050565b60006020820190508181036000830152615b9481615b58565b9050919050565b600061014082019050615bb1600083018d614481565b615bbe602083018c614762565b615bcb604083018b614762565b615bd8606083018a614481565b615be56080830189614762565b615bf260a0830188614481565b615bff60c0830187614481565b615c0c60e0830186614481565b615c1a610100830185614ada565b615c28610120830184614481565b9b9a5050505050505050505050565b7f4c6f616e20737461747573206973206e6f7420636f7272656374000000000000600082015250565b6000615c6d601a83614771565b9150615c7882615c37565b602082019050919050565b60006020820190508181036000830152615c9c81615c60565b9050919050565b7f546f6b656e206d75737420657869737400000000000000000000000000000000600082015250565b6000615cd9601083614771565b9150615ce482615ca3565b602082019050919050565b60006020820190508181036000830152615d0881615ccc565b9050919050565b600060e082019050615d24600083018a614762565b615d316020830189614481565b615d3e6040830188614481565b615d4b6060830187614481565b615d586080830186614481565b615d6560a0830185614481565b615d7260c0830184614481565b98975050505050505050565b7f4f776e61626c653a206e6577206f776e657220697320746865207a65726f206160008201527f6464726573730000000000000000000000000000000000000000000000000000602082015250565b6000615dda602683614771565b9150615de582615d7e565b604082019050919050565b60006020820190508181036000830152615e0981615dcd565b9050919050565b7f4c6f616e20657874656e73696f6e206973206c696d6974656400000000000000600082015250565b6000615e46601983614771565b9150615e5182615e10565b602082019050919050565b60006020820190508181036000830152615e7581615e39565b9050919050565b600060a082019050615e916000830188614481565b615e9e6020830187614481565b615eab6040830186614481565b615eb86060830185614481565b615ec56080830184614481565b9695505050505050565b7f4e487b7100000000000000000000000000000000000000000000000000000000600052601260045260246000fd5b6000615f09826142de565b9150615f14836142de565b925082615f2457615f23615ecf565b5b828204905092915050565b7f4e487b7100000000000000000000000000000000000000000000000000000000600052600160045260246000fd5b7f4f776e61626c653a2063616c6c6572206973206e6f7420746865206f776e6572600082015250565b6000615f94602083614771565b9150615f9f82615f5e565b602082019050919050565b60006020820190508181036000830152615fc381615f87565b905091905056fea2646970667358221220c0176ad3076361693ff68d644159521838af6a7d34f43504f052804fc446359664736f6c63430008090033","opcodes":"PUSH1 0x80 PUSH1 0x40 MSTORE CALLVALUE DUP1 ISZERO PUSH3 0x11 JUMPI PUSH1 0x0 DUP1 REVERT JUMPDEST POP PUSH3 0x32 PUSH3 0x26 PUSH3 0x38 PUSH1 0x20 SHL PUSH1 0x20 SHR JUMP JUMPDEST PUSH3 0x40 PUSH1 0x20 SHL PUSH1 0x20 SHR JUMP JUMPDEST PUSH3 0x104 JUMP JUMPDEST PUSH1 0x0 CALLER SWAP1 POP SWAP1 JUMP JUMPDEST PUSH1 0x0 DUP1 PUSH1 0x0 SWAP1 SLOAD SWAP1 PUSH2 0x100 EXP SWAP1 DIV PUSH20 0xFFFFFFFFFFFFFFFFFFFFFFFFFFFFFFFFFFFFFFFF AND SWAP1 POP DUP2 PUSH1 0x0 DUP1 PUSH2 0x100 EXP DUP2 SLOAD DUP2 PUSH20 0xFFFFFFFFFFFFFFFFFFFFFFFFFFFFFFFFFFFFFFFF MUL NOT AND SWAP1 DUP4 PUSH20 0xFFFFFFFFFFFFFFFFFFFFFFFFFFFFFFFFFFFFFFFF AND MUL OR SWAP1 SSTORE POP DUP2 PUSH20 0xFFFFFFFFFFFFFFFFFFFFFFFFFFFFFFFFFFFFFFFF AND DUP2 PUSH20 0xFFFFFFFFFFFFFFFFFFFFFFFFFFFFFFFFFFFFFFFF AND PUSH32 0x8BE0079C531659141344CD1FD0A4F28419497F9722A3DAAFE3B4186F6B6457E0 PUSH1 0x40 MLOAD PUSH1 0x40 MLOAD DUP1 SWAP2 SUB SWAP1 LOG3 POP POP JUMP JUMPDEST PUSH2 0x6000 DUP1 PUSH3 0x114 PUSH1 0x0 CODECOPY PUSH1 0x0 RETURN INVALID PUSH1 0x80 PUSH1 0x40 MSTORE CALLVALUE DUP1 ISZERO PUSH2 0x10 JUMPI PUSH1 0x0 DUP1 REVERT JUMPDEST POP PUSH1 0x4 CALLDATASIZE LT PUSH2 0x158 JUMPI PUSH1 0x0 CALLDATALOAD PUSH1 0xE0 SHR DUP1 PUSH4 0x815083DF GT PUSH2 0xC3 JUMPI DUP1 PUSH4 0xBCBAF487 GT PUSH2 0x7C JUMPI DUP1 PUSH4 0xBCBAF487 EQ PUSH2 0x3EE JUMPI DUP1 PUSH4 0xBFD04A5D EQ PUSH2 0x40A JUMPI DUP1 PUSH4 0xC8304DFB EQ PUSH2 0x426 JUMPI DUP1 PUSH4 0xF2FDE38B EQ PUSH2 0x460 JUMPI DUP1 PUSH4 0xF3FEF3A3 EQ PUSH2 0x47C JUMPI DUP1 PUSH4 0xF56CC915 EQ PUSH2 0x498 JUMPI PUSH2 0x158 JUMP JUMPDEST DUP1 PUSH4 0x815083DF EQ PUSH2 0x32E JUMPI DUP1 PUSH4 0x8DA5CB5B EQ PUSH2 0x34A JUMPI DUP1 PUSH4 0x93A595F5 EQ PUSH2 0x368 JUMPI DUP1 PUSH4 0x9694268F EQ PUSH2 0x384 JUMPI DUP1 PUSH4 0xA48E84E3 EQ PUSH2 0x3B4 JUMPI DUP1 PUSH4 0xB6805D20 EQ PUSH2 0x3D2 JUMPI PUSH2 0x158 JUMP JUMPDEST DUP1 PUSH4 0x35C16BCA GT PUSH2 0x115 JUMPI DUP1 PUSH4 0x35C16BCA EQ PUSH2 0x270 JUMPI DUP1 PUSH4 0x3699E7D1 EQ PUSH2 0x28C JUMPI DUP1 PUSH4 0x3BEB26C4 EQ PUSH2 0x2BC JUMPI DUP1 PUSH4 0x47E7EF24 EQ PUSH2 0x2D8 JUMPI DUP1 PUSH4 0x5357B989 EQ PUSH2 0x2F4 JUMPI DUP1 PUSH4 0x715018A6 EQ PUSH2 0x324 JUMPI PUSH2 0x158 JUMP JUMPDEST DUP1 PUSH4 0xBE369B4 EQ PUSH2 0x15D JUMPI DUP1 PUSH4 0x11615D30 EQ PUSH2 0x18D JUMPI DUP1 PUSH4 0x150B7A02 EQ PUSH2 0x1BD JUMPI DUP1 PUSH4 0x19DBB6D2 EQ PUSH2 0x1ED JUMPI DUP1 PUSH4 0x25AE2393 EQ PUSH2 0x21D JUMPI DUP1 PUSH4 0x29C7F9E0 EQ PUSH2 0x254 JUMPI JUMPDEST PUSH1 0x0 DUP1 REVERT JUMPDEST PUSH2 0x177 PUSH1 0x4 DUP1 CALLDATASIZE SUB DUP2 ADD SWAP1 PUSH2 0x172 SWAP2 SWAP1 PUSH2 0x41ED JUMP JUMPDEST PUSH2 0x4B4 JUMP JUMPDEST PUSH1 0x40 MLOAD PUSH2 0x184 SWAP2 SWAP1 PUSH2 0x43F3 JUMP JUMPDEST PUSH1 0x40 MLOAD DUP1 SWAP2 SUB SWAP1 RETURN JUMPDEST PUSH2 0x1A7 PUSH1 0x4 DUP1 CALLDATASIZE SUB DUP2 ADD SWAP1 PUSH2 0x1A2 SWAP2 SWAP1 PUSH2 0x4441 JUMP JUMPDEST PUSH2 0x76C JUMP JUMPDEST PUSH1 0x40 MLOAD PUSH2 0x1B4 SWAP2 SWAP1 PUSH2 0x4490 JUMP JUMPDEST PUSH1 0x40 MLOAD DUP1 SWAP2 SUB SWAP1 RETURN JUMPDEST PUSH2 0x1D7 PUSH1 0x4 DUP1 CALLDATASIZE SUB DUP2 ADD SWAP1 PUSH2 0x1D2 SWAP2 SWAP1 PUSH2 0x4510 JUMP JUMPDEST PUSH2 0x85A JUMP JUMPDEST PUSH1 0x40 MLOAD PUSH2 0x1E4 SWAP2 SWAP1 PUSH2 0x45D3 JUMP JUMPDEST PUSH1 0x40 MLOAD DUP1 SWAP2 SUB SWAP1 RETURN JUMPDEST PUSH2 0x207 PUSH1 0x4 DUP1 CALLDATASIZE SUB DUP2 ADD SWAP1 PUSH2 0x202 SWAP2 SWAP1 PUSH2 0x4441 JUMP JUMPDEST PUSH2 0x888 JUMP JUMPDEST PUSH1 0x40 MLOAD PUSH2 0x214 SWAP2 SWAP1 PUSH2 0x4746 JUMP JUMPDEST PUSH1 0x40 MLOAD DUP1 SWAP2 SUB SWAP1 RETURN JUMPDEST PUSH2 0x237 PUSH1 0x4 DUP1 CALLDATASIZE SUB DUP2 ADD SWAP1 PUSH2 0x232 SWAP2 SWAP1 PUSH2 0x41ED JUMP JUMPDEST PUSH2 0xC75 JUMP JUMPDEST PUSH1 0x40 MLOAD PUSH2 0x24B SWAP9 SWAP8 SWAP7 SWAP6 SWAP5 SWAP4 SWAP3 SWAP2 SWAP1 PUSH2 0x4808 JUMP JUMPDEST PUSH1 0x40 MLOAD DUP1 SWAP2 SUB SWAP1 RETURN JUMPDEST PUSH2 0x26E PUSH1 0x4 DUP1 CALLDATASIZE SUB DUP2 ADD SWAP1 PUSH2 0x269 SWAP2 SWAP1 PUSH2 0x4441 JUMP JUMPDEST PUSH2 0xDF9 JUMP JUMPDEST STOP JUMPDEST PUSH2 0x28A PUSH1 0x4 DUP1 CALLDATASIZE SUB DUP2 ADD SWAP1 PUSH2 0x285 SWAP2 SWAP1 PUSH2 0x488F JUMP JUMPDEST PUSH2 0x12F3 JUMP JUMPDEST STOP JUMPDEST PUSH2 0x2A6 PUSH1 0x4 DUP1 CALLDATASIZE SUB DUP2 ADD SWAP1 PUSH2 0x2A1 SWAP2 SWAP1 PUSH2 0x4441 JUMP JUMPDEST PUSH2 0x1826 JUMP JUMPDEST PUSH1 0x40 MLOAD PUSH2 0x2B3 SWAP2 SWAP1 PUSH2 0x4490 JUMP JUMPDEST PUSH1 0x40 MLOAD DUP1 SWAP2 SUB SWAP1 RETURN JUMPDEST PUSH2 0x2D6 PUSH1 0x4 DUP1 CALLDATASIZE SUB DUP2 ADD SWAP1 PUSH2 0x2D1 SWAP2 SWAP1 PUSH2 0x4931 JUMP JUMPDEST PUSH2 0x184B JUMP JUMPDEST STOP JUMPDEST PUSH2 0x2F2 PUSH1 0x4 DUP1 CALLDATASIZE SUB DUP2 ADD SWAP1 PUSH2 0x2ED SWAP2 SWAP1 PUSH2 0x4441 JUMP JUMPDEST PUSH2 0x185D JUMP JUMPDEST STOP JUMPDEST PUSH2 0x30E PUSH1 0x4 DUP1 CALLDATASIZE SUB DUP2 ADD SWAP1 PUSH2 0x309 SWAP2 SWAP1 PUSH2 0x495E JUMP JUMPDEST PUSH2 0x19E5 JUMP JUMPDEST PUSH1 0x40 MLOAD PUSH2 0x31B SWAP2 SWAP1 PUSH2 0x4490 JUMP JUMPDEST PUSH1 0x40 MLOAD DUP1 SWAP2 SUB SWAP1 RETURN JUMPDEST PUSH2 0x32C PUSH2 0x1A19 JUMP JUMPDEST STOP JUMPDEST PUSH2 0x348 PUSH1 0x4 DUP1 CALLDATASIZE SUB DUP2 ADD SWAP1 PUSH2 0x343 SWAP2 SWAP1 PUSH2 0x49D6 JUMP JUMPDEST PUSH2 0x1A2D JUMP JUMPDEST STOP JUMPDEST PUSH2 0x352 PUSH2 0x207A JUMP JUMPDEST PUSH1 0x40 MLOAD PUSH2 0x35F SWAP2 SWAP1 PUSH2 0x4A29 JUMP JUMPDEST PUSH1 0x40 MLOAD DUP1 SWAP2 SUB SWAP1 RETURN JUMPDEST PUSH2 0x382 PUSH1 0x4 DUP1 CALLDATASIZE SUB DUP2 ADD SWAP1 PUSH2 0x37D SWAP2 SWAP1 PUSH2 0x4441 JUMP JUMPDEST PUSH2 0x20A3 JUMP JUMPDEST STOP JUMPDEST PUSH2 0x39E PUSH1 0x4 DUP1 CALLDATASIZE SUB DUP2 ADD SWAP1 PUSH2 0x399 SWAP2 SWAP1 PUSH2 0x4441 JUMP JUMPDEST PUSH2 0x2577 JUMP JUMPDEST PUSH1 0x40 MLOAD PUSH2 0x3AB SWAP2 SWAP1 PUSH2 0x4A44 JUMP JUMPDEST PUSH1 0x40 MLOAD DUP1 SWAP2 SUB SWAP1 RETURN JUMPDEST PUSH2 0x3BC PUSH2 0x293D JUMP JUMPDEST PUSH1 0x40 MLOAD PUSH2 0x3C9 SWAP2 SWAP1 PUSH2 0x4490 JUMP JUMPDEST PUSH1 0x40 MLOAD DUP1 SWAP2 SUB SWAP1 RETURN JUMPDEST PUSH2 0x3EC PUSH1 0x4 DUP1 CALLDATASIZE SUB DUP2 ADD SWAP1 PUSH2 0x3E7 SWAP2 SWAP1 PUSH2 0x4A5F JUMP JUMPDEST PUSH2 0x2943 JUMP JUMPDEST STOP JUMPDEST PUSH2 0x408 PUSH1 0x4 DUP1 CALLDATASIZE SUB DUP2 ADD SWAP1 PUSH2 0x403 SWAP2 SWAP1 PUSH2 0x4441 JUMP JUMPDEST PUSH2 0x32C8 JUMP JUMPDEST STOP JUMPDEST PUSH2 0x424 PUSH1 0x4 DUP1 CALLDATASIZE SUB DUP2 ADD SWAP1 PUSH2 0x41F SWAP2 SWAP1 PUSH2 0x488F JUMP JUMPDEST PUSH2 0x3552 JUMP JUMPDEST STOP JUMPDEST PUSH2 0x440 PUSH1 0x4 DUP1 CALLDATASIZE SUB DUP2 ADD SWAP1 PUSH2 0x43B SWAP2 SWAP1 PUSH2 0x4931 JUMP JUMPDEST PUSH2 0x3747 JUMP JUMPDEST PUSH1 0x40 MLOAD PUSH2 0x457 SWAP12 SWAP11 SWAP10 SWAP9 SWAP8 SWAP7 SWAP6 SWAP5 SWAP4 SWAP3 SWAP2 SWAP1 PUSH2 0x4AE9 JUMP JUMPDEST PUSH1 0x40 MLOAD DUP1 SWAP2 SUB SWAP1 RETURN JUMPDEST PUSH2 0x47A PUSH1 0x4 DUP1 CALLDATASIZE SUB DUP2 ADD SWAP1 PUSH2 0x475 SWAP2 SWAP1 PUSH2 0x41ED JUMP JUMPDEST PUSH2 0x380E JUMP JUMPDEST STOP JUMPDEST PUSH2 0x496 PUSH1 0x4 DUP1 CALLDATASIZE SUB DUP2 ADD SWAP1 PUSH2 0x491 SWAP2 SWAP1 PUSH2 0x4441 JUMP JUMPDEST PUSH2 0x3892 JUMP JUMPDEST STOP JUMPDEST PUSH2 0x4B2 PUSH1 0x4 DUP1 CALLDATASIZE SUB DUP2 ADD SWAP1 PUSH2 0x4AD SWAP2 SWAP1 PUSH2 0x4B94 JUMP JUMPDEST PUSH2 0x3A18 JUMP JUMPDEST STOP JUMPDEST PUSH2 0x4BC PUSH2 0x3F88 JUMP JUMPDEST PUSH1 0x0 PUSH20 0xFFFFFFFFFFFFFFFFFFFFFFFFFFFFFFFFFFFFFFFF AND CALLER PUSH20 0xFFFFFFFFFFFFFFFFFFFFFFFFFFFFFFFFFFFFFFFF AND EQ ISZERO PUSH2 0x52C JUMPI PUSH1 0x40 MLOAD PUSH32 0x8C379A000000000000000000000000000000000000000000000000000000000 DUP2 MSTORE PUSH1 0x4 ADD PUSH2 0x523 SWAP1 PUSH2 0x4C59 JUMP JUMPDEST PUSH1 0x40 MLOAD DUP1 SWAP2 SUB SWAP1 REVERT JUMPDEST PUSH1 0x5 PUSH1 0x0 DUP4 PUSH20 0xFFFFFFFFFFFFFFFFFFFFFFFFFFFFFFFFFFFFFFFF AND PUSH20 0xFFFFFFFFFFFFFFFFFFFFFFFFFFFFFFFFFFFFFFFF AND DUP2 MSTORE PUSH1 0x20 ADD SWAP1 DUP2 MSTORE PUSH1 0x20 ADD PUSH1 0x0 KECCAK256 PUSH1 0x40 MLOAD DUP1 PUSH2 0x100 ADD PUSH1 0x40 MSTORE SWAP1 DUP2 PUSH1 0x0 DUP3 ADD PUSH1 0x0 SWAP1 SLOAD SWAP1 PUSH2 0x100 EXP SWAP1 DIV PUSH20 0xFFFFFFFFFFFFFFFFFFFFFFFFFFFFFFFFFFFFFFFF AND PUSH20 0xFFFFFFFFFFFFFFFFFFFFFFFFFFFFFFFFFFFFFFFF AND PUSH20 0xFFFFFFFFFFFFFFFFFFFFFFFFFFFFFFFFFFFFFFFF AND DUP2 MSTORE PUSH1 0x20 ADD PUSH1 0x1 DUP3 ADD PUSH1 0x0 SWAP1 SLOAD SWAP1 PUSH2 0x100 EXP SWAP1 DIV PUSH20 0xFFFFFFFFFFFFFFFFFFFFFFFFFFFFFFFFFFFFFFFF AND PUSH20 0xFFFFFFFFFFFFFFFFFFFFFFFFFFFFFFFFFFFFFFFF AND PUSH20 0xFFFFFFFFFFFFFFFFFFFFFFFFFFFFFFFFFFFFFFFF AND DUP2 MSTORE PUSH1 0x20 ADD PUSH1 0x2 DUP3 ADD DUP1 SLOAD PUSH2 0x633 SWAP1 PUSH2 0x4CA8 JUMP JUMPDEST DUP1 PUSH1 0x1F ADD PUSH1 0x20 DUP1 SWAP2 DIV MUL PUSH1 0x20 ADD PUSH1 0x40 MLOAD SWAP1 DUP2 ADD PUSH1 0x40 MSTORE DUP1 SWAP3 SWAP2 SWAP1 DUP2 DUP2 MSTORE PUSH1 0x20 ADD DUP3 DUP1 SLOAD PUSH2 0x65F SWAP1 PUSH2 0x4CA8 JUMP JUMPDEST DUP1 ISZERO PUSH2 0x6AC JUMPI DUP1 PUSH1 0x1F LT PUSH2 0x681 JUMPI PUSH2 0x100 DUP1 DUP4 SLOAD DIV MUL DUP4 MSTORE SWAP2 PUSH1 0x20 ADD SWAP2 PUSH2 0x6AC JUMP JUMPDEST DUP3 ADD SWAP2 SWAP1 PUSH1 0x0 MSTORE PUSH1 0x20 PUSH1 0x0 KECCAK256 SWAP1 JUMPDEST DUP2 SLOAD DUP2 MSTORE SWAP1 PUSH1 0x1 ADD SWAP1 PUSH1 0x20 ADD DUP1 DUP4 GT PUSH2 0x68F JUMPI DUP3 SWAP1 SUB PUSH1 0x1F AND DUP3 ADD SWAP2 JUMPDEST POP POP POP POP POP DUP2 MSTORE PUSH1 0x20 ADD PUSH1 0x3 DUP3 ADD PUSH1 0x0 SWAP1 SLOAD SWAP1 PUSH2 0x100 EXP SWAP1 DIV PUSH1 0xFF AND PUSH1 0xFF AND PUSH1 0xFF AND DUP2 MSTORE PUSH1 0x20 ADD PUSH1 0x4 DUP3 ADD PUSH1 0x40 MLOAD DUP1 PUSH1 0x40 ADD PUSH1 0x40 MSTORE SWAP1 DUP2 PUSH1 0x0 DUP3 ADD SLOAD DUP2 MSTORE PUSH1 0x20 ADD PUSH1 0x1 DUP3 ADD SLOAD DUP2 MSTORE POP POP DUP2 MSTORE PUSH1 0x20 ADD PUSH1 0x6 DUP3 ADD PUSH1 0x40 MLOAD DUP1 PUSH1 0x40 ADD PUSH1 0x40 MSTORE SWAP1 DUP2 PUSH1 0x0 DUP3 ADD SLOAD DUP2 MSTORE PUSH1 0x20 ADD PUSH1 0x1 DUP3 ADD SLOAD DUP2 MSTORE POP POP DUP2 MSTORE PUSH1 0x20 ADD PUSH1 0x8 DUP3 ADD PUSH1 0x40 MLOAD DUP1 PUSH1 0x40 ADD PUSH1 0x40 MSTORE SWAP1 DUP2 PUSH1 0x0 DUP3 ADD SLOAD DUP2 MSTORE PUSH1 0x20 ADD PUSH1 0x1 DUP3 ADD SLOAD DUP2 MSTORE POP POP DUP2 MSTORE PUSH1 0x20 ADD PUSH1 0xA DUP3 ADD PUSH1 0x0 SWAP1 SLOAD SWAP1 PUSH2 0x100 EXP SWAP1 DIV PUSH1 0xFF AND ISZERO ISZERO ISZERO ISZERO DUP2 MSTORE POP POP SWAP1 POP SWAP2 SWAP1 POP JUMP JUMPDEST PUSH1 0x0 DUP1 PUSH1 0x3 PUSH1 0x0 DUP6 PUSH20 0xFFFFFFFFFFFFFFFFFFFFFFFFFFFFFFFFFFFFFFFF AND PUSH20 0xFFFFFFFFFFFFFFFFFFFFFFFFFFFFFFFFFFFFFFFF AND DUP2 MSTORE PUSH1 0x20 ADD SWAP1 DUP2 MSTORE PUSH1 0x20 ADD PUSH1 0x0 KECCAK256 PUSH1 0x0 DUP5 DUP2 MSTORE PUSH1 0x20 ADD SWAP1 DUP2 MSTORE PUSH1 0x20 ADD PUSH1 0x0 KECCAK256 SLOAD EQ ISZERO PUSH2 0x801 JUMPI PUSH1 0x40 MLOAD PUSH32 0x8C379A000000000000000000000000000000000000000000000000000000000 DUP2 MSTORE PUSH1 0x4 ADD PUSH2 0x7F8 SWAP1 PUSH2 0x4D26 JUMP JUMPDEST PUSH1 0x40 MLOAD DUP1 SWAP2 SUB SWAP1 REVERT JUMPDEST PUSH1 0x3 PUSH1 0x0 DUP5 PUSH20 0xFFFFFFFFFFFFFFFFFFFFFFFFFFFFFFFFFFFFFFFF AND PUSH20 0xFFFFFFFFFFFFFFFFFFFFFFFFFFFFFFFFFFFFFFFF AND DUP2 MSTORE PUSH1 0x20 ADD SWAP1 DUP2 MSTORE PUSH1 0x20 ADD PUSH1 0x0 KECCAK256 PUSH1 0x0 DUP4 DUP2 MSTORE PUSH1 0x20 ADD SWAP1 DUP2 MSTORE PUSH1 0x20 ADD PUSH1 0x0 KECCAK256 SLOAD SWAP1 POP SWAP3 SWAP2 POP POP JUMP JUMPDEST PUSH1 0x0 PUSH32 0x150B7A023D4804D13E8C85FB27262CB750CF6BA9F9DD3BB30D90F482CEEB4B1F SWAP1 POP SWAP6 SWAP5 POP POP POP POP POP JUMP JUMPDEST PUSH2 0x890 PUSH2 0x4010 JUMP JUMPDEST PUSH1 0x0 PUSH20 0xFFFFFFFFFFFFFFFFFFFFFFFFFFFFFFFFFFFFFFFF AND CALLER PUSH20 0xFFFFFFFFFFFFFFFFFFFFFFFFFFFFFFFFFFFFFFFF AND EQ ISZERO PUSH2 0x900 JUMPI PUSH1 0x40 MLOAD PUSH32 0x8C379A000000000000000000000000000000000000000000000000000000000 DUP2 MSTORE PUSH1 0x4 ADD PUSH2 0x8F7 SWAP1 PUSH2 0x4C59 JUMP JUMPDEST PUSH1 0x40 MLOAD DUP1 SWAP2 SUB SWAP1 REVERT JUMPDEST PUSH1 0x0 PUSH1 0x3 PUSH1 0x0 DUP6 PUSH20 0xFFFFFFFFFFFFFFFFFFFFFFFFFFFFFFFFFFFFFFFF AND PUSH20 0xFFFFFFFFFFFFFFFFFFFFFFFFFFFFFFFFFFFFFFFF AND DUP2 MSTORE PUSH1 0x20 ADD SWAP1 DUP2 MSTORE PUSH1 0x20 ADD PUSH1 0x0 KECCAK256 PUSH1 0x0 DUP5 DUP2 MSTORE PUSH1 0x20 ADD SWAP1 DUP2 MSTORE PUSH1 0x20 ADD PUSH1 0x0 KECCAK256 SLOAD EQ ISZERO PUSH2 0x994 JUMPI PUSH1 0x40 MLOAD PUSH32 0x8C379A000000000000000000000000000000000000000000000000000000000 DUP2 MSTORE PUSH1 0x4 ADD PUSH2 0x98B SWAP1 PUSH2 0x4D26 JUMP JUMPDEST PUSH1 0x40 MLOAD DUP1 SWAP2 SUB SWAP1 REVERT JUMPDEST PUSH1 0x0 PUSH1 0x3 PUSH1 0x0 DUP6 PUSH20 0xFFFFFFFFFFFFFFFFFFFFFFFFFFFFFFFFFFFFFFFF AND PUSH20 0xFFFFFFFFFFFFFFFFFFFFFFFFFFFFFFFFFFFFFFFF AND DUP2 MSTORE PUSH1 0x20 ADD SWAP1 DUP2 MSTORE PUSH1 0x20 ADD PUSH1 0x0 KECCAK256 PUSH1 0x0 DUP5 DUP2 MSTORE PUSH1 0x20 ADD SWAP1 DUP2 MSTORE PUSH1 0x20 ADD PUSH1 0x0 KECCAK256 SLOAD SWAP1 POP PUSH2 0x9F1 PUSH2 0x207A JUMP JUMPDEST PUSH20 0xFFFFFFFFFFFFFFFFFFFFFFFFFFFFFFFFFFFFFFFF AND CALLER PUSH20 0xFFFFFFFFFFFFFFFFFFFFFFFFFFFFFFFFFFFFFFFF AND EQ DUP1 PUSH2 0xA8B JUMPI POP PUSH1 0x4 PUSH1 0x0 DUP3 DUP2 MSTORE PUSH1 0x20 ADD SWAP1 DUP2 MSTORE PUSH1 0x20 ADD PUSH1 0x0 KECCAK256 PUSH1 0x0 ADD PUSH1 0x0 SWAP1 SLOAD SWAP1 PUSH2 0x100 EXP SWAP1 DIV PUSH20 0xFFFFFFFFFFFFFFFFFFFFFFFFFFFFFFFFFFFFFFFF AND PUSH20 0xFFFFFFFFFFFFFFFFFFFFFFFFFFFFFFFFFFFFFFFF AND CALLER PUSH20 0xFFFFFFFFFFFFFFFFFFFFFFFFFFFFFFFFFFFFFFFF AND EQ JUMPDEST PUSH2 0xACA JUMPI PUSH1 0x40 MLOAD PUSH32 0x8C379A000000000000000000000000000000000000000000000000000000000 DUP2 MSTORE PUSH1 0x4 ADD PUSH2 0xAC1 SWAP1 PUSH2 0x4DB8 JUMP JUMPDEST PUSH1 0x40 MLOAD DUP1 SWAP2 SUB SWAP1 REVERT JUMPDEST PUSH1 0x4 PUSH1 0x0 DUP3 DUP2 MSTORE PUSH1 0x20 ADD SWAP1 DUP2 MSTORE PUSH1 0x20 ADD PUSH1 0x0 KECCAK256 PUSH1 0x40 MLOAD DUP1 PUSH2 0x160 ADD PUSH1 0x40 MSTORE SWAP1 DUP2 PUSH1 0x0 DUP3 ADD PUSH1 0x0 SWAP1 SLOAD SWAP1 PUSH2 0x100 EXP SWAP1 DIV PUSH20 0xFFFFFFFFFFFFFFFFFFFFFFFFFFFFFFFFFFFFFFFF AND PUSH20 0xFFFFFFFFFFFFFFFFFFFFFFFFFFFFFFFFFFFFFFFF AND PUSH20 0xFFFFFFFFFFFFFFFFFFFFFFFFFFFFFFFFFFFFFFFF AND DUP2 MSTORE PUSH1 0x20 ADD PUSH1 0x1 DUP3 ADD PUSH1 0x0 SWAP1 SLOAD SWAP1 PUSH2 0x100 EXP SWAP1 DIV PUSH20 0xFFFFFFFFFFFFFFFFFFFFFFFFFFFFFFFFFFFFFFFF AND PUSH20 0xFFFFFFFFFFFFFFFFFFFFFFFFFFFFFFFFFFFFFFFF AND PUSH20 0xFFFFFFFFFFFFFFFFFFFFFFFFFFFFFFFFFFFFFFFF AND DUP2 MSTORE PUSH1 0x20 ADD PUSH1 0x2 DUP3 ADD SLOAD DUP2 MSTORE PUSH1 0x20 ADD PUSH1 0x3 DUP3 ADD PUSH1 0x0 SWAP1 SLOAD SWAP1 PUSH2 0x100 EXP SWAP1 DIV PUSH20 0xFFFFFFFFFFFFFFFFFFFFFFFFFFFFFFFFFFFFFFFF AND PUSH20 0xFFFFFFFFFFFFFFFFFFFFFFFFFFFFFFFFFFFFFFFF AND PUSH20 0xFFFFFFFFFFFFFFFFFFFFFFFFFFFFFFFFFFFFFFFF AND DUP2 MSTORE PUSH1 0x20 ADD PUSH1 0x4 DUP3 ADD SLOAD DUP2 MSTORE PUSH1 0x20 ADD PUSH1 0x5 DUP3 ADD SLOAD DUP2 MSTORE PUSH1 0x20 ADD PUSH1 0x6 DUP3 ADD SLOAD DUP2 MSTORE PUSH1 0x20 ADD PUSH1 0x7 DUP3 ADD SLOAD DUP2 MSTORE PUSH1 0x20 ADD PUSH1 0x8 DUP3 ADD SLOAD DUP2 MSTORE PUSH1 0x20 ADD PUSH1 0x9 DUP3 ADD PUSH1 0x0 SWAP1 SLOAD SWAP1 PUSH2 0x100 EXP SWAP1 DIV PUSH1 0xFF AND PUSH1 0x7 DUP2 GT ISZERO PUSH2 0xC4C JUMPI PUSH2 0xC4B PUSH2 0x45EE JUMP JUMPDEST JUMPDEST PUSH1 0x7 DUP2 GT ISZERO PUSH2 0xC5E JUMPI PUSH2 0xC5D PUSH2 0x45EE JUMP JUMPDEST JUMPDEST DUP2 MSTORE PUSH1 0x20 ADD PUSH1 0xA DUP3 ADD SLOAD DUP2 MSTORE POP POP SWAP2 POP POP SWAP3 SWAP2 POP POP JUMP JUMPDEST PUSH1 0x5 PUSH1 0x20 MSTORE DUP1 PUSH1 0x0 MSTORE PUSH1 0x40 PUSH1 0x0 KECCAK256 PUSH1 0x0 SWAP2 POP SWAP1 POP DUP1 PUSH1 0x0 ADD PUSH1 0x0 SWAP1 SLOAD SWAP1 PUSH2 0x100 EXP SWAP1 DIV PUSH20 0xFFFFFFFFFFFFFFFFFFFFFFFFFFFFFFFFFFFFFFFF AND SWAP1 DUP1 PUSH1 0x1 ADD PUSH1 0x0 SWAP1 SLOAD SWAP1 PUSH2 0x100 EXP SWAP1 DIV PUSH20 0xFFFFFFFFFFFFFFFFFFFFFFFFFFFFFFFFFFFFFFFF AND SWAP1 DUP1 PUSH1 0x2 ADD DUP1 SLOAD PUSH2 0xCE4 SWAP1 PUSH2 0x4CA8 JUMP JUMPDEST DUP1 PUSH1 0x1F ADD PUSH1 0x20 DUP1 SWAP2 DIV MUL PUSH1 0x20 ADD PUSH1 0x40 MLOAD SWAP1 DUP2 ADD PUSH1 0x40 MSTORE DUP1 SWAP3 SWAP2 SWAP1 DUP2 DUP2 MSTORE PUSH1 0x20 ADD DUP3 DUP1 SLOAD PUSH2 0xD10 SWAP1 PUSH2 0x4CA8 JUMP JUMPDEST DUP1 ISZERO PUSH2 0xD5D JUMPI DUP1 PUSH1 0x1F LT PUSH2 0xD32 JUMPI PUSH2 0x100 DUP1 DUP4 SLOAD DIV MUL DUP4 MSTORE SWAP2 PUSH1 0x20 ADD SWAP2 PUSH2 0xD5D JUMP JUMPDEST DUP3 ADD SWAP2 SWAP1 PUSH1 0x0 MSTORE PUSH1 0x20 PUSH1 0x0 KECCAK256 SWAP1 JUMPDEST DUP2 SLOAD DUP2 MSTORE SWAP1 PUSH1 0x1 ADD SWAP1 PUSH1 0x20 ADD DUP1 DUP4 GT PUSH2 0xD40 JUMPI DUP3 SWAP1 SUB PUSH1 0x1F AND DUP3 ADD SWAP2 JUMPDEST POP POP POP POP POP SWAP1 DUP1 PUSH1 0x3 ADD PUSH1 0x0 SWAP1 SLOAD SWAP1 PUSH2 0x100 EXP SWAP1 DIV PUSH1 0xFF AND SWAP1 DUP1 PUSH1 0x4 ADD PUSH1 0x40 MLOAD DUP1 PUSH1 0x40 ADD PUSH1 0x40 MSTORE SWAP1 DUP2 PUSH1 0x0 DUP3 ADD SLOAD DUP2 MSTORE PUSH1 0x20 ADD PUSH1 0x1 DUP3 ADD SLOAD DUP2 MSTORE POP POP SWAP1 DUP1 PUSH1 0x6 ADD PUSH1 0x40 MLOAD DUP1 PUSH1 0x40 ADD PUSH1 0x40 MSTORE SWAP1 DUP2 PUSH1 0x0 DUP3 ADD SLOAD DUP2 MSTORE PUSH1 0x20 ADD PUSH1 0x1 DUP3 ADD SLOAD DUP2 MSTORE POP POP SWAP1 DUP1 PUSH1 0x8 ADD PUSH1 0x40 MLOAD DUP1 PUSH1 0x40 ADD PUSH1 0x40 MSTORE SWAP1 DUP2 PUSH1 0x0 DUP3 ADD SLOAD DUP2 MSTORE PUSH1 0x20 ADD PUSH1 0x1 DUP3 ADD SLOAD DUP2 MSTORE POP POP SWAP1 DUP1 PUSH1 0xA ADD PUSH1 0x0 SWAP1 SLOAD SWAP1 PUSH2 0x100 EXP SWAP1 DIV PUSH1 0xFF AND SWAP1 POP DUP9 JUMP JUMPDEST PUSH1 0x0 PUSH1 0x3 PUSH1 0x0 DUP5 PUSH20 0xFFFFFFFFFFFFFFFFFFFFFFFFFFFFFFFFFFFFFFFF AND PUSH20 0xFFFFFFFFFFFFFFFFFFFFFFFFFFFFFFFFFFFFFFFF AND DUP2 MSTORE PUSH1 0x20 ADD SWAP1 DUP2 MSTORE PUSH1 0x20 ADD PUSH1 0x0 KECCAK256 PUSH1 0x0 DUP4 DUP2 MSTORE PUSH1 0x20 ADD SWAP1 DUP2 MSTORE PUSH1 0x20 ADD PUSH1 0x0 KECCAK256 SLOAD EQ ISZERO PUSH2 0xE8D JUMPI PUSH1 0x40 MLOAD PUSH32 0x8C379A000000000000000000000000000000000000000000000000000000000 DUP2 MSTORE PUSH1 0x4 ADD PUSH2 0xE84 SWAP1 PUSH2 0x4D26 JUMP JUMPDEST PUSH1 0x40 MLOAD DUP1 SWAP2 SUB SWAP1 REVERT JUMPDEST PUSH1 0x0 PUSH1 0x3 PUSH1 0x0 DUP5 PUSH20 0xFFFFFFFFFFFFFFFFFFFFFFFFFFFFFFFFFFFFFFFF AND PUSH20 0xFFFFFFFFFFFFFFFFFFFFFFFFFFFFFFFFFFFFFFFF AND DUP2 MSTORE PUSH1 0x20 ADD SWAP1 DUP2 MSTORE PUSH1 0x20 ADD PUSH1 0x0 KECCAK256 PUSH1 0x0 DUP4 DUP2 MSTORE PUSH1 0x20 ADD SWAP1 DUP2 MSTORE PUSH1 0x20 ADD PUSH1 0x0 KECCAK256 SLOAD SWAP1 POP PUSH1 0x0 PUSH1 0x4 PUSH1 0x0 DUP4 DUP2 MSTORE PUSH1 0x20 ADD SWAP1 DUP2 MSTORE PUSH1 0x20 ADD PUSH1 0x0 KECCAK256 SWAP1 POP DUP1 PUSH1 0x0 ADD PUSH1 0x0 SWAP1 SLOAD SWAP1 PUSH2 0x100 EXP SWAP1 DIV PUSH20 0xFFFFFFFFFFFFFFFFFFFFFFFFFFFFFFFFFFFFFFFF AND PUSH20 0xFFFFFFFFFFFFFFFFFFFFFFFFFFFFFFFFFFFFFFFF AND CALLER PUSH20 0xFFFFFFFFFFFFFFFFFFFFFFFFFFFFFFFFFFFFFFFF AND EQ PUSH2 0xF8B JUMPI PUSH1 0x40 MLOAD PUSH32 0x8C379A000000000000000000000000000000000000000000000000000000000 DUP2 MSTORE PUSH1 0x4 ADD PUSH2 0xF82 SWAP1 PUSH2 0x4E24 JUMP JUMPDEST PUSH1 0x40 MLOAD DUP1 SWAP2 SUB SWAP1 REVERT JUMPDEST PUSH1 0x2 PUSH1 0x7 DUP2 GT ISZERO PUSH2 0xF9F JUMPI PUSH2 0xF9E PUSH2 0x45EE JUMP JUMPDEST JUMPDEST DUP2 PUSH1 0x9 ADD PUSH1 0x0 SWAP1 SLOAD SWAP1 PUSH2 0x100 EXP SWAP1 DIV PUSH1 0xFF AND PUSH1 0x7 DUP2 GT ISZERO PUSH2 0xFC3 JUMPI PUSH2 0xFC2 PUSH2 0x45EE JUMP JUMPDEST JUMPDEST EQ PUSH2 0x1003 JUMPI PUSH1 0x40 MLOAD PUSH32 0x8C379A000000000000000000000000000000000000000000000000000000000 DUP2 MSTORE PUSH1 0x4 ADD PUSH2 0xFFA SWAP1 PUSH2 0x4E90 JUMP JUMPDEST PUSH1 0x40 MLOAD DUP1 SWAP2 SUB SWAP1 REVERT JUMPDEST PUSH1 0x0 TIMESTAMP SWAP1 POP PUSH3 0x15180 DUP3 PUSH1 0x8 ADD SLOAD PUSH2 0x101B SWAP2 SWAP1 PUSH2 0x4EDF JUMP JUMPDEST DUP2 LT PUSH2 0x105C JUMPI PUSH1 0x40 MLOAD PUSH32 0x8C379A000000000000000000000000000000000000000000000000000000000 DUP2 MSTORE PUSH1 0x4 ADD PUSH2 0x1053 SWAP1 PUSH2 0x4F85 JUMP JUMPDEST PUSH1 0x40 MLOAD DUP1 SWAP2 SUB SWAP1 REVERT JUMPDEST PUSH1 0x0 PUSH2 0x10F0 DUP4 PUSH1 0x4 ADD SLOAD PUSH1 0x5 PUSH1 0x0 DUP7 PUSH1 0x3 ADD PUSH1 0x0 SWAP1 SLOAD SWAP1 PUSH2 0x100 EXP SWAP1 DIV PUSH20 0xFFFFFFFFFFFFFFFFFFFFFFFFFFFFFFFFFFFFFFFF AND PUSH20 0xFFFFFFFFFFFFFFFFFFFFFFFFFFFFFFFFFFFFFFFF AND PUSH20 0xFFFFFFFFFFFFFFFFFFFFFFFFFFFFFFFFFFFFFFFF AND DUP2 MSTORE PUSH1 0x20 ADD SWAP1 DUP2 MSTORE PUSH1 0x20 ADD PUSH1 0x0 KECCAK256 PUSH1 0x8 ADD PUSH1 0x40 MLOAD DUP1 PUSH1 0x40 ADD PUSH1 0x40 MSTORE SWAP1 DUP2 PUSH1 0x0 DUP3 ADD SLOAD DUP2 MSTORE PUSH1 0x20 ADD PUSH1 0x1 DUP3 ADD SLOAD DUP2 MSTORE POP POP PUSH2 0x3D9B JUMP JUMPDEST SWAP1 POP DUP3 PUSH1 0x3 ADD PUSH1 0x0 SWAP1 SLOAD SWAP1 PUSH2 0x100 EXP SWAP1 DIV PUSH20 0xFFFFFFFFFFFFFFFFFFFFFFFFFFFFFFFFFFFFFFFF AND PUSH20 0xFFFFFFFFFFFFFFFFFFFFFFFFFFFFFFFFFFFFFFFF AND PUSH4 0x23B872DD CALLER ADDRESS DUP7 PUSH1 0x5 ADD SLOAD DUP6 PUSH2 0x1144 SWAP2 SWAP1 PUSH2 0x4FA5 JUMP JUMPDEST PUSH1 0x40 MLOAD DUP5 PUSH4 0xFFFFFFFF AND PUSH1 0xE0 SHL DUP2 MSTORE PUSH1 0x4 ADD PUSH2 0x1162 SWAP4 SWAP3 SWAP2 SWAP1 PUSH2 0x4FFB JUMP JUMPDEST PUSH1 0x20 PUSH1 0x40 MLOAD DUP1 DUP4 SUB DUP2 PUSH1 0x0 DUP8 DUP1 EXTCODESIZE ISZERO DUP1 ISZERO PUSH2 0x117C JUMPI PUSH1 0x0 DUP1 REVERT JUMPDEST POP GAS CALL ISZERO DUP1 ISZERO PUSH2 0x1190 JUMPI RETURNDATASIZE PUSH1 0x0 DUP1 RETURNDATACOPY RETURNDATASIZE PUSH1 0x0 REVERT JUMPDEST POP POP POP POP PUSH1 0x40 MLOAD RETURNDATASIZE PUSH1 0x1F NOT PUSH1 0x1F DUP3 ADD AND DUP3 ADD DUP1 PUSH1 0x40 MSTORE POP DUP2 ADD SWAP1 PUSH2 0x11B4 SWAP2 SWAP1 PUSH2 0x505E JUMP JUMPDEST POP DUP3 PUSH1 0x1 ADD PUSH1 0x0 SWAP1 SLOAD SWAP1 PUSH2 0x100 EXP SWAP1 DIV PUSH20 0xFFFFFFFFFFFFFFFFFFFFFFFFFFFFFFFFFFFFFFFF AND PUSH20 0xFFFFFFFFFFFFFFFFFFFFFFFFFFFFFFFFFFFFFFFF AND PUSH4 0x42842E0E ADDRESS DUP6 PUSH1 0x0 ADD PUSH1 0x0 SWAP1 SLOAD SWAP1 PUSH2 0x100 EXP SWAP1 DIV PUSH20 0xFFFFFFFFFFFFFFFFFFFFFFFFFFFFFFFFFFFFFFFF AND DUP7 PUSH1 0x2 ADD SLOAD PUSH1 0x40 MLOAD DUP5 PUSH4 0xFFFFFFFF AND PUSH1 0xE0 SHL DUP2 MSTORE PUSH1 0x4 ADD PUSH2 0x123E SWAP4 SWAP3 SWAP2 SWAP1 PUSH2 0x4FFB JUMP JUMPDEST PUSH1 0x0 PUSH1 0x40 MLOAD DUP1 DUP4 SUB DUP2 PUSH1 0x0 DUP8 DUP1 EXTCODESIZE ISZERO DUP1 ISZERO PUSH2 0x1258 JUMPI PUSH1 0x0 DUP1 REVERT JUMPDEST POP GAS CALL ISZERO DUP1 ISZERO PUSH2 0x126C JUMPI RETURNDATASIZE PUSH1 0x0 DUP1 RETURNDATACOPY RETURNDATASIZE PUSH1 0x0 REVERT JUMPDEST POP POP POP POP PUSH1 0x4 DUP4 PUSH1 0x9 ADD PUSH1 0x0 PUSH2 0x100 EXP DUP2 SLOAD DUP2 PUSH1 0xFF MUL NOT AND SWAP1 DUP4 PUSH1 0x7 DUP2 GT ISZERO PUSH2 0x1298 JUMPI PUSH2 0x1297 PUSH2 0x45EE JUMP JUMPDEST JUMPDEST MUL OR SWAP1 SSTORE POP PUSH32 0xFFEA83D119975B9AB264CB298CCDA9A83F83F9A4BA8BA3BAE0E9E449A5C38D6F DUP5 DUP5 PUSH1 0x9 ADD PUSH1 0x0 SWAP1 SLOAD SWAP1 PUSH2 0x100 EXP SWAP1 DIV PUSH1 0xFF AND DUP5 DUP5 PUSH1 0x40 MLOAD PUSH2 0x12E3 SWAP5 SWAP4 SWAP3 SWAP2 SWAP1 PUSH2 0x508B JUMP JUMPDEST PUSH1 0x40 MLOAD DUP1 SWAP2 SUB SWAP1 LOG1 POP POP POP POP POP POP JUMP JUMPDEST PUSH2 0x12FB PUSH2 0x3DFB JUMP JUMPDEST PUSH1 0x0 PUSH20 0xFFFFFFFFFFFFFFFFFFFFFFFFFFFFFFFFFFFFFFFF AND DUP8 PUSH20 0xFFFFFFFFFFFFFFFFFFFFFFFFFFFFFFFFFFFFFFFF AND EQ ISZERO PUSH2 0x136B JUMPI PUSH1 0x40 MLOAD PUSH32 0x8C379A000000000000000000000000000000000000000000000000000000000 DUP2 MSTORE PUSH1 0x4 ADD PUSH2 0x1362 SWAP1 PUSH2 0x5142 JUMP JUMPDEST PUSH1 0x40 MLOAD DUP1 SWAP2 SUB SWAP1 REVERT JUMPDEST PUSH1 0x0 ISZERO ISZERO PUSH1 0x5 PUSH1 0x0 DUP10 PUSH20 0xFFFFFFFFFFFFFFFFFFFFFFFFFFFFFFFFFFFFFFFF AND PUSH20 0xFFFFFFFFFFFFFFFFFFFFFFFFFFFFFFFFFFFFFFFF AND DUP2 MSTORE PUSH1 0x20 ADD SWAP1 DUP2 MSTORE PUSH1 0x20 ADD PUSH1 0x0 KECCAK256 PUSH1 0xA ADD PUSH1 0x0 SWAP1 SLOAD SWAP1 PUSH2 0x100 EXP SWAP1 DIV PUSH1 0xFF AND ISZERO ISZERO EQ PUSH2 0x1401 JUMPI PUSH1 0x40 MLOAD PUSH32 0x8C379A000000000000000000000000000000000000000000000000000000000 DUP2 MSTORE PUSH1 0x4 ADD PUSH2 0x13F8 SWAP1 PUSH2 0x51AE JUMP JUMPDEST PUSH1 0x40 MLOAD DUP1 SWAP2 SUB SWAP1 REVERT JUMPDEST PUSH1 0x0 DUP7 GT DUP1 ISZERO PUSH2 0x1411 JUMPI POP PUSH1 0x0 DUP6 GT JUMPDEST DUP1 ISZERO PUSH2 0x141D JUMPI POP PUSH1 0x0 DUP5 GT JUMPDEST DUP1 ISZERO PUSH2 0x1429 JUMPI POP PUSH1 0x0 DUP4 GT JUMPDEST DUP1 ISZERO PUSH2 0x1435 JUMPI POP PUSH1 0x0 DUP3 GT JUMPDEST DUP1 ISZERO PUSH2 0x1441 JUMPI POP PUSH1 0x0 DUP2 GT JUMPDEST PUSH2 0x1480 JUMPI PUSH1 0x40 MLOAD PUSH32 0x8C379A000000000000000000000000000000000000000000000000000000000 DUP2 MSTORE PUSH1 0x4 ADD PUSH2 0x1477 SWAP1 PUSH2 0x521A JUMP JUMPDEST PUSH1 0x40 MLOAD DUP1 SWAP2 SUB SWAP1 REVERT JUMPDEST PUSH1 0x0 PUSH1 0x40 MLOAD DUP1 PUSH1 0x40 ADD PUSH1 0x40 MSTORE DUP1 DUP9 DUP2 MSTORE PUSH1 0x20 ADD DUP8 DUP2 MSTORE POP SWAP1 POP PUSH1 0x0 PUSH1 0x40 MLOAD DUP1 PUSH1 0x40 ADD PUSH1 0x40 MSTORE DUP1 DUP8 DUP2 MSTORE PUSH1 0x20 ADD DUP7 DUP2 MSTORE POP SWAP1 POP PUSH1 0x0 PUSH1 0x40 MLOAD DUP1 PUSH1 0x40 ADD PUSH1 0x40 MSTORE DUP1 DUP7 DUP2 MSTORE PUSH1 0x20 ADD DUP6 DUP2 MSTORE POP SWAP1 POP PUSH1 0x0 DUP11 PUSH20 0xFFFFFFFFFFFFFFFFFFFFFFFFFFFFFFFFFFFFFFFF AND PUSH4 0x95D89B41 PUSH1 0x40 MLOAD DUP2 PUSH4 0xFFFFFFFF AND PUSH1 0xE0 SHL DUP2 MSTORE PUSH1 0x4 ADD PUSH1 0x0 PUSH1 0x40 MLOAD DUP1 DUP4 SUB DUP2 DUP7 DUP1 EXTCODESIZE ISZERO DUP1 ISZERO PUSH2 0x1513 JUMPI PUSH1 0x0 DUP1 REVERT JUMPDEST POP GAS STATICCALL ISZERO DUP1 ISZERO PUSH2 0x1527 JUMPI RETURNDATASIZE PUSH1 0x0 DUP1 RETURNDATACOPY RETURNDATASIZE PUSH1 0x0 REVERT JUMPDEST POP POP POP POP PUSH1 0x40 MLOAD RETURNDATASIZE PUSH1 0x0 DUP3 RETURNDATACOPY RETURNDATASIZE PUSH1 0x1F NOT PUSH1 0x1F DUP3 ADD AND DUP3 ADD DUP1 PUSH1 0x40 MSTORE POP DUP2 ADD SWAP1 PUSH2 0x1550 SWAP2 SWAP1 PUSH2 0x535B JUMP JUMPDEST SWAP1 POP PUSH1 0x0 DUP12 PUSH20 0xFFFFFFFFFFFFFFFFFFFFFFFFFFFFFFFFFFFFFFFF AND PUSH4 0x313CE567 PUSH1 0x40 MLOAD DUP2 PUSH4 0xFFFFFFFF AND PUSH1 0xE0 SHL DUP2 MSTORE PUSH1 0x4 ADD PUSH1 0x20 PUSH1 0x40 MLOAD DUP1 DUP4 SUB DUP2 DUP7 DUP1 EXTCODESIZE ISZERO DUP1 ISZERO PUSH2 0x159A JUMPI PUSH1 0x0 DUP1 REVERT JUMPDEST POP GAS STATICCALL ISZERO DUP1 ISZERO PUSH2 0x15AE JUMPI RETURNDATASIZE PUSH1 0x0 DUP1 RETURNDATACOPY RETURNDATASIZE PUSH1 0x0 REVERT JUMPDEST POP POP POP POP PUSH1 0x40 MLOAD RETURNDATASIZE PUSH1 0x1F NOT PUSH1 0x1F DUP3 ADD AND DUP3 ADD DUP1 PUSH1 0x40 MSTORE POP DUP2 ADD SWAP1 PUSH2 0x15D2 SWAP2 SWAP1 PUSH2 0x53D0 JUMP JUMPDEST SWAP1 POP PUSH1 0x0 PUSH1 0x40 MLOAD DUP1 PUSH2 0x100 ADD PUSH1 0x40 MSTORE DUP1 CALLER PUSH20 0xFFFFFFFFFFFFFFFFFFFFFFFFFFFFFFFFFFFFFFFF AND DUP2 MSTORE PUSH1 0x20 ADD DUP15 PUSH20 0xFFFFFFFFFFFFFFFFFFFFFFFFFFFFFFFFFFFFFFFF AND DUP2 MSTORE PUSH1 0x20 ADD DUP5 DUP2 MSTORE PUSH1 0x20 ADD DUP4 PUSH1 0xFF AND DUP2 MSTORE PUSH1 0x20 ADD DUP8 DUP2 MSTORE PUSH1 0x20 ADD DUP7 DUP2 MSTORE PUSH1 0x20 ADD DUP6 DUP2 MSTORE PUSH1 0x20 ADD PUSH1 0x1 ISZERO ISZERO DUP2 MSTORE POP SWAP1 POP DUP1 PUSH1 0x5 PUSH1 0x0 DUP16 PUSH20 0xFFFFFFFFFFFFFFFFFFFFFFFFFFFFFFFFFFFFFFFF AND PUSH20 0xFFFFFFFFFFFFFFFFFFFFFFFFFFFFFFFFFFFFFFFF AND DUP2 MSTORE PUSH1 0x20 ADD SWAP1 DUP2 MSTORE PUSH1 0x20 ADD PUSH1 0x0 KECCAK256 PUSH1 0x0 DUP3 ADD MLOAD DUP2 PUSH1 0x0 ADD PUSH1 0x0 PUSH2 0x100 EXP DUP2 SLOAD DUP2 PUSH20 0xFFFFFFFFFFFFFFFFFFFFFFFFFFFFFFFFFFFFFFFF MUL NOT AND SWAP1 DUP4 PUSH20 0xFFFFFFFFFFFFFFFFFFFFFFFFFFFFFFFFFFFFFFFF AND MUL OR SWAP1 SSTORE POP PUSH1 0x20 DUP3 ADD MLOAD DUP2 PUSH1 0x1 ADD PUSH1 0x0 PUSH2 0x100 EXP DUP2 SLOAD DUP2 PUSH20 0xFFFFFFFFFFFFFFFFFFFFFFFFFFFFFFFFFFFFFFFF MUL NOT AND SWAP1 DUP4 PUSH20 0xFFFFFFFFFFFFFFFFFFFFFFFFFFFFFFFFFFFFFFFF AND MUL OR SWAP1 SSTORE POP PUSH1 0x40 DUP3 ADD MLOAD DUP2 PUSH1 0x2 ADD SWAP1 DUP1 MLOAD SWAP1 PUSH1 0x20 ADD SWAP1 PUSH2 0x172E SWAP3 SWAP2 SWAP1 PUSH2 0x40BE JUMP JUMPDEST POP PUSH1 0x60 DUP3 ADD MLOAD DUP2 PUSH1 0x3 ADD PUSH1 0x0 PUSH2 0x100 EXP DUP2 SLOAD DUP2 PUSH1 0xFF MUL NOT AND SWAP1 DUP4 PUSH1 0xFF AND MUL OR SWAP1 SSTORE POP PUSH1 0x80 DUP3 ADD MLOAD DUP2 PUSH1 0x4 ADD PUSH1 0x0 DUP3 ADD MLOAD DUP2 PUSH1 0x0 ADD SSTORE PUSH1 0x20 DUP3 ADD MLOAD DUP2 PUSH1 0x1 ADD SSTORE POP POP PUSH1 0xA0 DUP3 ADD MLOAD DUP2 PUSH1 0x6 ADD PUSH1 0x0 DUP3 ADD MLOAD DUP2 PUSH1 0x0 ADD SSTORE PUSH1 0x20 DUP3 ADD MLOAD DUP2 PUSH1 0x1 ADD SSTORE POP POP PUSH1 0xC0 DUP3 ADD MLOAD DUP2 PUSH1 0x8 ADD PUSH1 0x0 DUP3 ADD MLOAD DUP2 PUSH1 0x0 ADD SSTORE PUSH1 0x20 DUP3 ADD MLOAD DUP2 PUSH1 0x1 ADD SSTORE POP POP PUSH1 0xE0 DUP3 ADD MLOAD DUP2 PUSH1 0xA ADD PUSH1 0x0 PUSH2 0x100 EXP DUP2 SLOAD DUP2 PUSH1 0xFF MUL NOT AND SWAP1 DUP4 ISZERO ISZERO MUL OR SWAP1 SSTORE POP SWAP1 POP POP PUSH32 0xE4C4D61C208E86F9ADEA5BE59F72850D1802D624B3F5A9D023469B2A81FB3A9B DUP14 DUP5 DUP5 DUP16 DUP16 DUP16 DUP16 DUP16 DUP16 PUSH1 0x40 MLOAD PUSH2 0x180F SWAP10 SWAP9 SWAP8 SWAP7 SWAP6 SWAP5 SWAP4 SWAP3 SWAP2 SWAP1 PUSH2 0x53FD JUMP JUMPDEST PUSH1 0x40 MLOAD DUP1 SWAP2 SUB SWAP1 LOG1 POP POP POP POP POP POP POP POP POP POP POP POP POP JUMP JUMPDEST PUSH1 0x3 PUSH1 0x20 MSTORE DUP2 PUSH1 0x0 MSTORE PUSH1 0x40 PUSH1 0x0 KECCAK256 PUSH1 0x20 MSTORE DUP1 PUSH1 0x0 MSTORE PUSH1 0x40 PUSH1 0x0 KECCAK256 PUSH1 0x0 SWAP2 POP SWAP2 POP POP SLOAD DUP2 JUMP JUMPDEST PUSH2 0x1853 PUSH2 0x3DFB JUMP JUMPDEST DUP1 PUSH1 0x2 DUP2 SWAP1 SSTORE POP POP JUMP JUMPDEST PUSH2 0x1865 PUSH2 0x3DFB JUMP JUMPDEST PUSH1 0x0 PUSH20 0xFFFFFFFFFFFFFFFFFFFFFFFFFFFFFFFFFFFFFFFF AND DUP3 PUSH20 0xFFFFFFFFFFFFFFFFFFFFFFFFFFFFFFFFFFFFFFFF AND EQ ISZERO PUSH2 0x18D5 JUMPI PUSH1 0x40 MLOAD PUSH32 0x8C379A000000000000000000000000000000000000000000000000000000000 DUP2 MSTORE PUSH1 0x4 ADD PUSH2 0x18CC SWAP1 PUSH2 0x5142 JUMP JUMPDEST PUSH1 0x40 MLOAD DUP1 SWAP2 SUB SWAP1 REVERT JUMPDEST PUSH1 0x0 DUP2 GT PUSH2 0x1918 JUMPI PUSH1 0x40 MLOAD PUSH32 0x8C379A000000000000000000000000000000000000000000000000000000000 DUP2 MSTORE PUSH1 0x4 ADD PUSH2 0x190F SWAP1 PUSH2 0x54DD JUMP JUMPDEST PUSH1 0x40 MLOAD DUP1 SWAP2 SUB SWAP1 REVERT JUMPDEST DUP2 PUSH20 0xFFFFFFFFFFFFFFFFFFFFFFFFFFFFFFFFFFFFFFFF AND PUSH4 0x23B872DD CALLER ADDRESS DUP5 PUSH1 0x40 MLOAD DUP5 PUSH4 0xFFFFFFFF AND PUSH1 0xE0 SHL DUP2 MSTORE PUSH1 0x4 ADD PUSH2 0x1955 SWAP4 SWAP3 SWAP2 SWAP1 PUSH2 0x4FFB JUMP JUMPDEST PUSH1 0x20 PUSH1 0x40 MLOAD DUP1 DUP4 SUB DUP2 PUSH1 0x0 DUP8 DUP1 EXTCODESIZE ISZERO DUP1 ISZERO PUSH2 0x196F JUMPI PUSH1 0x0 DUP1 REVERT JUMPDEST POP GAS CALL ISZERO DUP1 ISZERO PUSH2 0x1983 JUMPI RETURNDATASIZE PUSH1 0x0 DUP1 RETURNDATACOPY RETURNDATASIZE PUSH1 0x0 REVERT JUMPDEST POP POP POP POP PUSH1 0x40 MLOAD RETURNDATASIZE PUSH1 0x1F NOT PUSH1 0x1F DUP3 ADD AND DUP3 ADD DUP1 PUSH1 0x40 MSTORE POP DUP2 ADD SWAP1 PUSH2 0x19A7 SWAP2 SWAP1 PUSH2 0x505E JUMP JUMPDEST POP PUSH32 0x20B3FC91390F6CEBA342F697A9490734680FD3556633F40EFA146F1DBE79D05F DUP3 DUP3 PUSH1 0x40 MLOAD PUSH2 0x19D9 SWAP3 SWAP2 SWAP1 PUSH2 0x54FD JUMP JUMPDEST PUSH1 0x40 MLOAD DUP1 SWAP2 SUB SWAP1 LOG1 POP POP JUMP JUMPDEST PUSH1 0x0 DUP1 PUSH1 0x40 MLOAD DUP1 PUSH1 0x40 ADD PUSH1 0x40 MSTORE DUP1 DUP6 DUP2 MSTORE PUSH1 0x20 ADD DUP5 DUP2 MSTORE POP SWAP1 POP PUSH1 0x0 PUSH2 0x1A0B DUP7 DUP4 PUSH2 0x3D9B JUMP JUMPDEST SWAP1 POP DUP1 SWAP3 POP POP POP SWAP4 SWAP3 POP POP POP JUMP JUMPDEST PUSH2 0x1A21 PUSH2 0x3DFB JUMP JUMPDEST PUSH2 0x1A2B PUSH1 0x0 PUSH2 0x3E79 JUMP JUMPDEST JUMP JUMPDEST PUSH2 0x1A35 PUSH2 0x3DFB JUMP JUMPDEST PUSH1 0x0 PUSH1 0x3 PUSH1 0x0 DUP6 PUSH20 0xFFFFFFFFFFFFFFFFFFFFFFFFFFFFFFFFFFFFFFFF AND PUSH20 0xFFFFFFFFFFFFFFFFFFFFFFFFFFFFFFFFFFFFFFFF AND DUP2 MSTORE PUSH1 0x20 ADD SWAP1 DUP2 MSTORE PUSH1 0x20 ADD PUSH1 0x0 KECCAK256 PUSH1 0x0 DUP5 DUP2 MSTORE PUSH1 0x20 ADD SWAP1 DUP2 MSTORE PUSH1 0x20 ADD PUSH1 0x0 KECCAK256 SLOAD EQ ISZERO PUSH2 0x1AC9 JUMPI PUSH1 0x40 MLOAD PUSH32 0x8C379A000000000000000000000000000000000000000000000000000000000 DUP2 MSTORE PUSH1 0x4 ADD PUSH2 0x1AC0 SWAP1 PUSH2 0x4D26 JUMP JUMPDEST PUSH1 0x40 MLOAD DUP1 SWAP2 SUB SWAP1 REVERT JUMPDEST PUSH1 0x1 PUSH1 0x7 DUP2 GT ISZERO PUSH2 0x1ADD JUMPI PUSH2 0x1ADC PUSH2 0x45EE JUMP JUMPDEST JUMPDEST DUP2 PUSH1 0x7 DUP2 GT ISZERO PUSH2 0x1AF0 JUMPI PUSH2 0x1AEF PUSH2 0x45EE JUMP JUMPDEST JUMPDEST EQ DUP1 PUSH2 0x1B20 JUMPI POP PUSH1 0x2 PUSH1 0x7 DUP2 GT ISZERO PUSH2 0x1B0B JUMPI PUSH2 0x1B0A PUSH2 0x45EE JUMP JUMPDEST JUMPDEST DUP2 PUSH1 0x7 DUP2 GT ISZERO PUSH2 0x1B1E JUMPI PUSH2 0x1B1D PUSH2 0x45EE JUMP JUMPDEST JUMPDEST EQ JUMPDEST PUSH2 0x1B5F JUMPI PUSH1 0x40 MLOAD PUSH32 0x8C379A000000000000000000000000000000000000000000000000000000000 DUP2 MSTORE PUSH1 0x4 ADD PUSH2 0x1B56 SWAP1 PUSH2 0x5572 JUMP JUMPDEST PUSH1 0x40 MLOAD DUP1 SWAP2 SUB SWAP1 REVERT JUMPDEST PUSH1 0x0 PUSH1 0x3 PUSH1 0x0 DUP6 PUSH20 0xFFFFFFFFFFFFFFFFFFFFFFFFFFFFFFFFFFFFFFFF AND PUSH20 0xFFFFFFFFFFFFFFFFFFFFFFFFFFFFFFFFFFFFFFFF AND DUP2 MSTORE PUSH1 0x20 ADD SWAP1 DUP2 MSTORE PUSH1 0x20 ADD PUSH1 0x0 KECCAK256 PUSH1 0x0 DUP5 DUP2 MSTORE PUSH1 0x20 ADD SWAP1 DUP2 MSTORE PUSH1 0x20 ADD PUSH1 0x0 KECCAK256 SLOAD SWAP1 POP PUSH1 0x0 PUSH1 0x4 PUSH1 0x0 DUP4 DUP2 MSTORE PUSH1 0x20 ADD SWAP1 DUP2 MSTORE PUSH1 0x20 ADD PUSH1 0x0 KECCAK256 SWAP1 POP PUSH1 0x0 DUP2 PUSH1 0x1 ADD PUSH1 0x0 SWAP1 SLOAD SWAP1 PUSH2 0x100 EXP SWAP1 DIV PUSH20 0xFFFFFFFFFFFFFFFFFFFFFFFFFFFFFFFFFFFFFFFF AND SWAP1 POP DUP1 PUSH20 0xFFFFFFFFFFFFFFFFFFFFFFFFFFFFFFFFFFFFFFFF AND PUSH4 0x6352211E DUP4 PUSH1 0x2 ADD SLOAD PUSH1 0x40 MLOAD DUP3 PUSH4 0xFFFFFFFF AND PUSH1 0xE0 SHL DUP2 MSTORE PUSH1 0x4 ADD PUSH2 0x1C31 SWAP2 SWAP1 PUSH2 0x4490 JUMP JUMPDEST PUSH1 0x20 PUSH1 0x40 MLOAD DUP1 DUP4 SUB DUP2 DUP7 DUP1 EXTCODESIZE ISZERO DUP1 ISZERO PUSH2 0x1C49 JUMPI PUSH1 0x0 DUP1 REVERT JUMPDEST POP GAS STATICCALL ISZERO DUP1 ISZERO PUSH2 0x1C5D JUMPI RETURNDATASIZE PUSH1 0x0 DUP1 RETURNDATACOPY RETURNDATASIZE PUSH1 0x0 REVERT JUMPDEST POP POP POP POP PUSH1 0x40 MLOAD RETURNDATASIZE PUSH1 0x1F NOT PUSH1 0x1F DUP3 ADD AND DUP3 ADD DUP1 PUSH1 0x40 MSTORE POP DUP2 ADD SWAP1 PUSH2 0x1C81 SWAP2 SWAP1 PUSH2 0x55A7 JUMP JUMPDEST PUSH20 0xFFFFFFFFFFFFFFFFFFFFFFFFFFFFFFFFFFFFFFFF AND DUP3 PUSH1 0x0 ADD PUSH1 0x0 SWAP1 SLOAD SWAP1 PUSH2 0x100 EXP SWAP1 DIV PUSH20 0xFFFFFFFFFFFFFFFFFFFFFFFFFFFFFFFFFFFFFFFF AND PUSH20 0xFFFFFFFFFFFFFFFFFFFFFFFFFFFFFFFFFFFFFFFF AND EQ PUSH2 0x1D12 JUMPI PUSH1 0x40 MLOAD PUSH32 0x8C379A000000000000000000000000000000000000000000000000000000000 DUP2 MSTORE PUSH1 0x4 ADD PUSH2 0x1D09 SWAP1 PUSH2 0x5620 JUMP JUMPDEST PUSH1 0x40 MLOAD DUP1 SWAP2 SUB SWAP1 REVERT JUMPDEST PUSH1 0x0 DUP3 PUSH1 0x3 ADD PUSH1 0x0 SWAP1 SLOAD SWAP1 PUSH2 0x100 EXP SWAP1 DIV PUSH20 0xFFFFFFFFFFFFFFFFFFFFFFFFFFFFFFFFFFFFFFFF AND SWAP1 POP PUSH1 0x0 PUSH1 0x7 DUP2 GT ISZERO PUSH2 0x1D4F JUMPI PUSH2 0x1D4E PUSH2 0x45EE JUMP JUMPDEST JUMPDEST DUP4 PUSH1 0x9 ADD PUSH1 0x0 SWAP1 SLOAD SWAP1 PUSH2 0x100 EXP SWAP1 DIV PUSH1 0xFF AND PUSH1 0x7 DUP2 GT ISZERO PUSH2 0x1D73 JUMPI PUSH2 0x1D72 PUSH2 0x45EE JUMP JUMPDEST JUMPDEST EQ PUSH2 0x1DB3 JUMPI PUSH1 0x40 MLOAD PUSH32 0x8C379A000000000000000000000000000000000000000000000000000000000 DUP2 MSTORE PUSH1 0x4 ADD PUSH2 0x1DAA SWAP1 PUSH2 0x568C JUMP JUMPDEST PUSH1 0x40 MLOAD DUP1 SWAP2 SUB SWAP1 REVERT JUMPDEST DUP5 DUP4 PUSH1 0x9 ADD PUSH1 0x0 PUSH2 0x100 EXP DUP2 SLOAD DUP2 PUSH1 0xFF MUL NOT AND SWAP1 DUP4 PUSH1 0x7 DUP2 GT ISZERO PUSH2 0x1DDA JUMPI PUSH2 0x1DD9 PUSH2 0x45EE JUMP JUMPDEST JUMPDEST MUL OR SWAP1 SSTORE POP PUSH1 0x0 TIMESTAMP SWAP1 POP PUSH1 0x0 PUSH3 0x15180 DUP6 PUSH1 0x7 ADD SLOAD PUSH2 0x1DF9 SWAP2 SWAP1 PUSH2 0x56AC JUMP JUMPDEST DUP3 PUSH2 0x1E04 SWAP2 SWAP1 PUSH2 0x4FA5 JUMP JUMPDEST SWAP1 POP PUSH1 0x2 PUSH1 0x7 DUP2 GT ISZERO PUSH2 0x1E1A JUMPI PUSH2 0x1E19 PUSH2 0x45EE JUMP JUMPDEST JUMPDEST DUP8 PUSH1 0x7 DUP2 GT ISZERO PUSH2 0x1E2D JUMPI PUSH2 0x1E2C PUSH2 0x45EE JUMP JUMPDEST JUMPDEST EQ ISZERO PUSH2 0x1FDB JUMPI DUP2 DUP6 PUSH1 0x6 ADD DUP2 SWAP1 SSTORE POP DUP1 DUP6 PUSH1 0x8 ADD DUP2 SWAP1 SSTORE POP DUP4 PUSH20 0xFFFFFFFFFFFFFFFFFFFFFFFFFFFFFFFFFFFFFFFF AND PUSH4 0x42842E0E DUP7 PUSH1 0x0 ADD PUSH1 0x0 SWAP1 SLOAD SWAP1 PUSH2 0x100 EXP SWAP1 DIV PUSH20 0xFFFFFFFFFFFFFFFFFFFFFFFFFFFFFFFFFFFFFFFF AND ADDRESS DUP9 PUSH1 0x2 ADD SLOAD PUSH1 0x40 MLOAD DUP5 PUSH4 0xFFFFFFFF AND PUSH1 0xE0 SHL DUP2 MSTORE PUSH1 0x4 ADD PUSH2 0x1EAA SWAP4 SWAP3 SWAP2 SWAP1 PUSH2 0x4FFB JUMP JUMPDEST PUSH1 0x0 PUSH1 0x40 MLOAD DUP1 DUP4 SUB DUP2 PUSH1 0x0 DUP8 DUP1 EXTCODESIZE ISZERO DUP1 ISZERO PUSH2 0x1EC4 JUMPI PUSH1 0x0 DUP1 REVERT JUMPDEST POP GAS CALL ISZERO DUP1 ISZERO PUSH2 0x1ED8 JUMPI RETURNDATASIZE PUSH1 0x0 DUP1 RETURNDATACOPY RETURNDATASIZE PUSH1 0x0 REVERT JUMPDEST POP POP POP POP PUSH1 0x0 DUP4 PUSH20 0xFFFFFFFFFFFFFFFFFFFFFFFFFFFFFFFFFFFFFFFF AND PUSH4 0xA9059CBB DUP8 PUSH1 0x0 ADD PUSH1 0x0 SWAP1 SLOAD SWAP1 PUSH2 0x100 EXP SWAP1 DIV PUSH20 0xFFFFFFFFFFFFFFFFFFFFFFFFFFFFFFFFFFFFFFFF AND DUP9 PUSH1 0x4 ADD SLOAD PUSH1 0x40 MLOAD DUP4 PUSH4 0xFFFFFFFF AND PUSH1 0xE0 SHL DUP2 MSTORE PUSH1 0x4 ADD PUSH2 0x1F41 SWAP3 SWAP2 SWAP1 PUSH2 0x54FD JUMP JUMPDEST PUSH1 0x20 PUSH1 0x40 MLOAD DUP1 DUP4 SUB DUP2 PUSH1 0x0 DUP8 DUP1 EXTCODESIZE ISZERO DUP1 ISZERO PUSH2 0x1F5B JUMPI PUSH1 0x0 DUP1 REVERT JUMPDEST POP GAS CALL ISZERO DUP1 ISZERO PUSH2 0x1F6F JUMPI RETURNDATASIZE PUSH1 0x0 DUP1 RETURNDATACOPY RETURNDATASIZE PUSH1 0x0 REVERT JUMPDEST POP POP POP POP PUSH1 0x40 MLOAD RETURNDATASIZE PUSH1 0x1F NOT PUSH1 0x1F DUP3 ADD AND DUP3 ADD DUP1 PUSH1 0x40 MSTORE POP DUP2 ADD SWAP1 PUSH2 0x1F93 SWAP2 SWAP1 PUSH2 0x505E JUMP JUMPDEST SWAP1 POP DUP1 PUSH2 0x1FD5 JUMPI PUSH1 0x40 MLOAD PUSH32 0x8C379A000000000000000000000000000000000000000000000000000000000 DUP2 MSTORE PUSH1 0x4 ADD PUSH2 0x1FCC SWAP1 PUSH2 0x5752 JUMP JUMPDEST PUSH1 0x40 MLOAD DUP1 SWAP2 SUB SWAP1 REVERT JUMPDEST POP PUSH2 0x2032 JUMP JUMPDEST PUSH1 0x0 PUSH1 0x3 PUSH1 0x0 DUP12 PUSH20 0xFFFFFFFFFFFFFFFFFFFFFFFFFFFFFFFFFFFFFFFF AND PUSH20 0xFFFFFFFFFFFFFFFFFFFFFFFFFFFFFFFFFFFFFFFF AND DUP2 MSTORE PUSH1 0x20 ADD SWAP1 DUP2 MSTORE PUSH1 0x20 ADD PUSH1 0x0 KECCAK256 PUSH1 0x0 DUP11 DUP2 MSTORE PUSH1 0x20 ADD SWAP1 DUP2 MSTORE PUSH1 0x20 ADD PUSH1 0x0 KECCAK256 DUP2 SWAP1 SSTORE POP JUMPDEST PUSH32 0x4CC556F6664640F451FDC3ABFAD3E41A2CD1FC739FF53B722B7376C235A71733 DUP7 DUP9 DUP5 DUP5 PUSH1 0x40 MLOAD PUSH2 0x2067 SWAP5 SWAP4 SWAP3 SWAP2 SWAP1 PUSH2 0x508B JUMP JUMPDEST PUSH1 0x40 MLOAD DUP1 SWAP2 SUB SWAP1 LOG1 POP POP POP POP POP POP POP POP POP JUMP JUMPDEST PUSH1 0x0 DUP1 PUSH1 0x0 SWAP1 SLOAD SWAP1 PUSH2 0x100 EXP SWAP1 DIV PUSH20 0xFFFFFFFFFFFFFFFFFFFFFFFFFFFFFFFFFFFFFFFF AND SWAP1 POP SWAP1 JUMP JUMPDEST PUSH1 0x0 PUSH1 0x3 PUSH1 0x0 DUP5 PUSH20 0xFFFFFFFFFFFFFFFFFFFFFFFFFFFFFFFFFFFFFFFF AND PUSH20 0xFFFFFFFFFFFFFFFFFFFFFFFFFFFFFFFFFFFFFFFF AND DUP2 MSTORE PUSH1 0x20 ADD SWAP1 DUP2 MSTORE PUSH1 0x20 ADD PUSH1 0x0 KECCAK256 PUSH1 0x0 DUP4 DUP2 MSTORE PUSH1 0x20 ADD SWAP1 DUP2 MSTORE PUSH1 0x20 ADD PUSH1 0x0 KECCAK256 SLOAD EQ ISZERO PUSH2 0x2137 JUMPI PUSH1 0x40 MLOAD PUSH32 0x8C379A000000000000000000000000000000000000000000000000000000000 DUP2 MSTORE PUSH1 0x4 ADD PUSH2 0x212E SWAP1 PUSH2 0x4D26 JUMP JUMPDEST PUSH1 0x40 MLOAD DUP1 SWAP2 SUB SWAP1 REVERT JUMPDEST PUSH1 0x0 PUSH1 0x3 PUSH1 0x0 DUP5 PUSH20 0xFFFFFFFFFFFFFFFFFFFFFFFFFFFFFFFFFFFFFFFF AND PUSH20 0xFFFFFFFFFFFFFFFFFFFFFFFFFFFFFFFFFFFFFFFF AND DUP2 MSTORE PUSH1 0x20 ADD SWAP1 DUP2 MSTORE PUSH1 0x20 ADD PUSH1 0x0 KECCAK256 PUSH1 0x0 DUP4 DUP2 MSTORE PUSH1 0x20 ADD SWAP1 DUP2 MSTORE PUSH1 0x20 ADD PUSH1 0x0 KECCAK256 SLOAD SWAP1 POP PUSH1 0x0 PUSH1 0x4 PUSH1 0x0 DUP4 DUP2 MSTORE PUSH1 0x20 ADD SWAP1 DUP2 MSTORE PUSH1 0x20 ADD PUSH1 0x0 KECCAK256 SWAP1 POP DUP1 PUSH1 0x0 ADD PUSH1 0x0 SWAP1 SLOAD SWAP1 PUSH2 0x100 EXP SWAP1 DIV PUSH20 0xFFFFFFFFFFFFFFFFFFFFFFFFFFFFFFFFFFFFFFFF AND PUSH20 0xFFFFFFFFFFFFFFFFFFFFFFFFFFFFFFFFFFFFFFFF AND CALLER PUSH20 0xFFFFFFFFFFFFFFFFFFFFFFFFFFFFFFFFFFFFFFFF AND EQ PUSH2 0x2235 JUMPI PUSH1 0x40 MLOAD PUSH32 0x8C379A000000000000000000000000000000000000000000000000000000000 DUP2 MSTORE PUSH1 0x4 ADD PUSH2 0x222C SWAP1 PUSH2 0x57BE JUMP JUMPDEST PUSH1 0x40 MLOAD DUP1 SWAP2 SUB SWAP1 REVERT JUMPDEST PUSH1 0x2 PUSH1 0x7 DUP2 GT ISZERO PUSH2 0x2249 JUMPI PUSH2 0x2248 PUSH2 0x45EE JUMP JUMPDEST JUMPDEST DUP2 PUSH1 0x9 ADD PUSH1 0x0 SWAP1 SLOAD SWAP1 PUSH2 0x100 EXP SWAP1 DIV PUSH1 0xFF AND PUSH1 0x7 DUP2 GT ISZERO PUSH2 0x226D JUMPI PUSH2 0x226C PUSH2 0x45EE JUMP JUMPDEST JUMPDEST EQ PUSH2 0x22AD JUMPI PUSH1 0x40 MLOAD PUSH32 0x8C379A000000000000000000000000000000000000000000000000000000000 DUP2 MSTORE PUSH1 0x4 ADD PUSH2 0x22A4 SWAP1 PUSH2 0x4E90 JUMP JUMPDEST PUSH1 0x40 MLOAD DUP1 SWAP2 SUB SWAP1 REVERT JUMPDEST PUSH1 0x0 TIMESTAMP SWAP1 POP DUP2 PUSH1 0x8 ADD SLOAD DUP2 LT DUP1 ISZERO PUSH2 0x22D7 JUMPI POP PUSH3 0x15180 DUP3 PUSH1 0x8 ADD SLOAD PUSH2 0x22D3 SWAP2 SWAP1 PUSH2 0x4EDF JUMP JUMPDEST DUP2 LT ISZERO JUMPDEST PUSH2 0x2316 JUMPI PUSH1 0x40 MLOAD PUSH32 0x8C379A000000000000000000000000000000000000000000000000000000000 DUP2 MSTORE PUSH1 0x4 ADD PUSH2 0x230D SWAP1 PUSH2 0x582A JUMP JUMPDEST PUSH1 0x40 MLOAD DUP1 SWAP2 SUB SWAP1 REVERT JUMPDEST DUP2 PUSH1 0x3 ADD PUSH1 0x0 SWAP1 SLOAD SWAP1 PUSH2 0x100 EXP SWAP1 DIV PUSH20 0xFFFFFFFFFFFFFFFFFFFFFFFFFFFFFFFFFFFFFFFF AND PUSH20 0xFFFFFFFFFFFFFFFFFFFFFFFFFFFFFFFFFFFFFFFF AND PUSH4 0x23B872DD CALLER ADDRESS DUP6 PUSH1 0x5 ADD SLOAD PUSH1 0x40 MLOAD DUP5 PUSH4 0xFFFFFFFF AND PUSH1 0xE0 SHL DUP2 MSTORE PUSH1 0x4 ADD PUSH2 0x237B SWAP4 SWAP3 SWAP2 SWAP1 PUSH2 0x4FFB JUMP JUMPDEST PUSH1 0x20 PUSH1 0x40 MLOAD DUP1 DUP4 SUB DUP2 PUSH1 0x0 DUP8 DUP1 EXTCODESIZE ISZERO DUP1 ISZERO PUSH2 0x2395 JUMPI PUSH1 0x0 DUP1 REVERT JUMPDEST POP GAS CALL ISZERO DUP1 ISZERO PUSH2 0x23A9 JUMPI RETURNDATASIZE PUSH1 0x0 DUP1 RETURNDATACOPY RETURNDATASIZE PUSH1 0x0 REVERT JUMPDEST POP POP POP POP PUSH1 0x40 MLOAD RETURNDATASIZE PUSH1 0x1F NOT PUSH1 0x1F DUP3 ADD AND DUP3 ADD DUP1 PUSH1 0x40 MSTORE POP DUP2 ADD SWAP1 PUSH2 0x23CD SWAP2 SWAP1 PUSH2 0x505E JUMP JUMPDEST POP DUP2 PUSH1 0x1 ADD PUSH1 0x0 SWAP1 SLOAD SWAP1 PUSH2 0x100 EXP SWAP1 DIV PUSH20 0xFFFFFFFFFFFFFFFFFFFFFFFFFFFFFFFFFFFFFFFF AND PUSH20 0xFFFFFFFFFFFFFFFFFFFFFFFFFFFFFFFFFFFFFFFF AND PUSH4 0x42842E0E ADDRESS DUP5 PUSH1 0x0 ADD PUSH1 0x0 SWAP1 SLOAD SWAP1 PUSH2 0x100 EXP SWAP1 DIV PUSH20 0xFFFFFFFFFFFFFFFFFFFFFFFFFFFFFFFFFFFFFFFF AND DUP6 PUSH1 0x2 ADD SLOAD PUSH1 0x40 MLOAD DUP5 PUSH4 0xFFFFFFFF AND PUSH1 0xE0 SHL DUP2 MSTORE PUSH1 0x4 ADD PUSH2 0x2457 SWAP4 SWAP3 SWAP2 SWAP1 PUSH2 0x4FFB JUMP JUMPDEST PUSH1 0x0 PUSH1 0x40 MLOAD DUP1 DUP4 SUB DUP2 PUSH1 0x0 DUP8 DUP1 EXTCODESIZE ISZERO DUP1 ISZERO PUSH2 0x2471 JUMPI PUSH1 0x0 DUP1 REVERT JUMPDEST POP GAS CALL ISZERO DUP1 ISZERO PUSH2 0x2485 JUMPI RETURNDATASIZE PUSH1 0x0 DUP1 RETURNDATACOPY RETURNDATASIZE PUSH1 0x0 REVERT JUMPDEST POP POP POP POP PUSH1 0x0 PUSH1 0x3 PUSH1 0x0 DUP5 PUSH1 0x1 ADD PUSH1 0x0 SWAP1 SLOAD SWAP1 PUSH2 0x100 EXP SWAP1 DIV PUSH20 0xFFFFFFFFFFFFFFFFFFFFFFFFFFFFFFFFFFFFFFFF AND PUSH20 0xFFFFFFFFFFFFFFFFFFFFFFFFFFFFFFFFFFFFFFFF AND PUSH20 0xFFFFFFFFFFFFFFFFFFFFFFFFFFFFFFFFFFFFFFFF AND DUP2 MSTORE PUSH1 0x20 ADD SWAP1 DUP2 MSTORE PUSH1 0x20 ADD PUSH1 0x0 KECCAK256 PUSH1 0x0 DUP5 PUSH1 0x2 ADD SLOAD DUP2 MSTORE PUSH1 0x20 ADD SWAP1 DUP2 MSTORE PUSH1 0x20 ADD PUSH1 0x0 KECCAK256 DUP2 SWAP1 SSTORE POP PUSH1 0x3 DUP3 PUSH1 0x9 ADD PUSH1 0x0 PUSH2 0x100 EXP DUP2 SLOAD DUP2 PUSH1 0xFF MUL NOT AND SWAP1 DUP4 PUSH1 0x7 DUP2 GT ISZERO PUSH2 0x252F JUMPI PUSH2 0x252E PUSH2 0x45EE JUMP JUMPDEST JUMPDEST MUL OR SWAP1 SSTORE POP PUSH32 0x78707AB4C079702301D623FC15DF9D6EB85D349C3EA6066331A6562BAA4CD40E DUP4 PUSH1 0x3 DUP4 PUSH1 0x40 MLOAD PUSH2 0x2568 SWAP4 SWAP3 SWAP2 SWAP1 PUSH2 0x584A JUMP JUMPDEST PUSH1 0x40 MLOAD DUP1 SWAP2 SUB SWAP1 LOG1 POP POP POP POP POP JUMP JUMPDEST PUSH1 0x0 DUP1 PUSH1 0x3 PUSH1 0x0 DUP6 PUSH20 0xFFFFFFFFFFFFFFFFFFFFFFFFFFFFFFFFFFFFFFFF AND PUSH20 0xFFFFFFFFFFFFFFFFFFFFFFFFFFFFFFFFFFFFFFFF AND DUP2 MSTORE PUSH1 0x20 ADD SWAP1 DUP2 MSTORE PUSH1 0x20 ADD PUSH1 0x0 KECCAK256 PUSH1 0x0 DUP5 DUP2 MSTORE PUSH1 0x20 ADD SWAP1 DUP2 MSTORE PUSH1 0x20 ADD PUSH1 0x0 KECCAK256 SLOAD EQ ISZERO PUSH2 0x260C JUMPI PUSH1 0x40 MLOAD PUSH32 0x8C379A000000000000000000000000000000000000000000000000000000000 DUP2 MSTORE PUSH1 0x4 ADD PUSH2 0x2603 SWAP1 PUSH2 0x4D26 JUMP JUMPDEST PUSH1 0x40 MLOAD DUP1 SWAP2 SUB SWAP1 REVERT JUMPDEST PUSH1 0x0 PUSH1 0x3 PUSH1 0x0 DUP6 PUSH20 0xFFFFFFFFFFFFFFFFFFFFFFFFFFFFFFFFFFFFFFFF AND PUSH20 0xFFFFFFFFFFFFFFFFFFFFFFFFFFFFFFFFFFFFFFFF AND DUP2 MSTORE PUSH1 0x20 ADD SWAP1 DUP2 MSTORE PUSH1 0x20 ADD PUSH1 0x0 KECCAK256 PUSH1 0x0 DUP5 DUP2 MSTORE PUSH1 0x20 ADD SWAP1 DUP2 MSTORE PUSH1 0x20 ADD PUSH1 0x0 KECCAK256 SLOAD SWAP1 POP PUSH1 0x0 PUSH1 0x4 PUSH1 0x0 DUP4 DUP2 MSTORE PUSH1 0x20 ADD SWAP1 DUP2 MSTORE PUSH1 0x20 ADD PUSH1 0x0 KECCAK256 SWAP1 POP PUSH1 0x2 PUSH1 0x7 DUP2 GT ISZERO PUSH2 0x268C JUMPI PUSH2 0x268B PUSH2 0x45EE JUMP JUMPDEST JUMPDEST DUP2 PUSH1 0x9 ADD PUSH1 0x0 SWAP1 SLOAD SWAP1 PUSH2 0x100 EXP SWAP1 DIV PUSH1 0xFF AND PUSH1 0x7 DUP2 GT ISZERO PUSH2 0x26B0 JUMPI PUSH2 0x26AF PUSH2 0x45EE JUMP JUMPDEST JUMPDEST EQ DUP1 PUSH2 0x26F1 JUMPI POP PUSH1 0x0 PUSH1 0x7 DUP2 GT ISZERO PUSH2 0x26CB JUMPI PUSH2 0x26CA PUSH2 0x45EE JUMP JUMPDEST JUMPDEST DUP2 PUSH1 0x9 ADD PUSH1 0x0 SWAP1 SLOAD SWAP1 PUSH2 0x100 EXP SWAP1 DIV PUSH1 0xFF AND PUSH1 0x7 DUP2 GT ISZERO PUSH2 0x26EF JUMPI PUSH2 0x26EE PUSH2 0x45EE JUMP JUMPDEST JUMPDEST EQ JUMPDEST PUSH2 0x2730 JUMPI PUSH1 0x40 MLOAD PUSH32 0x8C379A000000000000000000000000000000000000000000000000000000000 DUP2 MSTORE PUSH1 0x4 ADD PUSH2 0x2727 SWAP1 PUSH2 0x4E90 JUMP JUMPDEST PUSH1 0x40 MLOAD DUP1 SWAP2 SUB SWAP1 REVERT JUMPDEST PUSH1 0x0 TIMESTAMP SWAP1 POP DUP2 PUSH1 0x8 ADD SLOAD DUP2 GT DUP1 ISZERO PUSH2 0x277D JUMPI POP PUSH1 0x2 PUSH1 0x7 DUP2 GT ISZERO PUSH2 0x2757 JUMPI PUSH2 0x2756 PUSH2 0x45EE JUMP JUMPDEST JUMPDEST DUP3 PUSH1 0x9 ADD PUSH1 0x0 SWAP1 SLOAD SWAP1 PUSH2 0x100 EXP SWAP1 DIV PUSH1 0xFF AND PUSH1 0x7 DUP2 GT ISZERO PUSH2 0x277B JUMPI PUSH2 0x277A PUSH2 0x45EE JUMP JUMPDEST JUMPDEST EQ JUMPDEST ISZERO PUSH2 0x2807 JUMPI PUSH1 0x5 DUP3 PUSH1 0x9 ADD PUSH1 0x0 PUSH2 0x100 EXP DUP2 SLOAD DUP2 PUSH1 0xFF MUL NOT AND SWAP1 DUP4 PUSH1 0x7 DUP2 GT ISZERO PUSH2 0x27AA JUMPI PUSH2 0x27A9 PUSH2 0x45EE JUMP JUMPDEST JUMPDEST MUL OR SWAP1 SSTORE POP PUSH32 0x752F13270456DB0A99C87D0B2467CAACA2391A9DA85D8A33DBF84F6E044099F DUP4 DUP4 PUSH1 0x9 ADD PUSH1 0x0 SWAP1 SLOAD SWAP1 PUSH2 0x100 EXP SWAP1 DIV PUSH1 0xFF AND DUP4 PUSH1 0x40 MLOAD PUSH2 0x27F3 SWAP4 SWAP3 SWAP2 SWAP1 PUSH2 0x584A JUMP JUMPDEST PUSH1 0x40 MLOAD DUP1 SWAP2 SUB SWAP1 LOG1 PUSH1 0x1 SWAP4 POP POP POP POP PUSH2 0x2937 JUMP JUMPDEST DUP2 PUSH1 0x8 ADD SLOAD DUP2 GT DUP1 ISZERO PUSH2 0x284F JUMPI POP PUSH1 0x0 PUSH1 0x7 DUP2 GT ISZERO PUSH2 0x2829 JUMPI PUSH2 0x2828 PUSH2 0x45EE JUMP JUMPDEST JUMPDEST DUP3 PUSH1 0x9 ADD PUSH1 0x0 SWAP1 SLOAD SWAP1 PUSH2 0x100 EXP SWAP1 DIV PUSH1 0xFF AND PUSH1 0x7 DUP2 GT ISZERO PUSH2 0x284D JUMPI PUSH2 0x284C PUSH2 0x45EE JUMP JUMPDEST JUMPDEST EQ JUMPDEST ISZERO PUSH2 0x292F JUMPI PUSH1 0x6 DUP3 PUSH1 0x9 ADD PUSH1 0x0 PUSH2 0x100 EXP DUP2 SLOAD DUP2 PUSH1 0xFF MUL NOT AND SWAP1 DUP4 PUSH1 0x7 DUP2 GT ISZERO PUSH2 0x287C JUMPI PUSH2 0x287B PUSH2 0x45EE JUMP JUMPDEST JUMPDEST MUL OR SWAP1 SSTORE POP PUSH1 0x0 PUSH1 0x3 PUSH1 0x0 DUP9 PUSH20 0xFFFFFFFFFFFFFFFFFFFFFFFFFFFFFFFFFFFFFFFF AND PUSH20 0xFFFFFFFFFFFFFFFFFFFFFFFFFFFFFFFFFFFFFFFF AND DUP2 MSTORE PUSH1 0x20 ADD SWAP1 DUP2 MSTORE PUSH1 0x20 ADD PUSH1 0x0 KECCAK256 PUSH1 0x0 DUP8 DUP2 MSTORE PUSH1 0x20 ADD SWAP1 DUP2 MSTORE PUSH1 0x20 ADD PUSH1 0x0 KECCAK256 DUP2 SWAP1 SSTORE POP PUSH32 0x752F13270456DB0A99C87D0B2467CAACA2391A9DA85D8A33DBF84F6E044099F DUP4 DUP4 PUSH1 0x9 ADD PUSH1 0x0 SWAP1 SLOAD SWAP1 PUSH2 0x100 EXP SWAP1 DIV PUSH1 0xFF AND DUP4 PUSH1 0x40 MLOAD PUSH2 0x291B SWAP4 SWAP3 SWAP2 SWAP1 PUSH2 0x584A JUMP JUMPDEST PUSH1 0x40 MLOAD DUP1 SWAP2 SUB SWAP1 LOG1 PUSH1 0x1 SWAP4 POP POP POP POP PUSH2 0x2937 JUMP JUMPDEST PUSH1 0x0 SWAP4 POP POP POP POP JUMPDEST SWAP3 SWAP2 POP POP JUMP JUMPDEST PUSH1 0x2 SLOAD DUP2 JUMP JUMPDEST PUSH1 0x0 PUSH20 0xFFFFFFFFFFFFFFFFFFFFFFFFFFFFFFFFFFFFFFFF AND CALLER PUSH20 0xFFFFFFFFFFFFFFFFFFFFFFFFFFFFFFFFFFFFFFFF AND EQ ISZERO PUSH2 0x29B3 JUMPI PUSH1 0x40 MLOAD PUSH32 0x8C379A000000000000000000000000000000000000000000000000000000000 DUP2 MSTORE PUSH1 0x4 ADD PUSH2 0x29AA SWAP1 PUSH2 0x58CD JUMP JUMPDEST PUSH1 0x40 MLOAD DUP1 SWAP2 SUB SWAP1 REVERT JUMPDEST PUSH1 0x0 PUSH20 0xFFFFFFFFFFFFFFFFFFFFFFFFFFFFFFFFFFFFFFFF AND DUP6 PUSH20 0xFFFFFFFFFFFFFFFFFFFFFFFFFFFFFFFFFFFFFFFF AND EQ ISZERO PUSH2 0x2A23 JUMPI PUSH1 0x40 MLOAD PUSH32 0x8C379A000000000000000000000000000000000000000000000000000000000 DUP2 MSTORE PUSH1 0x4 ADD PUSH2 0x2A1A SWAP1 PUSH2 0x5939 JUMP JUMPDEST PUSH1 0x40 MLOAD DUP1 SWAP2 SUB SWAP1 REVERT JUMPDEST PUSH2 0x2A2B PUSH2 0x207A JUMP JUMPDEST PUSH20 0xFFFFFFFFFFFFFFFFFFFFFFFFFFFFFFFFFFFFFFFF AND CALLER PUSH20 0xFFFFFFFFFFFFFFFFFFFFFFFFFFFFFFFFFFFFFFFF AND EQ ISZERO PUSH2 0x2A99 JUMPI PUSH1 0x40 MLOAD PUSH32 0x8C379A000000000000000000000000000000000000000000000000000000000 DUP2 MSTORE PUSH1 0x4 ADD PUSH2 0x2A90 SWAP1 PUSH2 0x59A5 JUMP JUMPDEST PUSH1 0x40 MLOAD DUP1 SWAP2 SUB SWAP1 REVERT JUMPDEST PUSH1 0x0 PUSH1 0x3 PUSH1 0x0 DUP8 PUSH20 0xFFFFFFFFFFFFFFFFFFFFFFFFFFFFFFFFFFFFFFFF AND PUSH20 0xFFFFFFFFFFFFFFFFFFFFFFFFFFFFFFFFFFFFFFFF AND DUP2 MSTORE PUSH1 0x20 ADD SWAP1 DUP2 MSTORE PUSH1 0x20 ADD PUSH1 0x0 KECCAK256 PUSH1 0x0 DUP7 DUP2 MSTORE PUSH1 0x20 ADD SWAP1 DUP2 MSTORE PUSH1 0x20 ADD PUSH1 0x0 KECCAK256 SLOAD EQ PUSH2 0x2B2C JUMPI PUSH1 0x40 MLOAD PUSH32 0x8C379A000000000000000000000000000000000000000000000000000000000 DUP2 MSTORE PUSH1 0x4 ADD PUSH2 0x2B23 SWAP1 PUSH2 0x5A11 JUMP JUMPDEST PUSH1 0x40 MLOAD DUP1 SWAP2 SUB SWAP1 REVERT JUMPDEST PUSH1 0x0 DUP3 GT PUSH2 0x2B6F JUMPI PUSH1 0x40 MLOAD PUSH32 0x8C379A000000000000000000000000000000000000000000000000000000000 DUP2 MSTORE PUSH1 0x4 ADD PUSH2 0x2B66 SWAP1 PUSH2 0x5A7D JUMP JUMPDEST PUSH1 0x40 MLOAD DUP1 SWAP2 SUB SWAP1 REVERT JUMPDEST PUSH1 0x2 SLOAD DUP2 EQ PUSH2 0x2BB3 JUMPI PUSH1 0x40 MLOAD PUSH32 0x8C379A000000000000000000000000000000000000000000000000000000000 DUP2 MSTORE PUSH1 0x4 ADD PUSH2 0x2BAA SWAP1 PUSH2 0x5AE9 JUMP JUMPDEST PUSH1 0x40 MLOAD DUP1 SWAP2 SUB SWAP1 REVERT JUMPDEST PUSH1 0x0 DUP6 SWAP1 POP DUP1 PUSH20 0xFFFFFFFFFFFFFFFFFFFFFFFFFFFFFFFFFFFFFFFF AND PUSH4 0x6352211E DUP7 PUSH1 0x40 MLOAD DUP3 PUSH4 0xFFFFFFFF AND PUSH1 0xE0 SHL DUP2 MSTORE PUSH1 0x4 ADD PUSH2 0x2BF1 SWAP2 SWAP1 PUSH2 0x4490 JUMP JUMPDEST PUSH1 0x20 PUSH1 0x40 MLOAD DUP1 DUP4 SUB DUP2 DUP7 DUP1 EXTCODESIZE ISZERO DUP1 ISZERO PUSH2 0x2C09 JUMPI PUSH1 0x0 DUP1 REVERT JUMPDEST POP GAS STATICCALL ISZERO DUP1 ISZERO PUSH2 0x2C1D JUMPI RETURNDATASIZE PUSH1 0x0 DUP1 RETURNDATACOPY RETURNDATASIZE PUSH1 0x0 REVERT JUMPDEST POP POP POP POP PUSH1 0x40 MLOAD RETURNDATASIZE PUSH1 0x1F NOT PUSH1 0x1F DUP3 ADD AND DUP3 ADD DUP1 PUSH1 0x40 MSTORE POP DUP2 ADD SWAP1 PUSH2 0x2C41 SWAP2 SWAP1 PUSH2 0x55A7 JUMP JUMPDEST PUSH20 0xFFFFFFFFFFFFFFFFFFFFFFFFFFFFFFFFFFFFFFFF AND CALLER PUSH20 0xFFFFFFFFFFFFFFFFFFFFFFFFFFFFFFFFFFFFFFFF AND EQ PUSH2 0x2CAE JUMPI PUSH1 0x40 MLOAD PUSH32 0x8C379A000000000000000000000000000000000000000000000000000000000 DUP2 MSTORE PUSH1 0x4 ADD PUSH2 0x2CA5 SWAP1 PUSH2 0x4E24 JUMP JUMPDEST PUSH1 0x40 MLOAD DUP1 SWAP2 SUB SWAP1 REVERT JUMPDEST ADDRESS PUSH20 0xFFFFFFFFFFFFFFFFFFFFFFFFFFFFFFFFFFFFFFFF AND DUP2 PUSH20 0xFFFFFFFFFFFFFFFFFFFFFFFFFFFFFFFFFFFFFFFF AND PUSH4 0x81812FC DUP8 PUSH1 0x40 MLOAD DUP3 PUSH4 0xFFFFFFFF AND PUSH1 0xE0 SHL DUP2 MSTORE PUSH1 0x4 ADD PUSH2 0x2CFE SWAP2 SWAP1 PUSH2 0x4490 JUMP JUMPDEST PUSH1 0x20 PUSH1 0x40 MLOAD DUP1 DUP4 SUB DUP2 DUP7 DUP1 EXTCODESIZE ISZERO DUP1 ISZERO PUSH2 0x2D16 JUMPI PUSH1 0x0 DUP1 REVERT JUMPDEST POP GAS STATICCALL ISZERO DUP1 ISZERO PUSH2 0x2D2A JUMPI RETURNDATASIZE PUSH1 0x0 DUP1 RETURNDATACOPY RETURNDATASIZE PUSH1 0x0 REVERT JUMPDEST POP POP POP POP PUSH1 0x40 MLOAD RETURNDATASIZE PUSH1 0x1F NOT PUSH1 0x1F DUP3 ADD AND DUP3 ADD DUP1 PUSH1 0x40 MSTORE POP DUP2 ADD SWAP1 PUSH2 0x2D4E SWAP2 SWAP1 PUSH2 0x55A7 JUMP JUMPDEST PUSH20 0xFFFFFFFFFFFFFFFFFFFFFFFFFFFFFFFFFFFFFFFF AND EQ PUSH2 0x2DA4 JUMPI PUSH1 0x40 MLOAD PUSH32 0x8C379A000000000000000000000000000000000000000000000000000000000 DUP2 MSTORE PUSH1 0x4 ADD PUSH2 0x2D9B SWAP1 PUSH2 0x5B7B JUMP JUMPDEST PUSH1 0x40 MLOAD DUP1 SWAP2 SUB SWAP1 REVERT JUMPDEST PUSH1 0x0 PUSH1 0x5 PUSH1 0x0 DUP7 PUSH20 0xFFFFFFFFFFFFFFFFFFFFFFFFFFFFFFFFFFFFFFFF AND PUSH20 0xFFFFFFFFFFFFFFFFFFFFFFFFFFFFFFFFFFFFFFFF AND DUP2 MSTORE PUSH1 0x20 ADD SWAP1 DUP2 MSTORE PUSH1 0x20 ADD PUSH1 0x0 KECCAK256 PUSH1 0x40 MLOAD DUP1 PUSH2 0x100 ADD PUSH1 0x40 MSTORE SWAP1 DUP2 PUSH1 0x0 DUP3 ADD PUSH1 0x0 SWAP1 SLOAD SWAP1 PUSH2 0x100 EXP SWAP1 DIV PUSH20 0xFFFFFFFFFFFFFFFFFFFFFFFFFFFFFFFFFFFFFFFF AND PUSH20 0xFFFFFFFFFFFFFFFFFFFFFFFFFFFFFFFFFFFFFFFF AND PUSH20 0xFFFFFFFFFFFFFFFFFFFFFFFFFFFFFFFFFFFFFFFF AND DUP2 MSTORE PUSH1 0x20 ADD PUSH1 0x1 DUP3 ADD PUSH1 0x0 SWAP1 SLOAD SWAP1 PUSH2 0x100 EXP SWAP1 DIV PUSH20 0xFFFFFFFFFFFFFFFFFFFFFFFFFFFFFFFFFFFFFFFF AND PUSH20 0xFFFFFFFFFFFFFFFFFFFFFFFFFFFFFFFFFFFFFFFF AND PUSH20 0xFFFFFFFFFFFFFFFFFFFFFFFFFFFFFFFFFFFFFFFF AND DUP2 MSTORE PUSH1 0x20 ADD PUSH1 0x2 DUP3 ADD DUP1 SLOAD PUSH2 0x2EAD SWAP1 PUSH2 0x4CA8 JUMP JUMPDEST DUP1 PUSH1 0x1F ADD PUSH1 0x20 DUP1 SWAP2 DIV MUL PUSH1 0x20 ADD PUSH1 0x40 MLOAD SWAP1 DUP2 ADD PUSH1 0x40 MSTORE DUP1 SWAP3 SWAP2 SWAP1 DUP2 DUP2 MSTORE PUSH1 0x20 ADD DUP3 DUP1 SLOAD PUSH2 0x2ED9 SWAP1 PUSH2 0x4CA8 JUMP JUMPDEST DUP1 ISZERO PUSH2 0x2F26 JUMPI DUP1 PUSH1 0x1F LT PUSH2 0x2EFB JUMPI PUSH2 0x100 DUP1 DUP4 SLOAD DIV MUL DUP4 MSTORE SWAP2 PUSH1 0x20 ADD SWAP2 PUSH2 0x2F26 JUMP JUMPDEST DUP3 ADD SWAP2 SWAP1 PUSH1 0x0 MSTORE PUSH1 0x20 PUSH1 0x0 KECCAK256 SWAP1 JUMPDEST DUP2 SLOAD DUP2 MSTORE SWAP1 PUSH1 0x1 ADD SWAP1 PUSH1 0x20 ADD DUP1 DUP4 GT PUSH2 0x2F09 JUMPI DUP3 SWAP1 SUB PUSH1 0x1F AND DUP3 ADD SWAP2 JUMPDEST POP POP POP POP POP DUP2 MSTORE PUSH1 0x20 ADD PUSH1 0x3 DUP3 ADD PUSH1 0x0 SWAP1 SLOAD SWAP1 PUSH2 0x100 EXP SWAP1 DIV PUSH1 0xFF AND PUSH1 0xFF AND PUSH1 0xFF AND DUP2 MSTORE PUSH1 0x20 ADD PUSH1 0x4 DUP3 ADD PUSH1 0x40 MLOAD DUP1 PUSH1 0x40 ADD PUSH1 0x40 MSTORE SWAP1 DUP2 PUSH1 0x0 DUP3 ADD SLOAD DUP2 MSTORE PUSH1 0x20 ADD PUSH1 0x1 DUP3 ADD SLOAD DUP2 MSTORE POP POP DUP2 MSTORE PUSH1 0x20 ADD PUSH1 0x6 DUP3 ADD PUSH1 0x40 MLOAD DUP1 PUSH1 0x40 ADD PUSH1 0x40 MSTORE SWAP1 DUP2 PUSH1 0x0 DUP3 ADD SLOAD DUP2 MSTORE PUSH1 0x20 ADD PUSH1 0x1 DUP3 ADD SLOAD DUP2 MSTORE POP POP DUP2 MSTORE PUSH1 0x20 ADD PUSH1 0x8 DUP3 ADD PUSH1 0x40 MLOAD DUP1 PUSH1 0x40 ADD PUSH1 0x40 MSTORE SWAP1 DUP2 PUSH1 0x0 DUP3 ADD SLOAD DUP2 MSTORE PUSH1 0x20 ADD PUSH1 0x1 DUP3 ADD SLOAD DUP2 MSTORE POP POP DUP2 MSTORE PUSH1 0x20 ADD PUSH1 0xA DUP3 ADD PUSH1 0x0 SWAP1 SLOAD SWAP1 PUSH2 0x100 EXP SWAP1 DIV PUSH1 0xFF AND ISZERO ISZERO ISZERO ISZERO DUP2 MSTORE POP POP SWAP1 POP PUSH1 0x0 PUSH2 0x2FF1 DUP6 DUP4 PUSH1 0x80 ADD MLOAD PUSH2 0x3F3D JUMP JUMPDEST SWAP1 POP PUSH1 0x0 TIMESTAMP SWAP1 POP PUSH2 0x3002 PUSH1 0x1 PUSH2 0x3F5C JUMP JUMPDEST PUSH1 0x0 PUSH2 0x300E PUSH1 0x1 PUSH2 0x3F72 JUMP JUMPDEST SWAP1 POP DUP1 PUSH1 0x3 PUSH1 0x0 DUP13 PUSH20 0xFFFFFFFFFFFFFFFFFFFFFFFFFFFFFFFFFFFFFFFF AND PUSH20 0xFFFFFFFFFFFFFFFFFFFFFFFFFFFFFFFFFFFFFFFF AND DUP2 MSTORE PUSH1 0x20 ADD SWAP1 DUP2 MSTORE PUSH1 0x20 ADD PUSH1 0x0 KECCAK256 PUSH1 0x0 DUP12 DUP2 MSTORE PUSH1 0x20 ADD SWAP1 DUP2 MSTORE PUSH1 0x20 ADD PUSH1 0x0 KECCAK256 DUP2 SWAP1 SSTORE POP PUSH1 0x0 PUSH1 0x40 MLOAD DUP1 PUSH2 0x160 ADD PUSH1 0x40 MSTORE DUP1 CALLER PUSH20 0xFFFFFFFFFFFFFFFFFFFFFFFFFFFFFFFFFFFFFFFF AND DUP2 MSTORE PUSH1 0x20 ADD DUP13 PUSH20 0xFFFFFFFFFFFFFFFFFFFFFFFFFFFFFFFFFFFFFFFF AND DUP2 MSTORE PUSH1 0x20 ADD DUP12 DUP2 MSTORE PUSH1 0x20 ADD DUP11 PUSH20 0xFFFFFFFFFFFFFFFFFFFFFFFFFFFFFFFFFFFFFFFF AND DUP2 MSTORE PUSH1 0x20 ADD DUP10 DUP2 MSTORE PUSH1 0x20 ADD DUP6 DUP2 MSTORE PUSH1 0x20 ADD PUSH1 0x0 DUP2 MSTORE PUSH1 0x20 ADD DUP9 DUP2 MSTORE PUSH1 0x20 ADD PUSH1 0x0 DUP2 MSTORE PUSH1 0x20 ADD PUSH1 0x0 PUSH1 0x7 DUP2 GT ISZERO PUSH2 0x3101 JUMPI PUSH2 0x3100 PUSH2 0x45EE JUMP JUMPDEST JUMPDEST DUP2 MSTORE PUSH1 0x20 ADD DUP5 DUP2 MSTORE POP SWAP1 POP DUP1 PUSH1 0x4 PUSH1 0x0 DUP5 DUP2 MSTORE PUSH1 0x20 ADD SWAP1 DUP2 MSTORE PUSH1 0x20 ADD PUSH1 0x0 KECCAK256 PUSH1 0x0 DUP3 ADD MLOAD DUP2 PUSH1 0x0 ADD PUSH1 0x0 PUSH2 0x100 EXP DUP2 SLOAD DUP2 PUSH20 0xFFFFFFFFFFFFFFFFFFFFFFFFFFFFFFFFFFFFFFFF MUL NOT AND SWAP1 DUP4 PUSH20 0xFFFFFFFFFFFFFFFFFFFFFFFFFFFFFFFFFFFFFFFF AND MUL OR SWAP1 SSTORE POP PUSH1 0x20 DUP3 ADD MLOAD DUP2 PUSH1 0x1 ADD PUSH1 0x0 PUSH2 0x100 EXP DUP2 SLOAD DUP2 PUSH20 0xFFFFFFFFFFFFFFFFFFFFFFFFFFFFFFFFFFFFFFFF MUL NOT AND SWAP1 DUP4 PUSH20 0xFFFFFFFFFFFFFFFFFFFFFFFFFFFFFFFFFFFFFFFF AND MUL OR SWAP1 SSTORE POP PUSH1 0x40 DUP3 ADD MLOAD DUP2 PUSH1 0x2 ADD SSTORE PUSH1 0x60 DUP3 ADD MLOAD DUP2 PUSH1 0x3 ADD PUSH1 0x0 PUSH2 0x100 EXP DUP2 SLOAD DUP2 PUSH20 0xFFFFFFFFFFFFFFFFFFFFFFFFFFFFFFFFFFFFFFFF MUL NOT AND SWAP1 DUP4 PUSH20 0xFFFFFFFFFFFFFFFFFFFFFFFFFFFFFFFFFFFFFFFF AND MUL OR SWAP1 SSTORE POP PUSH1 0x80 DUP3 ADD MLOAD DUP2 PUSH1 0x4 ADD SSTORE PUSH1 0xA0 DUP3 ADD MLOAD DUP2 PUSH1 0x5 ADD SSTORE PUSH1 0xC0 DUP3 ADD MLOAD DUP2 PUSH1 0x6 ADD SSTORE PUSH1 0xE0 DUP3 ADD MLOAD DUP2 PUSH1 0x7 ADD SSTORE PUSH2 0x100 DUP3 ADD MLOAD DUP2 PUSH1 0x8 ADD SSTORE PUSH2 0x120 DUP3 ADD MLOAD DUP2 PUSH1 0x9 ADD PUSH1 0x0 PUSH2 0x100 EXP DUP2 SLOAD DUP2 PUSH1 0xFF MUL NOT AND SWAP1 DUP4 PUSH1 0x7 DUP2 GT ISZERO PUSH2 0x325E JUMPI PUSH2 0x325D PUSH2 0x45EE JUMP JUMPDEST JUMPDEST MUL OR SWAP1 SSTORE POP PUSH2 0x140 DUP3 ADD MLOAD DUP2 PUSH1 0xA ADD SSTORE SWAP1 POP POP PUSH32 0xEB403BC00910E26137E0474BBB869873CE17B514D6605571661C46ED36B3FB5 DUP3 CALLER DUP14 DUP14 DUP14 DUP14 DUP11 DUP15 PUSH1 0x0 DUP13 PUSH1 0x40 MLOAD PUSH2 0x32B3 SWAP11 SWAP10 SWAP9 SWAP8 SWAP7 SWAP6 SWAP5 SWAP4 SWAP3 SWAP2 SWAP1 PUSH2 0x5B9B JUMP JUMPDEST PUSH1 0x40 MLOAD DUP1 SWAP2 SUB SWAP1 LOG1 POP POP POP POP POP POP POP POP POP POP POP JUMP JUMPDEST PUSH2 0x32D0 PUSH2 0x3DFB JUMP JUMPDEST PUSH1 0x0 PUSH1 0x3 PUSH1 0x0 DUP5 PUSH20 0xFFFFFFFFFFFFFFFFFFFFFFFFFFFFFFFFFFFFFFFF AND PUSH20 0xFFFFFFFFFFFFFFFFFFFFFFFFFFFFFFFFFFFFFFFF AND DUP2 MSTORE PUSH1 0x20 ADD SWAP1 DUP2 MSTORE PUSH1 0x20 ADD PUSH1 0x0 KECCAK256 PUSH1 0x0 DUP4 DUP2 MSTORE PUSH1 0x20 ADD SWAP1 DUP2 MSTORE PUSH1 0x20 ADD PUSH1 0x0 KECCAK256 SLOAD EQ ISZERO PUSH2 0x3364 JUMPI PUSH1 0x40 MLOAD PUSH32 0x8C379A000000000000000000000000000000000000000000000000000000000 DUP2 MSTORE PUSH1 0x4 ADD PUSH2 0x335B SWAP1 PUSH2 0x4D26 JUMP JUMPDEST PUSH1 0x40 MLOAD DUP1 SWAP2 SUB SWAP1 REVERT JUMPDEST PUSH1 0x0 PUSH1 0x3 PUSH1 0x0 DUP5 PUSH20 0xFFFFFFFFFFFFFFFFFFFFFFFFFFFFFFFFFFFFFFFF AND PUSH20 0xFFFFFFFFFFFFFFFFFFFFFFFFFFFFFFFFFFFFFFFF AND DUP2 MSTORE PUSH1 0x20 ADD SWAP1 DUP2 MSTORE PUSH1 0x20 ADD PUSH1 0x0 KECCAK256 PUSH1 0x0 DUP4 DUP2 MSTORE PUSH1 0x20 ADD SWAP1 DUP2 MSTORE PUSH1 0x20 ADD PUSH1 0x0 KECCAK256 SLOAD SWAP1 POP PUSH1 0x0 PUSH1 0x4 PUSH1 0x0 DUP4 DUP2 MSTORE PUSH1 0x20 ADD SWAP1 DUP2 MSTORE PUSH1 0x20 ADD PUSH1 0x0 KECCAK256 SWAP1 POP PUSH1 0x5 PUSH1 0x7 DUP2 GT ISZERO PUSH2 0x33E4 JUMPI PUSH2 0x33E3 PUSH2 0x45EE JUMP JUMPDEST JUMPDEST DUP2 PUSH1 0x9 ADD PUSH1 0x0 SWAP1 SLOAD SWAP1 PUSH2 0x100 EXP SWAP1 DIV PUSH1 0xFF AND PUSH1 0x7 DUP2 GT ISZERO PUSH2 0x3408 JUMPI PUSH2 0x3407 PUSH2 0x45EE JUMP JUMPDEST JUMPDEST EQ PUSH2 0x3448 JUMPI PUSH1 0x40 MLOAD PUSH32 0x8C379A000000000000000000000000000000000000000000000000000000000 DUP2 MSTORE PUSH1 0x4 ADD PUSH2 0x343F SWAP1 PUSH2 0x5C83 JUMP JUMPDEST PUSH1 0x40 MLOAD DUP1 SWAP2 SUB SWAP1 REVERT JUMPDEST DUP1 PUSH1 0x1 ADD PUSH1 0x0 SWAP1 SLOAD SWAP1 PUSH2 0x100 EXP SWAP1 DIV PUSH20 0xFFFFFFFFFFFFFFFFFFFFFFFFFFFFFFFFFFFFFFFF AND PUSH20 0xFFFFFFFFFFFFFFFFFFFFFFFFFFFFFFFFFFFFFFFF AND PUSH4 0x42842E0E ADDRESS PUSH2 0x3491 PUSH2 0x207A JUMP JUMPDEST DUP5 PUSH1 0x2 ADD SLOAD PUSH1 0x40 MLOAD DUP5 PUSH4 0xFFFFFFFF AND PUSH1 0xE0 SHL DUP2 MSTORE PUSH1 0x4 ADD PUSH2 0x34B4 SWAP4 SWAP3 SWAP2 SWAP1 PUSH2 0x4FFB JUMP JUMPDEST PUSH1 0x0 PUSH1 0x40 MLOAD DUP1 DUP4 SUB DUP2 PUSH1 0x0 DUP8 DUP1 EXTCODESIZE ISZERO DUP1 ISZERO PUSH2 0x34CE JUMPI PUSH1 0x0 DUP1 REVERT JUMPDEST POP GAS CALL ISZERO DUP1 ISZERO PUSH2 0x34E2 JUMPI RETURNDATASIZE PUSH1 0x0 DUP1 RETURNDATACOPY RETURNDATASIZE PUSH1 0x0 REVERT JUMPDEST POP POP POP POP PUSH1 0x7 DUP2 PUSH1 0x9 ADD PUSH1 0x0 PUSH2 0x100 EXP DUP2 SLOAD DUP2 PUSH1 0xFF MUL NOT AND SWAP1 DUP4 PUSH1 0x7 DUP2 GT ISZERO PUSH2 0x350E JUMPI PUSH2 0x350D PUSH2 0x45EE JUMP JUMPDEST JUMPDEST MUL OR SWAP1 SSTORE POP PUSH32 0x9D9EE3F16E5351D026A6E31775AC0D5D28ADBB28BA184E297FE1B57C3BB63460 DUP5 DUP5 PUSH1 0x40 MLOAD PUSH2 0x3544 SWAP3 SWAP2 SWAP1 PUSH2 0x54FD JUMP JUMPDEST PUSH1 0x40 MLOAD DUP1 SWAP2 SUB SWAP1 LOG1 POP POP POP POP JUMP JUMPDEST PUSH2 0x355A PUSH2 0x3DFB JUMP JUMPDEST PUSH1 0x1 ISZERO ISZERO PUSH1 0x5 PUSH1 0x0 DUP10 PUSH20 0xFFFFFFFFFFFFFFFFFFFFFFFFFFFFFFFFFFFFFFFF AND PUSH20 0xFFFFFFFFFFFFFFFFFFFFFFFFFFFFFFFFFFFFFFFF AND DUP2 MSTORE PUSH1 0x20 ADD SWAP1 DUP2 MSTORE PUSH1 0x20 ADD PUSH1 0x0 KECCAK256 PUSH1 0xA ADD PUSH1 0x0 SWAP1 SLOAD SWAP1 PUSH2 0x100 EXP SWAP1 DIV PUSH1 0xFF AND ISZERO ISZERO EQ PUSH2 0x35F0 JUMPI PUSH1 0x40 MLOAD PUSH32 0x8C379A000000000000000000000000000000000000000000000000000000000 DUP2 MSTORE PUSH1 0x4 ADD PUSH2 0x35E7 SWAP1 PUSH2 0x5CEF JUMP JUMPDEST PUSH1 0x40 MLOAD DUP1 SWAP2 SUB SWAP1 REVERT JUMPDEST PUSH1 0x0 DUP7 GT DUP1 ISZERO PUSH2 0x3600 JUMPI POP PUSH1 0x0 DUP6 GT JUMPDEST DUP1 ISZERO PUSH2 0x360C JUMPI POP PUSH1 0x0 DUP5 GT JUMPDEST DUP1 ISZERO PUSH2 0x3618 JUMPI POP PUSH1 0x0 DUP4 GT JUMPDEST DUP1 ISZERO PUSH2 0x3624 JUMPI POP PUSH1 0x0 DUP3 GT JUMPDEST DUP1 ISZERO PUSH2 0x3630 JUMPI POP PUSH1 0x0 DUP2 GT JUMPDEST PUSH2 0x366F JUMPI PUSH1 0x40 MLOAD PUSH32 0x8C379A000000000000000000000000000000000000000000000000000000000 DUP2 MSTORE PUSH1 0x4 ADD PUSH2 0x3666 SWAP1 PUSH2 0x521A JUMP JUMPDEST PUSH1 0x40 MLOAD DUP1 SWAP2 SUB SWAP1 REVERT JUMPDEST PUSH1 0x0 PUSH1 0x5 PUSH1 0x0 DUP10 PUSH20 0xFFFFFFFFFFFFFFFFFFFFFFFFFFFFFFFFFFFFFFFF AND PUSH20 0xFFFFFFFFFFFFFFFFFFFFFFFFFFFFFFFFFFFFFFFF AND DUP2 MSTORE PUSH1 0x20 ADD SWAP1 DUP2 MSTORE PUSH1 0x20 ADD PUSH1 0x0 KECCAK256 SWAP1 POP DUP7 DUP2 PUSH1 0x4 ADD PUSH1 0x0 ADD DUP2 SWAP1 SSTORE POP DUP6 DUP2 PUSH1 0x4 ADD PUSH1 0x1 ADD DUP2 SWAP1 SSTORE POP DUP5 DUP2 PUSH1 0x6 ADD PUSH1 0x0 ADD DUP2 SWAP1 SSTORE POP DUP4 DUP2 PUSH1 0x6 ADD PUSH1 0x1 ADD DUP2 SWAP1 SSTORE POP DUP3 DUP2 PUSH1 0x8 ADD PUSH1 0x0 ADD DUP2 SWAP1 SSTORE POP DUP2 DUP2 PUSH1 0x8 ADD PUSH1 0x1 ADD DUP2 SWAP1 SSTORE POP PUSH32 0x4712A776F4507790315AE66C18C7BFCFEFF4C1A5480788047CCB96D24A98C1AB DUP9 DUP9 DUP9 DUP9 DUP9 DUP9 DUP9 PUSH1 0x40 MLOAD PUSH2 0x3735 SWAP8 SWAP7 SWAP6 SWAP5 SWAP4 SWAP3 SWAP2 SWAP1 PUSH2 0x5D0F JUMP JUMPDEST PUSH1 0x40 MLOAD DUP1 SWAP2 SUB SWAP1 LOG1 POP POP POP POP POP POP POP POP JUMP JUMPDEST PUSH1 0x4 PUSH1 0x20 MSTORE DUP1 PUSH1 0x0 MSTORE PUSH1 0x40 PUSH1 0x0 KECCAK256 PUSH1 0x0 SWAP2 POP SWAP1 POP DUP1 PUSH1 0x0 ADD PUSH1 0x0 SWAP1 SLOAD SWAP1 PUSH2 0x100 EXP SWAP1 DIV PUSH20 0xFFFFFFFFFFFFFFFFFFFFFFFFFFFFFFFFFFFFFFFF AND SWAP1 DUP1 PUSH1 0x1 ADD PUSH1 0x0 SWAP1 SLOAD SWAP1 PUSH2 0x100 EXP SWAP1 DIV PUSH20 0xFFFFFFFFFFFFFFFFFFFFFFFFFFFFFFFFFFFFFFFF AND SWAP1 DUP1 PUSH1 0x2 ADD SLOAD SWAP1 DUP1 PUSH1 0x3 ADD PUSH1 0x0 SWAP1 SLOAD SWAP1 PUSH2 0x100 EXP SWAP1 DIV PUSH20 0xFFFFFFFFFFFFFFFFFFFFFFFFFFFFFFFFFFFFFFFF AND SWAP1 DUP1 PUSH1 0x4 ADD SLOAD SWAP1 DUP1 PUSH1 0x5 ADD SLOAD SWAP1 DUP1 PUSH1 0x6 ADD SLOAD SWAP1 DUP1 PUSH1 0x7 ADD SLOAD SWAP1 DUP1 PUSH1 0x8 ADD SLOAD SWAP1 DUP1 PUSH1 0x9 ADD PUSH1 0x0 SWAP1 SLOAD SWAP1 PUSH2 0x100 EXP SWAP1 DIV PUSH1 0xFF AND SWAP1 DUP1 PUSH1 0xA ADD SLOAD SWAP1 POP DUP12 JUMP JUMPDEST PUSH2 0x3816 PUSH2 0x3DFB JUMP JUMPDEST PUSH1 0x0 PUSH20 0xFFFFFFFFFFFFFFFFFFFFFFFFFFFFFFFFFFFFFFFF AND DUP2 PUSH20 0xFFFFFFFFFFFFFFFFFFFFFFFFFFFFFFFFFFFFFFFF AND EQ ISZERO PUSH2 0x3886 JUMPI PUSH1 0x40 MLOAD PUSH32 0x8C379A000000000000000000000000000000000000000000000000000000000 DUP2 MSTORE PUSH1 0x4 ADD PUSH2 0x387D SWAP1 PUSH2 0x5DF0 JUMP JUMPDEST PUSH1 0x40 MLOAD DUP1 SWAP2 SUB SWAP1 REVERT JUMPDEST PUSH2 0x388F DUP2 PUSH2 0x3E79 JUMP JUMPDEST POP JUMP JUMPDEST PUSH2 0x389A PUSH2 0x3DFB JUMP JUMPDEST PUSH1 0x0 PUSH20 0xFFFFFFFFFFFFFFFFFFFFFFFFFFFFFFFFFFFFFFFF AND DUP3 PUSH20 0xFFFFFFFFFFFFFFFFFFFFFFFFFFFFFFFFFFFFFFFF AND EQ ISZERO PUSH2 0x390A JUMPI PUSH1 0x40 MLOAD PUSH32 0x8C379A000000000000000000000000000000000000000000000000000000000 DUP2 MSTORE PUSH1 0x4 ADD PUSH2 0x3901 SWAP1 PUSH2 0x5142 JUMP JUMPDEST PUSH1 0x40 MLOAD DUP1 SWAP2 SUB SWAP1 REVERT JUMPDEST PUSH1 0x0 DUP2 GT PUSH2 0x394D JUMPI PUSH1 0x40 MLOAD PUSH32 0x8C379A000000000000000000000000000000000000000000000000000000000 DUP2 MSTORE PUSH1 0x4 ADD PUSH2 0x3944 SWAP1 PUSH2 0x54DD JUMP JUMPDEST PUSH1 0x40 MLOAD DUP1 SWAP2 SUB SWAP1 REVERT JUMPDEST DUP2 PUSH20 0xFFFFFFFFFFFFFFFFFFFFFFFFFFFFFFFFFFFFFFFF AND PUSH4 0xA9059CBB CALLER DUP4 PUSH1 0x40 MLOAD DUP4 PUSH4 0xFFFFFFFF AND PUSH1 0xE0 SHL DUP2 MSTORE PUSH1 0x4 ADD PUSH2 0x3988 SWAP3 SWAP2 SWAP1 PUSH2 0x54FD JUMP JUMPDEST PUSH1 0x20 PUSH1 0x40 MLOAD DUP1 DUP4 SUB DUP2 PUSH1 0x0 DUP8 DUP1 EXTCODESIZE ISZERO DUP1 ISZERO PUSH2 0x39A2 JUMPI PUSH1 0x0 DUP1 REVERT JUMPDEST POP GAS CALL ISZERO DUP1 ISZERO PUSH2 0x39B6 JUMPI RETURNDATASIZE PUSH1 0x0 DUP1 RETURNDATACOPY RETURNDATASIZE PUSH1 0x0 REVERT JUMPDEST POP POP POP POP PUSH1 0x40 MLOAD RETURNDATASIZE PUSH1 0x1F NOT PUSH1 0x1F DUP3 ADD AND DUP3 ADD DUP1 PUSH1 0x40 MSTORE POP DUP2 ADD SWAP1 PUSH2 0x39DA SWAP2 SWAP1 PUSH2 0x505E JUMP JUMPDEST POP PUSH32 0x68577E4D693C1B056A60BC4E39438810239A0BFE64869C4EB7E3BAEBB5F65634 DUP3 DUP3 PUSH1 0x40 MLOAD PUSH2 0x3A0C SWAP3 SWAP2 SWAP1 PUSH2 0x54FD JUMP JUMPDEST PUSH1 0x40 MLOAD DUP1 SWAP2 SUB SWAP1 LOG1 POP POP JUMP JUMPDEST PUSH1 0x0 PUSH1 0x3 PUSH1 0x0 DUP6 PUSH20 0xFFFFFFFFFFFFFFFFFFFFFFFFFFFFFFFFFFFFFFFF AND PUSH20 0xFFFFFFFFFFFFFFFFFFFFFFFFFFFFFFFFFFFFFFFF AND DUP2 MSTORE PUSH1 0x20 ADD SWAP1 DUP2 MSTORE PUSH1 0x20 ADD PUSH1 0x0 KECCAK256 PUSH1 0x0 DUP5 DUP2 MSTORE PUSH1 0x20 ADD SWAP1 DUP2 MSTORE PUSH1 0x20 ADD PUSH1 0x0 KECCAK256 SLOAD EQ ISZERO PUSH2 0x3AAC JUMPI PUSH1 0x40 MLOAD PUSH32 0x8C379A000000000000000000000000000000000000000000000000000000000 DUP2 MSTORE PUSH1 0x4 ADD PUSH2 0x3AA3 SWAP1 PUSH2 0x4D26 JUMP JUMPDEST PUSH1 0x40 MLOAD DUP1 SWAP2 SUB SWAP1 REVERT JUMPDEST PUSH1 0x2 SLOAD DUP2 EQ PUSH2 0x3AF0 JUMPI PUSH1 0x40 MLOAD PUSH32 0x8C379A000000000000000000000000000000000000000000000000000000000 DUP2 MSTORE PUSH1 0x4 ADD PUSH2 0x3AE7 SWAP1 PUSH2 0x5E5C JUMP JUMPDEST PUSH1 0x40 MLOAD DUP1 SWAP2 SUB SWAP1 REVERT JUMPDEST PUSH1 0x0 PUSH1 0x3 PUSH1 0x0 DUP6 PUSH20 0xFFFFFFFFFFFFFFFFFFFFFFFFFFFFFFFFFFFFFFFF AND PUSH20 0xFFFFFFFFFFFFFFFFFFFFFFFFFFFFFFFFFFFFFFFF AND DUP2 MSTORE PUSH1 0x20 ADD SWAP1 DUP2 MSTORE PUSH1 0x20 ADD PUSH1 0x0 KECCAK256 PUSH1 0x0 DUP5 DUP2 MSTORE PUSH1 0x20 ADD SWAP1 DUP2 MSTORE PUSH1 0x20 ADD PUSH1 0x0 KECCAK256 SLOAD SWAP1 POP PUSH1 0x0 PUSH1 0x4 PUSH1 0x0 DUP4 DUP2 MSTORE PUSH1 0x20 ADD SWAP1 DUP2 MSTORE PUSH1 0x20 ADD PUSH1 0x0 KECCAK256 SWAP1 POP PUSH1 0x2 PUSH1 0x7 DUP2 GT ISZERO PUSH2 0x3B70 JUMPI PUSH2 0x3B6F PUSH2 0x45EE JUMP JUMPDEST JUMPDEST DUP2 PUSH1 0x9 ADD PUSH1 0x0 SWAP1 SLOAD SWAP1 PUSH2 0x100 EXP SWAP1 DIV PUSH1 0xFF AND PUSH1 0x7 DUP2 GT ISZERO PUSH2 0x3B94 JUMPI PUSH2 0x3B93 PUSH2 0x45EE JUMP JUMPDEST JUMPDEST EQ PUSH2 0x3BD4 JUMPI PUSH1 0x40 MLOAD PUSH32 0x8C379A000000000000000000000000000000000000000000000000000000000 DUP2 MSTORE PUSH1 0x4 ADD PUSH2 0x3BCB SWAP1 PUSH2 0x4E90 JUMP JUMPDEST PUSH1 0x40 MLOAD DUP1 SWAP2 SUB SWAP1 REVERT JUMPDEST PUSH1 0x0 PUSH2 0x3C68 DUP3 PUSH1 0x4 ADD SLOAD PUSH1 0x5 PUSH1 0x0 DUP6 PUSH1 0x3 ADD PUSH1 0x0 SWAP1 SLOAD SWAP1 PUSH2 0x100 EXP SWAP1 DIV PUSH20 0xFFFFFFFFFFFFFFFFFFFFFFFFFFFFFFFFFFFFFFFF AND PUSH20 0xFFFFFFFFFFFFFFFFFFFFFFFFFFFFFFFFFFFFFFFF AND PUSH20 0xFFFFFFFFFFFFFFFFFFFFFFFFFFFFFFFFFFFFFFFF AND DUP2 MSTORE PUSH1 0x20 ADD SWAP1 DUP2 MSTORE PUSH1 0x20 ADD PUSH1 0x0 KECCAK256 PUSH1 0x6 ADD PUSH1 0x40 MLOAD DUP1 PUSH1 0x40 ADD PUSH1 0x40 MSTORE SWAP1 DUP2 PUSH1 0x0 DUP3 ADD SLOAD DUP2 MSTORE PUSH1 0x20 ADD PUSH1 0x1 DUP3 ADD SLOAD DUP2 MSTORE POP POP PUSH2 0x3D9B JUMP JUMPDEST SWAP1 POP DUP2 PUSH1 0x3 ADD PUSH1 0x0 SWAP1 SLOAD SWAP1 PUSH2 0x100 EXP SWAP1 DIV PUSH20 0xFFFFFFFFFFFFFFFFFFFFFFFFFFFFFFFFFFFFFFFF AND PUSH20 0xFFFFFFFFFFFFFFFFFFFFFFFFFFFFFFFFFFFFFFFF AND PUSH4 0x23B872DD CALLER ADDRESS DUP5 PUSH1 0x40 MLOAD DUP5 PUSH4 0xFFFFFFFF AND PUSH1 0xE0 SHL DUP2 MSTORE PUSH1 0x4 ADD PUSH2 0x3CCB SWAP4 SWAP3 SWAP2 SWAP1 PUSH2 0x4FFB JUMP JUMPDEST PUSH1 0x20 PUSH1 0x40 MLOAD DUP1 DUP4 SUB DUP2 PUSH1 0x0 DUP8 DUP1 EXTCODESIZE ISZERO DUP1 ISZERO PUSH2 0x3CE5 JUMPI PUSH1 0x0 DUP1 REVERT JUMPDEST POP GAS CALL ISZERO DUP1 ISZERO PUSH2 0x3CF9 JUMPI RETURNDATASIZE PUSH1 0x0 DUP1 RETURNDATACOPY RETURNDATASIZE PUSH1 0x0 REVERT JUMPDEST POP POP POP POP PUSH1 0x40 MLOAD RETURNDATASIZE PUSH1 0x1F NOT PUSH1 0x1F DUP3 ADD AND DUP3 ADD DUP1 PUSH1 0x40 MSTORE POP DUP2 ADD SWAP1 PUSH2 0x3D1D SWAP2 SWAP1 PUSH2 0x505E JUMP JUMPDEST POP PUSH1 0x0 TIMESTAMP SWAP1 POP PUSH1 0x0 DUP4 PUSH1 0x8 ADD SLOAD SWAP1 POP PUSH3 0x15180 DUP7 PUSH2 0x3D3B SWAP2 SWAP1 PUSH2 0x56AC JUMP JUMPDEST DUP2 PUSH2 0x3D46 SWAP2 SWAP1 PUSH2 0x4FA5 JUMP JUMPDEST DUP5 PUSH1 0x8 ADD DUP2 SWAP1 SSTORE POP PUSH32 0xBEEDAE6C6C669CBDD40F471F452F6941BE0F408DEAC94349F1F9A06BF8EAE7C3 DUP6 DUP4 DUP9 DUP7 DUP9 PUSH1 0x8 ADD SLOAD PUSH1 0x40 MLOAD PUSH2 0x3D89 SWAP6 SWAP5 SWAP4 SWAP3 SWAP2 SWAP1 PUSH2 0x5E7C JUMP JUMPDEST PUSH1 0x40 MLOAD DUP1 SWAP2 SUB SWAP1 LOG1 POP POP POP POP POP POP POP POP JUMP JUMPDEST PUSH1 0x0 DUP1 DUP4 EQ ISZERO PUSH2 0x3DAE JUMPI PUSH1 0x0 SWAP1 POP PUSH2 0x3DF5 JUMP JUMPDEST PUSH1 0x0 DUP3 PUSH1 0x0 ADD MLOAD DUP5 PUSH2 0x3DC0 SWAP2 SWAP1 PUSH2 0x56AC JUMP JUMPDEST SWAP1 POP DUP3 PUSH1 0x0 ADD MLOAD DUP5 DUP3 PUSH2 0x3DD3 SWAP2 SWAP1 PUSH2 0x5EFE JUMP JUMPDEST EQ PUSH2 0x3DE1 JUMPI PUSH2 0x3DE0 PUSH2 0x5F2F JUMP JUMPDEST JUMPDEST DUP3 PUSH1 0x20 ADD MLOAD DUP2 PUSH2 0x3DF1 SWAP2 SWAP1 PUSH2 0x5EFE JUMP JUMPDEST SWAP2 POP POP JUMPDEST SWAP3 SWAP2 POP POP JUMP JUMPDEST PUSH2 0x3E03 PUSH2 0x3F80 JUMP JUMPDEST PUSH20 0xFFFFFFFFFFFFFFFFFFFFFFFFFFFFFFFFFFFFFFFF AND PUSH2 0x3E21 PUSH2 0x207A JUMP JUMPDEST PUSH20 0xFFFFFFFFFFFFFFFFFFFFFFFFFFFFFFFFFFFFFFFF AND EQ PUSH2 0x3E77 JUMPI PUSH1 0x40 MLOAD PUSH32 0x8C379A000000000000000000000000000000000000000000000000000000000 DUP2 MSTORE PUSH1 0x4 ADD PUSH2 0x3E6E SWAP1 PUSH2 0x5FAA JUMP JUMPDEST PUSH1 0x40 MLOAD DUP1 SWAP2 SUB SWAP1 REVERT JUMPDEST JUMP JUMPDEST PUSH1 0x0 DUP1 PUSH1 0x0 SWAP1 SLOAD SWAP1 PUSH2 0x100 EXP SWAP1 DIV PUSH20 0xFFFFFFFFFFFFFFFFFFFFFFFFFFFFFFFFFFFFFFFF AND SWAP1 POP DUP2 PUSH1 0x0 DUP1 PUSH2 0x100 EXP DUP2 SLOAD DUP2 PUSH20 0xFFFFFFFFFFFFFFFFFFFFFFFFFFFFFFFFFFFFFFFF MUL NOT AND SWAP1 DUP4 PUSH20 0xFFFFFFFFFFFFFFFFFFFFFFFFFFFFFFFFFFFFFFFF AND MUL OR SWAP1 SSTORE POP DUP2 PUSH20 0xFFFFFFFFFFFFFFFFFFFFFFFFFFFFFFFFFFFFFFFF AND DUP2 PUSH20 0xFFFFFFFFFFFFFFFFFFFFFFFFFFFFFFFFFFFFFFFF AND PUSH32 0x8BE0079C531659141344CD1FD0A4F28419497F9722A3DAAFE3B4186F6B6457E0 PUSH1 0x40 MLOAD PUSH1 0x40 MLOAD DUP1 SWAP2 SUB SWAP1 LOG3 POP POP JUMP JUMPDEST PUSH1 0x0 PUSH2 0x3F49 DUP4 DUP4 PUSH2 0x3D9B JUMP JUMPDEST DUP4 PUSH2 0x3F54 SWAP2 SWAP1 PUSH2 0x4FA5 JUMP JUMPDEST SWAP1 POP SWAP3 SWAP2 POP POP JUMP JUMPDEST PUSH1 0x1 DUP2 PUSH1 0x0 ADD PUSH1 0x0 DUP3 DUP3 SLOAD ADD SWAP3 POP POP DUP2 SWAP1 SSTORE POP POP JUMP JUMPDEST PUSH1 0x0 DUP2 PUSH1 0x0 ADD SLOAD SWAP1 POP SWAP2 SWAP1 POP JUMP JUMPDEST PUSH1 0x0 CALLER SWAP1 POP SWAP1 JUMP JUMPDEST PUSH1 0x40 MLOAD DUP1 PUSH2 0x100 ADD PUSH1 0x40 MSTORE DUP1 PUSH1 0x0 PUSH20 0xFFFFFFFFFFFFFFFFFFFFFFFFFFFFFFFFFFFFFFFF AND DUP2 MSTORE PUSH1 0x20 ADD PUSH1 0x0 PUSH20 0xFFFFFFFFFFFFFFFFFFFFFFFFFFFFFFFFFFFFFFFF AND DUP2 MSTORE PUSH1 0x20 ADD PUSH1 0x60 DUP2 MSTORE PUSH1 0x20 ADD PUSH1 0x0 PUSH1 0xFF AND DUP2 MSTORE PUSH1 0x20 ADD PUSH2 0x3FE7 PUSH2 0x4144 JUMP JUMPDEST DUP2 MSTORE PUSH1 0x20 ADD PUSH2 0x3FF4 PUSH2 0x4144 JUMP JUMPDEST DUP2 MSTORE PUSH1 0x20 ADD PUSH2 0x4001 PUSH2 0x4144 JUMP JUMPDEST DUP2 MSTORE PUSH1 0x20 ADD PUSH1 0x0 ISZERO ISZERO DUP2 MSTORE POP SWAP1 JUMP JUMPDEST PUSH1 0x40 MLOAD DUP1 PUSH2 0x160 ADD PUSH1 0x40 MSTORE DUP1 PUSH1 0x0 PUSH20 0xFFFFFFFFFFFFFFFFFFFFFFFFFFFFFFFFFFFFFFFF AND DUP2 MSTORE PUSH1 0x20 ADD PUSH1 0x0 PUSH20 0xFFFFFFFFFFFFFFFFFFFFFFFFFFFFFFFFFFFFFFFF AND DUP2 MSTORE PUSH1 0x20 ADD PUSH1 0x0 DUP2 MSTORE PUSH1 0x20 ADD PUSH1 0x0 PUSH20 0xFFFFFFFFFFFFFFFFFFFFFFFFFFFFFFFFFFFFFFFF AND DUP2 MSTORE PUSH1 0x20 ADD PUSH1 0x0 DUP2 MSTORE PUSH1 0x20 ADD PUSH1 0x0 DUP2 MSTORE PUSH1 0x20 ADD PUSH1 0x0 DUP2 MSTORE PUSH1 0x20 ADD PUSH1 0x0 DUP2 MSTORE PUSH1 0x20 ADD PUSH1 0x0 DUP2 MSTORE PUSH1 0x20 ADD PUSH1 0x0 PUSH1 0x7 DUP2 GT ISZERO PUSH2 0x40B1 JUMPI PUSH2 0x40B0 PUSH2 0x45EE JUMP JUMPDEST JUMPDEST DUP2 MSTORE PUSH1 0x20 ADD PUSH1 0x0 DUP2 MSTORE POP SWAP1 JUMP JUMPDEST DUP3 DUP1 SLOAD PUSH2 0x40CA SWAP1 PUSH2 0x4CA8 JUMP JUMPDEST SWAP1 PUSH1 0x0 MSTORE PUSH1 0x20 PUSH1 0x0 KECCAK256 SWAP1 PUSH1 0x1F ADD PUSH1 0x20 SWAP1 DIV DUP2 ADD SWAP3 DUP3 PUSH2 0x40EC JUMPI PUSH1 0x0 DUP6 SSTORE PUSH2 0x4133 JUMP JUMPDEST DUP3 PUSH1 0x1F LT PUSH2 0x4105 JUMPI DUP1 MLOAD PUSH1 0xFF NOT AND DUP4 DUP1 ADD OR DUP6 SSTORE PUSH2 0x4133 JUMP JUMPDEST DUP3 DUP1 ADD PUSH1 0x1 ADD DUP6 SSTORE DUP3 ISZERO PUSH2 0x4133 JUMPI SWAP2 DUP3 ADD JUMPDEST DUP3 DUP2 GT ISZERO PUSH2 0x4132 JUMPI DUP3 MLOAD DUP3 SSTORE SWAP2 PUSH1 0x20 ADD SWAP2 SWAP1 PUSH1 0x1 ADD SWAP1 PUSH2 0x4117 JUMP JUMPDEST JUMPDEST POP SWAP1 POP PUSH2 0x4140 SWAP2 SWAP1 PUSH2 0x415E JUMP JUMPDEST POP SWAP1 JUMP JUMPDEST PUSH1 0x40 MLOAD DUP1 PUSH1 0x40 ADD PUSH1 0x40 MSTORE DUP1 PUSH1 0x0 DUP2 MSTORE PUSH1 0x20 ADD PUSH1 0x0 DUP2 MSTORE POP SWAP1 JUMP JUMPDEST JUMPDEST DUP1 DUP3 GT ISZERO PUSH2 0x4177 JUMPI PUSH1 0x0 DUP2 PUSH1 0x0 SWAP1 SSTORE POP PUSH1 0x1 ADD PUSH2 0x415F JUMP JUMPDEST POP SWAP1 JUMP JUMPDEST PUSH1 0x0 PUSH1 0x40 MLOAD SWAP1 POP SWAP1 JUMP JUMPDEST PUSH1 0x0 DUP1 REVERT JUMPDEST PUSH1 0x0 DUP1 REVERT JUMPDEST PUSH1 0x0 PUSH20 0xFFFFFFFFFFFFFFFFFFFFFFFFFFFFFFFFFFFFFFFF DUP3 AND SWAP1 POP SWAP2 SWAP1 POP JUMP JUMPDEST PUSH1 0x0 PUSH2 0x41BA DUP3 PUSH2 0x418F JUMP JUMPDEST SWAP1 POP SWAP2 SWAP1 POP JUMP JUMPDEST PUSH2 0x41CA DUP2 PUSH2 0x41AF JUMP JUMPDEST DUP2 EQ PUSH2 0x41D5 JUMPI PUSH1 0x0 DUP1 REVERT JUMPDEST POP JUMP JUMPDEST PUSH1 0x0 DUP2 CALLDATALOAD SWAP1 POP PUSH2 0x41E7 DUP2 PUSH2 0x41C1 JUMP JUMPDEST SWAP3 SWAP2 POP POP JUMP JUMPDEST PUSH1 0x0 PUSH1 0x20 DUP3 DUP5 SUB SLT ISZERO PUSH2 0x4203 JUMPI PUSH2 0x4202 PUSH2 0x4185 JUMP JUMPDEST JUMPDEST PUSH1 0x0 PUSH2 0x4211 DUP5 DUP3 DUP6 ADD PUSH2 0x41D8 JUMP JUMPDEST SWAP2 POP POP SWAP3 SWAP2 POP POP JUMP JUMPDEST PUSH2 0x4223 DUP2 PUSH2 0x41AF JUMP JUMPDEST DUP3 MSTORE POP POP JUMP JUMPDEST PUSH1 0x0 DUP2 MLOAD SWAP1 POP SWAP2 SWAP1 POP JUMP JUMPDEST PUSH1 0x0 DUP3 DUP3 MSTORE PUSH1 0x20 DUP3 ADD SWAP1 POP SWAP3 SWAP2 POP POP JUMP JUMPDEST PUSH1 0x0 JUMPDEST DUP4 DUP2 LT ISZERO PUSH2 0x4263 JUMPI DUP1 DUP3 ADD MLOAD DUP2 DUP5 ADD MSTORE PUSH1 0x20 DUP2 ADD SWAP1 POP PUSH2 0x4248 JUMP JUMPDEST DUP4 DUP2 GT ISZERO PUSH2 0x4272 JUMPI PUSH1 0x0 DUP5 DUP5 ADD MSTORE JUMPDEST POP POP POP POP JUMP JUMPDEST PUSH1 0x0 PUSH1 0x1F NOT PUSH1 0x1F DUP4 ADD AND SWAP1 POP SWAP2 SWAP1 POP JUMP JUMPDEST PUSH1 0x0 PUSH2 0x4294 DUP3 PUSH2 0x4229 JUMP JUMPDEST PUSH2 0x429E DUP2 DUP6 PUSH2 0x4234 JUMP JUMPDEST SWAP4 POP PUSH2 0x42AE DUP2 DUP6 PUSH1 0x20 DUP7 ADD PUSH2 0x4245 JUMP JUMPDEST PUSH2 0x42B7 DUP2 PUSH2 0x4278 JUMP JUMPDEST DUP5 ADD SWAP2 POP POP SWAP3 SWAP2 POP POP JUMP JUMPDEST PUSH1 0x0 PUSH1 0xFF DUP3 AND SWAP1 POP SWAP2 SWAP1 POP JUMP JUMPDEST PUSH2 0x42D8 DUP2 PUSH2 0x42C2 JUMP JUMPDEST DUP3 MSTORE POP POP JUMP JUMPDEST PUSH1 0x0 DUP2 SWAP1 POP SWAP2 SWAP1 POP JUMP JUMPDEST PUSH2 0x42F1 DUP2 PUSH2 0x42DE JUMP JUMPDEST DUP3 MSTORE POP POP JUMP JUMPDEST PUSH1 0x40 DUP3 ADD PUSH1 0x0 DUP3 ADD MLOAD PUSH2 0x430D PUSH1 0x0 DUP6 ADD DUP3 PUSH2 0x42E8 JUMP JUMPDEST POP PUSH1 0x20 DUP3 ADD MLOAD PUSH2 0x4320 PUSH1 0x20 DUP6 ADD DUP3 PUSH2 0x42E8 JUMP JUMPDEST POP POP POP POP JUMP JUMPDEST PUSH1 0x0 DUP2 ISZERO ISZERO SWAP1 POP SWAP2 SWAP1 POP JUMP JUMPDEST PUSH2 0x433B DUP2 PUSH2 0x4326 JUMP JUMPDEST DUP3 MSTORE POP POP JUMP JUMPDEST PUSH1 0x0 PUSH2 0x160 DUP4 ADD PUSH1 0x0 DUP4 ADD MLOAD PUSH2 0x435A PUSH1 0x0 DUP7 ADD DUP3 PUSH2 0x421A JUMP JUMPDEST POP PUSH1 0x20 DUP4 ADD MLOAD PUSH2 0x436D PUSH1 0x20 DUP7 ADD DUP3 PUSH2 0x421A JUMP JUMPDEST POP PUSH1 0x40 DUP4 ADD MLOAD DUP5 DUP3 SUB PUSH1 0x40 DUP7 ADD MSTORE PUSH2 0x4385 DUP3 DUP3 PUSH2 0x4289 JUMP JUMPDEST SWAP2 POP POP PUSH1 0x60 DUP4 ADD MLOAD PUSH2 0x439A PUSH1 0x60 DUP7 ADD DUP3 PUSH2 0x42CF JUMP JUMPDEST POP PUSH1 0x80 DUP4 ADD MLOAD PUSH2 0x43AD PUSH1 0x80 DUP7 ADD DUP3 PUSH2 0x42F7 JUMP JUMPDEST POP PUSH1 0xA0 DUP4 ADD MLOAD PUSH2 0x43C0 PUSH1 0xC0 DUP7 ADD DUP3 PUSH2 0x42F7 JUMP JUMPDEST POP PUSH1 0xC0 DUP4 ADD MLOAD PUSH2 0x43D4 PUSH2 0x100 DUP7 ADD DUP3 PUSH2 0x42F7 JUMP JUMPDEST POP PUSH1 0xE0 DUP4 ADD MLOAD PUSH2 0x43E8 PUSH2 0x140 DUP7 ADD DUP3 PUSH2 0x4332 JUMP JUMPDEST POP DUP1 SWAP2 POP POP SWAP3 SWAP2 POP POP JUMP JUMPDEST PUSH1 0x0 PUSH1 0x20 DUP3 ADD SWAP1 POP DUP2 DUP2 SUB PUSH1 0x0 DUP4 ADD MSTORE PUSH2 0x440D DUP2 DUP5 PUSH2 0x4341 JUMP JUMPDEST SWAP1 POP SWAP3 SWAP2 POP POP JUMP JUMPDEST PUSH2 0x441E DUP2 PUSH2 0x42DE JUMP JUMPDEST DUP2 EQ PUSH2 0x4429 JUMPI PUSH1 0x0 DUP1 REVERT JUMPDEST POP JUMP JUMPDEST PUSH1 0x0 DUP2 CALLDATALOAD SWAP1 POP PUSH2 0x443B DUP2 PUSH2 0x4415 JUMP JUMPDEST SWAP3 SWAP2 POP POP JUMP JUMPDEST PUSH1 0x0 DUP1 PUSH1 0x40 DUP4 DUP6 SUB SLT ISZERO PUSH2 0x4458 JUMPI PUSH2 0x4457 PUSH2 0x4185 JUMP JUMPDEST JUMPDEST PUSH1 0x0 PUSH2 0x4466 DUP6 DUP3 DUP7 ADD PUSH2 0x41D8 JUMP JUMPDEST SWAP3 POP POP PUSH1 0x20 PUSH2 0x4477 DUP6 DUP3 DUP7 ADD PUSH2 0x442C JUMP JUMPDEST SWAP2 POP POP SWAP3 POP SWAP3 SWAP1 POP JUMP JUMPDEST PUSH2 0x448A DUP2 PUSH2 0x42DE JUMP JUMPDEST DUP3 MSTORE POP POP JUMP JUMPDEST PUSH1 0x0 PUSH1 0x20 DUP3 ADD SWAP1 POP PUSH2 0x44A5 PUSH1 0x0 DUP4 ADD DUP5 PUSH2 0x4481 JUMP JUMPDEST SWAP3 SWAP2 POP POP JUMP JUMPDEST PUSH1 0x0 DUP1 REVERT JUMPDEST PUSH1 0x0 DUP1 REVERT JUMPDEST PUSH1 0x0 DUP1 REVERT JUMPDEST PUSH1 0x0 DUP1 DUP4 PUSH1 0x1F DUP5 ADD SLT PUSH2 0x44D0 JUMPI PUSH2 0x44CF PUSH2 0x44AB JUMP JUMPDEST JUMPDEST DUP3 CALLDATALOAD SWAP1 POP PUSH8 0xFFFFFFFFFFFFFFFF DUP2 GT ISZERO PUSH2 0x44ED JUMPI PUSH2 0x44EC PUSH2 0x44B0 JUMP JUMPDEST JUMPDEST PUSH1 0x20 DUP4 ADD SWAP2 POP DUP4 PUSH1 0x1 DUP3 MUL DUP4 ADD GT ISZERO PUSH2 0x4509 JUMPI PUSH2 0x4508 PUSH2 0x44B5 JUMP JUMPDEST JUMPDEST SWAP3 POP SWAP3 SWAP1 POP JUMP JUMPDEST PUSH1 0x0 DUP1 PUSH1 0x0 DUP1 PUSH1 0x0 PUSH1 0x80 DUP7 DUP9 SUB SLT ISZERO PUSH2 0x452C JUMPI PUSH2 0x452B PUSH2 0x4185 JUMP JUMPDEST JUMPDEST PUSH1 0x0 PUSH2 0x453A DUP9 DUP3 DUP10 ADD PUSH2 0x41D8 JUMP JUMPDEST SWAP6 POP POP PUSH1 0x20 PUSH2 0x454B DUP9 DUP3 DUP10 ADD PUSH2 0x41D8 JUMP JUMPDEST SWAP5 POP POP PUSH1 0x40 PUSH2 0x455C DUP9 DUP3 DUP10 ADD PUSH2 0x442C JUMP JUMPDEST SWAP4 POP POP PUSH1 0x60 DUP7 ADD CALLDATALOAD PUSH8 0xFFFFFFFFFFFFFFFF DUP2 GT ISZERO PUSH2 0x457D JUMPI PUSH2 0x457C PUSH2 0x418A JUMP JUMPDEST JUMPDEST PUSH2 0x4589 DUP9 DUP3 DUP10 ADD PUSH2 0x44BA JUMP JUMPDEST SWAP3 POP SWAP3 POP POP SWAP3 SWAP6 POP SWAP3 SWAP6 SWAP1 SWAP4 POP JUMP JUMPDEST PUSH1 0x0 PUSH32 0xFFFFFFFF00000000000000000000000000000000000000000000000000000000 DUP3 AND SWAP1 POP SWAP2 SWAP1 POP JUMP JUMPDEST PUSH2 0x45CD DUP2 PUSH2 0x4598 JUMP JUMPDEST DUP3 MSTORE POP POP JUMP JUMPDEST PUSH1 0x0 PUSH1 0x20 DUP3 ADD SWAP1 POP PUSH2 0x45E8 PUSH1 0x0 DUP4 ADD DUP5 PUSH2 0x45C4 JUMP JUMPDEST SWAP3 SWAP2 POP POP JUMP JUMPDEST PUSH32 0x4E487B7100000000000000000000000000000000000000000000000000000000 PUSH1 0x0 MSTORE PUSH1 0x21 PUSH1 0x4 MSTORE PUSH1 0x24 PUSH1 0x0 REVERT JUMPDEST PUSH1 0x8 DUP2 LT PUSH2 0x462E JUMPI PUSH2 0x462D PUSH2 0x45EE JUMP JUMPDEST JUMPDEST POP JUMP JUMPDEST PUSH1 0x0 DUP2 SWAP1 POP PUSH2 0x463F DUP3 PUSH2 0x461D JUMP JUMPDEST SWAP2 SWAP1 POP JUMP JUMPDEST PUSH1 0x0 PUSH2 0x464F DUP3 PUSH2 0x4631 JUMP JUMPDEST SWAP1 POP SWAP2 SWAP1 POP JUMP JUMPDEST PUSH2 0x465F DUP2 PUSH2 0x4644 JUMP JUMPDEST DUP3 MSTORE POP POP JUMP JUMPDEST PUSH2 0x160 DUP3 ADD PUSH1 0x0 DUP3 ADD MLOAD PUSH2 0x467C PUSH1 0x0 DUP6 ADD DUP3 PUSH2 0x421A JUMP JUMPDEST POP PUSH1 0x20 DUP3 ADD MLOAD PUSH2 0x468F PUSH1 0x20 DUP6 ADD DUP3 PUSH2 0x421A JUMP JUMPDEST POP PUSH1 0x40 DUP3 ADD MLOAD PUSH2 0x46A2 PUSH1 0x40 DUP6 ADD DUP3 PUSH2 0x42E8 JUMP JUMPDEST POP PUSH1 0x60 DUP3 ADD MLOAD PUSH2 0x46B5 PUSH1 0x60 DUP6 ADD DUP3 PUSH2 0x421A JUMP JUMPDEST POP PUSH1 0x80 DUP3 ADD MLOAD PUSH2 0x46C8 PUSH1 0x80 DUP6 ADD DUP3 PUSH2 0x42E8 JUMP JUMPDEST POP PUSH1 0xA0 DUP3 ADD MLOAD PUSH2 0x46DB PUSH1 0xA0 DUP6 ADD DUP3 PUSH2 0x42E8 JUMP JUMPDEST POP PUSH1 0xC0 DUP3 ADD MLOAD PUSH2 0x46EE PUSH1 0xC0 DUP6 ADD DUP3 PUSH2 0x42E8 JUMP JUMPDEST POP PUSH1 0xE0 DUP3 ADD MLOAD PUSH2 0x4701 PUSH1 0xE0 DUP6 ADD DUP3 PUSH2 0x42E8 JUMP JUMPDEST POP PUSH2 0x100 DUP3 ADD MLOAD PUSH2 0x4716 PUSH2 0x100 DUP6 ADD DUP3 PUSH2 0x42E8 JUMP JUMPDEST POP PUSH2 0x120 DUP3 ADD MLOAD PUSH2 0x472B PUSH2 0x120 DUP6 ADD DUP3 PUSH2 0x4656 JUMP JUMPDEST POP PUSH2 0x140 DUP3 ADD MLOAD PUSH2 0x4740 PUSH2 0x140 DUP6 ADD DUP3 PUSH2 0x42E8 JUMP JUMPDEST POP POP POP POP JUMP JUMPDEST PUSH1 0x0 PUSH2 0x160 DUP3 ADD SWAP1 POP PUSH2 0x475C PUSH1 0x0 DUP4 ADD DUP5 PUSH2 0x4665 JUMP JUMPDEST SWAP3 SWAP2 POP POP JUMP JUMPDEST PUSH2 0x476B DUP2 PUSH2 0x41AF JUMP JUMPDEST DUP3 MSTORE POP POP JUMP JUMPDEST PUSH1 0x0 DUP3 DUP3 MSTORE PUSH1 0x20 DUP3 ADD SWAP1 POP SWAP3 SWAP2 POP POP JUMP JUMPDEST PUSH1 0x0 PUSH2 0x478D DUP3 PUSH2 0x4229 JUMP JUMPDEST PUSH2 0x4797 DUP2 DUP6 PUSH2 0x4771 JUMP JUMPDEST SWAP4 POP PUSH2 0x47A7 DUP2 DUP6 PUSH1 0x20 DUP7 ADD PUSH2 0x4245 JUMP JUMPDEST PUSH2 0x47B0 DUP2 PUSH2 0x4278 JUMP JUMPDEST DUP5 ADD SWAP2 POP POP SWAP3 SWAP2 POP POP JUMP JUMPDEST PUSH2 0x47C4 DUP2 PUSH2 0x42C2 JUMP JUMPDEST DUP3 MSTORE POP POP JUMP JUMPDEST PUSH1 0x40 DUP3 ADD PUSH1 0x0 DUP3 ADD MLOAD PUSH2 0x47E0 PUSH1 0x0 DUP6 ADD DUP3 PUSH2 0x42E8 JUMP JUMPDEST POP PUSH1 0x20 DUP3 ADD MLOAD PUSH2 0x47F3 PUSH1 0x20 DUP6 ADD DUP3 PUSH2 0x42E8 JUMP JUMPDEST POP POP POP POP JUMP JUMPDEST PUSH2 0x4802 DUP2 PUSH2 0x4326 JUMP JUMPDEST DUP3 MSTORE POP POP JUMP JUMPDEST PUSH1 0x0 PUSH2 0x160 DUP3 ADD SWAP1 POP PUSH2 0x481E PUSH1 0x0 DUP4 ADD DUP12 PUSH2 0x4762 JUMP JUMPDEST PUSH2 0x482B PUSH1 0x20 DUP4 ADD DUP11 PUSH2 0x4762 JUMP JUMPDEST DUP2 DUP2 SUB PUSH1 0x40 DUP4 ADD MSTORE PUSH2 0x483D DUP2 DUP10 PUSH2 0x4782 JUMP JUMPDEST SWAP1 POP PUSH2 0x484C PUSH1 0x60 DUP4 ADD DUP9 PUSH2 0x47BB JUMP JUMPDEST PUSH2 0x4859 PUSH1 0x80 DUP4 ADD DUP8 PUSH2 0x47CA JUMP JUMPDEST PUSH2 0x4866 PUSH1 0xC0 DUP4 ADD DUP7 PUSH2 0x47CA JUMP JUMPDEST PUSH2 0x4874 PUSH2 0x100 DUP4 ADD DUP6 PUSH2 0x47CA JUMP JUMPDEST PUSH2 0x4882 PUSH2 0x140 DUP4 ADD DUP5 PUSH2 0x47F9 JUMP JUMPDEST SWAP10 SWAP9 POP POP POP POP POP POP POP POP POP JUMP JUMPDEST PUSH1 0x0 DUP1 PUSH1 0x0 DUP1 PUSH1 0x0 DUP1 PUSH1 0x0 PUSH1 0xE0 DUP9 DUP11 SUB SLT ISZERO PUSH2 0x48AE JUMPI PUSH2 0x48AD PUSH2 0x4185 JUMP JUMPDEST JUMPDEST PUSH1 0x0 PUSH2 0x48BC DUP11 DUP3 DUP12 ADD PUSH2 0x41D8 JUMP JUMPDEST SWAP8 POP POP PUSH1 0x20 PUSH2 0x48CD DUP11 DUP3 DUP12 ADD PUSH2 0x442C JUMP JUMPDEST SWAP7 POP POP PUSH1 0x40 PUSH2 0x48DE DUP11 DUP3 DUP12 ADD PUSH2 0x442C JUMP JUMPDEST SWAP6 POP POP PUSH1 0x60 PUSH2 0x48EF DUP11 DUP3 DUP12 ADD PUSH2 0x442C JUMP JUMPDEST SWAP5 POP POP PUSH1 0x80 PUSH2 0x4900 DUP11 DUP3 DUP12 ADD PUSH2 0x442C JUMP JUMPDEST SWAP4 POP POP PUSH1 0xA0 PUSH2 0x4911 DUP11 DUP3 DUP12 ADD PUSH2 0x442C JUMP JUMPDEST SWAP3 POP POP PUSH1 0xC0 PUSH2 0x4922 DUP11 DUP3 DUP12 ADD PUSH2 0x442C JUMP JUMPDEST SWAP2 POP POP SWAP3 SWAP6 SWAP9 SWAP2 SWAP5 SWAP8 POP SWAP3 SWAP6 POP JUMP JUMPDEST PUSH1 0x0 PUSH1 0x20 DUP3 DUP5 SUB SLT ISZERO PUSH2 0x4947 JUMPI PUSH2 0x4946 PUSH2 0x4185 JUMP JUMPDEST JUMPDEST PUSH1 0x0 PUSH2 0x4955 DUP5 DUP3 DUP6 ADD PUSH2 0x442C JUMP JUMPDEST SWAP2 POP POP SWAP3 SWAP2 POP POP JUMP JUMPDEST PUSH1 0x0 DUP1 PUSH1 0x0 PUSH1 0x60 DUP5 DUP7 SUB SLT ISZERO PUSH2 0x4977 JUMPI PUSH2 0x4976 PUSH2 0x4185 JUMP JUMPDEST JUMPDEST PUSH1 0x0 PUSH2 0x4985 DUP7 DUP3 DUP8 ADD PUSH2 0x442C JUMP JUMPDEST SWAP4 POP POP PUSH1 0x20 PUSH2 0x4996 DUP7 DUP3 DUP8 ADD PUSH2 0x442C JUMP JUMPDEST SWAP3 POP POP PUSH1 0x40 PUSH2 0x49A7 DUP7 DUP3 DUP8 ADD PUSH2 0x442C JUMP JUMPDEST SWAP2 POP POP SWAP3 POP SWAP3 POP SWAP3 JUMP JUMPDEST PUSH1 0x8 DUP2 LT PUSH2 0x49BE JUMPI PUSH1 0x0 DUP1 REVERT JUMPDEST POP JUMP JUMPDEST PUSH1 0x0 DUP2 CALLDATALOAD SWAP1 POP PUSH2 0x49D0 DUP2 PUSH2 0x49B1 JUMP JUMPDEST SWAP3 SWAP2 POP POP JUMP JUMPDEST PUSH1 0x0 DUP1 PUSH1 0x0 PUSH1 0x60 DUP5 DUP7 SUB SLT ISZERO PUSH2 0x49EF JUMPI PUSH2 0x49EE PUSH2 0x4185 JUMP JUMPDEST JUMPDEST PUSH1 0x0 PUSH2 0x49FD DUP7 DUP3 DUP8 ADD PUSH2 0x41D8 JUMP JUMPDEST SWAP4 POP POP PUSH1 0x20 PUSH2 0x4A0E DUP7 DUP3 DUP8 ADD PUSH2 0x442C JUMP JUMPDEST SWAP3 POP POP PUSH1 0x40 PUSH2 0x4A1F DUP7 DUP3 DUP8 ADD PUSH2 0x49C1 JUMP JUMPDEST SWAP2 POP POP SWAP3 POP SWAP3 POP SWAP3 JUMP JUMPDEST PUSH1 0x0 PUSH1 0x20 DUP3 ADD SWAP1 POP PUSH2 0x4A3E PUSH1 0x0 DUP4 ADD DUP5 PUSH2 0x4762 JUMP JUMPDEST SWAP3 SWAP2 POP POP JUMP JUMPDEST PUSH1 0x0 PUSH1 0x20 DUP3 ADD SWAP1 POP PUSH2 0x4A59 PUSH1 0x0 DUP4 ADD DUP5 PUSH2 0x47F9 JUMP JUMPDEST SWAP3 SWAP2 POP POP JUMP JUMPDEST PUSH1 0x0 DUP1 PUSH1 0x0 DUP1 PUSH1 0x0 PUSH1 0xA0 DUP7 DUP9 SUB SLT ISZERO PUSH2 0x4A7B JUMPI PUSH2 0x4A7A PUSH2 0x4185 JUMP JUMPDEST JUMPDEST PUSH1 0x0 PUSH2 0x4A89 DUP9 DUP3 DUP10 ADD PUSH2 0x41D8 JUMP JUMPDEST SWAP6 POP POP PUSH1 0x20 PUSH2 0x4A9A DUP9 DUP3 DUP10 ADD PUSH2 0x442C JUMP JUMPDEST SWAP5 POP POP PUSH1 0x40 PUSH2 0x4AAB DUP9 DUP3 DUP10 ADD PUSH2 0x41D8 JUMP JUMPDEST SWAP4 POP POP PUSH1 0x60 PUSH2 0x4ABC DUP9 DUP3 DUP10 ADD PUSH2 0x442C JUMP JUMPDEST SWAP3 POP POP PUSH1 0x80 PUSH2 0x4ACD DUP9 DUP3 DUP10 ADD PUSH2 0x442C JUMP JUMPDEST SWAP2 POP POP SWAP3 SWAP6 POP SWAP3 SWAP6 SWAP1 SWAP4 POP JUMP JUMPDEST PUSH2 0x4AE3 DUP2 PUSH2 0x4644 JUMP JUMPDEST DUP3 MSTORE POP POP JUMP JUMPDEST PUSH1 0x0 PUSH2 0x160 DUP3 ADD SWAP1 POP PUSH2 0x4AFF PUSH1 0x0 DUP4 ADD DUP15 PUSH2 0x4762 JUMP JUMPDEST PUSH2 0x4B0C PUSH1 0x20 DUP4 ADD DUP14 PUSH2 0x4762 JUMP JUMPDEST PUSH2 0x4B19 PUSH1 0x40 DUP4 ADD DUP13 PUSH2 0x4481 JUMP JUMPDEST PUSH2 0x4B26 PUSH1 0x60 DUP4 ADD DUP12 PUSH2 0x4762 JUMP JUMPDEST PUSH2 0x4B33 PUSH1 0x80 DUP4 ADD DUP11 PUSH2 0x4481 JUMP JUMPDEST PUSH2 0x4B40 PUSH1 0xA0 DUP4 ADD DUP10 PUSH2 0x4481 JUMP JUMPDEST PUSH2 0x4B4D PUSH1 0xC0 DUP4 ADD DUP9 PUSH2 0x4481 JUMP JUMPDEST PUSH2 0x4B5A PUSH1 0xE0 DUP4 ADD DUP8 PUSH2 0x4481 JUMP JUMPDEST PUSH2 0x4B68 PUSH2 0x100 DUP4 ADD DUP7 PUSH2 0x4481 JUMP JUMPDEST PUSH2 0x4B76 PUSH2 0x120 DUP4 ADD DUP6 PUSH2 0x4ADA JUMP JUMPDEST PUSH2 0x4B84 PUSH2 0x140 DUP4 ADD DUP5 PUSH2 0x4481 JUMP JUMPDEST SWAP13 SWAP12 POP POP POP POP POP POP POP POP POP POP POP POP JUMP JUMPDEST PUSH1 0x0 DUP1 PUSH1 0x0 PUSH1 0x60 DUP5 DUP7 SUB SLT ISZERO PUSH2 0x4BAD JUMPI PUSH2 0x4BAC PUSH2 0x4185 JUMP JUMPDEST JUMPDEST PUSH1 0x0 PUSH2 0x4BBB DUP7 DUP3 DUP8 ADD PUSH2 0x41D8 JUMP JUMPDEST SWAP4 POP POP PUSH1 0x20 PUSH2 0x4BCC DUP7 DUP3 DUP8 ADD PUSH2 0x442C JUMP JUMPDEST SWAP3 POP POP PUSH1 0x40 PUSH2 0x4BDD DUP7 DUP3 DUP8 ADD PUSH2 0x442C JUMP JUMPDEST SWAP2 POP POP SWAP3 POP SWAP3 POP SWAP3 JUMP JUMPDEST PUSH32 0x61646472657373207A65726F206973206E6F7420612076616C69642061646472 PUSH1 0x0 DUP3 ADD MSTORE PUSH32 0x6573730000000000000000000000000000000000000000000000000000000000 PUSH1 0x20 DUP3 ADD MSTORE POP JUMP JUMPDEST PUSH1 0x0 PUSH2 0x4C43 PUSH1 0x23 DUP4 PUSH2 0x4771 JUMP JUMPDEST SWAP2 POP PUSH2 0x4C4E DUP3 PUSH2 0x4BE7 JUMP JUMPDEST PUSH1 0x40 DUP3 ADD SWAP1 POP SWAP2 SWAP1 POP JUMP JUMPDEST PUSH1 0x0 PUSH1 0x20 DUP3 ADD SWAP1 POP DUP2 DUP2 SUB PUSH1 0x0 DUP4 ADD MSTORE PUSH2 0x4C72 DUP2 PUSH2 0x4C36 JUMP JUMPDEST SWAP1 POP SWAP2 SWAP1 POP JUMP JUMPDEST PUSH32 0x4E487B7100000000000000000000000000000000000000000000000000000000 PUSH1 0x0 MSTORE PUSH1 0x22 PUSH1 0x4 MSTORE PUSH1 0x24 PUSH1 0x0 REVERT JUMPDEST PUSH1 0x0 PUSH1 0x2 DUP3 DIV SWAP1 POP PUSH1 0x1 DUP3 AND DUP1 PUSH2 0x4CC0 JUMPI PUSH1 0x7F DUP3 AND SWAP2 POP JUMPDEST PUSH1 0x20 DUP3 LT DUP2 EQ ISZERO PUSH2 0x4CD4 JUMPI PUSH2 0x4CD3 PUSH2 0x4C79 JUMP JUMPDEST JUMPDEST POP SWAP2 SWAP1 POP JUMP JUMPDEST PUSH32 0x4E465420686173206E6F742075736520617320636F6C6C61746572616C000000 PUSH1 0x0 DUP3 ADD MSTORE POP JUMP JUMPDEST PUSH1 0x0 PUSH2 0x4D10 PUSH1 0x1D DUP4 PUSH2 0x4771 JUMP JUMPDEST SWAP2 POP PUSH2 0x4D1B DUP3 PUSH2 0x4CDA JUMP JUMPDEST PUSH1 0x20 DUP3 ADD SWAP1 POP SWAP2 SWAP1 POP JUMP JUMPDEST PUSH1 0x0 PUSH1 0x20 DUP3 ADD SWAP1 POP DUP2 DUP2 SUB PUSH1 0x0 DUP4 ADD MSTORE PUSH2 0x4D3F DUP2 PUSH2 0x4D03 JUMP JUMPDEST SWAP1 POP SWAP2 SWAP1 POP JUMP JUMPDEST PUSH32 0x43616C6C6572206D757374206265206F776E6572206E6674206F722061646D69 PUSH1 0x0 DUP3 ADD MSTORE PUSH32 0x6E00000000000000000000000000000000000000000000000000000000000000 PUSH1 0x20 DUP3 ADD MSTORE POP JUMP JUMPDEST PUSH1 0x0 PUSH2 0x4DA2 PUSH1 0x21 DUP4 PUSH2 0x4771 JUMP JUMPDEST SWAP2 POP PUSH2 0x4DAD DUP3 PUSH2 0x4D46 JUMP JUMPDEST PUSH1 0x40 DUP3 ADD SWAP1 POP SWAP2 SWAP1 POP JUMP JUMPDEST PUSH1 0x0 PUSH1 0x20 DUP3 ADD SWAP1 POP DUP2 DUP2 SUB PUSH1 0x0 DUP4 ADD MSTORE PUSH2 0x4DD1 DUP2 PUSH2 0x4D95 JUMP JUMPDEST SWAP1 POP SWAP2 SWAP1 POP JUMP JUMPDEST PUSH32 0x43616C6C6572206D757374206265206F776E6572206E66740000000000000000 PUSH1 0x0 DUP3 ADD MSTORE POP JUMP JUMPDEST PUSH1 0x0 PUSH2 0x4E0E PUSH1 0x18 DUP4 PUSH2 0x4771 JUMP JUMPDEST SWAP2 POP PUSH2 0x4E19 DUP3 PUSH2 0x4DD8 JUMP JUMPDEST PUSH1 0x20 DUP3 ADD SWAP1 POP SWAP2 SWAP1 POP JUMP JUMPDEST PUSH1 0x0 PUSH1 0x20 DUP3 ADD SWAP1 POP DUP2 DUP2 SUB PUSH1 0x0 DUP4 ADD MSTORE PUSH2 0x4E3D DUP2 PUSH2 0x4E01 JUMP JUMPDEST SWAP1 POP SWAP2 SWAP1 POP JUMP JUMPDEST PUSH32 0x4C6F616E20737461746520697320696E76616C69640000000000000000000000 PUSH1 0x0 DUP3 ADD MSTORE POP JUMP JUMPDEST PUSH1 0x0 PUSH2 0x4E7A PUSH1 0x15 DUP4 PUSH2 0x4771 JUMP JUMPDEST SWAP2 POP PUSH2 0x4E85 DUP3 PUSH2 0x4E44 JUMP JUMPDEST PUSH1 0x20 DUP3 ADD SWAP1 POP SWAP2 SWAP1 POP JUMP JUMPDEST PUSH1 0x0 PUSH1 0x20 DUP3 ADD SWAP1 POP DUP2 DUP2 SUB PUSH1 0x0 DUP4 ADD MSTORE PUSH2 0x4EA9 DUP2 PUSH2 0x4E6D JUMP JUMPDEST SWAP1 POP SWAP2 SWAP1 POP JUMP JUMPDEST PUSH32 0x4E487B7100000000000000000000000000000000000000000000000000000000 PUSH1 0x0 MSTORE PUSH1 0x11 PUSH1 0x4 MSTORE PUSH1 0x24 PUSH1 0x0 REVERT JUMPDEST PUSH1 0x0 PUSH2 0x4EEA DUP3 PUSH2 0x42DE JUMP JUMPDEST SWAP2 POP PUSH2 0x4EF5 DUP4 PUSH2 0x42DE JUMP JUMPDEST SWAP3 POP DUP3 DUP3 LT ISZERO PUSH2 0x4F08 JUMPI PUSH2 0x4F07 PUSH2 0x4EB0 JUMP JUMPDEST JUMPDEST DUP3 DUP3 SUB SWAP1 POP SWAP3 SWAP2 POP POP JUMP JUMPDEST PUSH32 0x4561726C79206C69717569646174696F6E2074696D6520697320696E76616C69 PUSH1 0x0 DUP3 ADD MSTORE PUSH32 0x6400000000000000000000000000000000000000000000000000000000000000 PUSH1 0x20 DUP3 ADD MSTORE POP JUMP JUMPDEST PUSH1 0x0 PUSH2 0x4F6F PUSH1 0x21 DUP4 PUSH2 0x4771 JUMP JUMPDEST SWAP2 POP PUSH2 0x4F7A DUP3 PUSH2 0x4F13 JUMP JUMPDEST PUSH1 0x40 DUP3 ADD SWAP1 POP SWAP2 SWAP1 POP JUMP JUMPDEST PUSH1 0x0 PUSH1 0x20 DUP3 ADD SWAP1 POP DUP2 DUP2 SUB PUSH1 0x0 DUP4 ADD MSTORE PUSH2 0x4F9E DUP2 PUSH2 0x4F62 JUMP JUMPDEST SWAP1 POP SWAP2 SWAP1 POP JUMP JUMPDEST PUSH1 0x0 PUSH2 0x4FB0 DUP3 PUSH2 0x42DE JUMP JUMPDEST SWAP2 POP PUSH2 0x4FBB DUP4 PUSH2 0x42DE JUMP JUMPDEST SWAP3 POP DUP3 PUSH32 0xFFFFFFFFFFFFFFFFFFFFFFFFFFFFFFFFFFFFFFFFFFFFFFFFFFFFFFFFFFFFFFFF SUB DUP3 GT ISZERO PUSH2 0x4FF0 JUMPI PUSH2 0x4FEF PUSH2 0x4EB0 JUMP JUMPDEST JUMPDEST DUP3 DUP3 ADD SWAP1 POP SWAP3 SWAP2 POP POP JUMP JUMPDEST PUSH1 0x0 PUSH1 0x60 DUP3 ADD SWAP1 POP PUSH2 0x5010 PUSH1 0x0 DUP4 ADD DUP7 PUSH2 0x4762 JUMP JUMPDEST PUSH2 0x501D PUSH1 0x20 DUP4 ADD DUP6 PUSH2 0x4762 JUMP JUMPDEST PUSH2 0x502A PUSH1 0x40 DUP4 ADD DUP5 PUSH2 0x4481 JUMP JUMPDEST SWAP5 SWAP4 POP POP POP POP JUMP JUMPDEST PUSH2 0x503B DUP2 PUSH2 0x4326 JUMP JUMPDEST DUP2 EQ PUSH2 0x5046 JUMPI PUSH1 0x0 DUP1 REVERT JUMPDEST POP JUMP JUMPDEST PUSH1 0x0 DUP2 MLOAD SWAP1 POP PUSH2 0x5058 DUP2 PUSH2 0x5032 JUMP JUMPDEST SWAP3 SWAP2 POP POP JUMP JUMPDEST PUSH1 0x0 PUSH1 0x20 DUP3 DUP5 SUB SLT ISZERO PUSH2 0x5074 JUMPI PUSH2 0x5073 PUSH2 0x4185 JUMP JUMPDEST JUMPDEST PUSH1 0x0 PUSH2 0x5082 DUP5 DUP3 DUP6 ADD PUSH2 0x5049 JUMP JUMPDEST SWAP2 POP POP SWAP3 SWAP2 POP POP JUMP JUMPDEST PUSH1 0x0 PUSH1 0x80 DUP3 ADD SWAP1 POP PUSH2 0x50A0 PUSH1 0x0 DUP4 ADD DUP8 PUSH2 0x4481 JUMP JUMPDEST PUSH2 0x50AD PUSH1 0x20 DUP4 ADD DUP7 PUSH2 0x4ADA JUMP JUMPDEST PUSH2 0x50BA PUSH1 0x40 DUP4 ADD DUP6 PUSH2 0x4481 JUMP JUMPDEST PUSH2 0x50C7 PUSH1 0x60 DUP4 ADD DUP5 PUSH2 0x4481 JUMP JUMPDEST SWAP6 SWAP5 POP POP POP POP POP JUMP JUMPDEST PUSH32 0x546F6B656E206164647265737320697320746865207A65726F20616464726573 PUSH1 0x0 DUP3 ADD MSTORE PUSH32 0x7300000000000000000000000000000000000000000000000000000000000000 PUSH1 0x20 DUP3 ADD MSTORE POP JUMP JUMPDEST PUSH1 0x0 PUSH2 0x512C PUSH1 0x21 DUP4 PUSH2 0x4771 JUMP JUMPDEST SWAP2 POP PUSH2 0x5137 DUP3 PUSH2 0x50D0 JUMP JUMPDEST PUSH1 0x40 DUP3 ADD SWAP1 POP SWAP2 SWAP1 POP JUMP JUMPDEST PUSH1 0x0 PUSH1 0x20 DUP3 ADD SWAP1 POP DUP2 DUP2 SUB PUSH1 0x0 DUP4 ADD MSTORE PUSH2 0x515B DUP2 PUSH2 0x511F JUMP JUMPDEST SWAP1 POP SWAP2 SWAP1 POP JUMP JUMPDEST PUSH32 0x546F6B656E206578697374656400000000000000000000000000000000000000 PUSH1 0x0 DUP3 ADD MSTORE POP JUMP JUMPDEST PUSH1 0x0 PUSH2 0x5198 PUSH1 0xD DUP4 PUSH2 0x4771 JUMP JUMPDEST SWAP2 POP PUSH2 0x51A3 DUP3 PUSH2 0x5162 JUMP JUMPDEST PUSH1 0x20 DUP3 ADD SWAP1 POP SWAP2 SWAP1 POP JUMP JUMPDEST PUSH1 0x0 PUSH1 0x20 DUP3 ADD SWAP1 POP DUP2 DUP2 SUB PUSH1 0x0 DUP4 ADD MSTORE PUSH2 0x51C7 DUP2 PUSH2 0x518B JUMP JUMPDEST SWAP1 POP SWAP2 SWAP1 POP JUMP JUMPDEST PUSH32 0x52617465206D757374206265203E203000000000000000000000000000000000 PUSH1 0x0 DUP3 ADD MSTORE POP JUMP JUMPDEST PUSH1 0x0 PUSH2 0x5204 PUSH1 0x10 DUP4 PUSH2 0x4771 JUMP JUMPDEST SWAP2 POP PUSH2 0x520F DUP3 PUSH2 0x51CE JUMP JUMPDEST PUSH1 0x20 DUP3 ADD SWAP1 POP SWAP2 SWAP1 POP JUMP JUMPDEST PUSH1 0x0 PUSH1 0x20 DUP3 ADD SWAP1 POP DUP2 DUP2 SUB PUSH1 0x0 DUP4 ADD MSTORE PUSH2 0x5233 DUP2 PUSH2 0x51F7 JUMP JUMPDEST SWAP1 POP SWAP2 SWAP1 POP JUMP JUMPDEST PUSH1 0x0 DUP1 REVERT JUMPDEST PUSH32 0x4E487B7100000000000000000000000000000000000000000000000000000000 PUSH1 0x0 MSTORE PUSH1 0x41 PUSH1 0x4 MSTORE PUSH1 0x24 PUSH1 0x0 REVERT JUMPDEST PUSH2 0x5277 DUP3 PUSH2 0x4278 JUMP JUMPDEST DUP2 ADD DUP2 DUP2 LT PUSH8 0xFFFFFFFFFFFFFFFF DUP3 GT OR ISZERO PUSH2 0x5296 JUMPI PUSH2 0x5295 PUSH2 0x523F JUMP JUMPDEST JUMPDEST DUP1 PUSH1 0x40 MSTORE POP POP POP JUMP JUMPDEST PUSH1 0x0 PUSH2 0x52A9 PUSH2 0x417B JUMP JUMPDEST SWAP1 POP PUSH2 0x52B5 DUP3 DUP3 PUSH2 0x526E JUMP JUMPDEST SWAP2 SWAP1 POP JUMP JUMPDEST PUSH1 0x0 PUSH8 0xFFFFFFFFFFFFFFFF DUP3 GT ISZERO PUSH2 0x52D5 JUMPI PUSH2 0x52D4 PUSH2 0x523F JUMP JUMPDEST JUMPDEST PUSH2 0x52DE DUP3 PUSH2 0x4278 JUMP JUMPDEST SWAP1 POP PUSH1 0x20 DUP2 ADD SWAP1 POP SWAP2 SWAP1 POP JUMP JUMPDEST PUSH1 0x0 PUSH2 0x52FE PUSH2 0x52F9 DUP5 PUSH2 0x52BA JUMP JUMPDEST PUSH2 0x529F JUMP JUMPDEST SWAP1 POP DUP3 DUP2 MSTORE PUSH1 0x20 DUP2 ADD DUP5 DUP5 DUP5 ADD GT ISZERO PUSH2 0x531A JUMPI PUSH2 0x5319 PUSH2 0x523A JUMP JUMPDEST JUMPDEST PUSH2 0x5325 DUP5 DUP3 DUP6 PUSH2 0x4245 JUMP JUMPDEST POP SWAP4 SWAP3 POP POP POP JUMP JUMPDEST PUSH1 0x0 DUP3 PUSH1 0x1F DUP4 ADD SLT PUSH2 0x5342 JUMPI PUSH2 0x5341 PUSH2 0x44AB JUMP JUMPDEST JUMPDEST DUP2 MLOAD PUSH2 0x5352 DUP5 DUP3 PUSH1 0x20 DUP7 ADD PUSH2 0x52EB JUMP JUMPDEST SWAP2 POP POP SWAP3 SWAP2 POP POP JUMP JUMPDEST PUSH1 0x0 PUSH1 0x20 DUP3 DUP5 SUB SLT ISZERO PUSH2 0x5371 JUMPI PUSH2 0x5370 PUSH2 0x4185 JUMP JUMPDEST JUMPDEST PUSH1 0x0 DUP3 ADD MLOAD PUSH8 0xFFFFFFFFFFFFFFFF DUP2 GT ISZERO PUSH2 0x538F JUMPI PUSH2 0x538E PUSH2 0x418A JUMP JUMPDEST JUMPDEST PUSH2 0x539B DUP5 DUP3 DUP6 ADD PUSH2 0x532D JUMP JUMPDEST SWAP2 POP POP SWAP3 SWAP2 POP POP JUMP JUMPDEST PUSH2 0x53AD DUP2 PUSH2 0x42C2 JUMP JUMPDEST DUP2 EQ PUSH2 0x53B8 JUMPI PUSH1 0x0 DUP1 REVERT JUMPDEST POP JUMP JUMPDEST PUSH1 0x0 DUP2 MLOAD SWAP1 POP PUSH2 0x53CA DUP2 PUSH2 0x53A4 JUMP JUMPDEST SWAP3 SWAP2 POP POP JUMP JUMPDEST PUSH1 0x0 PUSH1 0x20 DUP3 DUP5 SUB SLT ISZERO PUSH2 0x53E6 JUMPI PUSH2 0x53E5 PUSH2 0x4185 JUMP JUMPDEST JUMPDEST PUSH1 0x0 PUSH2 0x53F4 DUP5 DUP3 DUP6 ADD PUSH2 0x53BB JUMP JUMPDEST SWAP2 POP POP SWAP3 SWAP2 POP POP JUMP JUMPDEST PUSH1 0x0 PUSH2 0x120 DUP3 ADD SWAP1 POP PUSH2 0x5413 PUSH1 0x0 DUP4 ADD DUP13 PUSH2 0x4762 JUMP JUMPDEST DUP2 DUP2 SUB PUSH1 0x20 DUP4 ADD MSTORE PUSH2 0x5425 DUP2 DUP12 PUSH2 0x4782 JUMP JUMPDEST SWAP1 POP PUSH2 0x5434 PUSH1 0x40 DUP4 ADD DUP11 PUSH2 0x47BB JUMP JUMPDEST PUSH2 0x5441 PUSH1 0x60 DUP4 ADD DUP10 PUSH2 0x4481 JUMP JUMPDEST PUSH2 0x544E PUSH1 0x80 DUP4 ADD DUP9 PUSH2 0x4481 JUMP JUMPDEST PUSH2 0x545B PUSH1 0xA0 DUP4 ADD DUP8 PUSH2 0x4481 JUMP JUMPDEST PUSH2 0x5468 PUSH1 0xC0 DUP4 ADD DUP7 PUSH2 0x4481 JUMP JUMPDEST PUSH2 0x5475 PUSH1 0xE0 DUP4 ADD DUP6 PUSH2 0x4481 JUMP JUMPDEST PUSH2 0x5483 PUSH2 0x100 DUP4 ADD DUP5 PUSH2 0x4481 JUMP JUMPDEST SWAP11 SWAP10 POP POP POP POP POP POP POP POP POP POP JUMP JUMPDEST PUSH32 0x416D6F756E7420746F6B656E20697320746F6F206C6F77000000000000000000 PUSH1 0x0 DUP3 ADD MSTORE POP JUMP JUMPDEST PUSH1 0x0 PUSH2 0x54C7 PUSH1 0x17 DUP4 PUSH2 0x4771 JUMP JUMPDEST SWAP2 POP PUSH2 0x54D2 DUP3 PUSH2 0x5491 JUMP JUMPDEST PUSH1 0x20 DUP3 ADD SWAP1 POP SWAP2 SWAP1 POP JUMP JUMPDEST PUSH1 0x0 PUSH1 0x20 DUP3 ADD SWAP1 POP DUP2 DUP2 SUB PUSH1 0x0 DUP4 ADD MSTORE PUSH2 0x54F6 DUP2 PUSH2 0x54BA JUMP JUMPDEST SWAP1 POP SWAP2 SWAP1 POP JUMP JUMPDEST PUSH1 0x0 PUSH1 0x40 DUP3 ADD SWAP1 POP PUSH2 0x5512 PUSH1 0x0 DUP4 ADD DUP6 PUSH2 0x4762 JUMP JUMPDEST PUSH2 0x551F PUSH1 0x20 DUP4 ADD DUP5 PUSH2 0x4481 JUMP JUMPDEST SWAP4 SWAP3 POP POP POP JUMP JUMPDEST PUSH32 0x696E76616C696420737461746520696E70757400000000000000000000000000 PUSH1 0x0 DUP3 ADD MSTORE POP JUMP JUMPDEST PUSH1 0x0 PUSH2 0x555C PUSH1 0x13 DUP4 PUSH2 0x4771 JUMP JUMPDEST SWAP2 POP PUSH2 0x5567 DUP3 PUSH2 0x5526 JUMP JUMPDEST PUSH1 0x20 DUP3 ADD SWAP1 POP SWAP2 SWAP1 POP JUMP JUMPDEST PUSH1 0x0 PUSH1 0x20 DUP3 ADD SWAP1 POP DUP2 DUP2 SUB PUSH1 0x0 DUP4 ADD MSTORE PUSH2 0x558B DUP2 PUSH2 0x554F JUMP JUMPDEST SWAP1 POP SWAP2 SWAP1 POP JUMP JUMPDEST PUSH1 0x0 DUP2 MLOAD SWAP1 POP PUSH2 0x55A1 DUP2 PUSH2 0x41C1 JUMP JUMPDEST SWAP3 SWAP2 POP POP JUMP JUMPDEST PUSH1 0x0 PUSH1 0x20 DUP3 DUP5 SUB SLT ISZERO PUSH2 0x55BD JUMPI PUSH2 0x55BC PUSH2 0x4185 JUMP JUMPDEST JUMPDEST PUSH1 0x0 PUSH2 0x55CB DUP5 DUP3 DUP6 ADD PUSH2 0x5592 JUMP JUMPDEST SWAP2 POP POP SWAP3 SWAP2 POP POP JUMP JUMPDEST PUSH32 0x426F72726F776572206D757374206265206F776E6572206E6674000000000000 PUSH1 0x0 DUP3 ADD MSTORE POP JUMP JUMPDEST PUSH1 0x0 PUSH2 0x560A PUSH1 0x1A DUP4 PUSH2 0x4771 JUMP JUMPDEST SWAP2 POP PUSH2 0x5615 DUP3 PUSH2 0x55D4 JUMP JUMPDEST PUSH1 0x20 DUP3 ADD SWAP1 POP SWAP2 SWAP1 POP JUMP JUMPDEST PUSH1 0x0 PUSH1 0x20 DUP3 ADD SWAP1 POP DUP2 DUP2 SUB PUSH1 0x0 DUP4 ADD MSTORE PUSH2 0x5639 DUP2 PUSH2 0x55FD JUMP JUMPDEST SWAP1 POP SWAP2 SWAP1 POP JUMP JUMPDEST PUSH32 0x496E76616C6964204C6F616E2073746174650000000000000000000000000000 PUSH1 0x0 DUP3 ADD MSTORE POP JUMP JUMPDEST PUSH1 0x0 PUSH2 0x5676 PUSH1 0x12 DUP4 PUSH2 0x4771 JUMP JUMPDEST SWAP2 POP PUSH2 0x5681 DUP3 PUSH2 0x5640 JUMP JUMPDEST PUSH1 0x20 DUP3 ADD SWAP1 POP SWAP2 SWAP1 POP JUMP JUMPDEST PUSH1 0x0 PUSH1 0x20 DUP3 ADD SWAP1 POP DUP2 DUP2 SUB PUSH1 0x0 DUP4 ADD MSTORE PUSH2 0x56A5 DUP2 PUSH2 0x5669 JUMP JUMPDEST SWAP1 POP SWAP2 SWAP1 POP JUMP JUMPDEST PUSH1 0x0 PUSH2 0x56B7 DUP3 PUSH2 0x42DE JUMP JUMPDEST SWAP2 POP PUSH2 0x56C2 DUP4 PUSH2 0x42DE JUMP JUMPDEST SWAP3 POP DUP2 PUSH32 0xFFFFFFFFFFFFFFFFFFFFFFFFFFFFFFFFFFFFFFFFFFFFFFFFFFFFFFFFFFFFFFFF DIV DUP4 GT DUP3 ISZERO ISZERO AND ISZERO PUSH2 0x56FB JUMPI PUSH2 0x56FA PUSH2 0x4EB0 JUMP JUMPDEST JUMPDEST DUP3 DUP3 MUL SWAP1 POP SWAP3 SWAP2 POP POP JUMP JUMPDEST PUSH32 0x546F6B656E207472616E73666572206661696C65640000000000000000000000 PUSH1 0x0 DUP3 ADD MSTORE POP JUMP JUMPDEST PUSH1 0x0 PUSH2 0x573C PUSH1 0x15 DUP4 PUSH2 0x4771 JUMP JUMPDEST SWAP2 POP PUSH2 0x5747 DUP3 PUSH2 0x5706 JUMP JUMPDEST PUSH1 0x20 DUP3 ADD SWAP1 POP SWAP2 SWAP1 POP JUMP JUMPDEST PUSH1 0x0 PUSH1 0x20 DUP3 ADD SWAP1 POP DUP2 DUP2 SUB PUSH1 0x0 DUP4 ADD MSTORE PUSH2 0x576B DUP2 PUSH2 0x572F JUMP JUMPDEST SWAP1 POP SWAP2 SWAP1 POP JUMP JUMPDEST PUSH32 0x43616C6C6572206D75737420626520626F72726F776572000000000000000000 PUSH1 0x0 DUP3 ADD MSTORE POP JUMP JUMPDEST PUSH1 0x0 PUSH2 0x57A8 PUSH1 0x17 DUP4 PUSH2 0x4771 JUMP JUMPDEST SWAP2 POP PUSH2 0x57B3 DUP3 PUSH2 0x5772 JUMP JUMPDEST PUSH1 0x20 DUP3 ADD SWAP1 POP SWAP2 SWAP1 POP JUMP JUMPDEST PUSH1 0x0 PUSH1 0x20 DUP3 ADD SWAP1 POP DUP2 DUP2 SUB PUSH1 0x0 DUP4 ADD MSTORE PUSH2 0x57D7 DUP2 PUSH2 0x579B JUMP JUMPDEST SWAP1 POP SWAP2 SWAP1 POP JUMP JUMPDEST PUSH32 0x496E76616C69642074696D652072657061796D656E7400000000000000000000 PUSH1 0x0 DUP3 ADD MSTORE POP JUMP JUMPDEST PUSH1 0x0 PUSH2 0x5814 PUSH1 0x16 DUP4 PUSH2 0x4771 JUMP JUMPDEST SWAP2 POP PUSH2 0x581F DUP3 PUSH2 0x57DE JUMP JUMPDEST PUSH1 0x20 DUP3 ADD SWAP1 POP SWAP2 SWAP1 POP JUMP JUMPDEST PUSH1 0x0 PUSH1 0x20 DUP3 ADD SWAP1 POP DUP2 DUP2 SUB PUSH1 0x0 DUP4 ADD MSTORE PUSH2 0x5843 DUP2 PUSH2 0x5807 JUMP JUMPDEST SWAP1 POP SWAP2 SWAP1 POP JUMP JUMPDEST PUSH1 0x0 PUSH1 0x60 DUP3 ADD SWAP1 POP PUSH2 0x585F PUSH1 0x0 DUP4 ADD DUP7 PUSH2 0x4481 JUMP JUMPDEST PUSH2 0x586C PUSH1 0x20 DUP4 ADD DUP6 PUSH2 0x4ADA JUMP JUMPDEST PUSH2 0x5879 PUSH1 0x40 DUP4 ADD DUP5 PUSH2 0x4481 JUMP JUMPDEST SWAP5 SWAP4 POP POP POP POP JUMP JUMPDEST PUSH32 0x43616C6C657220697320746865207A65726F2061646472657373000000000000 PUSH1 0x0 DUP3 ADD MSTORE POP JUMP JUMPDEST PUSH1 0x0 PUSH2 0x58B7 PUSH1 0x1A DUP4 PUSH2 0x4771 JUMP JUMPDEST SWAP2 POP PUSH2 0x58C2 DUP3 PUSH2 0x5881 JUMP JUMPDEST PUSH1 0x20 DUP3 ADD SWAP1 POP SWAP2 SWAP1 POP JUMP JUMPDEST PUSH1 0x0 PUSH1 0x20 DUP3 ADD SWAP1 POP DUP2 DUP2 SUB PUSH1 0x0 DUP4 ADD MSTORE PUSH2 0x58E6 DUP2 PUSH2 0x58AA JUMP JUMPDEST SWAP1 POP SWAP2 SWAP1 POP JUMP JUMPDEST PUSH32 0x4E6674206164647265737320697320746865207A65726F206164647265737300 PUSH1 0x0 DUP3 ADD MSTORE POP JUMP JUMPDEST PUSH1 0x0 PUSH2 0x5923 PUSH1 0x1F DUP4 PUSH2 0x4771 JUMP JUMPDEST SWAP2 POP PUSH2 0x592E DUP3 PUSH2 0x58ED JUMP JUMPDEST PUSH1 0x20 DUP3 ADD SWAP1 POP SWAP2 SWAP1 POP JUMP JUMPDEST PUSH1 0x0 PUSH1 0x20 DUP3 ADD SWAP1 POP DUP2 DUP2 SUB PUSH1 0x0 DUP4 ADD MSTORE PUSH2 0x5952 DUP2 PUSH2 0x5916 JUMP JUMPDEST SWAP1 POP SWAP2 SWAP1 POP JUMP JUMPDEST PUSH32 0x43616C6C65722068617665206E6F7420746F2062652061646D696E0000000000 PUSH1 0x0 DUP3 ADD MSTORE POP JUMP JUMPDEST PUSH1 0x0 PUSH2 0x598F PUSH1 0x1B DUP4 PUSH2 0x4771 JUMP JUMPDEST SWAP2 POP PUSH2 0x599A DUP3 PUSH2 0x5959 JUMP JUMPDEST PUSH1 0x20 DUP3 ADD SWAP1 POP SWAP2 SWAP1 POP JUMP JUMPDEST PUSH1 0x0 PUSH1 0x20 DUP3 ADD SWAP1 POP DUP2 DUP2 SUB PUSH1 0x0 DUP4 ADD MSTORE PUSH2 0x59BE DUP2 PUSH2 0x5982 JUMP JUMPDEST SWAP1 POP SWAP2 SWAP1 POP JUMP JUMPDEST PUSH32 0x4E465420686173207573657320617320636F6C6C61746572616C000000000000 PUSH1 0x0 DUP3 ADD MSTORE POP JUMP JUMPDEST PUSH1 0x0 PUSH2 0x59FB PUSH1 0x1A DUP4 PUSH2 0x4771 JUMP JUMPDEST SWAP2 POP PUSH2 0x5A06 DUP3 PUSH2 0x59C5 JUMP JUMPDEST PUSH1 0x20 DUP3 ADD SWAP1 POP SWAP2 SWAP1 POP JUMP JUMPDEST PUSH1 0x0 PUSH1 0x20 DUP3 ADD SWAP1 POP DUP2 DUP2 SUB PUSH1 0x0 DUP4 ADD MSTORE PUSH2 0x5A2A DUP2 PUSH2 0x59EE JUMP JUMPDEST SWAP1 POP SWAP2 SWAP1 POP JUMP JUMPDEST PUSH32 0x496E76616C6964206C6F616E20616D6F756E7400000000000000000000000000 PUSH1 0x0 DUP3 ADD MSTORE POP JUMP JUMPDEST PUSH1 0x0 PUSH2 0x5A67 PUSH1 0x13 DUP4 PUSH2 0x4771 JUMP JUMPDEST SWAP2 POP PUSH2 0x5A72 DUP3 PUSH2 0x5A31 JUMP JUMPDEST PUSH1 0x20 DUP3 ADD SWAP1 POP SWAP2 SWAP1 POP JUMP JUMPDEST PUSH1 0x0 PUSH1 0x20 DUP3 ADD SWAP1 POP DUP2 DUP2 SUB PUSH1 0x0 DUP4 ADD MSTORE PUSH2 0x5A96 DUP2 PUSH2 0x5A5A JUMP JUMPDEST SWAP1 POP SWAP2 SWAP1 POP JUMP JUMPDEST PUSH32 0x696E76616C6964206C6F616E206475726174696F6E0000000000000000000000 PUSH1 0x0 DUP3 ADD MSTORE POP JUMP JUMPDEST PUSH1 0x0 PUSH2 0x5AD3 PUSH1 0x15 DUP4 PUSH2 0x4771 JUMP JUMPDEST SWAP2 POP PUSH2 0x5ADE DUP3 PUSH2 0x5A9D JUMP JUMPDEST PUSH1 0x20 DUP3 ADD SWAP1 POP SWAP2 SWAP1 POP JUMP JUMPDEST PUSH1 0x0 PUSH1 0x20 DUP3 ADD SWAP1 POP DUP2 DUP2 SUB PUSH1 0x0 DUP4 ADD MSTORE PUSH2 0x5B02 DUP2 PUSH2 0x5AC6 JUMP JUMPDEST SWAP1 POP SWAP2 SWAP1 POP JUMP JUMPDEST PUSH32 0x43616C6C657220646964206E6F7420617070726F766520666F72206E6674546F PUSH1 0x0 DUP3 ADD MSTORE PUSH32 0x6B656E496420746F6B656E2E0000000000000000000000000000000000000000 PUSH1 0x20 DUP3 ADD MSTORE POP JUMP JUMPDEST PUSH1 0x0 PUSH2 0x5B65 PUSH1 0x2C DUP4 PUSH2 0x4771 JUMP JUMPDEST SWAP2 POP PUSH2 0x5B70 DUP3 PUSH2 0x5B09 JUMP JUMPDEST PUSH1 0x40 DUP3 ADD SWAP1 POP SWAP2 SWAP1 POP JUMP JUMPDEST PUSH1 0x0 PUSH1 0x20 DUP3 ADD SWAP1 POP DUP2 DUP2 SUB PUSH1 0x0 DUP4 ADD MSTORE PUSH2 0x5B94 DUP2 PUSH2 0x5B58 JUMP JUMPDEST SWAP1 POP SWAP2 SWAP1 POP JUMP JUMPDEST PUSH1 0x0 PUSH2 0x140 DUP3 ADD SWAP1 POP PUSH2 0x5BB1 PUSH1 0x0 DUP4 ADD DUP14 PUSH2 0x4481 JUMP JUMPDEST PUSH2 0x5BBE PUSH1 0x20 DUP4 ADD DUP13 PUSH2 0x4762 JUMP JUMPDEST PUSH2 0x5BCB PUSH1 0x40 DUP4 ADD DUP12 PUSH2 0x4762 JUMP JUMPDEST PUSH2 0x5BD8 PUSH1 0x60 DUP4 ADD DUP11 PUSH2 0x4481 JUMP JUMPDEST PUSH2 0x5BE5 PUSH1 0x80 DUP4 ADD DUP10 PUSH2 0x4762 JUMP JUMPDEST PUSH2 0x5BF2 PUSH1 0xA0 DUP4 ADD DUP9 PUSH2 0x4481 JUMP JUMPDEST PUSH2 0x5BFF PUSH1 0xC0 DUP4 ADD DUP8 PUSH2 0x4481 JUMP JUMPDEST PUSH2 0x5C0C PUSH1 0xE0 DUP4 ADD DUP7 PUSH2 0x4481 JUMP JUMPDEST PUSH2 0x5C1A PUSH2 0x100 DUP4 ADD DUP6 PUSH2 0x4ADA JUMP JUMPDEST PUSH2 0x5C28 PUSH2 0x120 DUP4 ADD DUP5 PUSH2 0x4481 JUMP JUMPDEST SWAP12 SWAP11 POP POP POP POP POP POP POP POP POP POP POP JUMP JUMPDEST PUSH32 0x4C6F616E20737461747573206973206E6F7420636F7272656374000000000000 PUSH1 0x0 DUP3 ADD MSTORE POP JUMP JUMPDEST PUSH1 0x0 PUSH2 0x5C6D PUSH1 0x1A DUP4 PUSH2 0x4771 JUMP JUMPDEST SWAP2 POP PUSH2 0x5C78 DUP3 PUSH2 0x5C37 JUMP JUMPDEST PUSH1 0x20 DUP3 ADD SWAP1 POP SWAP2 SWAP1 POP JUMP JUMPDEST PUSH1 0x0 PUSH1 0x20 DUP3 ADD SWAP1 POP DUP2 DUP2 SUB PUSH1 0x0 DUP4 ADD MSTORE PUSH2 0x5C9C DUP2 PUSH2 0x5C60 JUMP JUMPDEST SWAP1 POP SWAP2 SWAP1 POP JUMP JUMPDEST PUSH32 0x546F6B656E206D75737420657869737400000000000000000000000000000000 PUSH1 0x0 DUP3 ADD MSTORE POP JUMP JUMPDEST PUSH1 0x0 PUSH2 0x5CD9 PUSH1 0x10 DUP4 PUSH2 0x4771 JUMP JUMPDEST SWAP2 POP PUSH2 0x5CE4 DUP3 PUSH2 0x5CA3 JUMP JUMPDEST PUSH1 0x20 DUP3 ADD SWAP1 POP SWAP2 SWAP1 POP JUMP JUMPDEST PUSH1 0x0 PUSH1 0x20 DUP3 ADD SWAP1 POP DUP2 DUP2 SUB PUSH1 0x0 DUP4 ADD MSTORE PUSH2 0x5D08 DUP2 PUSH2 0x5CCC JUMP JUMPDEST SWAP1 POP SWAP2 SWAP1 POP JUMP JUMPDEST PUSH1 0x0 PUSH1 0xE0 DUP3 ADD SWAP1 POP PUSH2 0x5D24 PUSH1 0x0 DUP4 ADD DUP11 PUSH2 0x4762 JUMP JUMPDEST PUSH2 0x5D31 PUSH1 0x20 DUP4 ADD DUP10 PUSH2 0x4481 JUMP JUMPDEST PUSH2 0x5D3E PUSH1 0x40 DUP4 ADD DUP9 PUSH2 0x4481 JUMP JUMPDEST PUSH2 0x5D4B PUSH1 0x60 DUP4 ADD DUP8 PUSH2 0x4481 JUMP JUMPDEST PUSH2 0x5D58 PUSH1 0x80 DUP4 ADD DUP7 PUSH2 0x4481 JUMP JUMPDEST PUSH2 0x5D65 PUSH1 0xA0 DUP4 ADD DUP6 PUSH2 0x4481 JUMP JUMPDEST PUSH2 0x5D72 PUSH1 0xC0 DUP4 ADD DUP5 PUSH2 0x4481 JUMP JUMPDEST SWAP9 SWAP8 POP POP POP POP POP POP POP POP JUMP JUMPDEST PUSH32 0x4F776E61626C653A206E6577206F776E657220697320746865207A65726F2061 PUSH1 0x0 DUP3 ADD MSTORE PUSH32 0x6464726573730000000000000000000000000000000000000000000000000000 PUSH1 0x20 DUP3 ADD MSTORE POP JUMP JUMPDEST PUSH1 0x0 PUSH2 0x5DDA PUSH1 0x26 DUP4 PUSH2 0x4771 JUMP JUMPDEST SWAP2 POP PUSH2 0x5DE5 DUP3 PUSH2 0x5D7E JUMP JUMPDEST PUSH1 0x40 DUP3 ADD SWAP1 POP SWAP2 SWAP1 POP JUMP JUMPDEST PUSH1 0x0 PUSH1 0x20 DUP3 ADD SWAP1 POP DUP2 DUP2 SUB PUSH1 0x0 DUP4 ADD MSTORE PUSH2 0x5E09 DUP2 PUSH2 0x5DCD JUMP JUMPDEST SWAP1 POP SWAP2 SWAP1 POP JUMP JUMPDEST PUSH32 0x4C6F616E20657874656E73696F6E206973206C696D6974656400000000000000 PUSH1 0x0 DUP3 ADD MSTORE POP JUMP JUMPDEST PUSH1 0x0 PUSH2 0x5E46 PUSH1 0x19 DUP4 PUSH2 0x4771 JUMP JUMPDEST SWAP2 POP PUSH2 0x5E51 DUP3 PUSH2 0x5E10 JUMP JUMPDEST PUSH1 0x20 DUP3 ADD SWAP1 POP SWAP2 SWAP1 POP JUMP JUMPDEST PUSH1 0x0 PUSH1 0x20 DUP3 ADD SWAP1 POP DUP2 DUP2 SUB PUSH1 0x0 DUP4 ADD MSTORE PUSH2 0x5E75 DUP2 PUSH2 0x5E39 JUMP JUMPDEST SWAP1 POP SWAP2 SWAP1 POP JUMP JUMPDEST PUSH1 0x0 PUSH1 0xA0 DUP3 ADD SWAP1 POP PUSH2 0x5E91 PUSH1 0x0 DUP4 ADD DUP9 PUSH2 0x4481 JUMP JUMPDEST PUSH2 0x5E9E PUSH1 0x20 DUP4 ADD DUP8 PUSH2 0x4481 JUMP JUMPDEST PUSH2 0x5EAB PUSH1 0x40 DUP4 ADD DUP7 PUSH2 0x4481 JUMP JUMPDEST PUSH2 0x5EB8 PUSH1 0x60 DUP4 ADD DUP6 PUSH2 0x4481 JUMP JUMPDEST PUSH2 0x5EC5 PUSH1 0x80 DUP4 ADD DUP5 PUSH2 0x4481 JUMP JUMPDEST SWAP7 SWAP6 POP POP POP POP POP POP JUMP JUMPDEST PUSH32 0x4E487B7100000000000000000000000000000000000000000000000000000000 PUSH1 0x0 MSTORE PUSH1 0x12 PUSH1 0x4 MSTORE PUSH1 0x24 PUSH1 0x0 REVERT JUMPDEST PUSH1 0x0 PUSH2 0x5F09 DUP3 PUSH2 0x42DE JUMP JUMPDEST SWAP2 POP PUSH2 0x5F14 DUP4 PUSH2 0x42DE JUMP JUMPDEST SWAP3 POP DUP3 PUSH2 0x5F24 JUMPI PUSH2 0x5F23 PUSH2 0x5ECF JUMP JUMPDEST JUMPDEST DUP3 DUP3 DIV SWAP1 POP SWAP3 SWAP2 POP POP JUMP JUMPDEST PUSH32 0x4E487B7100000000000000000000000000000000000000000000000000000000 PUSH1 0x0 MSTORE PUSH1 0x1 PUSH1 0x4 MSTORE PUSH1 0x24 PUSH1 0x0 REVERT JUMPDEST PUSH32 0x4F776E61626C653A2063616C6C6572206973206E6F7420746865206F776E6572 PUSH1 0x0 DUP3 ADD MSTORE POP JUMP JUMPDEST PUSH1 0x0 PUSH2 0x5F94 PUSH1 0x20 DUP4 PUSH2 0x4771 JUMP JUMPDEST SWAP2 POP PUSH2 0x5F9F DUP3 PUSH2 0x5F5E JUMP JUMPDEST PUSH1 0x20 DUP3 ADD SWAP1 POP SWAP2 SWAP1 POP JUMP JUMPDEST PUSH1 0x0 PUSH1 0x20 DUP3 ADD SWAP1 POP DUP2 DUP2 SUB PUSH1 0x0 DUP4 ADD MSTORE PUSH2 0x5FC3 DUP2 PUSH2 0x5F87 JUMP JUMPDEST SWAP1 POP SWAP2 SWAP1 POP JUMP INVALID LOG2 PUSH5 0x6970667358 0x22 SLT KECCAK256 0xC0 OR PUSH11 0xD3076361693FF68D644159 MSTORE XOR CODESIZE 0xAF PUSH11 0x7D34F43504F052804FC446 CALLDATALOAD SWAP7 PUSH5 0x736F6C6343 STOP ADDMOD MULMOD STOP CALLER "},"methodIdentifiers":{"TIME_DURATION()":"a48e84e3","_nftToLoanIds(address,uint256)":"3699e7d1","addToken(address,uint256,uint256,uint256,uint256,uint256,uint256)":"35c16bca","calculateFee(uint256,uint256,uint256)":"5357b989","deposit(address,uint256)":"47e7ef24","extendLoan(address,uint256,uint256)":"f56cc915","getLoanAgreement(address,uint256)":"19dbb6d2","getLoanId(address,uint256)":"11615d30","getTokenErc(address)":"0be369b4","liquidate(address,uint256)":"bcbaf487","listingsToken(address)":"25ae2393","loanAgreements(uint256)":"c8304dfb","missedPayment(address,uint256)":"9694268f","onERC721Received(address,address,uint256,bytes)":"150b7a02","owner()":"8da5cb5b","renounceOwnership()":"715018a6","repaiedEarly(address,uint256)":"29c7f9e0","repayLoan(address,uint256)":"93a595f5","requestLoan(address,uint256,address,uint256,uint256)":"b6805d20","setTime(uint256)":"3beb26c4","takeALoan(address,uint256,uint8)":"815083df","transferOwnership(address)":"f2fde38b","updateToken(address,uint256,uint256,uint256,uint256,uint256,uint256)":"bfd04a5d","withdraw(address,uint256)":"f3fef3a3"}}}}}