{
  "_format": "hh-sol-artifact-1",
  "contractName": "LendingToken",
  "sourceName": "contracts/LendingToken.sol",
  "abi": [
    {
      "anonymous": false,
      "inputs": [
        {
          "indexed": false,
          "internalType": "address",
          "name": "token",
          "type": "address"
        },
        {
          "indexed": false,
          "internalType": "string",
          "name": "symbol",
          "type": "string"
        },
        {
          "indexed": false,
          "internalType": "uint8",
          "name": "decimals",
          "type": "uint8"
        },
        {
          "indexed": false,
          "internalType": "uint256",
          "name": "interestRateNumerator",
          "type": "uint256"
        },
        {
          "indexed": false,
          "internalType": "uint256",
          "name": "interestRateDenominator",
          "type": "uint256"
        },
        {
          "indexed": false,
          "internalType": "uint256",
          "name": "extendedRateNumerator",
          "type": "uint256"
        },
        {
          "indexed": false,
          "internalType": "uint256",
          "name": "extendedRateDenominator",
          "type": "uint256"
        },
        {
          "indexed": false,
          "internalType": "uint256",
          "name": "earlyRateNumerator",
          "type": "uint256"
        },
        {
          "indexed": false,
          "internalType": "uint256",
          "name": "earlyRateDenominator",
          "type": "uint256"
        }
      ],
      "name": "AddTokenRate",
      "type": "event"
    },
    {
      "anonymous": false,
      "inputs": [
        {
          "indexed": false,
          "internalType": "uint256",
          "name": "loanId",
          "type": "uint256"
        },
        {
          "indexed": false,
          "internalType": "enum LendingToken.LoanState",
          "name": "state",
          "type": "uint8"
        },
        {
          "indexed": false,
          "internalType": "uint256",
          "name": "startDate",
          "type": "uint256"
        },
        {
          "indexed": false,
          "internalType": "uint256",
          "name": "dueDate",
          "type": "uint256"
        }
      ],
      "name": "LoanAcceptedOrRejected",
      "type": "event"
    },
    {
      "anonymous": false,
      "inputs": [
        {
          "indexed": false,
          "internalType": "uint256",
          "name": "loanId",
          "type": "uint256"
        },
        {
          "indexed": false,
          "internalType": "uint256",
          "name": "extendedAt",
          "type": "uint256"
        },
        {
          "indexed": false,
          "internalType": "uint256",
          "name": "extendedDuration",
          "type": "uint256"
        },
        {
          "indexed": false,
          "internalType": "uint256",
          "name": "extendFee",
          "type": "uint256"
        },
        {
          "indexed": false,
          "internalType": "uint256",
          "name": "dueDate",
          "type": "uint256"
        }
      ],
      "name": "LoanExtension",
      "type": "event"
    },
    {
      "anonymous": false,
      "inputs": [
        {
          "indexed": false,
          "internalType": "uint256",
          "name": "loanId",
          "type": "uint256"
        },
        {
          "indexed": false,
          "internalType": "enum LendingToken.LoanState",
          "name": "state",
          "type": "uint8"
        },
        {
          "indexed": false,
          "internalType": "uint256",
          "name": "currentTime",
          "type": "uint256"
        }
      ],
      "name": "LoanLiquidate",
      "type": "event"
    },
    {
      "anonymous": false,
      "inputs": [
        {
          "indexed": false,
          "internalType": "uint256",
          "name": "loanId",
          "type": "uint256"
        },
        {
          "indexed": false,
          "internalType": "enum LendingToken.LoanState",
          "name": "state",
          "type": "uint8"
        },
        {
          "indexed": false,
          "internalType": "uint256",
          "name": "repaiedAt",
          "type": "uint256"
        }
      ],
      "name": "LoanRepaied",
      "type": "event"
    },
    {
      "anonymous": false,
      "inputs": [
        {
          "indexed": false,
          "internalType": "uint256",
          "name": "loanId",
          "type": "uint256"
        },
        {
          "indexed": false,
          "internalType": "enum LendingToken.LoanState",
          "name": "state",
          "type": "uint8"
        },
        {
          "indexed": false,
          "internalType": "uint256",
          "name": "repaiedEarlyAt",
          "type": "uint256"
        },
        {
          "indexed": false,
          "internalType": "uint256",
          "name": "repaiedEarlyFee",
          "type": "uint256"
        }
      ],
      "name": "LoanRepaiedEarly",
      "type": "event"
    },
    {
      "anonymous": false,
      "inputs": [
        {
          "indexed": false,
          "internalType": "uint256",
          "name": "loanId",
          "type": "uint256"
        },
        {
          "indexed": false,
          "internalType": "address",
          "name": "borrower",
          "type": "address"
        },
        {
          "indexed": false,
          "internalType": "address",
          "name": "nft",
          "type": "address"
        },
        {
          "indexed": false,
          "internalType": "uint256",
          "name": "nftTokenId",
          "type": "uint256"
        },
        {
          "indexed": false,
          "internalType": "address",
          "name": "tokenAddr",
          "type": "address"
        },
        {
          "indexed": false,
          "internalType": "uint256",
          "name": "loanAmount",
          "type": "uint256"
        },
        {
          "indexed": false,
          "internalType": "uint256",
          "name": "payoffAmount",
          "type": "uint256"
        },
        {
          "indexed": false,
          "internalType": "uint256",
          "name": "loanDuration",
          "type": "uint256"
        },
        {
          "indexed": false,
          "internalType": "enum LendingToken.LoanState",
          "name": "state",
          "type": "uint8"
        },
        {
          "indexed": false,
          "internalType": "uint256",
          "name": "createdAt",
          "type": "uint256"
        }
      ],
      "name": "LoanRequest",
      "type": "event"
    },
    {
      "anonymous": false,
      "inputs": [
        {
          "indexed": true,
          "internalType": "address",
          "name": "previousOwner",
          "type": "address"
        },
        {
          "indexed": true,
          "internalType": "address",
          "name": "newOwner",
          "type": "address"
        }
      ],
      "name": "OwnershipTransferred",
      "type": "event"
    },
    {
      "anonymous": false,
      "inputs": [
        {
          "indexed": false,
          "internalType": "address",
          "name": "token",
          "type": "address"
        },
        {
          "indexed": false,
          "internalType": "uint256",
          "name": "amount",
          "type": "uint256"
        }
      ],
      "name": "TokenDeposit",
      "type": "event"
    },
    {
      "anonymous": false,
      "inputs": [
        {
          "indexed": false,
          "internalType": "address",
          "name": "token",
          "type": "address"
        },
        {
          "indexed": false,
          "internalType": "uint256",
          "name": "amount",
          "type": "uint256"
        }
      ],
      "name": "TokenWithdraw",
      "type": "event"
    },
    {
      "anonymous": false,
      "inputs": [
        {
          "indexed": false,
          "internalType": "address",
          "name": "tokenAddr",
          "type": "address"
        },
        {
          "indexed": false,
          "internalType": "uint256",
          "name": "interestRateNumerator",
          "type": "uint256"
        },
        {
          "indexed": false,
          "internalType": "uint256",
          "name": "interestRateDenominator",
          "type": "uint256"
        },
        {
          "indexed": false,
          "internalType": "uint256",
          "name": "extendedRateNumerator",
          "type": "uint256"
        },
        {
          "indexed": false,
          "internalType": "uint256",
          "name": "extendedRateDenominator",
          "type": "uint256"
        },
        {
          "indexed": false,
          "internalType": "uint256",
          "name": "earlyRateNumerator",
          "type": "uint256"
        },
        {
          "indexed": false,
          "internalType": "uint256",
          "name": "earlyRateDenominator",
          "type": "uint256"
        }
      ],
      "name": "UpdateTokenRate",
      "type": "event"
    },
    {
      "inputs": [],
      "name": "TIME_DURATION",
      "outputs": [
        {
          "internalType": "uint256",
          "name": "",
          "type": "uint256"
        }
      ],
      "stateMutability": "view",
      "type": "function"
    },
    {
      "inputs": [
        {
          "internalType": "address",
          "name": "",
          "type": "address"
        },
        {
          "internalType": "uint256",
          "name": "",
          "type": "uint256"
        }
      ],
      "name": "_nftToLoanIds",
      "outputs": [
        {
          "internalType": "uint256",
          "name": "",
          "type": "uint256"
        }
      ],
      "stateMutability": "view",
      "type": "function"
    },
    {
      "inputs": [
        {
          "internalType": "address",
          "name": "tokenAddr",
          "type": "address"
        },
        {
          "internalType": "uint256",
          "name": "interestRateNumerator",
          "type": "uint256"
        },
        {
          "internalType": "uint256",
          "name": "interestRateDenominator",
          "type": "uint256"
        },
        {
          "internalType": "uint256",
          "name": "extendedRateNumerator",
          "type": "uint256"
        },
        {
          "internalType": "uint256",
          "name": "extendedRateDenominator",
          "type": "uint256"
        },
        {
          "internalType": "uint256",
          "name": "earlyRateNumerator",
          "type": "uint256"
        },
        {
          "internalType": "uint256",
          "name": "earlyRateDenominator",
          "type": "uint256"
        }
      ],
      "name": "addToken",
      "outputs": [],
      "stateMutability": "nonpayable",
      "type": "function"
    },
    {
      "inputs": [
        {
          "internalType": "uint256",
          "name": "amount",
          "type": "uint256"
        },
        {
          "internalType": "uint256",
          "name": "num",
          "type": "uint256"
        },
        {
          "internalType": "uint256",
          "name": "de",
          "type": "uint256"
        }
      ],
      "name": "calculateFee",
      "outputs": [
        {
          "internalType": "uint256",
          "name": "",
          "type": "uint256"
        }
      ],
      "stateMutability": "pure",
      "type": "function"
    },
    {
      "inputs": [
        {
          "internalType": "uint256",
          "name": "amount",
          "type": "uint256"
        },
        {
          "internalType": "uint256",
          "name": "num",
          "type": "uint256"
        },
        {
          "internalType": "uint256",
          "name": "de",
          "type": "uint256"
        }
      ],
      "name": "calculateTotal",
      "outputs": [
        {
          "internalType": "uint256",
          "name": "",
          "type": "uint256"
        }
      ],
      "stateMutability": "pure",
      "type": "function"
    },
    {
      "inputs": [
        {
          "internalType": "address",
          "name": "token",
          "type": "address"
        },
        {
          "internalType": "uint256",
          "name": "amount",
          "type": "uint256"
        }
      ],
      "name": "deposit",
      "outputs": [],
      "stateMutability": "nonpayable",
      "type": "function"
    },
    {
      "inputs": [
        {
          "internalType": "address",
          "name": "nft",
          "type": "address"
        },
        {
          "internalType": "uint256",
          "name": "nftTokenId",
          "type": "uint256"
        },
        {
          "internalType": "uint256",
          "name": "extendedDuration",
          "type": "uint256"
        }
      ],
      "name": "extendLoan",
      "outputs": [],
      "stateMutability": "nonpayable",
      "type": "function"
    },
    {
      "inputs": [
        {
          "internalType": "address",
          "name": "nft",
          "type": "address"
        },
        {
          "internalType": "uint256",
          "name": "nftTokenId",
          "type": "uint256"
        }
      ],
      "name": "getLoanAgreement",
      "outputs": [
        {
          "components": [
            {
              "internalType": "address",
              "name": "borrower",
              "type": "address"
            },
            {
              "internalType": "address",
              "name": "nft",
              "type": "address"
            },
            {
              "internalType": "uint256",
              "name": "nftTokenId",
              "type": "uint256"
            },
            {
              "internalType": "address",
              "name": "token",
              "type": "address"
            },
            {
              "internalType": "uint256",
              "name": "loanAmount",
              "type": "uint256"
            },
            {
              "internalType": "uint256",
              "name": "payoffAmount",
              "type": "uint256"
            },
            {
              "internalType": "uint256",
              "name": "startDate",
              "type": "uint256"
            },
            {
              "internalType": "uint256",
              "name": "loanDuration",
              "type": "uint256"
            },
            {
              "internalType": "uint256",
              "name": "dueDate",
              "type": "uint256"
            },
            {
              "internalType": "enum LendingToken.LoanState",
              "name": "state",
              "type": "uint8"
            },
            {
              "internalType": "uint256",
              "name": "createdAt",
              "type": "uint256"
            }
          ],
          "internalType": "struct LendingToken.LoanAgreement",
          "name": "loanAgreement",
          "type": "tuple"
        }
      ],
      "stateMutability": "view",
      "type": "function"
    },
    {
      "inputs": [
        {
          "internalType": "address",
          "name": "nft",
          "type": "address"
        },
        {
          "internalType": "uint256",
          "name": "nftTokenId",
          "type": "uint256"
        }
      ],
      "name": "getLoanId",
      "outputs": [
        {
          "internalType": "uint256",
          "name": "",
          "type": "uint256"
        }
      ],
      "stateMutability": "view",
      "type": "function"
    },
    {
      "inputs": [
        {
          "internalType": "address",
          "name": "tokenAddr",
          "type": "address"
        }
      ],
      "name": "getTokenErc",
      "outputs": [
        {
          "components": [
            {
              "internalType": "address",
              "name": "seller",
              "type": "address"
            },
            {
              "internalType": "address",
              "name": "addr",
              "type": "address"
            },
            {
              "internalType": "string",
              "name": "symbol",
              "type": "string"
            },
            {
              "internalType": "uint8",
              "name": "decimals",
              "type": "uint8"
            },
            {
              "components": [
                {
                  "internalType": "uint256",
                  "name": "numerator",
                  "type": "uint256"
                },
                {
                  "internalType": "uint256",
                  "name": "denominator",
                  "type": "uint256"
                }
              ],
              "internalType": "struct LendingToken.Rational",
              "name": "interestRate",
              "type": "tuple"
            },
            {
              "components": [
                {
                  "internalType": "uint256",
                  "name": "numerator",
                  "type": "uint256"
                },
                {
                  "internalType": "uint256",
                  "name": "denominator",
                  "type": "uint256"
                }
              ],
              "internalType": "struct LendingToken.Rational",
              "name": "extendedRate",
              "type": "tuple"
            },
            {
              "components": [
                {
                  "internalType": "uint256",
                  "name": "numerator",
                  "type": "uint256"
                },
                {
                  "internalType": "uint256",
                  "name": "denominator",
                  "type": "uint256"
                }
              ],
              "internalType": "struct LendingToken.Rational",
              "name": "earlyRate",
              "type": "tuple"
            },
            {
              "internalType": "bool",
              "name": "exists",
              "type": "bool"
            }
          ],
          "internalType": "struct LendingToken.Token",
          "name": "token",
          "type": "tuple"
        }
      ],
      "stateMutability": "view",
      "type": "function"
    },
    {
      "inputs": [
        {
          "internalType": "address",
          "name": "nft",
          "type": "address"
        },
        {
          "internalType": "uint256",
          "name": "nftTokenId",
          "type": "uint256"
        }
      ],
      "name": "liquidate",
      "outputs": [],
      "stateMutability": "nonpayable",
      "type": "function"
    },
    {
      "inputs": [
        {
          "internalType": "address",
          "name": "",
          "type": "address"
        }
      ],
      "name": "listingsToken",
      "outputs": [
        {
          "internalType": "address",
          "name": "seller",
          "type": "address"
        },
        {
          "internalType": "address",
          "name": "addr",
          "type": "address"
        },
        {
          "internalType": "string",
          "name": "symbol",
          "type": "string"
        },
        {
          "internalType": "uint8",
          "name": "decimals",
          "type": "uint8"
        },
        {
          "components": [
            {
              "internalType": "uint256",
              "name": "numerator",
              "type": "uint256"
            },
            {
              "internalType": "uint256",
              "name": "denominator",
              "type": "uint256"
            }
          ],
          "internalType": "struct LendingToken.Rational",
          "name": "interestRate",
          "type": "tuple"
        },
        {
          "components": [
            {
              "internalType": "uint256",
              "name": "numerator",
              "type": "uint256"
            },
            {
              "internalType": "uint256",
              "name": "denominator",
              "type": "uint256"
            }
          ],
          "internalType": "struct LendingToken.Rational",
          "name": "extendedRate",
          "type": "tuple"
        },
        {
          "components": [
            {
              "internalType": "uint256",
              "name": "numerator",
              "type": "uint256"
            },
            {
              "internalType": "uint256",
              "name": "denominator",
              "type": "uint256"
            }
          ],
          "internalType": "struct LendingToken.Rational",
          "name": "earlyRate",
          "type": "tuple"
        },
        {
          "internalType": "bool",
          "name": "exists",
          "type": "bool"
        }
      ],
      "stateMutability": "view",
      "type": "function"
    },
    {
      "inputs": [
        {
          "internalType": "uint256",
          "name": "",
          "type": "uint256"
        }
      ],
      "name": "loanAgreements",
      "outputs": [
        {
          "internalType": "address",
          "name": "borrower",
          "type": "address"
        },
        {
          "internalType": "address",
          "name": "nft",
          "type": "address"
        },
        {
          "internalType": "uint256",
          "name": "nftTokenId",
          "type": "uint256"
        },
        {
          "internalType": "address",
          "name": "token",
          "type": "address"
        },
        {
          "internalType": "uint256",
          "name": "loanAmount",
          "type": "uint256"
        },
        {
          "internalType": "uint256",
          "name": "payoffAmount",
          "type": "uint256"
        },
        {
          "internalType": "uint256",
          "name": "startDate",
          "type": "uint256"
        },
        {
          "internalType": "uint256",
          "name": "loanDuration",
          "type": "uint256"
        },
        {
          "internalType": "uint256",
          "name": "dueDate",
          "type": "uint256"
        },
        {
          "internalType": "enum LendingToken.LoanState",
          "name": "state",
          "type": "uint8"
        },
        {
          "internalType": "uint256",
          "name": "createdAt",
          "type": "uint256"
        }
      ],
      "stateMutability": "view",
      "type": "function"
    },
    {
      "inputs": [
        {
          "internalType": "address",
          "name": "operator",
          "type": "address"
        },
        {
          "internalType": "address",
          "name": "from",
          "type": "address"
        },
        {
          "internalType": "uint256",
          "name": "tokenId",
          "type": "uint256"
        },
        {
          "internalType": "bytes",
          "name": "data",
          "type": "bytes"
        }
      ],
      "name": "onERC721Received",
      "outputs": [
        {
          "internalType": "bytes4",
          "name": "",
          "type": "bytes4"
        }
      ],
      "stateMutability": "nonpayable",
      "type": "function"
    },
    {
      "inputs": [],
      "name": "owner",
      "outputs": [
        {
          "internalType": "address",
          "name": "",
          "type": "address"
        }
      ],
      "stateMutability": "view",
      "type": "function"
    },
    {
      "inputs": [],
      "name": "renounceOwnership",
      "outputs": [],
      "stateMutability": "nonpayable",
      "type": "function"
    },
    {
      "inputs": [
        {
          "internalType": "address",
          "name": "nft",
          "type": "address"
        },
        {
          "internalType": "uint256",
          "name": "nftTokenId",
          "type": "uint256"
        }
      ],
      "name": "repaiedEarly",
      "outputs": [],
      "stateMutability": "nonpayable",
      "type": "function"
    },
    {
      "inputs": [
        {
          "internalType": "address",
          "name": "nft",
          "type": "address"
        },
        {
          "internalType": "uint256",
          "name": "nftTokenId",
          "type": "uint256"
        }
      ],
      "name": "repayLoan",
      "outputs": [],
      "stateMutability": "nonpayable",
      "type": "function"
    },
    {
      "inputs": [
        {
          "internalType": "address",
          "name": "nft",
          "type": "address"
        },
        {
          "internalType": "uint256",
          "name": "nftTokenId",
          "type": "uint256"
        },
        {
          "internalType": "address",
          "name": "tokenAddr",
          "type": "address"
        },
        {
          "internalType": "uint256",
          "name": "loanAmount",
          "type": "uint256"
        },
        {
          "internalType": "uint256",
          "name": "loanDuration",
          "type": "uint256"
        }
      ],
      "name": "requestLoan",
      "outputs": [],
      "stateMutability": "nonpayable",
      "type": "function"
    },
    {
      "inputs": [
        {
          "internalType": "uint256",
          "name": "time",
          "type": "uint256"
        }
      ],
      "name": "setTime",
      "outputs": [],
      "stateMutability": "nonpayable",
      "type": "function"
    },
    {
      "inputs": [
        {
          "internalType": "address",
          "name": "nft",
          "type": "address"
        },
        {
          "internalType": "uint256",
          "name": "nftTokenId",
          "type": "uint256"
        },
        {
          "internalType": "enum LendingToken.LoanState",
          "name": "state",
          "type": "uint8"
        }
      ],
      "name": "takeALoan",
      "outputs": [],
      "stateMutability": "nonpayable",
      "type": "function"
    },
    {
      "inputs": [
        {
          "internalType": "address",
          "name": "newOwner",
          "type": "address"
        }
      ],
      "name": "transferOwnership",
      "outputs": [],
      "stateMutability": "nonpayable",
      "type": "function"
    },
    {
      "inputs": [
        {
          "internalType": "address",
          "name": "tokenAddr",
          "type": "address"
        },
        {
          "internalType": "uint256",
          "name": "interestRateNumerator",
          "type": "uint256"
        },
        {
          "internalType": "uint256",
          "name": "interestRateDenominator",
          "type": "uint256"
        },
        {
          "internalType": "uint256",
          "name": "extendedRateNumerator",
          "type": "uint256"
        },
        {
          "internalType": "uint256",
          "name": "extendedRateDenominator",
          "type": "uint256"
        },
        {
          "internalType": "uint256",
          "name": "earlyRateNumerator",
          "type": "uint256"
        },
        {
          "internalType": "uint256",
          "name": "earlyRateDenominator",
          "type": "uint256"
        }
      ],
      "name": "updateToken",
      "outputs": [],
      "stateMutability": "nonpayable",
      "type": "function"
    },
    {
      "inputs": [
        {
          "internalType": "address",
          "name": "token",
          "type": "address"
        },
        {
          "internalType": "uint256",
          "name": "amount",
          "type": "uint256"
        }
      ],
      "name": "withdraw",
      "outputs": [],
      "stateMutability": "nonpayable",
      "type": "function"
    }
  ],
  "bytecode": "0x6080604052601e6002553480156200001657600080fd5b50620000223362000028565b62000078565b600080546001600160a01b038381166001600160a01b0319831681178455604051919092169283917f8be0079c531659141344cd1fd0a4f28419497f9722a3daafe3b4186f6b6457e09190a35050565b61340c80620000886000396000f3fe608060405234801561001057600080fd5b50600436106101585760003560e01c8063715018a6116100c3578063bcbaf4871161007c578063bcbaf48714610343578063bfd04a5d14610356578063c8304dfb14610369578063f2fde38b146103fa578063f3fef3a31461040d578063f56cc9151461042057600080fd5b8063715018a6146102de578063815083df146102e65780638da5cb5b146102f957806393a595f514610314578063a48e84e314610327578063b6805d201461033057600080fd5b806335c16bca1161011557806335c16bca146102545780633699e7d1146102675780633beb26c41461029257806347e7ef24146102a55780635357b989146102b85780635af20a83146102cb57600080fd5b80630be369b41461015d57806311615d3014610186578063150b7a02146101a757806319dbb6d2146101f857806325ae23931461021857806329c7f9e01461023f575b600080fd5b61017061016b366004612aa3565b610433565b60405161017d919061314c565b60405180910390f35b610199610194366004612b75565b61061f565b60405190815260200161017d565b6101df6101b5366004612adb565b7f150b7a023d4804d13e8c85fb27262cb750cf6ba9f9dd3bb30d90f482ceeb4b1f95945050505050565b6040516001600160e01b0319909116815260200161017d565b61020b610206366004612b75565b61068b565b60405161017d91906130a2565b61022b610226366004612aa3565b610899565b60405161017d989796959493929190612e38565b61025261024d366004612b75565b6109b6565b005b610252610262366004612c69565b610cd5565b610199610275366004612b75565b600360209081526000928352604080842090915290825290205481565b6102526102a0366004612d86565b6110b0565b6102526102b3366004612b75565b6110bd565b6101996102c6366004612d9e565b6111ff565b6101996102d9366004612d9e565b61122b565b610252611259565b6102526102f4366004612bf1565b61126d565b6000546040516001600160a01b03909116815260200161017d565b610252610322366004612b75565b611707565b61019960025481565b61025261033e366004612ba0565b6119f9565b610252610351366004612b75565b6120ee565b610252610364366004612c69565b6122c0565b6103e3610377366004612d86565b600460208190526000918252604090912080546001820154600283015460038401549484015460058501546006860154600787015460088801546009890154600a909901546001600160a01b039889169a978916999698909716969495939492939192909160ff16908b565b60405161017d9b9a99989796959493929190612ee6565b610252610408366004612aa3565b612454565b61025261041b366004612b75565b6124cd565b61025261042e366004612c35565b612605565b6104a6604080516101008101825260008082526020808301829052606083850181905283018290528351808501855282815280820183905260808401528351808501855282815280820183905260a084015283518085019094528184528301529060c08201908152600060209091015290565b336104cc5760405162461bcd60e51b81526004016104c390612fe7565b60405180910390fd5b6001600160a01b03808316600090815260056020908152604091829020825161010081018452815485168152600182015490941691840191909152600281018054919284019161051b9061335a565b80601f01602080910402602001604051908101604052809291908181526020018280546105479061335a565b80156105945780601f1061056957610100808354040283529160200191610594565b820191906000526020600020905b81548152906001019060200180831161057757829003601f168201915b5050509183525050600382015460ff9081166020808401919091526040805180820182526004860154815260058601548184015281850152805180820182526006860154815260078601548184015260608501528051808201909152600885015481526009850154918101919091526080830152600a90920154909116151560a09091015292915050565b6001600160a01b038216600090815260036020908152604080832084845290915281205461065f5760405162461bcd60e51b81526004016104c39061302a565b506001600160a01b03821660009081526003602090815260408083208484529091529020545b92915050565b610693612976565b336106b05760405162461bcd60e51b81526004016104c390612fe7565b6001600160a01b03831660009081526003602090815260408083208584529091529020546106f05760405162461bcd60e51b81526004016104c39061302a565b6001600160a01b03831660009081526003602090815260408083208584529091529020546107266000546001600160a01b031690565b6001600160a01b0316336001600160a01b0316148061075b57506000818152600460205260409020546001600160a01b031633145b6107b15760405162461bcd60e51b815260206004820152602160248201527f43616c6c6572206d757374206265206f776e6572206e6674206f722061646d696044820152603760f91b60648201526084016104c3565b60008181526004602081815260409283902083516101608101855281546001600160a01b03908116825260018301548116938201939093526002820154948101949094526003810154909116606084015290810154608083015260058082015460a0840152600682015460c0840152600782015460e08401526008820154610100840152600982015461012084019160ff9091169081111561086357634e487b7160e01b600052602160045260246000fd5b600581111561088257634e487b7160e01b600052602160045260246000fd5b8152602001600a8201548152505091505092915050565b6005602052600090815260409020805460018201546002830180546001600160a01b039384169492909316926108ce9061335a565b80601f01602080910402602001604051908101604052809291908181526020018280546108fa9061335a565b80156109475780601f1061091c57610100808354040283529160200191610947565b820191906000526020600020905b81548152906001019060200180831161092a57829003601f168201915b5050505060038301546040805180820182526004860154815260058601546020808301919091528251808401845260068801548152600788015481830152835180850190945260088801548452600988015491840191909152600a90960154949560ff93841695919450921688565b6001600160a01b03821660009081526003602090815260408083208484529091529020546109f65760405162461bcd60e51b81526004016104c39061302a565b6001600160a01b0382811660009081526003602090815260408083208584528252808320548084526004909252909120805491929091163314610a765760405162461bcd60e51b815260206004820152601860248201527710d85b1b195c881b5d5cdd081899481bdddb995c881b999d60421b60448201526064016104c3565b6002600982015460ff166005811115610a9f57634e487b7160e01b600052602160045260246000fd5b14610abc5760405162461bcd60e51b81526004016104c390612fb8565b60088101544290610ad1906201518090613313565b8110610b295760405162461bcd60e51b815260206004820152602160248201527f4561726c79206c69717569646174696f6e2074696d6520697320696e76616c696044820152601960fa1b60648201526084016104c3565b600482015460038301546001600160a01b0316600090815260056020908152604080832081518083019092526008810154825260090154918101919091529091610b7291612850565b600384015460048501549192506001600160a01b0316906323b872dd9033903090610b9d90866132bc565b6040518463ffffffff1660e01b8152600401610bbb93929190612ec2565b602060405180830381600087803b158015610bd557600080fd5b505af1158015610be9573d6000803e3d6000fd5b505050506040513d601f19601f82011682018060405250810190610c0d9190612cbd565b50600183015483546002850154604051632142170760e11b81526001600160a01b03938416936342842e0e93610c4c9330939290911691600401612ec2565b600060405180830381600087803b158015610c6657600080fd5b505af1158015610c7a573d6000803e3d6000fd5b5050505060098301805460ff191660049081179091556040517fffea83d119975b9ab264cb298ccda9a83f83f9a4ba8ba3bae0e9e449a5c38d6f91610cc59187919086908690613296565b60405180910390a1505050505050565b610cdd6128af565b6001600160a01b038716610d035760405162461bcd60e51b81526004016104c390613061565b6001600160a01b0387166000908152600560205260409020600a015460ff1615610d5f5760405162461bcd60e51b815260206004820152600d60248201526c151bdad95b88195e1a5cdd1959609a1b60448201526064016104c3565b600086118015610d6f5750600085115b8015610d7b5750600084115b8015610d875750600083115b8015610d935750600082115b8015610d9f5750600081115b610dde5760405162461bcd60e51b815260206004820152601060248201526f052617465206d757374206265203e20360841b60448201526064016104c3565b60006040518060400160405280888152602001878152509050600060405180604001604052808781526020018681525090506000604051806040016040528086815260200185815250905060008a6001600160a01b03166395d89b416040518163ffffffff1660e01b815260040160006040518083038186803b158015610e6457600080fd5b505afa158015610e78573d6000803e3d6000fd5b505050506040513d6000823e601f3d908101601f19168201604052610ea09190810190612cdd565b905060008b6001600160a01b031663313ce5676040518163ffffffff1660e01b815260040160206040518083038186803b158015610edd57600080fd5b505afa158015610ef1573d6000803e3d6000fd5b505050506040513d601f19601f82011682018060405250810190610f159190612dc9565b60408051610100810182523381526001600160a01b038f8116602080840182815284860189815260ff88166060870152608086018d905260a086018c905260c086018b9052600160e0870181905260009485526005845296909320855181549086166001600160a01b0319918216178255915196810180549790951696909116959095179092555180519495509193849392610fb8926002850192910190612a0a565b5060608201518160030160006101000a81548160ff021916908360ff1602179055506080820151816004016000820151816000015560208201518160010155505060a0820151816006016000820151816000015560208201518160010155505060c0820151816008016000820151816000015560208201518160010155505060e082015181600a0160006101000a81548160ff0219169083151502179055509050507fe4c4d61c208e86f9adea5be59f72850d1802d624b3f5a9d023469b2a81fb3a9b8d84848f8f8f8f8f8f60405161109999989796959493929190612f57565b60405180910390a150505050505050505050505050565b6110b86128af565b600255565b6110c56128af565b6001600160a01b0382166110eb5760405162461bcd60e51b81526004016104c390613061565b600081116111355760405162461bcd60e51b8152602060048201526017602482015276416d6f756e7420746f6b656e20697320746f6f206c6f7760481b60448201526064016104c3565b6040516323b872dd60e01b81526001600160a01b038316906323b872dd9061116590339030908690600401612ec2565b602060405180830381600087803b15801561117f57600080fd5b505af1158015611193573d6000803e3d6000fd5b505050506040513d601f19601f820116820180604052508101906111b79190612cbd565b50604080516001600160a01b0384168152602081018390527f20b3fc91390f6ceba342f697a9490734680fd3556633f40efa146f1dbe79d05f91015b60405180910390a15050565b6040805180820190915282815260208101829052600090816112218683612850565b9695505050505050565b60408051808201909152828152602081018290526000908161124d8683612850565b905061122186826132bc565b6112616128af565b61126b6000612909565b565b6112756128af565b6001600160a01b03831660009081526003602090815260408083208584529091529020546112b55760405162461bcd60e51b81526004016104c39061302a565b60018160058111156112d757634e487b7160e01b600052602160045260246000fd5b14806113025750600281600581111561130057634e487b7160e01b600052602160045260246000fd5b145b6113445760405162461bcd60e51b81526020600482015260136024820152721a5b9d985b1a59081cdd185d19481a5b9c1d5d606a1b60448201526064016104c3565b6001600160a01b038381166000908152600360209081526040808320868452825280832054808452600492839052928190206001810154600282015492516331a9108f60e11b815293840192909252929316908190636352211e9060240160206040518083038186803b1580156113ba57600080fd5b505afa1580156113ce573d6000803e3d6000fd5b505050506040513d601f19601f820116820180604052508101906113f29190612abf565b82546001600160a01b0390811691161461144e5760405162461bcd60e51b815260206004820152601a60248201527f426f72726f776572206d757374206265206f776e6572206e667400000000000060448201526064016104c3565b60038201546001600160a01b03166000600984015460ff16600581111561148557634e487b7160e01b600052602160045260246000fd5b146114c75760405162461bcd60e51b8152602060048201526012602482015271496e76616c6964204c6f616e20737461746560701b60448201526064016104c3565b60098301805486919060ff191660018360058111156114f657634e487b7160e01b600052602160045260246000fd5b02179055506007830154429060009061151290620151806132f4565b61151c90836132bc565b9050600287600581111561154057634e487b7160e01b600052602160045260246000fd5b141561169a57600685018290556008850181905584546002860154604051632142170760e11b81526001600160a01b03808816936342842e0e9361158d9391909216913091600401612ec2565b600060405180830381600087803b1580156115a757600080fd5b505af11580156115bb573d6000803e3d6000fd5b5050865460048089015460405163a9059cbb60e01b81526001600160a01b0393841692810192909252602482015260009350908616915063a9059cbb90604401602060405180830381600087803b15801561161557600080fd5b505af1158015611629573d6000803e3d6000fd5b505050506040513d601f19601f8201168201806040525081019061164d9190612cbd565b9050806116945760405162461bcd60e51b8152602060048201526015602482015274151bdad95b881d1c985b9cd9995c8819985a5b1959605a1b60448201526064016104c3565b506116bf565b6001600160a01b03891660009081526003602090815260408083208b84529091528120555b7f4cc556f6664640f451fdc3abfad3e41a2cd1fc739ff53b722b7376c235a71733868884846040516116f49493929190613296565b60405180910390a1505050505050505050565b6001600160a01b03821660009081526003602090815260408083208484529091529020546117475760405162461bcd60e51b81526004016104c39061302a565b6001600160a01b03828116600090815260036020908152604080832085845282528083205480845260049092529091208054919290911633146117cc5760405162461bcd60e51b815260206004820152601760248201527f43616c6c6572206d75737420626520626f72726f77657200000000000000000060448201526064016104c3565b6002600982015460ff1660058111156117f557634e487b7160e01b600052602160045260246000fd5b146118125760405162461bcd60e51b81526004016104c390612fb8565b600881015442908110801561183957506201518082600801546118359190613313565b8110155b61187e5760405162461bcd60e51b8152602060048201526016602482015275125b9d985b1a59081d1a5b59481c995c185e5b595b9d60521b60448201526064016104c3565b600382015460058301546040516323b872dd60e01b81526001600160a01b03909216916323b872dd916118b79133913091600401612ec2565b602060405180830381600087803b1580156118d157600080fd5b505af11580156118e5573d6000803e3d6000fd5b505050506040513d601f19601f820116820180604052508101906119099190612cbd565b50600182015482546002840154604051632142170760e11b81526001600160a01b03938416936342842e0e936119489330939290911691600401612ec2565b600060405180830381600087803b15801561196257600080fd5b505af1158015611976573d6000803e3d6000fd5b5050505060018201546001600160a01b03166000908152600360208181526040808420600287015485529091528083209290925560098401805460ff19168217905590517f78707ab4c079702301d623fc15df9d6eb85d349c3ea6066331a6562baa4cd40e916119ea918691908590613274565b60405180910390a15050505050565b33611a465760405162461bcd60e51b815260206004820152601a60248201527f43616c6c657220697320746865207a65726f206164647265737300000000000060448201526064016104c3565b6001600160a01b038516611a9c5760405162461bcd60e51b815260206004820152601f60248201527f4e6674206164647265737320697320746865207a65726f20616464726573730060448201526064016104c3565b6000546001600160a01b0316331415611af75760405162461bcd60e51b815260206004820152601b60248201527f43616c6c65722068617665206e6f7420746f2062652061646d696e000000000060448201526064016104c3565b6001600160a01b038516600090815260036020908152604080832087845290915290205415611b685760405162461bcd60e51b815260206004820152601a60248201527f4e465420686173207573657320617320636f6c6c61746572616c00000000000060448201526064016104c3565b60008211611bae5760405162461bcd60e51b8152602060048201526013602482015272125b9d985b1a59081b1bd85b88185b5bdd5b9d606a1b60448201526064016104c3565b6002548114611bf75760405162461bcd60e51b815260206004820152601560248201527434b73b30b634b2103637b0b710323ab930ba34b7b760591b60448201526064016104c3565b6040516331a9108f60e11b81526004810185905285906001600160a01b03821690636352211e9060240160206040518083038186803b158015611c3957600080fd5b505afa158015611c4d573d6000803e3d6000fd5b505050506040513d601f19601f82011682018060405250810190611c719190612abf565b6001600160a01b0316336001600160a01b031614611ccc5760405162461bcd60e51b815260206004820152601860248201527710d85b1b195c881b5d5cdd081899481bdddb995c881b999d60421b60448201526064016104c3565b60405163020604bf60e21b81526004810186905230906001600160a01b0383169063081812fc9060240160206040518083038186803b158015611d0e57600080fd5b505afa158015611d22573d6000803e3d6000fd5b505050506040513d601f19601f82011682018060405250810190611d469190612abf565b6001600160a01b031614611db15760405162461bcd60e51b815260206004820152602c60248201527f43616c6c657220646964206e6f7420617070726f766520666f72206e6674546f60448201526b35b2b724b2103a37b5b2b71760a11b60648201526084016104c3565b6001600160a01b03808516600090815260056020908152604080832081516101008101835281548616815260018201549095169285019290925260028201805493949391840191611e019061335a565b80601f0160208091040260200160405190810160405280929190818152602001828054611e2d9061335a565b8015611e7a5780601f10611e4f57610100808354040283529160200191611e7a565b820191906000526020600020905b815481529060010190602001808311611e5d57829003601f168201915b5050509183525050600382015460ff908116602080840191909152604080518082018252600486015481526005860154818401528185015280518082018252600686015481526007860154818401526060850152805180820190915260088501548152600985015491810191909152608080840191909152600a9093015416151560a090910152810151909150600090611f15908690612959565b905042611f26600180546001019055565b6000611f3160015490565b6001600160a01b03808c1660008181526003602090815260408083208f84528252808320869055805161016081018252338152918201939093529182018d9052918b166060820152608081018a905260a0810186905260c0810182905260e081018990526101008101829052919250906101208101828152602090810185905260008481526004808352604091829020845181546001600160a01b03199081166001600160a01b039283161783559486015160018084018054881692841692909217909155938601516002830155606086015160038301805490961691161790935560808401519083015560a083015160058084019190915560c0840151600684015560e08401516007840155610100840151600884015561012084015160098401805495965086959193909260ff1990921691849081111561208457634e487b7160e01b600052602160045260246000fd5b021790555061014082015181600a01559050507f0eb403bc00910e26137e0474bbb869873ce17b514d6605571661c46ed36b3fb582338d8d8d8d8a8e60008c6040516120d99a9998979695949392919061320d565b60405180910390a15050505050505050505050565b6120f66128af565b6001600160a01b03821660009081526003602090815260408083208484529091529020546121365760405162461bcd60e51b81526004016104c39061302a565b6001600160a01b038216600090815260036020908152604080832084845282528083205480845260049092529091206002600982015460ff16600581111561218e57634e487b7160e01b600052602160045260246000fd5b146121ab5760405162461bcd60e51b81526004016104c390612fb8565b6008810154429081116122005760405162461bcd60e51b815260206004820152601860248201527f496e76616c69642074696d65204c69717569646174696f6e000000000000000060448201526064016104c3565b60018201546001600160a01b03166342842e0e306122266000546001600160a01b031690565b85600201546040518463ffffffff1660e01b815260040161224993929190612ec2565b600060405180830381600087803b15801561226357600080fd5b505af1158015612277573d6000803e3d6000fd5b5050505060098201805460ff191660059081179091556040517f32e5ff6ed7defcd1227b3206b0ee7dfad0014a0aa1379113c505e079dea024c3916119ea918691908590613274565b6122c86128af565b6001600160a01b0387166000908152600560205260409020600a015460ff16151560011461232b5760405162461bcd60e51b815260206004820152601060248201526f151bdad95b881b5d5cdd08195e1a5cdd60821b60448201526064016104c3565b60008611801561233b5750600085115b80156123475750600084115b80156123535750600083115b801561235f5750600082115b801561236b5750600081115b6123aa5760405162461bcd60e51b815260206004820152601060248201526f052617465206d757374206265203e20360841b60448201526064016104c3565b6001600160a01b038716600081815260056020818152604092839020600481018b90559182018990556006820188905560078201879055600882018690556009820185905582519384528301899052908201879052606082018690526080820185905260a0820184905260c08201839052907f4712a776f4507790315ae66c18c7bfcfeff4c1a5480788047ccb96d24a98c1ab9060e0015b60405180910390a15050505050505050565b61245c6128af565b6001600160a01b0381166124c15760405162461bcd60e51b815260206004820152602660248201527f4f776e61626c653a206e6577206f776e657220697320746865207a65726f206160448201526564647265737360d01b60648201526084016104c3565b6124ca81612909565b50565b6124d56128af565b6001600160a01b0382166124fb5760405162461bcd60e51b81526004016104c390613061565b600081116125455760405162461bcd60e51b8152602060048201526017602482015276416d6f756e7420746f6b656e20697320746f6f206c6f7760481b60448201526064016104c3565b60405163a9059cbb60e01b8152336004820152602481018290526001600160a01b0383169063a9059cbb90604401602060405180830381600087803b15801561258d57600080fd5b505af11580156125a1573d6000803e3d6000fd5b505050506040513d601f19601f820116820180604052508101906125c59190612cbd565b50604080516001600160a01b0384168152602081018390527f68577e4d693c1b056a60bc4e39438810239a0bfe64869c4eb7e3baebb5f6563491016111f3565b6001600160a01b03831660009081526003602090815260408083208584529091529020546126455760405162461bcd60e51b81526004016104c39061302a565b60025481146126965760405162461bcd60e51b815260206004820152601960248201527f4c6f616e20657874656e73696f6e206973206c696d697465640000000000000060448201526064016104c3565b6001600160a01b038316600090815260036020908152604080832085845282528083205480845260049092529091206002600982015460ff1660058111156126ee57634e487b7160e01b600052602160045260246000fd5b1461270b5760405162461bcd60e51b81526004016104c390612fb8565b600481015460038201546001600160a01b031660009081526005602090815260408083208151808301909252600681015482526007015491810191909152909161275491612850565b60038301546040516323b872dd60e01b81529192506001600160a01b0316906323b872dd9061278b90339030908690600401612ec2565b602060405180830381600087803b1580156127a557600080fd5b505af11580156127b9573d6000803e3d6000fd5b505050506040513d601f19601f820116820180604052508101906127dd9190612cbd565b50600882015442906127f286620151806132f4565b6127fc90826132bc565b6008850181905560408051878152602081018590529081018890526060810185905260808101919091527fbeedae6c6c669cbdd40f471f452f6941be0f408deac94349f1f9a06bf8eae7c39060a001612442565b60008261285f57506000610685565b815160009061286e90856132f4565b835190915061287d85836132d4565b1461289857634e487b7160e01b600052600160045260246000fd5b60208301516128a790826132d4565b949350505050565b6000546001600160a01b0316331461126b5760405162461bcd60e51b815260206004820181905260248201527f4f776e61626c653a2063616c6c6572206973206e6f7420746865206f776e657260448201526064016104c3565b600080546001600160a01b038381166001600160a01b0319831681178455604051919092169283917f8be0079c531659141344cd1fd0a4f28419497f9722a3daafe3b4186f6b6457e09190a35050565b60006129658383612850565b61296f90846132bc565b9392505050565b60405180610160016040528060006001600160a01b0316815260200160006001600160a01b031681526020016000815260200160006001600160a01b031681526020016000815260200160008152602001600081526020016000815260200160008152602001600060058111156129fd57634e487b7160e01b600052602160045260246000fd5b8152602001600081525090565b828054612a169061335a565b90600052602060002090601f016020900481019282612a385760008555612a7e565b82601f10612a5157805160ff1916838001178555612a7e565b82800160010185558215612a7e579182015b82811115612a7e578251825591602001919060010190612a63565b50612a8a929150612a8e565b5090565b5b80821115612a8a5760008155600101612a8f565b600060208284031215612ab4578081fd5b813561296f816133c1565b600060208284031215612ad0578081fd5b815161296f816133c1565b600080600080600060808688031215612af2578081fd5b8535612afd816133c1565b94506020860135612b0d816133c1565b935060408601359250606086013567ffffffffffffffff80821115612b30578283fd5b818801915088601f830112612b43578283fd5b813581811115612b51578384fd5b896020828501011115612b62578384fd5b9699959850939650602001949392505050565b60008060408385031215612b87578182fd5b8235612b92816133c1565b946020939093013593505050565b600080600080600060a08688031215612bb7578081fd5b8535612bc2816133c1565b9450602086013593506040860135612bd9816133c1565b94979396509394606081013594506080013592915050565b600080600060608486031215612c05578283fd5b8335612c10816133c1565b925060208401359150604084013560068110612c2a578182fd5b809150509250925092565b600080600060608486031215612c49578283fd5b8335612c54816133c1565b95602085013595506040909401359392505050565b600080600080600080600060e0888a031215612c83578182fd5b8735612c8e816133c1565b9960208901359950604089013598606081013598506080810135975060a0810135965060c00135945092505050565b600060208284031215612cce578081fd5b8151801515811461296f578182fd5b600060208284031215612cee578081fd5b815167ffffffffffffffff80821115612d05578283fd5b818401915084601f830112612d18578283fd5b815181811115612d2a57612d2a6133ab565b604051601f8201601f19908116603f01168101908382118183101715612d5257612d526133ab565b81604052828152876020848701011115612d6a578586fd5b612d7b83602083016020880161332a565b979650505050505050565b600060208284031215612d97578081fd5b5035919050565b600080600060608486031215612db2578081fd5b505081359360208301359350604090920135919050565b600060208284031215612dda578081fd5b815160ff8116811461296f578182fd5b60068110612e0857634e487b7160e01b600052602160045260246000fd5b9052565b60008151808452612e2481602086016020860161332a565b601f01601f19169290920160200192915050565b6001600160a01b0389811682528816602082015261016060408201819052600090612e658382018a612e0c565b60ff8916606085015287516080850152602088015160a08501529150612e889050565b845160c0830152602085015160e0830152835161010083015260208401516101208301528215156101408301529998505050505050505050565b6001600160a01b039384168152919092166020820152604081019190915260600190565b6001600160a01b038c811682528b81166020830152604082018b9052891660608201526080810188905260a0810187905260c0810186905260e0810185905261010081018490526101608101612f40610120830185612dea565b826101408301529c9b505050505050505050505050565b6001600160a01b038a16815261012060208201819052600090612f7c8382018c612e0c565b60ff9a909a16604084015250506060810196909652608086019490945260a085019290925260c084015260e08301526101009091015292915050565b602080825260159082015274131bd85b881cdd185d19481a5cc81a5b9d985b1a59605a1b604082015260600190565b60208082526023908201527f61646472657373207a65726f206973206e6f7420612076616c6964206164647260408201526265737360e81b606082015260800190565b6020808252601d908201527f4e465420686173206e6f742075736520617320636f6c6c61746572616c000000604082015260600190565b60208082526021908201527f546f6b656e206164647265737320697320746865207a65726f206164647265736040820152607360f81b606082015260800190565b81516001600160a01b03168152610160810160208301516130ce60208401826001600160a01b03169052565b506040830151604083015260608301516130f360608401826001600160a01b03169052565b506080830151608083015260a083015160a083015260c083015160c083015260e083015160e08301526101008084015181840152506101208084015161313b82850182612dea565b505061014092830151919092015290565b602080825282516001600160a01b03168282015282015160009061317b60408401826001600160a01b03169052565b506040830151610160806060850152613198610180850183612e0c565b915060608501516131ae608086018260ff169052565b506080850151805160a0860152602081015160c08601525060a0850151805160e086015260208101516101008601525060c0850151805161012086015260208101516101408601525060e0850151801515858301525090949350505050565b8a81526001600160a01b038a811660208301528981166040830152606082018990528716608082015260a0810186905260c0810185905260e08101849052610140810161325e610100830185612dea565b826101208301529b9a5050505050505050505050565b838152606081016132886020830185612dea565b826040830152949350505050565b848152608081016132aa6020830186612dea565b60408201939093526060015292915050565b600082198211156132cf576132cf613395565b500190565b6000826132ef57634e487b7160e01b81526012600452602481fd5b500490565b600081600019048311821515161561330e5761330e613395565b500290565b60008282101561332557613325613395565b500390565b60005b8381101561334557818101518382015260200161332d565b83811115613354576000848401525b50505050565b600181811c9082168061336e57607f821691505b6020821081141561338f57634e487b7160e01b600052602260045260246000fd5b50919050565b634e487b7160e01b600052601160045260246000fd5b634e487b7160e01b600052604160045260246000fd5b6001600160a01b03811681146124ca57600080fdfea2646970667358221220132d5961efc9f67907e140f44ad45c959d7b1d7ed555a14a68fa0c1f89af3f7964736f6c63430008040033",
  "linkReferences": {},
  "deployedLinkReferences": {}
}