{"contracts/LendingToken.sol":{"LendingToken":{"abi":[{"anonymous":false,"inputs":[{"indexed":false,"internalType":"address","name":"token","type":"address"},{"indexed":false,"internalType":"string","name":"symbol","type":"string"},{"indexed":false,"internalType":"uint8","name":"decimals","type":"uint8"},{"indexed":false,"internalType":"uint256","name":"interestRateNumerator","type":"uint256"},{"indexed":false,"internalType":"uint256","name":"interestRateDenominator","type":"uint256"},{"indexed":false,"internalType":"uint256","name":"extendedRateNumerator","type":"uint256"},{"indexed":false,"internalType":"uint256","name":"extendedRateDenominator","type":"uint256"},{"indexed":false,"internalType":"uint256","name":"earlyRateNumerator","type":"uint256"},{"indexed":false,"internalType":"uint256","name":"earlyRateDenominator","type":"uint256"}],"name":"AddTokenRate","type":"event"},{"anonymous":false,"inputs":[{"indexed":false,"internalType":"uint256","name":"loanId","type":"uint256"},{"indexed":false,"internalType":"enum LendingToken.LoanState","name":"state","type":"uint8"},{"indexed":false,"internalType":"uint256","name":"startDate","type":"uint256"},{"indexed":false,"internalType":"uint256","name":"dueDate","type":"uint256"}],"name":"LoanAcceptedOrRejected","type":"event"},{"anonymous":false,"inputs":[{"indexed":false,"internalType":"uint256","name":"loanId","type":"uint256"},{"indexed":false,"internalType":"uint256","name":"extendedAt","type":"uint256"},{"indexed":false,"internalType":"uint256","name":"extendedDuration","type":"uint256"},{"indexed":false,"internalType":"uint256","name":"extendFee","type":"uint256"},{"indexed":false,"internalType":"uint256","name":"dueDate","type":"uint256"}],"name":"LoanExtension","type":"event"},{"anonymous":false,"inputs":[{"indexed":false,"internalType":"uint256","name":"loanId","type":"uint256"},{"indexed":false,"internalType":"enum LendingToken.LoanState","name":"state","type":"uint8"},{"indexed":false,"internalType":"uint256","name":"currentTime","type":"uint256"}],"name":"LoanLiquidate","type":"event"},{"anonymous":false,"inputs":[{"indexed":false,"internalType":"uint256","name":"loanId","type":"uint256"},{"indexed":false,"internalType":"enum LendingToken.LoanState","name":"state","type":"uint8"},{"indexed":false,"internalType":"uint256","name":"repaiedAt","type":"uint256"}],"name":"LoanRepaied","type":"event"},{"anonymous":false,"inputs":[{"indexed":false,"internalType":"uint256","name":"loanId","type":"uint256"},{"indexed":false,"internalType":"enum LendingToken.LoanState","name":"state","type":"uint8"},{"indexed":false,"internalType":"uint256","name":"repaiedEarlyAt","type":"uint256"},{"indexed":false,"internalType":"uint256","name":"repaiedEarlyFee","type":"uint256"}],"name":"LoanRepaiedEarly","type":"event"},{"anonymous":false,"inputs":[{"indexed":false,"internalType":"uint256","name":"loanId","type":"uint256"},{"indexed":false,"internalType":"address","name":"borrower","type":"address"},{"indexed":false,"internalType":"address","name":"nft","type":"address"},{"indexed":false,"internalType":"uint256","name":"nftTokenId","type":"uint256"},{"indexed":false,"internalType":"address","name":"tokenAddr","type":"address"},{"indexed":false,"internalType":"uint256","name":"loanAmount","type":"uint256"},{"indexed":false,"internalType":"uint256","name":"payoffAmount","type":"uint256"},{"indexed":false,"internalType":"uint256","name":"loanDuration","type":"uint256"},{"indexed":false,"internalType":"enum LendingToken.LoanState","name":"state","type":"uint8"},{"indexed":false,"internalType":"uint256","name":"createdAt","type":"uint256"}],"name":"LoanRequest","type":"event"},{"anonymous":false,"inputs":[{"indexed":true,"internalType":"address","name":"previousOwner","type":"address"},{"indexed":true,"internalType":"address","name":"newOwner","type":"address"}],"name":"OwnershipTransferred","type":"event"},{"anonymous":false,"inputs":[{"indexed":false,"internalType":"address","name":"token","type":"address"},{"indexed":false,"internalType":"uint256","name":"amount","type":"uint256"}],"name":"TokenDeposit","type":"event"},{"anonymous":false,"inputs":[{"indexed":false,"internalType":"address","name":"token","type":"address"},{"indexed":false,"internalType":"uint256","name":"amount","type":"uint256"}],"name":"TokenWithdraw","type":"event"},{"anonymous":false,"inputs":[{"indexed":false,"internalType":"address","name":"tokenAddr","type":"address"},{"indexed":false,"internalType":"uint256","name":"interestRateNumerator","type":"uint256"},{"indexed":false,"internalType":"uint256","name":"interestRateDenominator","type":"uint256"},{"indexed":false,"internalType":"uint256","name":"extendedRateNumerator","type":"uint256"},{"indexed":false,"internalType":"uint256","name":"extendedRateDenominator","type":"uint256"},{"indexed":false,"internalType":"uint256","name":"earlyRateNumerator","type":"uint256"},{"indexed":false,"internalType":"uint256","name":"earlyRateDenominator","type":"uint256"}],"name":"UpdateTokenRate","type":"event"},{"inputs":[],"name":"TIME_DURATION","outputs":[{"internalType":"uint256","name":"","type":"uint256"}],"stateMutability":"view","type":"function"},{"inputs":[{"internalType":"address","name":"","type":"address"},{"internalType":"uint256","name":"","type":"uint256"}],"name":"_nftToLoanIds","outputs":[{"internalType":"uint256","name":"","type":"uint256"}],"stateMutability":"view","type":"function"},{"inputs":[{"internalType":"address","name":"tokenAddr","type":"address"},{"internalType":"uint256","name":"interestRateNumerator","type":"uint256"},{"internalType":"uint256","name":"interestRateDenominator","type":"uint256"},{"internalType":"uint256","name":"extendedRateNumerator","type":"uint256"},{"internalType":"uint256","name":"extendedRateDenominator","type":"uint256"},{"internalType":"uint256","name":"earlyRateNumerator","type":"uint256"},{"internalType":"uint256","name":"earlyRateDenominator","type":"uint256"}],"name":"addToken","outputs":[],"stateMutability":"nonpayable","type":"function"},{"inputs":[{"internalType":"uint256","name":"amount","type":"uint256"},{"internalType":"uint256","name":"num","type":"uint256"},{"internalType":"uint256","name":"de","type":"uint256"}],"name":"calculateFee","outputs":[{"internalType":"uint256","name":"","type":"uint256"}],"stateMutability":"pure","type":"function"},{"inputs":[{"internalType":"uint256","name":"amount","type":"uint256"},{"internalType":"uint256","name":"num","type":"uint256"},{"internalType":"uint256","name":"de","type":"uint256"}],"name":"calculateTotal","outputs":[{"internalType":"uint256","name":"","type":"uint256"}],"stateMutability":"pure","type":"function"},{"inputs":[{"internalType":"address","name":"token","type":"address"},{"internalType":"uint256","name":"amount","type":"uint256"}],"name":"deposit","outputs":[],"stateMutability":"nonpayable","type":"function"},{"inputs":[{"internalType":"address","name":"nft","type":"address"},{"internalType":"uint256","name":"nftTokenId","type":"uint256"},{"internalType":"uint256","name":"extendedDuration","type":"uint256"}],"name":"extendLoan","outputs":[],"stateMutability":"nonpayable","type":"function"},{"inputs":[{"internalType":"address","name":"nft","type":"address"},{"internalType":"uint256","name":"nftTokenId","type":"uint256"}],"name":"getLoanAgreement","outputs":[{"components":[{"internalType":"address","name":"borrower","type":"address"},{"internalType":"address","name":"nft","type":"address"},{"internalType":"uint256","name":"nftTokenId","type":"uint256"},{"internalType":"address","name":"token","type":"address"},{"internalType":"uint256","name":"loanAmount","type":"uint256"},{"internalType":"uint256","name":"payoffAmount","type":"uint256"},{"internalType":"uint256","name":"startDate","type":"uint256"},{"internalType":"uint256","name":"loanDuration","type":"uint256"},{"internalType":"uint256","name":"dueDate","type":"uint256"},{"internalType":"enum LendingToken.LoanState","name":"state","type":"uint8"},{"internalType":"uint256","name":"createdAt","type":"uint256"}],"internalType":"struct LendingToken.LoanAgreement","name":"loanAgreement","type":"tuple"}],"stateMutability":"view","type":"function"},{"inputs":[{"internalType":"address","name":"nft","type":"address"},{"internalType":"uint256","name":"nftTokenId","type":"uint256"}],"name":"getLoanId","outputs":[{"internalType":"uint256","name":"","type":"uint256"}],"stateMutability":"view","type":"function"},{"inputs":[{"internalType":"address","name":"tokenAddr","type":"address"}],"name":"getTokenErc","outputs":[{"components":[{"internalType":"address","name":"seller","type":"address"},{"internalType":"address","name":"addr","type":"address"},{"internalType":"string","name":"symbol","type":"string"},{"internalType":"uint8","name":"decimals","type":"uint8"},{"components":[{"internalType":"uint256","name":"numerator","type":"uint256"},{"internalType":"uint256","name":"denominator","type":"uint256"}],"internalType":"struct LendingToken.Rational","name":"interestRate","type":"tuple"},{"components":[{"internalType":"uint256","name":"numerator","type":"uint256"},{"internalType":"uint256","name":"denominator","type":"uint256"}],"internalType":"struct LendingToken.Rational","name":"extendedRate","type":"tuple"},{"components":[{"internalType":"uint256","name":"numerator","type":"uint256"},{"internalType":"uint256","name":"denominator","type":"uint256"}],"internalType":"struct LendingToken.Rational","name":"earlyRate","type":"tuple"},{"internalType":"bool","name":"exists","type":"bool"}],"internalType":"struct LendingToken.Token","name":"token","type":"tuple"}],"stateMutability":"view","type":"function"},{"inputs":[{"internalType":"address","name":"nft","type":"address"},{"internalType":"uint256","name":"nftTokenId","type":"uint256"}],"name":"liquidate","outputs":[],"stateMutability":"nonpayable","type":"function"},{"inputs":[{"internalType":"address","name":"","type":"address"}],"name":"listingsToken","outputs":[{"internalType":"address","name":"seller","type":"address"},{"internalType":"address","name":"addr","type":"address"},{"internalType":"string","name":"symbol","type":"string"},{"internalType":"uint8","name":"decimals","type":"uint8"},{"components":[{"internalType":"uint256","name":"numerator","type":"uint256"},{"internalType":"uint256","name":"denominator","type":"uint256"}],"internalType":"struct LendingToken.Rational","name":"interestRate","type":"tuple"},{"components":[{"internalType":"uint256","name":"numerator","type":"uint256"},{"internalType":"uint256","name":"denominator","type":"uint256"}],"internalType":"struct LendingToken.Rational","name":"extendedRate","type":"tuple"},{"components":[{"internalType":"uint256","name":"numerator","type":"uint256"},{"internalType":"uint256","name":"denominator","type":"uint256"}],"internalType":"struct LendingToken.Rational","name":"earlyRate","type":"tuple"},{"internalType":"bool","name":"exists","type":"bool"}],"stateMutability":"view","type":"function"},{"inputs":[{"internalType":"uint256","name":"","type":"uint256"}],"name":"loanAgreements","outputs":[{"internalType":"address","name":"borrower","type":"address"},{"internalType":"address","name":"nft","type":"address"},{"internalType":"uint256","name":"nftTokenId","type":"uint256"},{"internalType":"address","name":"token","type":"address"},{"internalType":"uint256","name":"loanAmount","type":"uint256"},{"internalType":"uint256","name":"payoffAmount","type":"uint256"},{"internalType":"uint256","name":"startDate","type":"uint256"},{"internalType":"uint256","name":"loanDuration","type":"uint256"},{"internalType":"uint256","name":"dueDate","type":"uint256"},{"internalType":"enum LendingToken.LoanState","name":"state","type":"uint8"},{"internalType":"uint256","name":"createdAt","type":"uint256"}],"stateMutability":"view","type":"function"},{"inputs":[{"internalType":"address","name":"operator","type":"address"},{"internalType":"address","name":"from","type":"address"},{"internalType":"uint256","name":"tokenId","type":"uint256"},{"internalType":"bytes","name":"data","type":"bytes"}],"name":"onERC721Received","outputs":[{"internalType":"bytes4","name":"","type":"bytes4"}],"stateMutability":"nonpayable","type":"function"},{"inputs":[],"name":"owner","outputs":[{"internalType":"address","name":"","type":"address"}],"stateMutability":"view","type":"function"},{"inputs":[],"name":"renounceOwnership","outputs":[],"stateMutability":"nonpayable","type":"function"},{"inputs":[{"internalType":"address","name":"nft","type":"address"},{"internalType":"uint256","name":"nftTokenId","type":"uint256"}],"name":"repaiedEarly","outputs":[],"stateMutability":"nonpayable","type":"function"},{"inputs":[{"internalType":"address","name":"nft","type":"address"},{"internalType":"uint256","name":"nftTokenId","type":"uint256"}],"name":"repayLoan","outputs":[],"stateMutability":"nonpayable","type":"function"},{"inputs":[{"internalType":"address","name":"nft","type":"address"},{"internalType":"uint256","name":"nftTokenId","type":"uint256"},{"internalType":"address","name":"tokenAddr","type":"address"},{"internalType":"uint256","name":"loanAmount","type":"uint256"},{"internalType":"uint256","name":"loanDuration","type":"uint256"}],"name":"requestLoan","outputs":[],"stateMutability":"nonpayable","type":"function"},{"inputs":[{"internalType":"uint256","name":"time","type":"uint256"}],"name":"setTime","outputs":[],"stateMutability":"nonpayable","type":"function"},{"inputs":[{"internalType":"address","name":"nft","type":"address"},{"internalType":"uint256","name":"nftTokenId","type":"uint256"},{"internalType":"enum LendingToken.LoanState","name":"state","type":"uint8"}],"name":"takeALoan","outputs":[],"stateMutability":"nonpayable","type":"function"},{"inputs":[{"internalType":"address","name":"newOwner","type":"address"}],"name":"transferOwnership","outputs":[],"stateMutability":"nonpayable","type":"function"},{"inputs":[{"internalType":"address","name":"tokenAddr","type":"address"},{"internalType":"uint256","name":"interestRateNumerator","type":"uint256"},{"internalType":"uint256","name":"interestRateDenominator","type":"uint256"},{"internalType":"uint256","name":"extendedRateNumerator","type":"uint256"},{"internalType":"uint256","name":"extendedRateDenominator","type":"uint256"},{"internalType":"uint256","name":"earlyRateNumerator","type":"uint256"},{"internalType":"uint256","name":"earlyRateDenominator","type":"uint256"}],"name":"updateToken","outputs":[],"stateMutability":"nonpayable","type":"function"},{"inputs":[{"internalType":"address","name":"token","type":"address"},{"internalType":"uint256","name":"amount","type":"uint256"}],"name":"withdraw","outputs":[],"stateMutability":"nonpayable","type":"function"}],"evm":{"bytecode":{"linkReferences":{},"object":"6080604052601e6002553480156200001657600080fd5b50620000223362000028565b62000078565b600080546001600160a01b038381166001600160a01b0319831681178455604051919092169283917f8be0079c531659141344cd1fd0a4f28419497f9722a3daafe3b4186f6b6457e09190a35050565b61340c80620000886000396000f3fe608060405234801561001057600080fd5b50600436106101585760003560e01c8063715018a6116100c3578063bcbaf4871161007c578063bcbaf48714610343578063bfd04a5d14610356578063c8304dfb14610369578063f2fde38b146103fa578063f3fef3a31461040d578063f56cc9151461042057600080fd5b8063715018a6146102de578063815083df146102e65780638da5cb5b146102f957806393a595f514610314578063a48e84e314610327578063b6805d201461033057600080fd5b806335c16bca1161011557806335c16bca146102545780633699e7d1146102675780633beb26c41461029257806347e7ef24146102a55780635357b989146102b85780635af20a83146102cb57600080fd5b80630be369b41461015d57806311615d3014610186578063150b7a02146101a757806319dbb6d2146101f857806325ae23931461021857806329c7f9e01461023f575b600080fd5b61017061016b366004612aa3565b610433565b60405161017d919061314c565b60405180910390f35b610199610194366004612b75565b61061f565b60405190815260200161017d565b6101df6101b5366004612adb565b7f150b7a023d4804d13e8c85fb27262cb750cf6ba9f9dd3bb30d90f482ceeb4b1f95945050505050565b6040516001600160e01b0319909116815260200161017d565b61020b610206366004612b75565b61068b565b60405161017d91906130a2565b61022b610226366004612aa3565b610899565b60405161017d989796959493929190612e38565b61025261024d366004612b75565b6109b6565b005b610252610262366004612c69565b610cd5565b610199610275366004612b75565b600360209081526000928352604080842090915290825290205481565b6102526102a0366004612d86565b6110b0565b6102526102b3366004612b75565b6110bd565b6101996102c6366004612d9e565b6111ff565b6101996102d9366004612d9e565b61122b565b610252611259565b6102526102f4366004612bf1565b61126d565b6000546040516001600160a01b03909116815260200161017d565b610252610322366004612b75565b611707565b61019960025481565b61025261033e366004612ba0565b6119f9565b610252610351366004612b75565b6120ee565b610252610364366004612c69565b6122c0565b6103e3610377366004612d86565b600460208190526000918252604090912080546001820154600283015460038401549484015460058501546006860154600787015460088801546009890154600a909901546001600160a01b039889169a978916999698909716969495939492939192909160ff16908b565b60405161017d9b9a99989796959493929190612ee6565b610252610408366004612aa3565b612454565b61025261041b366004612b75565b6124cd565b61025261042e366004612c35565b612605565b6104a6604080516101008101825260008082526020808301829052606083850181905283018290528351808501855282815280820183905260808401528351808501855282815280820183905260a084015283518085019094528184528301529060c08201908152600060209091015290565b336104cc5760405162461bcd60e51b81526004016104c390612fe7565b60405180910390fd5b6001600160a01b03808316600090815260056020908152604091829020825161010081018452815485168152600182015490941691840191909152600281018054919284019161051b9061335a565b80601f01602080910402602001604051908101604052809291908181526020018280546105479061335a565b80156105945780601f1061056957610100808354040283529160200191610594565b820191906000526020600020905b81548152906001019060200180831161057757829003601f168201915b5050509183525050600382015460ff9081166020808401919091526040805180820182526004860154815260058601548184015281850152805180820182526006860154815260078601548184015260608501528051808201909152600885015481526009850154918101919091526080830152600a90920154909116151560a09091015292915050565b6001600160a01b038216600090815260036020908152604080832084845290915281205461065f5760405162461bcd60e51b81526004016104c39061302a565b506001600160a01b03821660009081526003602090815260408083208484529091529020545b92915050565b610693612976565b336106b05760405162461bcd60e51b81526004016104c390612fe7565b6001600160a01b03831660009081526003602090815260408083208584529091529020546106f05760405162461bcd60e51b81526004016104c39061302a565b6001600160a01b03831660009081526003602090815260408083208584529091529020546107266000546001600160a01b031690565b6001600160a01b0316336001600160a01b0316148061075b57506000818152600460205260409020546001600160a01b031633145b6107b15760405162461bcd60e51b815260206004820152602160248201527f43616c6c6572206d757374206265206f776e6572206e6674206f722061646d696044820152603760f91b60648201526084016104c3565b60008181526004602081815260409283902083516101608101855281546001600160a01b03908116825260018301548116938201939093526002820154948101949094526003810154909116606084015290810154608083015260058082015460a0840152600682015460c0840152600782015460e08401526008820154610100840152600982015461012084019160ff9091169081111561086357634e487b7160e01b600052602160045260246000fd5b600581111561088257634e487b7160e01b600052602160045260246000fd5b8152602001600a8201548152505091505092915050565b6005602052600090815260409020805460018201546002830180546001600160a01b039384169492909316926108ce9061335a565b80601f01602080910402602001604051908101604052809291908181526020018280546108fa9061335a565b80156109475780601f1061091c57610100808354040283529160200191610947565b820191906000526020600020905b81548152906001019060200180831161092a57829003601f168201915b5050505060038301546040805180820182526004860154815260058601546020808301919091528251808401845260068801548152600788015481830152835180850190945260088801548452600988015491840191909152600a90960154949560ff93841695919450921688565b6001600160a01b03821660009081526003602090815260408083208484529091529020546109f65760405162461bcd60e51b81526004016104c39061302a565b6001600160a01b0382811660009081526003602090815260408083208584528252808320548084526004909252909120805491929091163314610a765760405162461bcd60e51b815260206004820152601860248201527710d85b1b195c881b5d5cdd081899481bdddb995c881b999d60421b60448201526064016104c3565b6002600982015460ff166005811115610a9f57634e487b7160e01b600052602160045260246000fd5b14610abc5760405162461bcd60e51b81526004016104c390612fb8565b60088101544290610ad1906201518090613313565b8110610b295760405162461bcd60e51b815260206004820152602160248201527f4561726c79206c69717569646174696f6e2074696d6520697320696e76616c696044820152601960fa1b60648201526084016104c3565b600482015460038301546001600160a01b0316600090815260056020908152604080832081518083019092526008810154825260090154918101919091529091610b7291612850565b600384015460048501549192506001600160a01b0316906323b872dd9033903090610b9d90866132bc565b6040518463ffffffff1660e01b8152600401610bbb93929190612ec2565b602060405180830381600087803b158015610bd557600080fd5b505af1158015610be9573d6000803e3d6000fd5b505050506040513d601f19601f82011682018060405250810190610c0d9190612cbd565b50600183015483546002850154604051632142170760e11b81526001600160a01b03938416936342842e0e93610c4c9330939290911691600401612ec2565b600060405180830381600087803b158015610c6657600080fd5b505af1158015610c7a573d6000803e3d6000fd5b5050505060098301805460ff191660049081179091556040517fffea83d119975b9ab264cb298ccda9a83f83f9a4ba8ba3bae0e9e449a5c38d6f91610cc59187919086908690613296565b60405180910390a1505050505050565b610cdd6128af565b6001600160a01b038716610d035760405162461bcd60e51b81526004016104c390613061565b6001600160a01b0387166000908152600560205260409020600a015460ff1615610d5f5760405162461bcd60e51b815260206004820152600d60248201526c151bdad95b88195e1a5cdd1959609a1b60448201526064016104c3565b600086118015610d6f5750600085115b8015610d7b5750600084115b8015610d875750600083115b8015610d935750600082115b8015610d9f5750600081115b610dde5760405162461bcd60e51b815260206004820152601060248201526f052617465206d757374206265203e20360841b60448201526064016104c3565b60006040518060400160405280888152602001878152509050600060405180604001604052808781526020018681525090506000604051806040016040528086815260200185815250905060008a6001600160a01b03166395d89b416040518163ffffffff1660e01b815260040160006040518083038186803b158015610e6457600080fd5b505afa158015610e78573d6000803e3d6000fd5b505050506040513d6000823e601f3d908101601f19168201604052610ea09190810190612cdd565b905060008b6001600160a01b031663313ce5676040518163ffffffff1660e01b815260040160206040518083038186803b158015610edd57600080fd5b505afa158015610ef1573d6000803e3d6000fd5b505050506040513d601f19601f82011682018060405250810190610f159190612dc9565b60408051610100810182523381526001600160a01b038f8116602080840182815284860189815260ff88166060870152608086018d905260a086018c905260c086018b9052600160e0870181905260009485526005845296909320855181549086166001600160a01b0319918216178255915196810180549790951696909116959095179092555180519495509193849392610fb8926002850192910190612a0a565b5060608201518160030160006101000a81548160ff021916908360ff1602179055506080820151816004016000820151816000015560208201518160010155505060a0820151816006016000820151816000015560208201518160010155505060c0820151816008016000820151816000015560208201518160010155505060e082015181600a0160006101000a81548160ff0219169083151502179055509050507fe4c4d61c208e86f9adea5be59f72850d1802d624b3f5a9d023469b2a81fb3a9b8d84848f8f8f8f8f8f60405161109999989796959493929190612f57565b60405180910390a150505050505050505050505050565b6110b86128af565b600255565b6110c56128af565b6001600160a01b0382166110eb5760405162461bcd60e51b81526004016104c390613061565b600081116111355760405162461bcd60e51b8152602060048201526017602482015276416d6f756e7420746f6b656e20697320746f6f206c6f7760481b60448201526064016104c3565b6040516323b872dd60e01b81526001600160a01b038316906323b872dd9061116590339030908690600401612ec2565b602060405180830381600087803b15801561117f57600080fd5b505af1158015611193573d6000803e3d6000fd5b505050506040513d601f19601f820116820180604052508101906111b79190612cbd565b50604080516001600160a01b0384168152602081018390527f20b3fc91390f6ceba342f697a9490734680fd3556633f40efa146f1dbe79d05f91015b60405180910390a15050565b6040805180820190915282815260208101829052600090816112218683612850565b9695505050505050565b60408051808201909152828152602081018290526000908161124d8683612850565b905061122186826132bc565b6112616128af565b61126b6000612909565b565b6112756128af565b6001600160a01b03831660009081526003602090815260408083208584529091529020546112b55760405162461bcd60e51b81526004016104c39061302a565b60018160058111156112d757634e487b7160e01b600052602160045260246000fd5b14806113025750600281600581111561130057634e487b7160e01b600052602160045260246000fd5b145b6113445760405162461bcd60e51b81526020600482015260136024820152721a5b9d985b1a59081cdd185d19481a5b9c1d5d606a1b60448201526064016104c3565b6001600160a01b038381166000908152600360209081526040808320868452825280832054808452600492839052928190206001810154600282015492516331a9108f60e11b815293840192909252929316908190636352211e9060240160206040518083038186803b1580156113ba57600080fd5b505afa1580156113ce573d6000803e3d6000fd5b505050506040513d601f19601f820116820180604052508101906113f29190612abf565b82546001600160a01b0390811691161461144e5760405162461bcd60e51b815260206004820152601a60248201527f426f72726f776572206d757374206265206f776e6572206e667400000000000060448201526064016104c3565b60038201546001600160a01b03166000600984015460ff16600581111561148557634e487b7160e01b600052602160045260246000fd5b146114c75760405162461bcd60e51b8152602060048201526012602482015271496e76616c6964204c6f616e20737461746560701b60448201526064016104c3565b60098301805486919060ff191660018360058111156114f657634e487b7160e01b600052602160045260246000fd5b02179055506007830154429060009061151290620151806132f4565b61151c90836132bc565b9050600287600581111561154057634e487b7160e01b600052602160045260246000fd5b141561169a57600685018290556008850181905584546002860154604051632142170760e11b81526001600160a01b03808816936342842e0e9361158d9391909216913091600401612ec2565b600060405180830381600087803b1580156115a757600080fd5b505af11580156115bb573d6000803e3d6000fd5b5050865460048089015460405163a9059cbb60e01b81526001600160a01b0393841692810192909252602482015260009350908616915063a9059cbb90604401602060405180830381600087803b15801561161557600080fd5b505af1158015611629573d6000803e3d6000fd5b505050506040513d601f19601f8201168201806040525081019061164d9190612cbd565b9050806116945760405162461bcd60e51b8152602060048201526015602482015274151bdad95b881d1c985b9cd9995c8819985a5b1959605a1b60448201526064016104c3565b506116bf565b6001600160a01b03891660009081526003602090815260408083208b84529091528120555b7f4cc556f6664640f451fdc3abfad3e41a2cd1fc739ff53b722b7376c235a71733868884846040516116f49493929190613296565b60405180910390a1505050505050505050565b6001600160a01b03821660009081526003602090815260408083208484529091529020546117475760405162461bcd60e51b81526004016104c39061302a565b6001600160a01b03828116600090815260036020908152604080832085845282528083205480845260049092529091208054919290911633146117cc5760405162461bcd60e51b815260206004820152601760248201527f43616c6c6572206d75737420626520626f72726f77657200000000000000000060448201526064016104c3565b6002600982015460ff1660058111156117f557634e487b7160e01b600052602160045260246000fd5b146118125760405162461bcd60e51b81526004016104c390612fb8565b600881015442908110801561183957506201518082600801546118359190613313565b8110155b61187e5760405162461bcd60e51b8152602060048201526016602482015275125b9d985b1a59081d1a5b59481c995c185e5b595b9d60521b60448201526064016104c3565b600382015460058301546040516323b872dd60e01b81526001600160a01b03909216916323b872dd916118b79133913091600401612ec2565b602060405180830381600087803b1580156118d157600080fd5b505af11580156118e5573d6000803e3d6000fd5b505050506040513d601f19601f820116820180604052508101906119099190612cbd565b50600182015482546002840154604051632142170760e11b81526001600160a01b03938416936342842e0e936119489330939290911691600401612ec2565b600060405180830381600087803b15801561196257600080fd5b505af1158015611976573d6000803e3d6000fd5b5050505060018201546001600160a01b03166000908152600360208181526040808420600287015485529091528083209290925560098401805460ff19168217905590517f78707ab4c079702301d623fc15df9d6eb85d349c3ea6066331a6562baa4cd40e916119ea918691908590613274565b60405180910390a15050505050565b33611a465760405162461bcd60e51b815260206004820152601a60248201527f43616c6c657220697320746865207a65726f206164647265737300000000000060448201526064016104c3565b6001600160a01b038516611a9c5760405162461bcd60e51b815260206004820152601f60248201527f4e6674206164647265737320697320746865207a65726f20616464726573730060448201526064016104c3565b6000546001600160a01b0316331415611af75760405162461bcd60e51b815260206004820152601b60248201527f43616c6c65722068617665206e6f7420746f2062652061646d696e000000000060448201526064016104c3565b6001600160a01b038516600090815260036020908152604080832087845290915290205415611b685760405162461bcd60e51b815260206004820152601a60248201527f4e465420686173207573657320617320636f6c6c61746572616c00000000000060448201526064016104c3565b60008211611bae5760405162461bcd60e51b8152602060048201526013602482015272125b9d985b1a59081b1bd85b88185b5bdd5b9d606a1b60448201526064016104c3565b6002548114611bf75760405162461bcd60e51b815260206004820152601560248201527434b73b30b634b2103637b0b710323ab930ba34b7b760591b60448201526064016104c3565b6040516331a9108f60e11b81526004810185905285906001600160a01b03821690636352211e9060240160206040518083038186803b158015611c3957600080fd5b505afa158015611c4d573d6000803e3d6000fd5b505050506040513d601f19601f82011682018060405250810190611c719190612abf565b6001600160a01b0316336001600160a01b031614611ccc5760405162461bcd60e51b815260206004820152601860248201527710d85b1b195c881b5d5cdd081899481bdddb995c881b999d60421b60448201526064016104c3565b60405163020604bf60e21b81526004810186905230906001600160a01b0383169063081812fc9060240160206040518083038186803b158015611d0e57600080fd5b505afa158015611d22573d6000803e3d6000fd5b505050506040513d601f19601f82011682018060405250810190611d469190612abf565b6001600160a01b031614611db15760405162461bcd60e51b815260206004820152602c60248201527f43616c6c657220646964206e6f7420617070726f766520666f72206e6674546f60448201526b35b2b724b2103a37b5b2b71760a11b60648201526084016104c3565b6001600160a01b03808516600090815260056020908152604080832081516101008101835281548616815260018201549095169285019290925260028201805493949391840191611e019061335a565b80601f0160208091040260200160405190810160405280929190818152602001828054611e2d9061335a565b8015611e7a5780601f10611e4f57610100808354040283529160200191611e7a565b820191906000526020600020905b815481529060010190602001808311611e5d57829003601f168201915b5050509183525050600382015460ff908116602080840191909152604080518082018252600486015481526005860154818401528185015280518082018252600686015481526007860154818401526060850152805180820190915260088501548152600985015491810191909152608080840191909152600a9093015416151560a090910152810151909150600090611f15908690612959565b905042611f26600180546001019055565b6000611f3160015490565b6001600160a01b03808c1660008181526003602090815260408083208f84528252808320869055805161016081018252338152918201939093529182018d9052918b166060820152608081018a905260a0810186905260c0810182905260e081018990526101008101829052919250906101208101828152602090810185905260008481526004808352604091829020845181546001600160a01b03199081166001600160a01b039283161783559486015160018084018054881692841692909217909155938601516002830155606086015160038301805490961691161790935560808401519083015560a083015160058084019190915560c0840151600684015560e08401516007840155610100840151600884015561012084015160098401805495965086959193909260ff1990921691849081111561208457634e487b7160e01b600052602160045260246000fd5b021790555061014082015181600a01559050507f0eb403bc00910e26137e0474bbb869873ce17b514d6605571661c46ed36b3fb582338d8d8d8d8a8e60008c6040516120d99a9998979695949392919061320d565b60405180910390a15050505050505050505050565b6120f66128af565b6001600160a01b03821660009081526003602090815260408083208484529091529020546121365760405162461bcd60e51b81526004016104c39061302a565b6001600160a01b038216600090815260036020908152604080832084845282528083205480845260049092529091206002600982015460ff16600581111561218e57634e487b7160e01b600052602160045260246000fd5b146121ab5760405162461bcd60e51b81526004016104c390612fb8565b6008810154429081116122005760405162461bcd60e51b815260206004820152601860248201527f496e76616c69642074696d65204c69717569646174696f6e000000000000000060448201526064016104c3565b60018201546001600160a01b03166342842e0e306122266000546001600160a01b031690565b85600201546040518463ffffffff1660e01b815260040161224993929190612ec2565b600060405180830381600087803b15801561226357600080fd5b505af1158015612277573d6000803e3d6000fd5b5050505060098201805460ff191660059081179091556040517f32e5ff6ed7defcd1227b3206b0ee7dfad0014a0aa1379113c505e079dea024c3916119ea918691908590613274565b6122c86128af565b6001600160a01b0387166000908152600560205260409020600a015460ff16151560011461232b5760405162461bcd60e51b815260206004820152601060248201526f151bdad95b881b5d5cdd08195e1a5cdd60821b60448201526064016104c3565b60008611801561233b5750600085115b80156123475750600084115b80156123535750600083115b801561235f5750600082115b801561236b5750600081115b6123aa5760405162461bcd60e51b815260206004820152601060248201526f052617465206d757374206265203e20360841b60448201526064016104c3565b6001600160a01b038716600081815260056020818152604092839020600481018b90559182018990556006820188905560078201879055600882018690556009820185905582519384528301899052908201879052606082018690526080820185905260a0820184905260c08201839052907f4712a776f4507790315ae66c18c7bfcfeff4c1a5480788047ccb96d24a98c1ab9060e0015b60405180910390a15050505050505050565b61245c6128af565b6001600160a01b0381166124c15760405162461bcd60e51b815260206004820152602660248201527f4f776e61626c653a206e6577206f776e657220697320746865207a65726f206160448201526564647265737360d01b60648201526084016104c3565b6124ca81612909565b50565b6124d56128af565b6001600160a01b0382166124fb5760405162461bcd60e51b81526004016104c390613061565b600081116125455760405162461bcd60e51b8152602060048201526017602482015276416d6f756e7420746f6b656e20697320746f6f206c6f7760481b60448201526064016104c3565b60405163a9059cbb60e01b8152336004820152602481018290526001600160a01b0383169063a9059cbb90604401602060405180830381600087803b15801561258d57600080fd5b505af11580156125a1573d6000803e3d6000fd5b505050506040513d601f19601f820116820180604052508101906125c59190612cbd565b50604080516001600160a01b0384168152602081018390527f68577e4d693c1b056a60bc4e39438810239a0bfe64869c4eb7e3baebb5f6563491016111f3565b6001600160a01b03831660009081526003602090815260408083208584529091529020546126455760405162461bcd60e51b81526004016104c39061302a565b60025481146126965760405162461bcd60e51b815260206004820152601960248201527f4c6f616e20657874656e73696f6e206973206c696d697465640000000000000060448201526064016104c3565b6001600160a01b038316600090815260036020908152604080832085845282528083205480845260049092529091206002600982015460ff1660058111156126ee57634e487b7160e01b600052602160045260246000fd5b1461270b5760405162461bcd60e51b81526004016104c390612fb8565b600481015460038201546001600160a01b031660009081526005602090815260408083208151808301909252600681015482526007015491810191909152909161275491612850565b60038301546040516323b872dd60e01b81529192506001600160a01b0316906323b872dd9061278b90339030908690600401612ec2565b602060405180830381600087803b1580156127a557600080fd5b505af11580156127b9573d6000803e3d6000fd5b505050506040513d601f19601f820116820180604052508101906127dd9190612cbd565b50600882015442906127f286620151806132f4565b6127fc90826132bc565b6008850181905560408051878152602081018590529081018890526060810185905260808101919091527fbeedae6c6c669cbdd40f471f452f6941be0f408deac94349f1f9a06bf8eae7c39060a001612442565b60008261285f57506000610685565b815160009061286e90856132f4565b835190915061287d85836132d4565b1461289857634e487b7160e01b600052600160045260246000fd5b60208301516128a790826132d4565b949350505050565b6000546001600160a01b0316331461126b5760405162461bcd60e51b815260206004820181905260248201527f4f776e61626c653a2063616c6c6572206973206e6f7420746865206f776e657260448201526064016104c3565b600080546001600160a01b038381166001600160a01b0319831681178455604051919092169283917f8be0079c531659141344cd1fd0a4f28419497f9722a3daafe3b4186f6b6457e09190a35050565b60006129658383612850565b61296f90846132bc565b9392505050565b60405180610160016040528060006001600160a01b0316815260200160006001600160a01b031681526020016000815260200160006001600160a01b031681526020016000815260200160008152602001600081526020016000815260200160008152602001600060058111156129fd57634e487b7160e01b600052602160045260246000fd5b8152602001600081525090565b828054612a169061335a565b90600052602060002090601f016020900481019282612a385760008555612a7e565b82601f10612a5157805160ff1916838001178555612a7e565b82800160010185558215612a7e579182015b82811115612a7e578251825591602001919060010190612a63565b50612a8a929150612a8e565b5090565b5b80821115612a8a5760008155600101612a8f565b600060208284031215612ab4578081fd5b813561296f816133c1565b600060208284031215612ad0578081fd5b815161296f816133c1565b600080600080600060808688031215612af2578081fd5b8535612afd816133c1565b94506020860135612b0d816133c1565b935060408601359250606086013567ffffffffffffffff80821115612b30578283fd5b818801915088601f830112612b43578283fd5b813581811115612b51578384fd5b896020828501011115612b62578384fd5b9699959850939650602001949392505050565b60008060408385031215612b87578182fd5b8235612b92816133c1565b946020939093013593505050565b600080600080600060a08688031215612bb7578081fd5b8535612bc2816133c1565b9450602086013593506040860135612bd9816133c1565b94979396509394606081013594506080013592915050565b600080600060608486031215612c05578283fd5b8335612c10816133c1565b925060208401359150604084013560068110612c2a578182fd5b809150509250925092565b600080600060608486031215612c49578283fd5b8335612c54816133c1565b95602085013595506040909401359392505050565b600080600080600080600060e0888a031215612c83578182fd5b8735612c8e816133c1565b9960208901359950604089013598606081013598506080810135975060a0810135965060c00135945092505050565b600060208284031215612cce578081fd5b8151801515811461296f578182fd5b600060208284031215612cee578081fd5b815167ffffffffffffffff80821115612d05578283fd5b818401915084601f830112612d18578283fd5b815181811115612d2a57612d2a6133ab565b604051601f8201601f19908116603f01168101908382118183101715612d5257612d526133ab565b81604052828152876020848701011115612d6a578586fd5b612d7b83602083016020880161332a565b979650505050505050565b600060208284031215612d97578081fd5b5035919050565b600080600060608486031215612db2578081fd5b505081359360208301359350604090920135919050565b600060208284031215612dda578081fd5b815160ff8116811461296f578182fd5b60068110612e0857634e487b7160e01b600052602160045260246000fd5b9052565b60008151808452612e2481602086016020860161332a565b601f01601f19169290920160200192915050565b6001600160a01b0389811682528816602082015261016060408201819052600090612e658382018a612e0c565b60ff8916606085015287516080850152602088015160a08501529150612e889050565b845160c0830152602085015160e0830152835161010083015260208401516101208301528215156101408301529998505050505050505050565b6001600160a01b039384168152919092166020820152604081019190915260600190565b6001600160a01b038c811682528b81166020830152604082018b9052891660608201526080810188905260a0810187905260c0810186905260e0810185905261010081018490526101608101612f40610120830185612dea565b826101408301529c9b505050505050505050505050565b6001600160a01b038a16815261012060208201819052600090612f7c8382018c612e0c565b60ff9a909a16604084015250506060810196909652608086019490945260a085019290925260c084015260e08301526101009091015292915050565b602080825260159082015274131bd85b881cdd185d19481a5cc81a5b9d985b1a59605a1b604082015260600190565b60208082526023908201527f61646472657373207a65726f206973206e6f7420612076616c6964206164647260408201526265737360e81b606082015260800190565b6020808252601d908201527f4e465420686173206e6f742075736520617320636f6c6c61746572616c000000604082015260600190565b60208082526021908201527f546f6b656e206164647265737320697320746865207a65726f206164647265736040820152607360f81b606082015260800190565b81516001600160a01b03168152610160810160208301516130ce60208401826001600160a01b03169052565b506040830151604083015260608301516130f360608401826001600160a01b03169052565b506080830151608083015260a083015160a083015260c083015160c083015260e083015160e08301526101008084015181840152506101208084015161313b82850182612dea565b505061014092830151919092015290565b602080825282516001600160a01b03168282015282015160009061317b60408401826001600160a01b03169052565b506040830151610160806060850152613198610180850183612e0c565b915060608501516131ae608086018260ff169052565b506080850151805160a0860152602081015160c08601525060a0850151805160e086015260208101516101008601525060c0850151805161012086015260208101516101408601525060e0850151801515858301525090949350505050565b8a81526001600160a01b038a811660208301528981166040830152606082018990528716608082015260a0810186905260c0810185905260e08101849052610140810161325e610100830185612dea565b826101208301529b9a5050505050505050505050565b838152606081016132886020830185612dea565b826040830152949350505050565b848152608081016132aa6020830186612dea565b60408201939093526060015292915050565b600082198211156132cf576132cf613395565b500190565b6000826132ef57634e487b7160e01b81526012600452602481fd5b500490565b600081600019048311821515161561330e5761330e613395565b500290565b60008282101561332557613325613395565b500390565b60005b8381101561334557818101518382015260200161332d565b83811115613354576000848401525b50505050565b600181811c9082168061336e57607f821691505b6020821081141561338f57634e487b7160e01b600052602260045260246000fd5b50919050565b634e487b7160e01b600052601160045260246000fd5b634e487b7160e01b600052604160045260246000fd5b6001600160a01b03811681146124ca57600080fdfea2646970667358221220132d5961efc9f67907e140f44ad45c959d7b1d7ed555a14a68fa0c1f89af3f7964736f6c63430008040033","opcodes":"PUSH1 0x80 PUSH1 0x40 MSTORE PUSH1 0x1E PUSH1 0x2 SSTORE CALLVALUE DUP1 ISZERO PUSH3 0x16 JUMPI PUSH1 0x0 DUP1 REVERT JUMPDEST POP PUSH3 0x22 CALLER PUSH3 0x28 JUMP JUMPDEST PUSH3 0x78 JUMP JUMPDEST PUSH1 0x0 DUP1 SLOAD PUSH1 0x1 PUSH1 0x1 PUSH1 0xA0 SHL SUB DUP4 DUP2 AND PUSH1 0x1 PUSH1 0x1 PUSH1 0xA0 SHL SUB NOT DUP4 AND DUP2 OR DUP5 SSTORE PUSH1 0x40 MLOAD SWAP2 SWAP1 SWAP3 AND SWAP3 DUP4 SWAP2 PUSH32 0x8BE0079C531659141344CD1FD0A4F28419497F9722A3DAAFE3B4186F6B6457E0 SWAP2 SWAP1 LOG3 POP POP JUMP JUMPDEST PUSH2 0x340C DUP1 PUSH3 0x88 PUSH1 0x0 CODECOPY PUSH1 0x0 RETURN INVALID PUSH1 0x80 PUSH1 0x40 MSTORE CALLVALUE DUP1 ISZERO PUSH2 0x10 JUMPI PUSH1 0x0 DUP1 REVERT JUMPDEST POP PUSH1 0x4 CALLDATASIZE LT PUSH2 0x158 JUMPI PUSH1 0x0 CALLDATALOAD PUSH1 0xE0 SHR DUP1 PUSH4 0x715018A6 GT PUSH2 0xC3 JUMPI DUP1 PUSH4 0xBCBAF487 GT PUSH2 0x7C JUMPI DUP1 PUSH4 0xBCBAF487 EQ PUSH2 0x343 JUMPI DUP1 PUSH4 0xBFD04A5D EQ PUSH2 0x356 JUMPI DUP1 PUSH4 0xC8304DFB EQ PUSH2 0x369 JUMPI DUP1 PUSH4 0xF2FDE38B EQ PUSH2 0x3FA JUMPI DUP1 PUSH4 0xF3FEF3A3 EQ PUSH2 0x40D JUMPI DUP1 PUSH4 0xF56CC915 EQ PUSH2 0x420 JUMPI PUSH1 0x0 DUP1 REVERT JUMPDEST DUP1 PUSH4 0x715018A6 EQ PUSH2 0x2DE JUMPI DUP1 PUSH4 0x815083DF EQ PUSH2 0x2E6 JUMPI DUP1 PUSH4 0x8DA5CB5B EQ PUSH2 0x2F9 JUMPI DUP1 PUSH4 0x93A595F5 EQ PUSH2 0x314 JUMPI DUP1 PUSH4 0xA48E84E3 EQ PUSH2 0x327 JUMPI DUP1 PUSH4 0xB6805D20 EQ PUSH2 0x330 JUMPI PUSH1 0x0 DUP1 REVERT JUMPDEST DUP1 PUSH4 0x35C16BCA GT PUSH2 0x115 JUMPI DUP1 PUSH4 0x35C16BCA EQ PUSH2 0x254 JUMPI DUP1 PUSH4 0x3699E7D1 EQ PUSH2 0x267 JUMPI DUP1 PUSH4 0x3BEB26C4 EQ PUSH2 0x292 JUMPI DUP1 PUSH4 0x47E7EF24 EQ PUSH2 0x2A5 JUMPI DUP1 PUSH4 0x5357B989 EQ PUSH2 0x2B8 JUMPI DUP1 PUSH4 0x5AF20A83 EQ PUSH2 0x2CB JUMPI PUSH1 0x0 DUP1 REVERT JUMPDEST DUP1 PUSH4 0xBE369B4 EQ PUSH2 0x15D JUMPI DUP1 PUSH4 0x11615D30 EQ PUSH2 0x186 JUMPI DUP1 PUSH4 0x150B7A02 EQ PUSH2 0x1A7 JUMPI DUP1 PUSH4 0x19DBB6D2 EQ PUSH2 0x1F8 JUMPI DUP1 PUSH4 0x25AE2393 EQ PUSH2 0x218 JUMPI DUP1 PUSH4 0x29C7F9E0 EQ PUSH2 0x23F JUMPI JUMPDEST PUSH1 0x0 DUP1 REVERT JUMPDEST PUSH2 0x170 PUSH2 0x16B CALLDATASIZE PUSH1 0x4 PUSH2 0x2AA3 JUMP JUMPDEST PUSH2 0x433 JUMP JUMPDEST PUSH1 0x40 MLOAD PUSH2 0x17D SWAP2 SWAP1 PUSH2 0x314C JUMP JUMPDEST PUSH1 0x40 MLOAD DUP1 SWAP2 SUB SWAP1 RETURN JUMPDEST PUSH2 0x199 PUSH2 0x194 CALLDATASIZE PUSH1 0x4 PUSH2 0x2B75 JUMP JUMPDEST PUSH2 0x61F JUMP JUMPDEST PUSH1 0x40 MLOAD SWAP1 DUP2 MSTORE PUSH1 0x20 ADD PUSH2 0x17D JUMP JUMPDEST PUSH2 0x1DF PUSH2 0x1B5 CALLDATASIZE PUSH1 0x4 PUSH2 0x2ADB JUMP JUMPDEST PUSH32 0x150B7A023D4804D13E8C85FB27262CB750CF6BA9F9DD3BB30D90F482CEEB4B1F SWAP6 SWAP5 POP POP POP POP POP JUMP JUMPDEST PUSH1 0x40 MLOAD PUSH1 0x1 PUSH1 0x1 PUSH1 0xE0 SHL SUB NOT SWAP1 SWAP2 AND DUP2 MSTORE PUSH1 0x20 ADD PUSH2 0x17D JUMP JUMPDEST PUSH2 0x20B PUSH2 0x206 CALLDATASIZE PUSH1 0x4 PUSH2 0x2B75 JUMP JUMPDEST PUSH2 0x68B JUMP JUMPDEST PUSH1 0x40 MLOAD PUSH2 0x17D SWAP2 SWAP1 PUSH2 0x30A2 JUMP JUMPDEST PUSH2 0x22B PUSH2 0x226 CALLDATASIZE PUSH1 0x4 PUSH2 0x2AA3 JUMP JUMPDEST PUSH2 0x899 JUMP JUMPDEST PUSH1 0x40 MLOAD PUSH2 0x17D SWAP9 SWAP8 SWAP7 SWAP6 SWAP5 SWAP4 SWAP3 SWAP2 SWAP1 PUSH2 0x2E38 JUMP JUMPDEST PUSH2 0x252 PUSH2 0x24D CALLDATASIZE PUSH1 0x4 PUSH2 0x2B75 JUMP JUMPDEST PUSH2 0x9B6 JUMP JUMPDEST STOP JUMPDEST PUSH2 0x252 PUSH2 0x262 CALLDATASIZE PUSH1 0x4 PUSH2 0x2C69 JUMP JUMPDEST PUSH2 0xCD5 JUMP JUMPDEST PUSH2 0x199 PUSH2 0x275 CALLDATASIZE PUSH1 0x4 PUSH2 0x2B75 JUMP JUMPDEST PUSH1 0x3 PUSH1 0x20 SWAP1 DUP2 MSTORE PUSH1 0x0 SWAP3 DUP4 MSTORE PUSH1 0x40 DUP1 DUP5 KECCAK256 SWAP1 SWAP2 MSTORE SWAP1 DUP3 MSTORE SWAP1 KECCAK256 SLOAD DUP2 JUMP JUMPDEST PUSH2 0x252 PUSH2 0x2A0 CALLDATASIZE PUSH1 0x4 PUSH2 0x2D86 JUMP JUMPDEST PUSH2 0x10B0 JUMP JUMPDEST PUSH2 0x252 PUSH2 0x2B3 CALLDATASIZE PUSH1 0x4 PUSH2 0x2B75 JUMP JUMPDEST PUSH2 0x10BD JUMP JUMPDEST PUSH2 0x199 PUSH2 0x2C6 CALLDATASIZE PUSH1 0x4 PUSH2 0x2D9E JUMP JUMPDEST PUSH2 0x11FF JUMP JUMPDEST PUSH2 0x199 PUSH2 0x2D9 CALLDATASIZE PUSH1 0x4 PUSH2 0x2D9E JUMP JUMPDEST PUSH2 0x122B JUMP JUMPDEST PUSH2 0x252 PUSH2 0x1259 JUMP JUMPDEST PUSH2 0x252 PUSH2 0x2F4 CALLDATASIZE PUSH1 0x4 PUSH2 0x2BF1 JUMP JUMPDEST PUSH2 0x126D JUMP JUMPDEST PUSH1 0x0 SLOAD PUSH1 0x40 MLOAD PUSH1 0x1 PUSH1 0x1 PUSH1 0xA0 SHL SUB SWAP1 SWAP2 AND DUP2 MSTORE PUSH1 0x20 ADD PUSH2 0x17D JUMP JUMPDEST PUSH2 0x252 PUSH2 0x322 CALLDATASIZE PUSH1 0x4 PUSH2 0x2B75 JUMP JUMPDEST PUSH2 0x1707 JUMP JUMPDEST PUSH2 0x199 PUSH1 0x2 SLOAD DUP2 JUMP JUMPDEST PUSH2 0x252 PUSH2 0x33E CALLDATASIZE PUSH1 0x4 PUSH2 0x2BA0 JUMP JUMPDEST PUSH2 0x19F9 JUMP JUMPDEST PUSH2 0x252 PUSH2 0x351 CALLDATASIZE PUSH1 0x4 PUSH2 0x2B75 JUMP JUMPDEST PUSH2 0x20EE JUMP JUMPDEST PUSH2 0x252 PUSH2 0x364 CALLDATASIZE PUSH1 0x4 PUSH2 0x2C69 JUMP JUMPDEST PUSH2 0x22C0 JUMP JUMPDEST PUSH2 0x3E3 PUSH2 0x377 CALLDATASIZE PUSH1 0x4 PUSH2 0x2D86 JUMP JUMPDEST PUSH1 0x4 PUSH1 0x20 DUP2 SWAP1 MSTORE PUSH1 0x0 SWAP2 DUP3 MSTORE PUSH1 0x40 SWAP1 SWAP2 KECCAK256 DUP1 SLOAD PUSH1 0x1 DUP3 ADD SLOAD PUSH1 0x2 DUP4 ADD SLOAD PUSH1 0x3 DUP5 ADD SLOAD SWAP5 DUP5 ADD SLOAD PUSH1 0x5 DUP6 ADD SLOAD PUSH1 0x6 DUP7 ADD SLOAD PUSH1 0x7 DUP8 ADD SLOAD PUSH1 0x8 DUP9 ADD SLOAD PUSH1 0x9 DUP10 ADD SLOAD PUSH1 0xA SWAP1 SWAP10 ADD SLOAD PUSH1 0x1 PUSH1 0x1 PUSH1 0xA0 SHL SUB SWAP9 DUP10 AND SWAP11 SWAP8 DUP10 AND SWAP10 SWAP7 SWAP9 SWAP1 SWAP8 AND SWAP7 SWAP5 SWAP6 SWAP4 SWAP5 SWAP3 SWAP4 SWAP2 SWAP3 SWAP1 SWAP2 PUSH1 0xFF AND SWAP1 DUP12 JUMP JUMPDEST PUSH1 0x40 MLOAD PUSH2 0x17D SWAP12 SWAP11 SWAP10 SWAP9 SWAP8 SWAP7 SWAP6 SWAP5 SWAP4 SWAP3 SWAP2 SWAP1 PUSH2 0x2EE6 JUMP JUMPDEST PUSH2 0x252 PUSH2 0x408 CALLDATASIZE PUSH1 0x4 PUSH2 0x2AA3 JUMP JUMPDEST PUSH2 0x2454 JUMP JUMPDEST PUSH2 0x252 PUSH2 0x41B CALLDATASIZE PUSH1 0x4 PUSH2 0x2B75 JUMP JUMPDEST PUSH2 0x24CD JUMP JUMPDEST PUSH2 0x252 PUSH2 0x42E CALLDATASIZE PUSH1 0x4 PUSH2 0x2C35 JUMP JUMPDEST PUSH2 0x2605 JUMP JUMPDEST PUSH2 0x4A6 PUSH1 0x40 DUP1 MLOAD PUSH2 0x100 DUP2 ADD DUP3 MSTORE PUSH1 0x0 DUP1 DUP3 MSTORE PUSH1 0x20 DUP1 DUP4 ADD DUP3 SWAP1 MSTORE PUSH1 0x60 DUP4 DUP6 ADD DUP2 SWAP1 MSTORE DUP4 ADD DUP3 SWAP1 MSTORE DUP4 MLOAD DUP1 DUP6 ADD DUP6 MSTORE DUP3 DUP2 MSTORE DUP1 DUP3 ADD DUP4 SWAP1 MSTORE PUSH1 0x80 DUP5 ADD MSTORE DUP4 MLOAD DUP1 DUP6 ADD DUP6 MSTORE DUP3 DUP2 MSTORE DUP1 DUP3 ADD DUP4 SWAP1 MSTORE PUSH1 0xA0 DUP5 ADD MSTORE DUP4 MLOAD DUP1 DUP6 ADD SWAP1 SWAP5 MSTORE DUP2 DUP5 MSTORE DUP4 ADD MSTORE SWAP1 PUSH1 0xC0 DUP3 ADD SWAP1 DUP2 MSTORE PUSH1 0x0 PUSH1 0x20 SWAP1 SWAP2 ADD MSTORE SWAP1 JUMP JUMPDEST CALLER PUSH2 0x4CC JUMPI PUSH1 0x40 MLOAD PUSH3 0x461BCD PUSH1 0xE5 SHL DUP2 MSTORE PUSH1 0x4 ADD PUSH2 0x4C3 SWAP1 PUSH2 0x2FE7 JUMP JUMPDEST PUSH1 0x40 MLOAD DUP1 SWAP2 SUB SWAP1 REVERT JUMPDEST PUSH1 0x1 PUSH1 0x1 PUSH1 0xA0 SHL SUB DUP1 DUP4 AND PUSH1 0x0 SWAP1 DUP2 MSTORE PUSH1 0x5 PUSH1 0x20 SWAP1 DUP2 MSTORE PUSH1 0x40 SWAP2 DUP3 SWAP1 KECCAK256 DUP3 MLOAD PUSH2 0x100 DUP2 ADD DUP5 MSTORE DUP2 SLOAD DUP6 AND DUP2 MSTORE PUSH1 0x1 DUP3 ADD SLOAD SWAP1 SWAP5 AND SWAP2 DUP5 ADD SWAP2 SWAP1 SWAP2 MSTORE PUSH1 0x2 DUP2 ADD DUP1 SLOAD SWAP2 SWAP3 DUP5 ADD SWAP2 PUSH2 0x51B SWAP1 PUSH2 0x335A JUMP JUMPDEST DUP1 PUSH1 0x1F ADD PUSH1 0x20 DUP1 SWAP2 DIV MUL PUSH1 0x20 ADD PUSH1 0x40 MLOAD SWAP1 DUP2 ADD PUSH1 0x40 MSTORE DUP1 SWAP3 SWAP2 SWAP1 DUP2 DUP2 MSTORE PUSH1 0x20 ADD DUP3 DUP1 SLOAD PUSH2 0x547 SWAP1 PUSH2 0x335A JUMP JUMPDEST DUP1 ISZERO PUSH2 0x594 JUMPI DUP1 PUSH1 0x1F LT PUSH2 0x569 JUMPI PUSH2 0x100 DUP1 DUP4 SLOAD DIV MUL DUP4 MSTORE SWAP2 PUSH1 0x20 ADD SWAP2 PUSH2 0x594 JUMP JUMPDEST DUP3 ADD SWAP2 SWAP1 PUSH1 0x0 MSTORE PUSH1 0x20 PUSH1 0x0 KECCAK256 SWAP1 JUMPDEST DUP2 SLOAD DUP2 MSTORE SWAP1 PUSH1 0x1 ADD SWAP1 PUSH1 0x20 ADD DUP1 DUP4 GT PUSH2 0x577 JUMPI DUP3 SWAP1 SUB PUSH1 0x1F AND DUP3 ADD SWAP2 JUMPDEST POP POP POP SWAP2 DUP4 MSTORE POP POP PUSH1 0x3 DUP3 ADD SLOAD PUSH1 0xFF SWAP1 DUP2 AND PUSH1 0x20 DUP1 DUP5 ADD SWAP2 SWAP1 SWAP2 MSTORE PUSH1 0x40 DUP1 MLOAD DUP1 DUP3 ADD DUP3 MSTORE PUSH1 0x4 DUP7 ADD SLOAD DUP2 MSTORE PUSH1 0x5 DUP7 ADD SLOAD DUP2 DUP5 ADD MSTORE DUP2 DUP6 ADD MSTORE DUP1 MLOAD DUP1 DUP3 ADD DUP3 MSTORE PUSH1 0x6 DUP7 ADD SLOAD DUP2 MSTORE PUSH1 0x7 DUP7 ADD SLOAD DUP2 DUP5 ADD MSTORE PUSH1 0x60 DUP6 ADD MSTORE DUP1 MLOAD DUP1 DUP3 ADD SWAP1 SWAP2 MSTORE PUSH1 0x8 DUP6 ADD SLOAD DUP2 MSTORE PUSH1 0x9 DUP6 ADD SLOAD SWAP2 DUP2 ADD SWAP2 SWAP1 SWAP2 MSTORE PUSH1 0x80 DUP4 ADD MSTORE PUSH1 0xA SWAP1 SWAP3 ADD SLOAD SWAP1 SWAP2 AND ISZERO ISZERO PUSH1 0xA0 SWAP1 SWAP2 ADD MSTORE SWAP3 SWAP2 POP POP JUMP JUMPDEST PUSH1 0x1 PUSH1 0x1 PUSH1 0xA0 SHL SUB DUP3 AND PUSH1 0x0 SWAP1 DUP2 MSTORE PUSH1 0x3 PUSH1 0x20 SWAP1 DUP2 MSTORE PUSH1 0x40 DUP1 DUP4 KECCAK256 DUP5 DUP5 MSTORE SWAP1 SWAP2 MSTORE DUP2 KECCAK256 SLOAD PUSH2 0x65F JUMPI PUSH1 0x40 MLOAD PUSH3 0x461BCD PUSH1 0xE5 SHL DUP2 MSTORE PUSH1 0x4 ADD PUSH2 0x4C3 SWAP1 PUSH2 0x302A JUMP JUMPDEST POP PUSH1 0x1 PUSH1 0x1 PUSH1 0xA0 SHL SUB DUP3 AND PUSH1 0x0 SWAP1 DUP2 MSTORE PUSH1 0x3 PUSH1 0x20 SWAP1 DUP2 MSTORE PUSH1 0x40 DUP1 DUP4 KECCAK256 DUP5 DUP5 MSTORE SWAP1 SWAP2 MSTORE SWAP1 KECCAK256 SLOAD JUMPDEST SWAP3 SWAP2 POP POP JUMP JUMPDEST PUSH2 0x693 PUSH2 0x2976 JUMP JUMPDEST CALLER PUSH2 0x6B0 JUMPI PUSH1 0x40 MLOAD PUSH3 0x461BCD PUSH1 0xE5 SHL DUP2 MSTORE PUSH1 0x4 ADD PUSH2 0x4C3 SWAP1 PUSH2 0x2FE7 JUMP JUMPDEST PUSH1 0x1 PUSH1 0x1 PUSH1 0xA0 SHL SUB DUP4 AND PUSH1 0x0 SWAP1 DUP2 MSTORE PUSH1 0x3 PUSH1 0x20 SWAP1 DUP2 MSTORE PUSH1 0x40 DUP1 DUP4 KECCAK256 DUP6 DUP5 MSTORE SWAP1 SWAP2 MSTORE SWAP1 KECCAK256 SLOAD PUSH2 0x6F0 JUMPI PUSH1 0x40 MLOAD PUSH3 0x461BCD PUSH1 0xE5 SHL DUP2 MSTORE PUSH1 0x4 ADD PUSH2 0x4C3 SWAP1 PUSH2 0x302A JUMP JUMPDEST PUSH1 0x1 PUSH1 0x1 PUSH1 0xA0 SHL SUB DUP4 AND PUSH1 0x0 SWAP1 DUP2 MSTORE PUSH1 0x3 PUSH1 0x20 SWAP1 DUP2 MSTORE PUSH1 0x40 DUP1 DUP4 KECCAK256 DUP6 DUP5 MSTORE SWAP1 SWAP2 MSTORE SWAP1 KECCAK256 SLOAD PUSH2 0x726 PUSH1 0x0 SLOAD PUSH1 0x1 PUSH1 0x1 PUSH1 0xA0 SHL SUB AND SWAP1 JUMP JUMPDEST PUSH1 0x1 PUSH1 0x1 PUSH1 0xA0 SHL SUB AND CALLER PUSH1 0x1 PUSH1 0x1 PUSH1 0xA0 SHL SUB AND EQ DUP1 PUSH2 0x75B JUMPI POP PUSH1 0x0 DUP2 DUP2 MSTORE PUSH1 0x4 PUSH1 0x20 MSTORE PUSH1 0x40 SWAP1 KECCAK256 SLOAD PUSH1 0x1 PUSH1 0x1 PUSH1 0xA0 SHL SUB AND CALLER EQ JUMPDEST PUSH2 0x7B1 JUMPI PUSH1 0x40 MLOAD PUSH3 0x461BCD PUSH1 0xE5 SHL DUP2 MSTORE PUSH1 0x20 PUSH1 0x4 DUP3 ADD MSTORE PUSH1 0x21 PUSH1 0x24 DUP3 ADD MSTORE PUSH32 0x43616C6C6572206D757374206265206F776E6572206E6674206F722061646D69 PUSH1 0x44 DUP3 ADD MSTORE PUSH1 0x37 PUSH1 0xF9 SHL PUSH1 0x64 DUP3 ADD MSTORE PUSH1 0x84 ADD PUSH2 0x4C3 JUMP JUMPDEST PUSH1 0x0 DUP2 DUP2 MSTORE PUSH1 0x4 PUSH1 0x20 DUP2 DUP2 MSTORE PUSH1 0x40 SWAP3 DUP4 SWAP1 KECCAK256 DUP4 MLOAD PUSH2 0x160 DUP2 ADD DUP6 MSTORE DUP2 SLOAD PUSH1 0x1 PUSH1 0x1 PUSH1 0xA0 SHL SUB SWAP1 DUP2 AND DUP3 MSTORE PUSH1 0x1 DUP4 ADD SLOAD DUP2 AND SWAP4 DUP3 ADD SWAP4 SWAP1 SWAP4 MSTORE PUSH1 0x2 DUP3 ADD SLOAD SWAP5 DUP2 ADD SWAP5 SWAP1 SWAP5 MSTORE PUSH1 0x3 DUP2 ADD SLOAD SWAP1 SWAP2 AND PUSH1 0x60 DUP5 ADD MSTORE SWAP1 DUP2 ADD SLOAD PUSH1 0x80 DUP4 ADD MSTORE PUSH1 0x5 DUP1 DUP3 ADD SLOAD PUSH1 0xA0 DUP5 ADD MSTORE PUSH1 0x6 DUP3 ADD SLOAD PUSH1 0xC0 DUP5 ADD MSTORE PUSH1 0x7 DUP3 ADD SLOAD PUSH1 0xE0 DUP5 ADD MSTORE PUSH1 0x8 DUP3 ADD SLOAD PUSH2 0x100 DUP5 ADD MSTORE PUSH1 0x9 DUP3 ADD SLOAD PUSH2 0x120 DUP5 ADD SWAP2 PUSH1 0xFF SWAP1 SWAP2 AND SWAP1 DUP2 GT ISZERO PUSH2 0x863 JUMPI PUSH4 0x4E487B71 PUSH1 0xE0 SHL PUSH1 0x0 MSTORE PUSH1 0x21 PUSH1 0x4 MSTORE PUSH1 0x24 PUSH1 0x0 REVERT JUMPDEST PUSH1 0x5 DUP2 GT ISZERO PUSH2 0x882 JUMPI PUSH4 0x4E487B71 PUSH1 0xE0 SHL PUSH1 0x0 MSTORE PUSH1 0x21 PUSH1 0x4 MSTORE PUSH1 0x24 PUSH1 0x0 REVERT JUMPDEST DUP2 MSTORE PUSH1 0x20 ADD PUSH1 0xA DUP3 ADD SLOAD DUP2 MSTORE POP POP SWAP2 POP POP SWAP3 SWAP2 POP POP JUMP JUMPDEST PUSH1 0x5 PUSH1 0x20 MSTORE PUSH1 0x0 SWAP1 DUP2 MSTORE PUSH1 0x40 SWAP1 KECCAK256 DUP1 SLOAD PUSH1 0x1 DUP3 ADD SLOAD PUSH1 0x2 DUP4 ADD DUP1 SLOAD PUSH1 0x1 PUSH1 0x1 PUSH1 0xA0 SHL SUB SWAP4 DUP5 AND SWAP5 SWAP3 SWAP1 SWAP4 AND SWAP3 PUSH2 0x8CE SWAP1 PUSH2 0x335A JUMP JUMPDEST DUP1 PUSH1 0x1F ADD PUSH1 0x20 DUP1 SWAP2 DIV MUL PUSH1 0x20 ADD PUSH1 0x40 MLOAD SWAP1 DUP2 ADD PUSH1 0x40 MSTORE DUP1 SWAP3 SWAP2 SWAP1 DUP2 DUP2 MSTORE PUSH1 0x20 ADD DUP3 DUP1 SLOAD PUSH2 0x8FA SWAP1 PUSH2 0x335A JUMP JUMPDEST DUP1 ISZERO PUSH2 0x947 JUMPI DUP1 PUSH1 0x1F LT PUSH2 0x91C JUMPI PUSH2 0x100 DUP1 DUP4 SLOAD DIV MUL DUP4 MSTORE SWAP2 PUSH1 0x20 ADD SWAP2 PUSH2 0x947 JUMP JUMPDEST DUP3 ADD SWAP2 SWAP1 PUSH1 0x0 MSTORE PUSH1 0x20 PUSH1 0x0 KECCAK256 SWAP1 JUMPDEST DUP2 SLOAD DUP2 MSTORE SWAP1 PUSH1 0x1 ADD SWAP1 PUSH1 0x20 ADD DUP1 DUP4 GT PUSH2 0x92A JUMPI DUP3 SWAP1 SUB PUSH1 0x1F AND DUP3 ADD SWAP2 JUMPDEST POP POP POP POP PUSH1 0x3 DUP4 ADD SLOAD PUSH1 0x40 DUP1 MLOAD DUP1 DUP3 ADD DUP3 MSTORE PUSH1 0x4 DUP7 ADD SLOAD DUP2 MSTORE PUSH1 0x5 DUP7 ADD SLOAD PUSH1 0x20 DUP1 DUP4 ADD SWAP2 SWAP1 SWAP2 MSTORE DUP3 MLOAD DUP1 DUP5 ADD DUP5 MSTORE PUSH1 0x6 DUP9 ADD SLOAD DUP2 MSTORE PUSH1 0x7 DUP9 ADD SLOAD DUP2 DUP4 ADD MSTORE DUP4 MLOAD DUP1 DUP6 ADD SWAP1 SWAP5 MSTORE PUSH1 0x8 DUP9 ADD SLOAD DUP5 MSTORE PUSH1 0x9 DUP9 ADD SLOAD SWAP2 DUP5 ADD SWAP2 SWAP1 SWAP2 MSTORE PUSH1 0xA SWAP1 SWAP7 ADD SLOAD SWAP5 SWAP6 PUSH1 0xFF SWAP4 DUP5 AND SWAP6 SWAP2 SWAP5 POP SWAP3 AND DUP9 JUMP JUMPDEST PUSH1 0x1 PUSH1 0x1 PUSH1 0xA0 SHL SUB DUP3 AND PUSH1 0x0 SWAP1 DUP2 MSTORE PUSH1 0x3 PUSH1 0x20 SWAP1 DUP2 MSTORE PUSH1 0x40 DUP1 DUP4 KECCAK256 DUP5 DUP5 MSTORE SWAP1 SWAP2 MSTORE SWAP1 KECCAK256 SLOAD PUSH2 0x9F6 JUMPI PUSH1 0x40 MLOAD PUSH3 0x461BCD PUSH1 0xE5 SHL DUP2 MSTORE PUSH1 0x4 ADD PUSH2 0x4C3 SWAP1 PUSH2 0x302A JUMP JUMPDEST PUSH1 0x1 PUSH1 0x1 PUSH1 0xA0 SHL SUB DUP3 DUP2 AND PUSH1 0x0 SWAP1 DUP2 MSTORE PUSH1 0x3 PUSH1 0x20 SWAP1 DUP2 MSTORE PUSH1 0x40 DUP1 DUP4 KECCAK256 DUP6 DUP5 MSTORE DUP3 MSTORE DUP1 DUP4 KECCAK256 SLOAD DUP1 DUP5 MSTORE PUSH1 0x4 SWAP1 SWAP3 MSTORE SWAP1 SWAP2 KECCAK256 DUP1 SLOAD SWAP2 SWAP3 SWAP1 SWAP2 AND CALLER EQ PUSH2 0xA76 JUMPI PUSH1 0x40 MLOAD PUSH3 0x461BCD PUSH1 0xE5 SHL DUP2 MSTORE PUSH1 0x20 PUSH1 0x4 DUP3 ADD MSTORE PUSH1 0x18 PUSH1 0x24 DUP3 ADD MSTORE PUSH24 0x10D85B1B195C881B5D5CDD081899481BDDDB995C881B999D PUSH1 0x42 SHL PUSH1 0x44 DUP3 ADD MSTORE PUSH1 0x64 ADD PUSH2 0x4C3 JUMP JUMPDEST PUSH1 0x2 PUSH1 0x9 DUP3 ADD SLOAD PUSH1 0xFF AND PUSH1 0x5 DUP2 GT ISZERO PUSH2 0xA9F JUMPI PUSH4 0x4E487B71 PUSH1 0xE0 SHL PUSH1 0x0 MSTORE PUSH1 0x21 PUSH1 0x4 MSTORE PUSH1 0x24 PUSH1 0x0 REVERT JUMPDEST EQ PUSH2 0xABC JUMPI PUSH1 0x40 MLOAD PUSH3 0x461BCD PUSH1 0xE5 SHL DUP2 MSTORE PUSH1 0x4 ADD PUSH2 0x4C3 SWAP1 PUSH2 0x2FB8 JUMP JUMPDEST PUSH1 0x8 DUP2 ADD SLOAD TIMESTAMP SWAP1 PUSH2 0xAD1 SWAP1 PUSH3 0x15180 SWAP1 PUSH2 0x3313 JUMP JUMPDEST DUP2 LT PUSH2 0xB29 JUMPI PUSH1 0x40 MLOAD PUSH3 0x461BCD PUSH1 0xE5 SHL DUP2 MSTORE PUSH1 0x20 PUSH1 0x4 DUP3 ADD MSTORE PUSH1 0x21 PUSH1 0x24 DUP3 ADD MSTORE PUSH32 0x4561726C79206C69717569646174696F6E2074696D6520697320696E76616C69 PUSH1 0x44 DUP3 ADD MSTORE PUSH1 0x19 PUSH1 0xFA SHL PUSH1 0x64 DUP3 ADD MSTORE PUSH1 0x84 ADD PUSH2 0x4C3 JUMP JUMPDEST PUSH1 0x4 DUP3 ADD SLOAD PUSH1 0x3 DUP4 ADD SLOAD PUSH1 0x1 PUSH1 0x1 PUSH1 0xA0 SHL SUB AND PUSH1 0x0 SWAP1 DUP2 MSTORE PUSH1 0x5 PUSH1 0x20 SWAP1 DUP2 MSTORE PUSH1 0x40 DUP1 DUP4 KECCAK256 DUP2 MLOAD DUP1 DUP4 ADD SWAP1 SWAP3 MSTORE PUSH1 0x8 DUP2 ADD SLOAD DUP3 MSTORE PUSH1 0x9 ADD SLOAD SWAP2 DUP2 ADD SWAP2 SWAP1 SWAP2 MSTORE SWAP1 SWAP2 PUSH2 0xB72 SWAP2 PUSH2 0x2850 JUMP JUMPDEST PUSH1 0x3 DUP5 ADD SLOAD PUSH1 0x4 DUP6 ADD SLOAD SWAP2 SWAP3 POP PUSH1 0x1 PUSH1 0x1 PUSH1 0xA0 SHL SUB AND SWAP1 PUSH4 0x23B872DD SWAP1 CALLER SWAP1 ADDRESS SWAP1 PUSH2 0xB9D SWAP1 DUP7 PUSH2 0x32BC JUMP JUMPDEST PUSH1 0x40 MLOAD DUP5 PUSH4 0xFFFFFFFF AND PUSH1 0xE0 SHL DUP2 MSTORE PUSH1 0x4 ADD PUSH2 0xBBB SWAP4 SWAP3 SWAP2 SWAP1 PUSH2 0x2EC2 JUMP JUMPDEST PUSH1 0x20 PUSH1 0x40 MLOAD DUP1 DUP4 SUB DUP2 PUSH1 0x0 DUP8 DUP1 EXTCODESIZE ISZERO DUP1 ISZERO PUSH2 0xBD5 JUMPI PUSH1 0x0 DUP1 REVERT JUMPDEST POP GAS CALL ISZERO DUP1 ISZERO PUSH2 0xBE9 JUMPI RETURNDATASIZE PUSH1 0x0 DUP1 RETURNDATACOPY RETURNDATASIZE PUSH1 0x0 REVERT JUMPDEST POP POP POP POP PUSH1 0x40 MLOAD RETURNDATASIZE PUSH1 0x1F NOT PUSH1 0x1F DUP3 ADD AND DUP3 ADD DUP1 PUSH1 0x40 MSTORE POP DUP2 ADD SWAP1 PUSH2 0xC0D SWAP2 SWAP1 PUSH2 0x2CBD JUMP JUMPDEST POP PUSH1 0x1 DUP4 ADD SLOAD DUP4 SLOAD PUSH1 0x2 DUP6 ADD SLOAD PUSH1 0x40 MLOAD PUSH4 0x21421707 PUSH1 0xE1 SHL DUP2 MSTORE PUSH1 0x1 PUSH1 0x1 PUSH1 0xA0 SHL SUB SWAP4 DUP5 AND SWAP4 PUSH4 0x42842E0E SWAP4 PUSH2 0xC4C SWAP4 ADDRESS SWAP4 SWAP3 SWAP1 SWAP2 AND SWAP2 PUSH1 0x4 ADD PUSH2 0x2EC2 JUMP JUMPDEST PUSH1 0x0 PUSH1 0x40 MLOAD DUP1 DUP4 SUB DUP2 PUSH1 0x0 DUP8 DUP1 EXTCODESIZE ISZERO DUP1 ISZERO PUSH2 0xC66 JUMPI PUSH1 0x0 DUP1 REVERT JUMPDEST POP GAS CALL ISZERO DUP1 ISZERO PUSH2 0xC7A JUMPI RETURNDATASIZE PUSH1 0x0 DUP1 RETURNDATACOPY RETURNDATASIZE PUSH1 0x0 REVERT JUMPDEST POP POP POP POP PUSH1 0x9 DUP4 ADD DUP1 SLOAD PUSH1 0xFF NOT AND PUSH1 0x4 SWAP1 DUP2 OR SWAP1 SWAP2 SSTORE PUSH1 0x40 MLOAD PUSH32 0xFFEA83D119975B9AB264CB298CCDA9A83F83F9A4BA8BA3BAE0E9E449A5C38D6F SWAP2 PUSH2 0xCC5 SWAP2 DUP8 SWAP2 SWAP1 DUP7 SWAP1 DUP7 SWAP1 PUSH2 0x3296 JUMP JUMPDEST PUSH1 0x40 MLOAD DUP1 SWAP2 SUB SWAP1 LOG1 POP POP POP POP POP POP JUMP JUMPDEST PUSH2 0xCDD PUSH2 0x28AF JUMP JUMPDEST PUSH1 0x1 PUSH1 0x1 PUSH1 0xA0 SHL SUB DUP8 AND PUSH2 0xD03 JUMPI PUSH1 0x40 MLOAD PUSH3 0x461BCD PUSH1 0xE5 SHL DUP2 MSTORE PUSH1 0x4 ADD PUSH2 0x4C3 SWAP1 PUSH2 0x3061 JUMP JUMPDEST PUSH1 0x1 PUSH1 0x1 PUSH1 0xA0 SHL SUB DUP8 AND PUSH1 0x0 SWAP1 DUP2 MSTORE PUSH1 0x5 PUSH1 0x20 MSTORE PUSH1 0x40 SWAP1 KECCAK256 PUSH1 0xA ADD SLOAD PUSH1 0xFF AND ISZERO PUSH2 0xD5F JUMPI PUSH1 0x40 MLOAD PUSH3 0x461BCD PUSH1 0xE5 SHL DUP2 MSTORE PUSH1 0x20 PUSH1 0x4 DUP3 ADD MSTORE PUSH1 0xD PUSH1 0x24 DUP3 ADD MSTORE PUSH13 0x151BDAD95B88195E1A5CDD1959 PUSH1 0x9A SHL PUSH1 0x44 DUP3 ADD MSTORE PUSH1 0x64 ADD PUSH2 0x4C3 JUMP JUMPDEST PUSH1 0x0 DUP7 GT DUP1 ISZERO PUSH2 0xD6F JUMPI POP PUSH1 0x0 DUP6 GT JUMPDEST DUP1 ISZERO PUSH2 0xD7B JUMPI POP PUSH1 0x0 DUP5 GT JUMPDEST DUP1 ISZERO PUSH2 0xD87 JUMPI POP PUSH1 0x0 DUP4 GT JUMPDEST DUP1 ISZERO PUSH2 0xD93 JUMPI POP PUSH1 0x0 DUP3 GT JUMPDEST DUP1 ISZERO PUSH2 0xD9F JUMPI POP PUSH1 0x0 DUP2 GT JUMPDEST PUSH2 0xDDE JUMPI PUSH1 0x40 MLOAD PUSH3 0x461BCD PUSH1 0xE5 SHL DUP2 MSTORE PUSH1 0x20 PUSH1 0x4 DUP3 ADD MSTORE PUSH1 0x10 PUSH1 0x24 DUP3 ADD MSTORE PUSH16 0x52617465206D757374206265203E203 PUSH1 0x84 SHL PUSH1 0x44 DUP3 ADD MSTORE PUSH1 0x64 ADD PUSH2 0x4C3 JUMP JUMPDEST PUSH1 0x0 PUSH1 0x40 MLOAD DUP1 PUSH1 0x40 ADD PUSH1 0x40 MSTORE DUP1 DUP9 DUP2 MSTORE PUSH1 0x20 ADD DUP8 DUP2 MSTORE POP SWAP1 POP PUSH1 0x0 PUSH1 0x40 MLOAD DUP1 PUSH1 0x40 ADD PUSH1 0x40 MSTORE DUP1 DUP8 DUP2 MSTORE PUSH1 0x20 ADD DUP7 DUP2 MSTORE POP SWAP1 POP PUSH1 0x0 PUSH1 0x40 MLOAD DUP1 PUSH1 0x40 ADD PUSH1 0x40 MSTORE DUP1 DUP7 DUP2 MSTORE PUSH1 0x20 ADD DUP6 DUP2 MSTORE POP SWAP1 POP PUSH1 0x0 DUP11 PUSH1 0x1 PUSH1 0x1 PUSH1 0xA0 SHL SUB AND PUSH4 0x95D89B41 PUSH1 0x40 MLOAD DUP2 PUSH4 0xFFFFFFFF AND PUSH1 0xE0 SHL DUP2 MSTORE PUSH1 0x4 ADD PUSH1 0x0 PUSH1 0x40 MLOAD DUP1 DUP4 SUB DUP2 DUP7 DUP1 EXTCODESIZE ISZERO DUP1 ISZERO PUSH2 0xE64 JUMPI PUSH1 0x0 DUP1 REVERT JUMPDEST POP GAS STATICCALL ISZERO DUP1 ISZERO PUSH2 0xE78 JUMPI RETURNDATASIZE PUSH1 0x0 DUP1 RETURNDATACOPY RETURNDATASIZE PUSH1 0x0 REVERT JUMPDEST POP POP POP POP PUSH1 0x40 MLOAD RETURNDATASIZE PUSH1 0x0 DUP3 RETURNDATACOPY PUSH1 0x1F RETURNDATASIZE SWAP1 DUP2 ADD PUSH1 0x1F NOT AND DUP3 ADD PUSH1 0x40 MSTORE PUSH2 0xEA0 SWAP2 SWAP1 DUP2 ADD SWAP1 PUSH2 0x2CDD JUMP JUMPDEST SWAP1 POP PUSH1 0x0 DUP12 PUSH1 0x1 PUSH1 0x1 PUSH1 0xA0 SHL SUB AND PUSH4 0x313CE567 PUSH1 0x40 MLOAD DUP2 PUSH4 0xFFFFFFFF AND PUSH1 0xE0 SHL DUP2 MSTORE PUSH1 0x4 ADD PUSH1 0x20 PUSH1 0x40 MLOAD DUP1 DUP4 SUB DUP2 DUP7 DUP1 EXTCODESIZE ISZERO DUP1 ISZERO PUSH2 0xEDD JUMPI PUSH1 0x0 DUP1 REVERT JUMPDEST POP GAS STATICCALL ISZERO DUP1 ISZERO PUSH2 0xEF1 JUMPI RETURNDATASIZE PUSH1 0x0 DUP1 RETURNDATACOPY RETURNDATASIZE PUSH1 0x0 REVERT JUMPDEST POP POP POP POP PUSH1 0x40 MLOAD RETURNDATASIZE PUSH1 0x1F NOT PUSH1 0x1F DUP3 ADD AND DUP3 ADD DUP1 PUSH1 0x40 MSTORE POP DUP2 ADD SWAP1 PUSH2 0xF15 SWAP2 SWAP1 PUSH2 0x2DC9 JUMP JUMPDEST PUSH1 0x40 DUP1 MLOAD PUSH2 0x100 DUP2 ADD DUP3 MSTORE CALLER DUP2 MSTORE PUSH1 0x1 PUSH1 0x1 PUSH1 0xA0 SHL SUB DUP16 DUP2 AND PUSH1 0x20 DUP1 DUP5 ADD DUP3 DUP2 MSTORE DUP5 DUP7 ADD DUP10 DUP2 MSTORE PUSH1 0xFF DUP9 AND PUSH1 0x60 DUP8 ADD MSTORE PUSH1 0x80 DUP7 ADD DUP14 SWAP1 MSTORE PUSH1 0xA0 DUP7 ADD DUP13 SWAP1 MSTORE PUSH1 0xC0 DUP7 ADD DUP12 SWAP1 MSTORE PUSH1 0x1 PUSH1 0xE0 DUP8 ADD DUP2 SWAP1 MSTORE PUSH1 0x0 SWAP5 DUP6 MSTORE PUSH1 0x5 DUP5 MSTORE SWAP7 SWAP1 SWAP4 KECCAK256 DUP6 MLOAD DUP2 SLOAD SWAP1 DUP7 AND PUSH1 0x1 PUSH1 0x1 PUSH1 0xA0 SHL SUB NOT SWAP2 DUP3 AND OR DUP3 SSTORE SWAP2 MLOAD SWAP7 DUP2 ADD DUP1 SLOAD SWAP8 SWAP1 SWAP6 AND SWAP7 SWAP1 SWAP2 AND SWAP6 SWAP1 SWAP6 OR SWAP1 SWAP3 SSTORE MLOAD DUP1 MLOAD SWAP5 SWAP6 POP SWAP2 SWAP4 DUP5 SWAP4 SWAP3 PUSH2 0xFB8 SWAP3 PUSH1 0x2 DUP6 ADD SWAP3 SWAP2 ADD SWAP1 PUSH2 0x2A0A JUMP JUMPDEST POP PUSH1 0x60 DUP3 ADD MLOAD DUP2 PUSH1 0x3 ADD PUSH1 0x0 PUSH2 0x100 EXP DUP2 SLOAD DUP2 PUSH1 0xFF MUL NOT AND SWAP1 DUP4 PUSH1 0xFF AND MUL OR SWAP1 SSTORE POP PUSH1 0x80 DUP3 ADD MLOAD DUP2 PUSH1 0x4 ADD PUSH1 0x0 DUP3 ADD MLOAD DUP2 PUSH1 0x0 ADD SSTORE PUSH1 0x20 DUP3 ADD MLOAD DUP2 PUSH1 0x1 ADD SSTORE POP POP PUSH1 0xA0 DUP3 ADD MLOAD DUP2 PUSH1 0x6 ADD PUSH1 0x0 DUP3 ADD MLOAD DUP2 PUSH1 0x0 ADD SSTORE PUSH1 0x20 DUP3 ADD MLOAD DUP2 PUSH1 0x1 ADD SSTORE POP POP PUSH1 0xC0 DUP3 ADD MLOAD DUP2 PUSH1 0x8 ADD PUSH1 0x0 DUP3 ADD MLOAD DUP2 PUSH1 0x0 ADD SSTORE PUSH1 0x20 DUP3 ADD MLOAD DUP2 PUSH1 0x1 ADD SSTORE POP POP PUSH1 0xE0 DUP3 ADD MLOAD DUP2 PUSH1 0xA ADD PUSH1 0x0 PUSH2 0x100 EXP DUP2 SLOAD DUP2 PUSH1 0xFF MUL NOT AND SWAP1 DUP4 ISZERO ISZERO MUL OR SWAP1 SSTORE POP SWAP1 POP POP PUSH32 0xE4C4D61C208E86F9ADEA5BE59F72850D1802D624B3F5A9D023469B2A81FB3A9B DUP14 DUP5 DUP5 DUP16 DUP16 DUP16 DUP16 DUP16 DUP16 PUSH1 0x40 MLOAD PUSH2 0x1099 SWAP10 SWAP9 SWAP8 SWAP7 SWAP6 SWAP5 SWAP4 SWAP3 SWAP2 SWAP1 PUSH2 0x2F57 JUMP JUMPDEST PUSH1 0x40 MLOAD DUP1 SWAP2 SUB SWAP1 LOG1 POP POP POP POP POP POP POP POP POP POP POP POP POP JUMP JUMPDEST PUSH2 0x10B8 PUSH2 0x28AF JUMP JUMPDEST PUSH1 0x2 SSTORE JUMP JUMPDEST PUSH2 0x10C5 PUSH2 0x28AF JUMP JUMPDEST PUSH1 0x1 PUSH1 0x1 PUSH1 0xA0 SHL SUB DUP3 AND PUSH2 0x10EB JUMPI PUSH1 0x40 MLOAD PUSH3 0x461BCD PUSH1 0xE5 SHL DUP2 MSTORE PUSH1 0x4 ADD PUSH2 0x4C3 SWAP1 PUSH2 0x3061 JUMP JUMPDEST PUSH1 0x0 DUP2 GT PUSH2 0x1135 JUMPI PUSH1 0x40 MLOAD PUSH3 0x461BCD PUSH1 0xE5 SHL DUP2 MSTORE PUSH1 0x20 PUSH1 0x4 DUP3 ADD MSTORE PUSH1 0x17 PUSH1 0x24 DUP3 ADD MSTORE PUSH23 0x416D6F756E7420746F6B656E20697320746F6F206C6F77 PUSH1 0x48 SHL PUSH1 0x44 DUP3 ADD MSTORE PUSH1 0x64 ADD PUSH2 0x4C3 JUMP JUMPDEST PUSH1 0x40 MLOAD PUSH4 0x23B872DD PUSH1 0xE0 SHL DUP2 MSTORE PUSH1 0x1 PUSH1 0x1 PUSH1 0xA0 SHL SUB DUP4 AND SWAP1 PUSH4 0x23B872DD SWAP1 PUSH2 0x1165 SWAP1 CALLER SWAP1 ADDRESS SWAP1 DUP7 SWAP1 PUSH1 0x4 ADD PUSH2 0x2EC2 JUMP JUMPDEST PUSH1 0x20 PUSH1 0x40 MLOAD DUP1 DUP4 SUB DUP2 PUSH1 0x0 DUP8 DUP1 EXTCODESIZE ISZERO DUP1 ISZERO PUSH2 0x117F JUMPI PUSH1 0x0 DUP1 REVERT JUMPDEST POP GAS CALL ISZERO DUP1 ISZERO PUSH2 0x1193 JUMPI RETURNDATASIZE PUSH1 0x0 DUP1 RETURNDATACOPY RETURNDATASIZE PUSH1 0x0 REVERT JUMPDEST POP POP POP POP PUSH1 0x40 MLOAD RETURNDATASIZE PUSH1 0x1F NOT PUSH1 0x1F DUP3 ADD AND DUP3 ADD DUP1 PUSH1 0x40 MSTORE POP DUP2 ADD SWAP1 PUSH2 0x11B7 SWAP2 SWAP1 PUSH2 0x2CBD JUMP JUMPDEST POP PUSH1 0x40 DUP1 MLOAD PUSH1 0x1 PUSH1 0x1 PUSH1 0xA0 SHL SUB DUP5 AND DUP2 MSTORE PUSH1 0x20 DUP2 ADD DUP4 SWAP1 MSTORE PUSH32 0x20B3FC91390F6CEBA342F697A9490734680FD3556633F40EFA146F1DBE79D05F SWAP2 ADD JUMPDEST PUSH1 0x40 MLOAD DUP1 SWAP2 SUB SWAP1 LOG1 POP POP JUMP JUMPDEST PUSH1 0x40 DUP1 MLOAD DUP1 DUP3 ADD SWAP1 SWAP2 MSTORE DUP3 DUP2 MSTORE PUSH1 0x20 DUP2 ADD DUP3 SWAP1 MSTORE PUSH1 0x0 SWAP1 DUP2 PUSH2 0x1221 DUP7 DUP4 PUSH2 0x2850 JUMP JUMPDEST SWAP7 SWAP6 POP POP POP POP POP POP JUMP JUMPDEST PUSH1 0x40 DUP1 MLOAD DUP1 DUP3 ADD SWAP1 SWAP2 MSTORE DUP3 DUP2 MSTORE PUSH1 0x20 DUP2 ADD DUP3 SWAP1 MSTORE PUSH1 0x0 SWAP1 DUP2 PUSH2 0x124D DUP7 DUP4 PUSH2 0x2850 JUMP JUMPDEST SWAP1 POP PUSH2 0x1221 DUP7 DUP3 PUSH2 0x32BC JUMP JUMPDEST PUSH2 0x1261 PUSH2 0x28AF JUMP JUMPDEST PUSH2 0x126B PUSH1 0x0 PUSH2 0x2909 JUMP JUMPDEST JUMP JUMPDEST PUSH2 0x1275 PUSH2 0x28AF JUMP JUMPDEST PUSH1 0x1 PUSH1 0x1 PUSH1 0xA0 SHL SUB DUP4 AND PUSH1 0x0 SWAP1 DUP2 MSTORE PUSH1 0x3 PUSH1 0x20 SWAP1 DUP2 MSTORE PUSH1 0x40 DUP1 DUP4 KECCAK256 DUP6 DUP5 MSTORE SWAP1 SWAP2 MSTORE SWAP1 KECCAK256 SLOAD PUSH2 0x12B5 JUMPI PUSH1 0x40 MLOAD PUSH3 0x461BCD PUSH1 0xE5 SHL DUP2 MSTORE PUSH1 0x4 ADD PUSH2 0x4C3 SWAP1 PUSH2 0x302A JUMP JUMPDEST PUSH1 0x1 DUP2 PUSH1 0x5 DUP2 GT ISZERO PUSH2 0x12D7 JUMPI PUSH4 0x4E487B71 PUSH1 0xE0 SHL PUSH1 0x0 MSTORE PUSH1 0x21 PUSH1 0x4 MSTORE PUSH1 0x24 PUSH1 0x0 REVERT JUMPDEST EQ DUP1 PUSH2 0x1302 JUMPI POP PUSH1 0x2 DUP2 PUSH1 0x5 DUP2 GT ISZERO PUSH2 0x1300 JUMPI PUSH4 0x4E487B71 PUSH1 0xE0 SHL PUSH1 0x0 MSTORE PUSH1 0x21 PUSH1 0x4 MSTORE PUSH1 0x24 PUSH1 0x0 REVERT JUMPDEST EQ JUMPDEST PUSH2 0x1344 JUMPI PUSH1 0x40 MLOAD PUSH3 0x461BCD PUSH1 0xE5 SHL DUP2 MSTORE PUSH1 0x20 PUSH1 0x4 DUP3 ADD MSTORE PUSH1 0x13 PUSH1 0x24 DUP3 ADD MSTORE PUSH19 0x1A5B9D985B1A59081CDD185D19481A5B9C1D5D PUSH1 0x6A SHL PUSH1 0x44 DUP3 ADD MSTORE PUSH1 0x64 ADD PUSH2 0x4C3 JUMP JUMPDEST PUSH1 0x1 PUSH1 0x1 PUSH1 0xA0 SHL SUB DUP4 DUP2 AND PUSH1 0x0 SWAP1 DUP2 MSTORE PUSH1 0x3 PUSH1 0x20 SWAP1 DUP2 MSTORE PUSH1 0x40 DUP1 DUP4 KECCAK256 DUP7 DUP5 MSTORE DUP3 MSTORE DUP1 DUP4 KECCAK256 SLOAD DUP1 DUP5 MSTORE PUSH1 0x4 SWAP3 DUP4 SWAP1 MSTORE SWAP3 DUP2 SWAP1 KECCAK256 PUSH1 0x1 DUP2 ADD SLOAD PUSH1 0x2 DUP3 ADD SLOAD SWAP3 MLOAD PUSH4 0x31A9108F PUSH1 0xE1 SHL DUP2 MSTORE SWAP4 DUP5 ADD SWAP3 SWAP1 SWAP3 MSTORE SWAP3 SWAP4 AND SWAP1 DUP2 SWAP1 PUSH4 0x6352211E SWAP1 PUSH1 0x24 ADD PUSH1 0x20 PUSH1 0x40 MLOAD DUP1 DUP4 SUB DUP2 DUP7 DUP1 EXTCODESIZE ISZERO DUP1 ISZERO PUSH2 0x13BA JUMPI PUSH1 0x0 DUP1 REVERT JUMPDEST POP GAS STATICCALL ISZERO DUP1 ISZERO PUSH2 0x13CE JUMPI RETURNDATASIZE PUSH1 0x0 DUP1 RETURNDATACOPY RETURNDATASIZE PUSH1 0x0 REVERT JUMPDEST POP POP POP POP PUSH1 0x40 MLOAD RETURNDATASIZE PUSH1 0x1F NOT PUSH1 0x1F DUP3 ADD AND DUP3 ADD DUP1 PUSH1 0x40 MSTORE POP DUP2 ADD SWAP1 PUSH2 0x13F2 SWAP2 SWAP1 PUSH2 0x2ABF JUMP JUMPDEST DUP3 SLOAD PUSH1 0x1 PUSH1 0x1 PUSH1 0xA0 SHL SUB SWAP1 DUP2 AND SWAP2 AND EQ PUSH2 0x144E JUMPI PUSH1 0x40 MLOAD PUSH3 0x461BCD PUSH1 0xE5 SHL DUP2 MSTORE PUSH1 0x20 PUSH1 0x4 DUP3 ADD MSTORE PUSH1 0x1A PUSH1 0x24 DUP3 ADD MSTORE PUSH32 0x426F72726F776572206D757374206265206F776E6572206E6674000000000000 PUSH1 0x44 DUP3 ADD MSTORE PUSH1 0x64 ADD PUSH2 0x4C3 JUMP JUMPDEST PUSH1 0x3 DUP3 ADD SLOAD PUSH1 0x1 PUSH1 0x1 PUSH1 0xA0 SHL SUB AND PUSH1 0x0 PUSH1 0x9 DUP5 ADD SLOAD PUSH1 0xFF AND PUSH1 0x5 DUP2 GT ISZERO PUSH2 0x1485 JUMPI PUSH4 0x4E487B71 PUSH1 0xE0 SHL PUSH1 0x0 MSTORE PUSH1 0x21 PUSH1 0x4 MSTORE PUSH1 0x24 PUSH1 0x0 REVERT JUMPDEST EQ PUSH2 0x14C7 JUMPI PUSH1 0x40 MLOAD PUSH3 0x461BCD PUSH1 0xE5 SHL DUP2 MSTORE PUSH1 0x20 PUSH1 0x4 DUP3 ADD MSTORE PUSH1 0x12 PUSH1 0x24 DUP3 ADD MSTORE PUSH18 0x496E76616C6964204C6F616E207374617465 PUSH1 0x70 SHL PUSH1 0x44 DUP3 ADD MSTORE PUSH1 0x64 ADD PUSH2 0x4C3 JUMP JUMPDEST PUSH1 0x9 DUP4 ADD DUP1 SLOAD DUP7 SWAP2 SWAP1 PUSH1 0xFF NOT AND PUSH1 0x1 DUP4 PUSH1 0x5 DUP2 GT ISZERO PUSH2 0x14F6 JUMPI PUSH4 0x4E487B71 PUSH1 0xE0 SHL PUSH1 0x0 MSTORE PUSH1 0x21 PUSH1 0x4 MSTORE PUSH1 0x24 PUSH1 0x0 REVERT JUMPDEST MUL OR SWAP1 SSTORE POP PUSH1 0x7 DUP4 ADD SLOAD TIMESTAMP SWAP1 PUSH1 0x0 SWAP1 PUSH2 0x1512 SWAP1 PUSH3 0x15180 PUSH2 0x32F4 JUMP JUMPDEST PUSH2 0x151C SWAP1 DUP4 PUSH2 0x32BC JUMP JUMPDEST SWAP1 POP PUSH1 0x2 DUP8 PUSH1 0x5 DUP2 GT ISZERO PUSH2 0x1540 JUMPI PUSH4 0x4E487B71 PUSH1 0xE0 SHL PUSH1 0x0 MSTORE PUSH1 0x21 PUSH1 0x4 MSTORE PUSH1 0x24 PUSH1 0x0 REVERT JUMPDEST EQ ISZERO PUSH2 0x169A JUMPI PUSH1 0x6 DUP6 ADD DUP3 SWAP1 SSTORE PUSH1 0x8 DUP6 ADD DUP2 SWAP1 SSTORE DUP5 SLOAD PUSH1 0x2 DUP7 ADD SLOAD PUSH1 0x40 MLOAD PUSH4 0x21421707 PUSH1 0xE1 SHL DUP2 MSTORE PUSH1 0x1 PUSH1 0x1 PUSH1 0xA0 SHL SUB DUP1 DUP9 AND SWAP4 PUSH4 0x42842E0E SWAP4 PUSH2 0x158D SWAP4 SWAP2 SWAP1 SWAP3 AND SWAP2 ADDRESS SWAP2 PUSH1 0x4 ADD PUSH2 0x2EC2 JUMP JUMPDEST PUSH1 0x0 PUSH1 0x40 MLOAD DUP1 DUP4 SUB DUP2 PUSH1 0x0 DUP8 DUP1 EXTCODESIZE ISZERO DUP1 ISZERO PUSH2 0x15A7 JUMPI PUSH1 0x0 DUP1 REVERT JUMPDEST POP GAS CALL ISZERO DUP1 ISZERO PUSH2 0x15BB JUMPI RETURNDATASIZE PUSH1 0x0 DUP1 RETURNDATACOPY RETURNDATASIZE PUSH1 0x0 REVERT JUMPDEST POP POP DUP7 SLOAD PUSH1 0x4 DUP1 DUP10 ADD SLOAD PUSH1 0x40 MLOAD PUSH4 0xA9059CBB PUSH1 0xE0 SHL DUP2 MSTORE PUSH1 0x1 PUSH1 0x1 PUSH1 0xA0 SHL SUB SWAP4 DUP5 AND SWAP3 DUP2 ADD SWAP3 SWAP1 SWAP3 MSTORE PUSH1 0x24 DUP3 ADD MSTORE PUSH1 0x0 SWAP4 POP SWAP1 DUP7 AND SWAP2 POP PUSH4 0xA9059CBB SWAP1 PUSH1 0x44 ADD PUSH1 0x20 PUSH1 0x40 MLOAD DUP1 DUP4 SUB DUP2 PUSH1 0x0 DUP8 DUP1 EXTCODESIZE ISZERO DUP1 ISZERO PUSH2 0x1615 JUMPI PUSH1 0x0 DUP1 REVERT JUMPDEST POP GAS CALL ISZERO DUP1 ISZERO PUSH2 0x1629 JUMPI RETURNDATASIZE PUSH1 0x0 DUP1 RETURNDATACOPY RETURNDATASIZE PUSH1 0x0 REVERT JUMPDEST POP POP POP POP PUSH1 0x40 MLOAD RETURNDATASIZE PUSH1 0x1F NOT PUSH1 0x1F DUP3 ADD AND DUP3 ADD DUP1 PUSH1 0x40 MSTORE POP DUP2 ADD SWAP1 PUSH2 0x164D SWAP2 SWAP1 PUSH2 0x2CBD JUMP JUMPDEST SWAP1 POP DUP1 PUSH2 0x1694 JUMPI PUSH1 0x40 MLOAD PUSH3 0x461BCD PUSH1 0xE5 SHL DUP2 MSTORE PUSH1 0x20 PUSH1 0x4 DUP3 ADD MSTORE PUSH1 0x15 PUSH1 0x24 DUP3 ADD MSTORE PUSH21 0x151BDAD95B881D1C985B9CD9995C8819985A5B1959 PUSH1 0x5A SHL PUSH1 0x44 DUP3 ADD MSTORE PUSH1 0x64 ADD PUSH2 0x4C3 JUMP JUMPDEST POP PUSH2 0x16BF JUMP JUMPDEST PUSH1 0x1 PUSH1 0x1 PUSH1 0xA0 SHL SUB DUP10 AND PUSH1 0x0 SWAP1 DUP2 MSTORE PUSH1 0x3 PUSH1 0x20 SWAP1 DUP2 MSTORE PUSH1 0x40 DUP1 DUP4 KECCAK256 DUP12 DUP5 MSTORE SWAP1 SWAP2 MSTORE DUP2 KECCAK256 SSTORE JUMPDEST PUSH32 0x4CC556F6664640F451FDC3ABFAD3E41A2CD1FC739FF53B722B7376C235A71733 DUP7 DUP9 DUP5 DUP5 PUSH1 0x40 MLOAD PUSH2 0x16F4 SWAP5 SWAP4 SWAP3 SWAP2 SWAP1 PUSH2 0x3296 JUMP JUMPDEST PUSH1 0x40 MLOAD DUP1 SWAP2 SUB SWAP1 LOG1 POP POP POP POP POP POP POP POP POP JUMP JUMPDEST PUSH1 0x1 PUSH1 0x1 PUSH1 0xA0 SHL SUB DUP3 AND PUSH1 0x0 SWAP1 DUP2 MSTORE PUSH1 0x3 PUSH1 0x20 SWAP1 DUP2 MSTORE PUSH1 0x40 DUP1 DUP4 KECCAK256 DUP5 DUP5 MSTORE SWAP1 SWAP2 MSTORE SWAP1 KECCAK256 SLOAD PUSH2 0x1747 JUMPI PUSH1 0x40 MLOAD PUSH3 0x461BCD PUSH1 0xE5 SHL DUP2 MSTORE PUSH1 0x4 ADD PUSH2 0x4C3 SWAP1 PUSH2 0x302A JUMP JUMPDEST PUSH1 0x1 PUSH1 0x1 PUSH1 0xA0 SHL SUB DUP3 DUP2 AND PUSH1 0x0 SWAP1 DUP2 MSTORE PUSH1 0x3 PUSH1 0x20 SWAP1 DUP2 MSTORE PUSH1 0x40 DUP1 DUP4 KECCAK256 DUP6 DUP5 MSTORE DUP3 MSTORE DUP1 DUP4 KECCAK256 SLOAD DUP1 DUP5 MSTORE PUSH1 0x4 SWAP1 SWAP3 MSTORE SWAP1 SWAP2 KECCAK256 DUP1 SLOAD SWAP2 SWAP3 SWAP1 SWAP2 AND CALLER EQ PUSH2 0x17CC JUMPI PUSH1 0x40 MLOAD PUSH3 0x461BCD PUSH1 0xE5 SHL DUP2 MSTORE PUSH1 0x20 PUSH1 0x4 DUP3 ADD MSTORE PUSH1 0x17 PUSH1 0x24 DUP3 ADD MSTORE PUSH32 0x43616C6C6572206D75737420626520626F72726F776572000000000000000000 PUSH1 0x44 DUP3 ADD MSTORE PUSH1 0x64 ADD PUSH2 0x4C3 JUMP JUMPDEST PUSH1 0x2 PUSH1 0x9 DUP3 ADD SLOAD PUSH1 0xFF AND PUSH1 0x5 DUP2 GT ISZERO PUSH2 0x17F5 JUMPI PUSH4 0x4E487B71 PUSH1 0xE0 SHL PUSH1 0x0 MSTORE PUSH1 0x21 PUSH1 0x4 MSTORE PUSH1 0x24 PUSH1 0x0 REVERT JUMPDEST EQ PUSH2 0x1812 JUMPI PUSH1 0x40 MLOAD PUSH3 0x461BCD PUSH1 0xE5 SHL DUP2 MSTORE PUSH1 0x4 ADD PUSH2 0x4C3 SWAP1 PUSH2 0x2FB8 JUMP JUMPDEST PUSH1 0x8 DUP2 ADD SLOAD TIMESTAMP SWAP1 DUP2 LT DUP1 ISZERO PUSH2 0x1839 JUMPI POP PUSH3 0x15180 DUP3 PUSH1 0x8 ADD SLOAD PUSH2 0x1835 SWAP2 SWAP1 PUSH2 0x3313 JUMP JUMPDEST DUP2 LT ISZERO JUMPDEST PUSH2 0x187E JUMPI PUSH1 0x40 MLOAD PUSH3 0x461BCD PUSH1 0xE5 SHL DUP2 MSTORE PUSH1 0x20 PUSH1 0x4 DUP3 ADD MSTORE PUSH1 0x16 PUSH1 0x24 DUP3 ADD MSTORE PUSH22 0x125B9D985B1A59081D1A5B59481C995C185E5B595B9D PUSH1 0x52 SHL PUSH1 0x44 DUP3 ADD MSTORE PUSH1 0x64 ADD PUSH2 0x4C3 JUMP JUMPDEST PUSH1 0x3 DUP3 ADD SLOAD PUSH1 0x5 DUP4 ADD SLOAD PUSH1 0x40 MLOAD PUSH4 0x23B872DD PUSH1 0xE0 SHL DUP2 MSTORE PUSH1 0x1 PUSH1 0x1 PUSH1 0xA0 SHL SUB SWAP1 SWAP3 AND SWAP2 PUSH4 0x23B872DD SWAP2 PUSH2 0x18B7 SWAP2 CALLER SWAP2 ADDRESS SWAP2 PUSH1 0x4 ADD PUSH2 0x2EC2 JUMP JUMPDEST PUSH1 0x20 PUSH1 0x40 MLOAD DUP1 DUP4 SUB DUP2 PUSH1 0x0 DUP8 DUP1 EXTCODESIZE ISZERO DUP1 ISZERO PUSH2 0x18D1 JUMPI PUSH1 0x0 DUP1 REVERT JUMPDEST POP GAS CALL ISZERO DUP1 ISZERO PUSH2 0x18E5 JUMPI RETURNDATASIZE PUSH1 0x0 DUP1 RETURNDATACOPY RETURNDATASIZE PUSH1 0x0 REVERT JUMPDEST POP POP POP POP PUSH1 0x40 MLOAD RETURNDATASIZE PUSH1 0x1F NOT PUSH1 0x1F DUP3 ADD AND DUP3 ADD DUP1 PUSH1 0x40 MSTORE POP DUP2 ADD SWAP1 PUSH2 0x1909 SWAP2 SWAP1 PUSH2 0x2CBD JUMP JUMPDEST POP PUSH1 0x1 DUP3 ADD SLOAD DUP3 SLOAD PUSH1 0x2 DUP5 ADD SLOAD PUSH1 0x40 MLOAD PUSH4 0x21421707 PUSH1 0xE1 SHL DUP2 MSTORE PUSH1 0x1 PUSH1 0x1 PUSH1 0xA0 SHL SUB SWAP4 DUP5 AND SWAP4 PUSH4 0x42842E0E SWAP4 PUSH2 0x1948 SWAP4 ADDRESS SWAP4 SWAP3 SWAP1 SWAP2 AND SWAP2 PUSH1 0x4 ADD PUSH2 0x2EC2 JUMP JUMPDEST PUSH1 0x0 PUSH1 0x40 MLOAD DUP1 DUP4 SUB DUP2 PUSH1 0x0 DUP8 DUP1 EXTCODESIZE ISZERO DUP1 ISZERO PUSH2 0x1962 JUMPI PUSH1 0x0 DUP1 REVERT JUMPDEST POP GAS CALL ISZERO DUP1 ISZERO PUSH2 0x1976 JUMPI RETURNDATASIZE PUSH1 0x0 DUP1 RETURNDATACOPY RETURNDATASIZE PUSH1 0x0 REVERT JUMPDEST POP POP POP POP PUSH1 0x1 DUP3 ADD SLOAD PUSH1 0x1 PUSH1 0x1 PUSH1 0xA0 SHL SUB AND PUSH1 0x0 SWAP1 DUP2 MSTORE PUSH1 0x3 PUSH1 0x20 DUP2 DUP2 MSTORE PUSH1 0x40 DUP1 DUP5 KECCAK256 PUSH1 0x2 DUP8 ADD SLOAD DUP6 MSTORE SWAP1 SWAP2 MSTORE DUP1 DUP4 KECCAK256 SWAP3 SWAP1 SWAP3 SSTORE PUSH1 0x9 DUP5 ADD DUP1 SLOAD PUSH1 0xFF NOT AND DUP3 OR SWAP1 SSTORE SWAP1 MLOAD PUSH32 0x78707AB4C079702301D623FC15DF9D6EB85D349C3EA6066331A6562BAA4CD40E SWAP2 PUSH2 0x19EA SWAP2 DUP7 SWAP2 SWAP1 DUP6 SWAP1 PUSH2 0x3274 JUMP JUMPDEST PUSH1 0x40 MLOAD DUP1 SWAP2 SUB SWAP1 LOG1 POP POP POP POP POP JUMP JUMPDEST CALLER PUSH2 0x1A46 JUMPI PUSH1 0x40 MLOAD PUSH3 0x461BCD PUSH1 0xE5 SHL DUP2 MSTORE PUSH1 0x20 PUSH1 0x4 DUP3 ADD MSTORE PUSH1 0x1A PUSH1 0x24 DUP3 ADD MSTORE PUSH32 0x43616C6C657220697320746865207A65726F2061646472657373000000000000 PUSH1 0x44 DUP3 ADD MSTORE PUSH1 0x64 ADD PUSH2 0x4C3 JUMP JUMPDEST PUSH1 0x1 PUSH1 0x1 PUSH1 0xA0 SHL SUB DUP6 AND PUSH2 0x1A9C JUMPI PUSH1 0x40 MLOAD PUSH3 0x461BCD PUSH1 0xE5 SHL DUP2 MSTORE PUSH1 0x20 PUSH1 0x4 DUP3 ADD MSTORE PUSH1 0x1F PUSH1 0x24 DUP3 ADD MSTORE PUSH32 0x4E6674206164647265737320697320746865207A65726F206164647265737300 PUSH1 0x44 DUP3 ADD MSTORE PUSH1 0x64 ADD PUSH2 0x4C3 JUMP JUMPDEST PUSH1 0x0 SLOAD PUSH1 0x1 PUSH1 0x1 PUSH1 0xA0 SHL SUB AND CALLER EQ ISZERO PUSH2 0x1AF7 JUMPI PUSH1 0x40 MLOAD PUSH3 0x461BCD PUSH1 0xE5 SHL DUP2 MSTORE PUSH1 0x20 PUSH1 0x4 DUP3 ADD MSTORE PUSH1 0x1B PUSH1 0x24 DUP3 ADD MSTORE PUSH32 0x43616C6C65722068617665206E6F7420746F2062652061646D696E0000000000 PUSH1 0x44 DUP3 ADD MSTORE PUSH1 0x64 ADD PUSH2 0x4C3 JUMP JUMPDEST PUSH1 0x1 PUSH1 0x1 PUSH1 0xA0 SHL SUB DUP6 AND PUSH1 0x0 SWAP1 DUP2 MSTORE PUSH1 0x3 PUSH1 0x20 SWAP1 DUP2 MSTORE PUSH1 0x40 DUP1 DUP4 KECCAK256 DUP8 DUP5 MSTORE SWAP1 SWAP2 MSTORE SWAP1 KECCAK256 SLOAD ISZERO PUSH2 0x1B68 JUMPI PUSH1 0x40 MLOAD PUSH3 0x461BCD PUSH1 0xE5 SHL DUP2 MSTORE PUSH1 0x20 PUSH1 0x4 DUP3 ADD MSTORE PUSH1 0x1A PUSH1 0x24 DUP3 ADD MSTORE PUSH32 0x4E465420686173207573657320617320636F6C6C61746572616C000000000000 PUSH1 0x44 DUP3 ADD MSTORE PUSH1 0x64 ADD PUSH2 0x4C3 JUMP JUMPDEST PUSH1 0x0 DUP3 GT PUSH2 0x1BAE JUMPI PUSH1 0x40 MLOAD PUSH3 0x461BCD PUSH1 0xE5 SHL DUP2 MSTORE PUSH1 0x20 PUSH1 0x4 DUP3 ADD MSTORE PUSH1 0x13 PUSH1 0x24 DUP3 ADD MSTORE PUSH19 0x125B9D985B1A59081B1BD85B88185B5BDD5B9D PUSH1 0x6A SHL PUSH1 0x44 DUP3 ADD MSTORE PUSH1 0x64 ADD PUSH2 0x4C3 JUMP JUMPDEST PUSH1 0x2 SLOAD DUP2 EQ PUSH2 0x1BF7 JUMPI PUSH1 0x40 MLOAD PUSH3 0x461BCD PUSH1 0xE5 SHL DUP2 MSTORE PUSH1 0x20 PUSH1 0x4 DUP3 ADD MSTORE PUSH1 0x15 PUSH1 0x24 DUP3 ADD MSTORE PUSH21 0x34B73B30B634B2103637B0B710323AB930BA34B7B7 PUSH1 0x59 SHL PUSH1 0x44 DUP3 ADD MSTORE PUSH1 0x64 ADD PUSH2 0x4C3 JUMP JUMPDEST PUSH1 0x40 MLOAD PUSH4 0x31A9108F PUSH1 0xE1 SHL DUP2 MSTORE PUSH1 0x4 DUP2 ADD DUP6 SWAP1 MSTORE DUP6 SWAP1 PUSH1 0x1 PUSH1 0x1 PUSH1 0xA0 SHL SUB DUP3 AND SWAP1 PUSH4 0x6352211E SWAP1 PUSH1 0x24 ADD PUSH1 0x20 PUSH1 0x40 MLOAD DUP1 DUP4 SUB DUP2 DUP7 DUP1 EXTCODESIZE ISZERO DUP1 ISZERO PUSH2 0x1C39 JUMPI PUSH1 0x0 DUP1 REVERT JUMPDEST POP GAS STATICCALL ISZERO DUP1 ISZERO PUSH2 0x1C4D JUMPI RETURNDATASIZE PUSH1 0x0 DUP1 RETURNDATACOPY RETURNDATASIZE PUSH1 0x0 REVERT JUMPDEST POP POP POP POP PUSH1 0x40 MLOAD RETURNDATASIZE PUSH1 0x1F NOT PUSH1 0x1F DUP3 ADD AND DUP3 ADD DUP1 PUSH1 0x40 MSTORE POP DUP2 ADD SWAP1 PUSH2 0x1C71 SWAP2 SWAP1 PUSH2 0x2ABF JUMP JUMPDEST PUSH1 0x1 PUSH1 0x1 PUSH1 0xA0 SHL SUB AND CALLER PUSH1 0x1 PUSH1 0x1 PUSH1 0xA0 SHL SUB AND EQ PUSH2 0x1CCC JUMPI PUSH1 0x40 MLOAD PUSH3 0x461BCD PUSH1 0xE5 SHL DUP2 MSTORE PUSH1 0x20 PUSH1 0x4 DUP3 ADD MSTORE PUSH1 0x18 PUSH1 0x24 DUP3 ADD MSTORE PUSH24 0x10D85B1B195C881B5D5CDD081899481BDDDB995C881B999D PUSH1 0x42 SHL PUSH1 0x44 DUP3 ADD MSTORE PUSH1 0x64 ADD PUSH2 0x4C3 JUMP JUMPDEST PUSH1 0x40 MLOAD PUSH4 0x20604BF PUSH1 0xE2 SHL DUP2 MSTORE PUSH1 0x4 DUP2 ADD DUP7 SWAP1 MSTORE ADDRESS SWAP1 PUSH1 0x1 PUSH1 0x1 PUSH1 0xA0 SHL SUB DUP4 AND SWAP1 PUSH4 0x81812FC SWAP1 PUSH1 0x24 ADD PUSH1 0x20 PUSH1 0x40 MLOAD DUP1 DUP4 SUB DUP2 DUP7 DUP1 EXTCODESIZE ISZERO DUP1 ISZERO PUSH2 0x1D0E JUMPI PUSH1 0x0 DUP1 REVERT JUMPDEST POP GAS STATICCALL ISZERO DUP1 ISZERO PUSH2 0x1D22 JUMPI RETURNDATASIZE PUSH1 0x0 DUP1 RETURNDATACOPY RETURNDATASIZE PUSH1 0x0 REVERT JUMPDEST POP POP POP POP PUSH1 0x40 MLOAD RETURNDATASIZE PUSH1 0x1F NOT PUSH1 0x1F DUP3 ADD AND DUP3 ADD DUP1 PUSH1 0x40 MSTORE POP DUP2 ADD SWAP1 PUSH2 0x1D46 SWAP2 SWAP1 PUSH2 0x2ABF JUMP JUMPDEST PUSH1 0x1 PUSH1 0x1 PUSH1 0xA0 SHL SUB AND EQ PUSH2 0x1DB1 JUMPI PUSH1 0x40 MLOAD PUSH3 0x461BCD PUSH1 0xE5 SHL DUP2 MSTORE PUSH1 0x20 PUSH1 0x4 DUP3 ADD MSTORE PUSH1 0x2C PUSH1 0x24 DUP3 ADD MSTORE PUSH32 0x43616C6C657220646964206E6F7420617070726F766520666F72206E6674546F PUSH1 0x44 DUP3 ADD MSTORE PUSH12 0x35B2B724B2103A37B5B2B717 PUSH1 0xA1 SHL PUSH1 0x64 DUP3 ADD MSTORE PUSH1 0x84 ADD PUSH2 0x4C3 JUMP JUMPDEST PUSH1 0x1 PUSH1 0x1 PUSH1 0xA0 SHL SUB DUP1 DUP6 AND PUSH1 0x0 SWAP1 DUP2 MSTORE PUSH1 0x5 PUSH1 0x20 SWAP1 DUP2 MSTORE PUSH1 0x40 DUP1 DUP4 KECCAK256 DUP2 MLOAD PUSH2 0x100 DUP2 ADD DUP4 MSTORE DUP2 SLOAD DUP7 AND DUP2 MSTORE PUSH1 0x1 DUP3 ADD SLOAD SWAP1 SWAP6 AND SWAP3 DUP6 ADD SWAP3 SWAP1 SWAP3 MSTORE PUSH1 0x2 DUP3 ADD DUP1 SLOAD SWAP4 SWAP5 SWAP4 SWAP2 DUP5 ADD SWAP2 PUSH2 0x1E01 SWAP1 PUSH2 0x335A JUMP JUMPDEST DUP1 PUSH1 0x1F ADD PUSH1 0x20 DUP1 SWAP2 DIV MUL PUSH1 0x20 ADD PUSH1 0x40 MLOAD SWAP1 DUP2 ADD PUSH1 0x40 MSTORE DUP1 SWAP3 SWAP2 SWAP1 DUP2 DUP2 MSTORE PUSH1 0x20 ADD DUP3 DUP1 SLOAD PUSH2 0x1E2D SWAP1 PUSH2 0x335A JUMP JUMPDEST DUP1 ISZERO PUSH2 0x1E7A JUMPI DUP1 PUSH1 0x1F LT PUSH2 0x1E4F JUMPI PUSH2 0x100 DUP1 DUP4 SLOAD DIV MUL DUP4 MSTORE SWAP2 PUSH1 0x20 ADD SWAP2 PUSH2 0x1E7A JUMP JUMPDEST DUP3 ADD SWAP2 SWAP1 PUSH1 0x0 MSTORE PUSH1 0x20 PUSH1 0x0 KECCAK256 SWAP1 JUMPDEST DUP2 SLOAD DUP2 MSTORE SWAP1 PUSH1 0x1 ADD SWAP1 PUSH1 0x20 ADD DUP1 DUP4 GT PUSH2 0x1E5D JUMPI DUP3 SWAP1 SUB PUSH1 0x1F AND DUP3 ADD SWAP2 JUMPDEST POP POP POP SWAP2 DUP4 MSTORE POP POP PUSH1 0x3 DUP3 ADD SLOAD PUSH1 0xFF SWAP1 DUP2 AND PUSH1 0x20 DUP1 DUP5 ADD SWAP2 SWAP1 SWAP2 MSTORE PUSH1 0x40 DUP1 MLOAD DUP1 DUP3 ADD DUP3 MSTORE PUSH1 0x4 DUP7 ADD SLOAD DUP2 MSTORE PUSH1 0x5 DUP7 ADD SLOAD DUP2 DUP5 ADD MSTORE DUP2 DUP6 ADD MSTORE DUP1 MLOAD DUP1 DUP3 ADD DUP3 MSTORE PUSH1 0x6 DUP7 ADD SLOAD DUP2 MSTORE PUSH1 0x7 DUP7 ADD SLOAD DUP2 DUP5 ADD MSTORE PUSH1 0x60 DUP6 ADD MSTORE DUP1 MLOAD DUP1 DUP3 ADD SWAP1 SWAP2 MSTORE PUSH1 0x8 DUP6 ADD SLOAD DUP2 MSTORE PUSH1 0x9 DUP6 ADD SLOAD SWAP2 DUP2 ADD SWAP2 SWAP1 SWAP2 MSTORE PUSH1 0x80 DUP1 DUP5 ADD SWAP2 SWAP1 SWAP2 MSTORE PUSH1 0xA SWAP1 SWAP4 ADD SLOAD AND ISZERO ISZERO PUSH1 0xA0 SWAP1 SWAP2 ADD MSTORE DUP2 ADD MLOAD SWAP1 SWAP2 POP PUSH1 0x0 SWAP1 PUSH2 0x1F15 SWAP1 DUP7 SWAP1 PUSH2 0x2959 JUMP JUMPDEST SWAP1 POP TIMESTAMP PUSH2 0x1F26 PUSH1 0x1 DUP1 SLOAD PUSH1 0x1 ADD SWAP1 SSTORE JUMP JUMPDEST PUSH1 0x0 PUSH2 0x1F31 PUSH1 0x1 SLOAD SWAP1 JUMP JUMPDEST PUSH1 0x1 PUSH1 0x1 PUSH1 0xA0 SHL SUB DUP1 DUP13 AND PUSH1 0x0 DUP2 DUP2 MSTORE PUSH1 0x3 PUSH1 0x20 SWAP1 DUP2 MSTORE PUSH1 0x40 DUP1 DUP4 KECCAK256 DUP16 DUP5 MSTORE DUP3 MSTORE DUP1 DUP4 KECCAK256 DUP7 SWAP1 SSTORE DUP1 MLOAD PUSH2 0x160 DUP2 ADD DUP3 MSTORE CALLER DUP2 MSTORE SWAP2 DUP3 ADD SWAP4 SWAP1 SWAP4 MSTORE SWAP2 DUP3 ADD DUP14 SWAP1 MSTORE SWAP2 DUP12 AND PUSH1 0x60 DUP3 ADD MSTORE PUSH1 0x80 DUP2 ADD DUP11 SWAP1 MSTORE PUSH1 0xA0 DUP2 ADD DUP7 SWAP1 MSTORE PUSH1 0xC0 DUP2 ADD DUP3 SWAP1 MSTORE PUSH1 0xE0 DUP2 ADD DUP10 SWAP1 MSTORE PUSH2 0x100 DUP2 ADD DUP3 SWAP1 MSTORE SWAP2 SWAP3 POP SWAP1 PUSH2 0x120 DUP2 ADD DUP3 DUP2 MSTORE PUSH1 0x20 SWAP1 DUP2 ADD DUP6 SWAP1 MSTORE PUSH1 0x0 DUP5 DUP2 MSTORE PUSH1 0x4 DUP1 DUP4 MSTORE PUSH1 0x40 SWAP2 DUP3 SWAP1 KECCAK256 DUP5 MLOAD DUP2 SLOAD PUSH1 0x1 PUSH1 0x1 PUSH1 0xA0 SHL SUB NOT SWAP1 DUP2 AND PUSH1 0x1 PUSH1 0x1 PUSH1 0xA0 SHL SUB SWAP3 DUP4 AND OR DUP4 SSTORE SWAP5 DUP7 ADD MLOAD PUSH1 0x1 DUP1 DUP5 ADD DUP1 SLOAD DUP9 AND SWAP3 DUP5 AND SWAP3 SWAP1 SWAP3 OR SWAP1 SWAP2 SSTORE SWAP4 DUP7 ADD MLOAD PUSH1 0x2 DUP4 ADD SSTORE PUSH1 0x60 DUP7 ADD MLOAD PUSH1 0x3 DUP4 ADD DUP1 SLOAD SWAP1 SWAP7 AND SWAP2 AND OR SWAP1 SWAP4 SSTORE PUSH1 0x80 DUP5 ADD MLOAD SWAP1 DUP4 ADD SSTORE PUSH1 0xA0 DUP4 ADD MLOAD PUSH1 0x5 DUP1 DUP5 ADD SWAP2 SWAP1 SWAP2 SSTORE PUSH1 0xC0 DUP5 ADD MLOAD PUSH1 0x6 DUP5 ADD SSTORE PUSH1 0xE0 DUP5 ADD MLOAD PUSH1 0x7 DUP5 ADD SSTORE PUSH2 0x100 DUP5 ADD MLOAD PUSH1 0x8 DUP5 ADD SSTORE PUSH2 0x120 DUP5 ADD MLOAD PUSH1 0x9 DUP5 ADD DUP1 SLOAD SWAP6 SWAP7 POP DUP7 SWAP6 SWAP2 SWAP4 SWAP1 SWAP3 PUSH1 0xFF NOT SWAP1 SWAP3 AND SWAP2 DUP5 SWAP1 DUP2 GT ISZERO PUSH2 0x2084 JUMPI PUSH4 0x4E487B71 PUSH1 0xE0 SHL PUSH1 0x0 MSTORE PUSH1 0x21 PUSH1 0x4 MSTORE PUSH1 0x24 PUSH1 0x0 REVERT JUMPDEST MUL OR SWAP1 SSTORE POP PUSH2 0x140 DUP3 ADD MLOAD DUP2 PUSH1 0xA ADD SSTORE SWAP1 POP POP PUSH32 0xEB403BC00910E26137E0474BBB869873CE17B514D6605571661C46ED36B3FB5 DUP3 CALLER DUP14 DUP14 DUP14 DUP14 DUP11 DUP15 PUSH1 0x0 DUP13 PUSH1 0x40 MLOAD PUSH2 0x20D9 SWAP11 SWAP10 SWAP9 SWAP8 SWAP7 SWAP6 SWAP5 SWAP4 SWAP3 SWAP2 SWAP1 PUSH2 0x320D JUMP JUMPDEST PUSH1 0x40 MLOAD DUP1 SWAP2 SUB SWAP1 LOG1 POP POP POP POP POP POP POP POP POP POP POP JUMP JUMPDEST PUSH2 0x20F6 PUSH2 0x28AF JUMP JUMPDEST PUSH1 0x1 PUSH1 0x1 PUSH1 0xA0 SHL SUB DUP3 AND PUSH1 0x0 SWAP1 DUP2 MSTORE PUSH1 0x3 PUSH1 0x20 SWAP1 DUP2 MSTORE PUSH1 0x40 DUP1 DUP4 KECCAK256 DUP5 DUP5 MSTORE SWAP1 SWAP2 MSTORE SWAP1 KECCAK256 SLOAD PUSH2 0x2136 JUMPI PUSH1 0x40 MLOAD PUSH3 0x461BCD PUSH1 0xE5 SHL DUP2 MSTORE PUSH1 0x4 ADD PUSH2 0x4C3 SWAP1 PUSH2 0x302A JUMP JUMPDEST PUSH1 0x1 PUSH1 0x1 PUSH1 0xA0 SHL SUB DUP3 AND PUSH1 0x0 SWAP1 DUP2 MSTORE PUSH1 0x3 PUSH1 0x20 SWAP1 DUP2 MSTORE PUSH1 0x40 DUP1 DUP4 KECCAK256 DUP5 DUP5 MSTORE DUP3 MSTORE DUP1 DUP4 KECCAK256 SLOAD DUP1 DUP5 MSTORE PUSH1 0x4 SWAP1 SWAP3 MSTORE SWAP1 SWAP2 KECCAK256 PUSH1 0x2 PUSH1 0x9 DUP3 ADD SLOAD PUSH1 0xFF AND PUSH1 0x5 DUP2 GT ISZERO PUSH2 0x218E JUMPI PUSH4 0x4E487B71 PUSH1 0xE0 SHL PUSH1 0x0 MSTORE PUSH1 0x21 PUSH1 0x4 MSTORE PUSH1 0x24 PUSH1 0x0 REVERT JUMPDEST EQ PUSH2 0x21AB JUMPI PUSH1 0x40 MLOAD PUSH3 0x461BCD PUSH1 0xE5 SHL DUP2 MSTORE PUSH1 0x4 ADD PUSH2 0x4C3 SWAP1 PUSH2 0x2FB8 JUMP JUMPDEST PUSH1 0x8 DUP2 ADD SLOAD TIMESTAMP SWAP1 DUP2 GT PUSH2 0x2200 JUMPI PUSH1 0x40 MLOAD PUSH3 0x461BCD PUSH1 0xE5 SHL DUP2 MSTORE PUSH1 0x20 PUSH1 0x4 DUP3 ADD MSTORE PUSH1 0x18 PUSH1 0x24 DUP3 ADD MSTORE PUSH32 0x496E76616C69642074696D65204C69717569646174696F6E0000000000000000 PUSH1 0x44 DUP3 ADD MSTORE PUSH1 0x64 ADD PUSH2 0x4C3 JUMP JUMPDEST PUSH1 0x1 DUP3 ADD SLOAD PUSH1 0x1 PUSH1 0x1 PUSH1 0xA0 SHL SUB AND PUSH4 0x42842E0E ADDRESS PUSH2 0x2226 PUSH1 0x0 SLOAD PUSH1 0x1 PUSH1 0x1 PUSH1 0xA0 SHL SUB AND SWAP1 JUMP JUMPDEST DUP6 PUSH1 0x2 ADD SLOAD PUSH1 0x40 MLOAD DUP5 PUSH4 0xFFFFFFFF AND PUSH1 0xE0 SHL DUP2 MSTORE PUSH1 0x4 ADD PUSH2 0x2249 SWAP4 SWAP3 SWAP2 SWAP1 PUSH2 0x2EC2 JUMP JUMPDEST PUSH1 0x0 PUSH1 0x40 MLOAD DUP1 DUP4 SUB DUP2 PUSH1 0x0 DUP8 DUP1 EXTCODESIZE ISZERO DUP1 ISZERO PUSH2 0x2263 JUMPI PUSH1 0x0 DUP1 REVERT JUMPDEST POP GAS CALL ISZERO DUP1 ISZERO PUSH2 0x2277 JUMPI RETURNDATASIZE PUSH1 0x0 DUP1 RETURNDATACOPY RETURNDATASIZE PUSH1 0x0 REVERT JUMPDEST POP POP POP POP PUSH1 0x9 DUP3 ADD DUP1 SLOAD PUSH1 0xFF NOT AND PUSH1 0x5 SWAP1 DUP2 OR SWAP1 SWAP2 SSTORE PUSH1 0x40 MLOAD PUSH32 0x32E5FF6ED7DEFCD1227B3206B0EE7DFAD0014A0AA1379113C505E079DEA024C3 SWAP2 PUSH2 0x19EA SWAP2 DUP7 SWAP2 SWAP1 DUP6 SWAP1 PUSH2 0x3274 JUMP JUMPDEST PUSH2 0x22C8 PUSH2 0x28AF JUMP JUMPDEST PUSH1 0x1 PUSH1 0x1 PUSH1 0xA0 SHL SUB DUP8 AND PUSH1 0x0 SWAP1 DUP2 MSTORE PUSH1 0x5 PUSH1 0x20 MSTORE PUSH1 0x40 SWAP1 KECCAK256 PUSH1 0xA ADD SLOAD PUSH1 0xFF AND ISZERO ISZERO PUSH1 0x1 EQ PUSH2 0x232B JUMPI PUSH1 0x40 MLOAD PUSH3 0x461BCD PUSH1 0xE5 SHL DUP2 MSTORE PUSH1 0x20 PUSH1 0x4 DUP3 ADD MSTORE PUSH1 0x10 PUSH1 0x24 DUP3 ADD MSTORE PUSH16 0x151BDAD95B881B5D5CDD08195E1A5CDD PUSH1 0x82 SHL PUSH1 0x44 DUP3 ADD MSTORE PUSH1 0x64 ADD PUSH2 0x4C3 JUMP JUMPDEST PUSH1 0x0 DUP7 GT DUP1 ISZERO PUSH2 0x233B JUMPI POP PUSH1 0x0 DUP6 GT JUMPDEST DUP1 ISZERO PUSH2 0x2347 JUMPI POP PUSH1 0x0 DUP5 GT JUMPDEST DUP1 ISZERO PUSH2 0x2353 JUMPI POP PUSH1 0x0 DUP4 GT JUMPDEST DUP1 ISZERO PUSH2 0x235F JUMPI POP PUSH1 0x0 DUP3 GT JUMPDEST DUP1 ISZERO PUSH2 0x236B JUMPI POP PUSH1 0x0 DUP2 GT JUMPDEST PUSH2 0x23AA JUMPI PUSH1 0x40 MLOAD PUSH3 0x461BCD PUSH1 0xE5 SHL DUP2 MSTORE PUSH1 0x20 PUSH1 0x4 DUP3 ADD MSTORE PUSH1 0x10 PUSH1 0x24 DUP3 ADD MSTORE PUSH16 0x52617465206D757374206265203E203 PUSH1 0x84 SHL PUSH1 0x44 DUP3 ADD MSTORE PUSH1 0x64 ADD PUSH2 0x4C3 JUMP JUMPDEST PUSH1 0x1 PUSH1 0x1 PUSH1 0xA0 SHL SUB DUP8 AND PUSH1 0x0 DUP2 DUP2 MSTORE PUSH1 0x5 PUSH1 0x20 DUP2 DUP2 MSTORE PUSH1 0x40 SWAP3 DUP4 SWAP1 KECCAK256 PUSH1 0x4 DUP2 ADD DUP12 SWAP1 SSTORE SWAP2 DUP3 ADD DUP10 SWAP1 SSTORE PUSH1 0x6 DUP3 ADD DUP9 SWAP1 SSTORE PUSH1 0x7 DUP3 ADD DUP8 SWAP1 SSTORE PUSH1 0x8 DUP3 ADD DUP7 SWAP1 SSTORE PUSH1 0x9 DUP3 ADD DUP6 SWAP1 SSTORE DUP3 MLOAD SWAP4 DUP5 MSTORE DUP4 ADD DUP10 SWAP1 MSTORE SWAP1 DUP3 ADD DUP8 SWAP1 MSTORE PUSH1 0x60 DUP3 ADD DUP7 SWAP1 MSTORE PUSH1 0x80 DUP3 ADD DUP6 SWAP1 MSTORE PUSH1 0xA0 DUP3 ADD DUP5 SWAP1 MSTORE PUSH1 0xC0 DUP3 ADD DUP4 SWAP1 MSTORE SWAP1 PUSH32 0x4712A776F4507790315AE66C18C7BFCFEFF4C1A5480788047CCB96D24A98C1AB SWAP1 PUSH1 0xE0 ADD JUMPDEST PUSH1 0x40 MLOAD DUP1 SWAP2 SUB SWAP1 LOG1 POP POP POP POP POP POP POP POP JUMP JUMPDEST PUSH2 0x245C PUSH2 0x28AF JUMP JUMPDEST PUSH1 0x1 PUSH1 0x1 PUSH1 0xA0 SHL SUB DUP2 AND PUSH2 0x24C1 JUMPI PUSH1 0x40 MLOAD PUSH3 0x461BCD PUSH1 0xE5 SHL DUP2 MSTORE PUSH1 0x20 PUSH1 0x4 DUP3 ADD MSTORE PUSH1 0x26 PUSH1 0x24 DUP3 ADD MSTORE PUSH32 0x4F776E61626C653A206E6577206F776E657220697320746865207A65726F2061 PUSH1 0x44 DUP3 ADD MSTORE PUSH6 0x646472657373 PUSH1 0xD0 SHL PUSH1 0x64 DUP3 ADD MSTORE PUSH1 0x84 ADD PUSH2 0x4C3 JUMP JUMPDEST PUSH2 0x24CA DUP2 PUSH2 0x2909 JUMP JUMPDEST POP JUMP JUMPDEST PUSH2 0x24D5 PUSH2 0x28AF JUMP JUMPDEST PUSH1 0x1 PUSH1 0x1 PUSH1 0xA0 SHL SUB DUP3 AND PUSH2 0x24FB JUMPI PUSH1 0x40 MLOAD PUSH3 0x461BCD PUSH1 0xE5 SHL DUP2 MSTORE PUSH1 0x4 ADD PUSH2 0x4C3 SWAP1 PUSH2 0x3061 JUMP JUMPDEST PUSH1 0x0 DUP2 GT PUSH2 0x2545 JUMPI PUSH1 0x40 MLOAD PUSH3 0x461BCD PUSH1 0xE5 SHL DUP2 MSTORE PUSH1 0x20 PUSH1 0x4 DUP3 ADD MSTORE PUSH1 0x17 PUSH1 0x24 DUP3 ADD MSTORE PUSH23 0x416D6F756E7420746F6B656E20697320746F6F206C6F77 PUSH1 0x48 SHL PUSH1 0x44 DUP3 ADD MSTORE PUSH1 0x64 ADD PUSH2 0x4C3 JUMP JUMPDEST PUSH1 0x40 MLOAD PUSH4 0xA9059CBB PUSH1 0xE0 SHL DUP2 MSTORE CALLER PUSH1 0x4 DUP3 ADD MSTORE PUSH1 0x24 DUP2 ADD DUP3 SWAP1 MSTORE PUSH1 0x1 PUSH1 0x1 PUSH1 0xA0 SHL SUB DUP4 AND SWAP1 PUSH4 0xA9059CBB SWAP1 PUSH1 0x44 ADD PUSH1 0x20 PUSH1 0x40 MLOAD DUP1 DUP4 SUB DUP2 PUSH1 0x0 DUP8 DUP1 EXTCODESIZE ISZERO DUP1 ISZERO PUSH2 0x258D JUMPI PUSH1 0x0 DUP1 REVERT JUMPDEST POP GAS CALL ISZERO DUP1 ISZERO PUSH2 0x25A1 JUMPI RETURNDATASIZE PUSH1 0x0 DUP1 RETURNDATACOPY RETURNDATASIZE PUSH1 0x0 REVERT JUMPDEST POP POP POP POP PUSH1 0x40 MLOAD RETURNDATASIZE PUSH1 0x1F NOT PUSH1 0x1F DUP3 ADD AND DUP3 ADD DUP1 PUSH1 0x40 MSTORE POP DUP2 ADD SWAP1 PUSH2 0x25C5 SWAP2 SWAP1 PUSH2 0x2CBD JUMP JUMPDEST POP PUSH1 0x40 DUP1 MLOAD PUSH1 0x1 PUSH1 0x1 PUSH1 0xA0 SHL SUB DUP5 AND DUP2 MSTORE PUSH1 0x20 DUP2 ADD DUP4 SWAP1 MSTORE PUSH32 0x68577E4D693C1B056A60BC4E39438810239A0BFE64869C4EB7E3BAEBB5F65634 SWAP2 ADD PUSH2 0x11F3 JUMP JUMPDEST PUSH1 0x1 PUSH1 0x1 PUSH1 0xA0 SHL SUB DUP4 AND PUSH1 0x0 SWAP1 DUP2 MSTORE PUSH1 0x3 PUSH1 0x20 SWAP1 DUP2 MSTORE PUSH1 0x40 DUP1 DUP4 KECCAK256 DUP6 DUP5 MSTORE SWAP1 SWAP2 MSTORE SWAP1 KECCAK256 SLOAD PUSH2 0x2645 JUMPI PUSH1 0x40 MLOAD PUSH3 0x461BCD PUSH1 0xE5 SHL DUP2 MSTORE PUSH1 0x4 ADD PUSH2 0x4C3 SWAP1 PUSH2 0x302A JUMP JUMPDEST PUSH1 0x2 SLOAD DUP2 EQ PUSH2 0x2696 JUMPI PUSH1 0x40 MLOAD PUSH3 0x461BCD PUSH1 0xE5 SHL DUP2 MSTORE PUSH1 0x20 PUSH1 0x4 DUP3 ADD MSTORE PUSH1 0x19 PUSH1 0x24 DUP3 ADD MSTORE PUSH32 0x4C6F616E20657874656E73696F6E206973206C696D6974656400000000000000 PUSH1 0x44 DUP3 ADD MSTORE PUSH1 0x64 ADD PUSH2 0x4C3 JUMP JUMPDEST PUSH1 0x1 PUSH1 0x1 PUSH1 0xA0 SHL SUB DUP4 AND PUSH1 0x0 SWAP1 DUP2 MSTORE PUSH1 0x3 PUSH1 0x20 SWAP1 DUP2 MSTORE PUSH1 0x40 DUP1 DUP4 KECCAK256 DUP6 DUP5 MSTORE DUP3 MSTORE DUP1 DUP4 KECCAK256 SLOAD DUP1 DUP5 MSTORE PUSH1 0x4 SWAP1 SWAP3 MSTORE SWAP1 SWAP2 KECCAK256 PUSH1 0x2 PUSH1 0x9 DUP3 ADD SLOAD PUSH1 0xFF AND PUSH1 0x5 DUP2 GT ISZERO PUSH2 0x26EE JUMPI PUSH4 0x4E487B71 PUSH1 0xE0 SHL PUSH1 0x0 MSTORE PUSH1 0x21 PUSH1 0x4 MSTORE PUSH1 0x24 PUSH1 0x0 REVERT JUMPDEST EQ PUSH2 0x270B JUMPI PUSH1 0x40 MLOAD PUSH3 0x461BCD PUSH1 0xE5 SHL DUP2 MSTORE PUSH1 0x4 ADD PUSH2 0x4C3 SWAP1 PUSH2 0x2FB8 JUMP JUMPDEST PUSH1 0x4 DUP2 ADD SLOAD PUSH1 0x3 DUP3 ADD SLOAD PUSH1 0x1 PUSH1 0x1 PUSH1 0xA0 SHL SUB AND PUSH1 0x0 SWAP1 DUP2 MSTORE PUSH1 0x5 PUSH1 0x20 SWAP1 DUP2 MSTORE PUSH1 0x40 DUP1 DUP4 KECCAK256 DUP2 MLOAD DUP1 DUP4 ADD SWAP1 SWAP3 MSTORE PUSH1 0x6 DUP2 ADD SLOAD DUP3 MSTORE PUSH1 0x7 ADD SLOAD SWAP2 DUP2 ADD SWAP2 SWAP1 SWAP2 MSTORE SWAP1 SWAP2 PUSH2 0x2754 SWAP2 PUSH2 0x2850 JUMP JUMPDEST PUSH1 0x3 DUP4 ADD SLOAD PUSH1 0x40 MLOAD PUSH4 0x23B872DD PUSH1 0xE0 SHL DUP2 MSTORE SWAP2 SWAP3 POP PUSH1 0x1 PUSH1 0x1 PUSH1 0xA0 SHL SUB AND SWAP1 PUSH4 0x23B872DD SWAP1 PUSH2 0x278B SWAP1 CALLER SWAP1 ADDRESS SWAP1 DUP7 SWAP1 PUSH1 0x4 ADD PUSH2 0x2EC2 JUMP JUMPDEST PUSH1 0x20 PUSH1 0x40 MLOAD DUP1 DUP4 SUB DUP2 PUSH1 0x0 DUP8 DUP1 EXTCODESIZE ISZERO DUP1 ISZERO PUSH2 0x27A5 JUMPI PUSH1 0x0 DUP1 REVERT JUMPDEST POP GAS CALL ISZERO DUP1 ISZERO PUSH2 0x27B9 JUMPI RETURNDATASIZE PUSH1 0x0 DUP1 RETURNDATACOPY RETURNDATASIZE PUSH1 0x0 REVERT JUMPDEST POP POP POP POP PUSH1 0x40 MLOAD RETURNDATASIZE PUSH1 0x1F NOT PUSH1 0x1F DUP3 ADD AND DUP3 ADD DUP1 PUSH1 0x40 MSTORE POP DUP2 ADD SWAP1 PUSH2 0x27DD SWAP2 SWAP1 PUSH2 0x2CBD JUMP JUMPDEST POP PUSH1 0x8 DUP3 ADD SLOAD TIMESTAMP SWAP1 PUSH2 0x27F2 DUP7 PUSH3 0x15180 PUSH2 0x32F4 JUMP JUMPDEST PUSH2 0x27FC SWAP1 DUP3 PUSH2 0x32BC JUMP JUMPDEST PUSH1 0x8 DUP6 ADD DUP2 SWAP1 SSTORE PUSH1 0x40 DUP1 MLOAD DUP8 DUP2 MSTORE PUSH1 0x20 DUP2 ADD DUP6 SWAP1 MSTORE SWAP1 DUP2 ADD DUP9 SWAP1 MSTORE PUSH1 0x60 DUP2 ADD DUP6 SWAP1 MSTORE PUSH1 0x80 DUP2 ADD SWAP2 SWAP1 SWAP2 MSTORE PUSH32 0xBEEDAE6C6C669CBDD40F471F452F6941BE0F408DEAC94349F1F9A06BF8EAE7C3 SWAP1 PUSH1 0xA0 ADD PUSH2 0x2442 JUMP JUMPDEST PUSH1 0x0 DUP3 PUSH2 0x285F JUMPI POP PUSH1 0x0 PUSH2 0x685 JUMP JUMPDEST DUP2 MLOAD PUSH1 0x0 SWAP1 PUSH2 0x286E SWAP1 DUP6 PUSH2 0x32F4 JUMP JUMPDEST DUP4 MLOAD SWAP1 SWAP2 POP PUSH2 0x287D DUP6 DUP4 PUSH2 0x32D4 JUMP JUMPDEST EQ PUSH2 0x2898 JUMPI PUSH4 0x4E487B71 PUSH1 0xE0 SHL PUSH1 0x0 MSTORE PUSH1 0x1 PUSH1 0x4 MSTORE PUSH1 0x24 PUSH1 0x0 REVERT JUMPDEST PUSH1 0x20 DUP4 ADD MLOAD PUSH2 0x28A7 SWAP1 DUP3 PUSH2 0x32D4 JUMP JUMPDEST SWAP5 SWAP4 POP POP POP POP JUMP JUMPDEST PUSH1 0x0 SLOAD PUSH1 0x1 PUSH1 0x1 PUSH1 0xA0 SHL SUB AND CALLER EQ PUSH2 0x126B JUMPI PUSH1 0x40 MLOAD PUSH3 0x461BCD PUSH1 0xE5 SHL DUP2 MSTORE PUSH1 0x20 PUSH1 0x4 DUP3 ADD DUP2 SWAP1 MSTORE PUSH1 0x24 DUP3 ADD MSTORE PUSH32 0x4F776E61626C653A2063616C6C6572206973206E6F7420746865206F776E6572 PUSH1 0x44 DUP3 ADD MSTORE PUSH1 0x64 ADD PUSH2 0x4C3 JUMP JUMPDEST PUSH1 0x0 DUP1 SLOAD PUSH1 0x1 PUSH1 0x1 PUSH1 0xA0 SHL SUB DUP4 DUP2 AND PUSH1 0x1 PUSH1 0x1 PUSH1 0xA0 SHL SUB NOT DUP4 AND DUP2 OR DUP5 SSTORE PUSH1 0x40 MLOAD SWAP2 SWAP1 SWAP3 AND SWAP3 DUP4 SWAP2 PUSH32 0x8BE0079C531659141344CD1FD0A4F28419497F9722A3DAAFE3B4186F6B6457E0 SWAP2 SWAP1 LOG3 POP POP JUMP JUMPDEST PUSH1 0x0 PUSH2 0x2965 DUP4 DUP4 PUSH2 0x2850 JUMP JUMPDEST PUSH2 0x296F SWAP1 DUP5 PUSH2 0x32BC JUMP JUMPDEST SWAP4 SWAP3 POP POP POP JUMP JUMPDEST PUSH1 0x40 MLOAD DUP1 PUSH2 0x160 ADD PUSH1 0x40 MSTORE DUP1 PUSH1 0x0 PUSH1 0x1 PUSH1 0x1 PUSH1 0xA0 SHL SUB AND DUP2 MSTORE PUSH1 0x20 ADD PUSH1 0x0 PUSH1 0x1 PUSH1 0x1 PUSH1 0xA0 SHL SUB AND DUP2 MSTORE PUSH1 0x20 ADD PUSH1 0x0 DUP2 MSTORE PUSH1 0x20 ADD PUSH1 0x0 PUSH1 0x1 PUSH1 0x1 PUSH1 0xA0 SHL SUB AND DUP2 MSTORE PUSH1 0x20 ADD PUSH1 0x0 DUP2 MSTORE PUSH1 0x20 ADD PUSH1 0x0 DUP2 MSTORE PUSH1 0x20 ADD PUSH1 0x0 DUP2 MSTORE PUSH1 0x20 ADD PUSH1 0x0 DUP2 MSTORE PUSH1 0x20 ADD PUSH1 0x0 DUP2 MSTORE PUSH1 0x20 ADD PUSH1 0x0 PUSH1 0x5 DUP2 GT ISZERO PUSH2 0x29FD JUMPI PUSH4 0x4E487B71 PUSH1 0xE0 SHL PUSH1 0x0 MSTORE PUSH1 0x21 PUSH1 0x4 MSTORE PUSH1 0x24 PUSH1 0x0 REVERT JUMPDEST DUP2 MSTORE PUSH1 0x20 ADD PUSH1 0x0 DUP2 MSTORE POP SWAP1 JUMP JUMPDEST DUP3 DUP1 SLOAD PUSH2 0x2A16 SWAP1 PUSH2 0x335A JUMP JUMPDEST SWAP1 PUSH1 0x0 MSTORE PUSH1 0x20 PUSH1 0x0 KECCAK256 SWAP1 PUSH1 0x1F ADD PUSH1 0x20 SWAP1 DIV DUP2 ADD SWAP3 DUP3 PUSH2 0x2A38 JUMPI PUSH1 0x0 DUP6 SSTORE PUSH2 0x2A7E JUMP JUMPDEST DUP3 PUSH1 0x1F LT PUSH2 0x2A51 JUMPI DUP1 MLOAD PUSH1 0xFF NOT AND DUP4 DUP1 ADD OR DUP6 SSTORE PUSH2 0x2A7E JUMP JUMPDEST DUP3 DUP1 ADD PUSH1 0x1 ADD DUP6 SSTORE DUP3 ISZERO PUSH2 0x2A7E JUMPI SWAP2 DUP3 ADD JUMPDEST DUP3 DUP2 GT ISZERO PUSH2 0x2A7E JUMPI DUP3 MLOAD DUP3 SSTORE SWAP2 PUSH1 0x20 ADD SWAP2 SWAP1 PUSH1 0x1 ADD SWAP1 PUSH2 0x2A63 JUMP JUMPDEST POP PUSH2 0x2A8A SWAP3 SWAP2 POP PUSH2 0x2A8E JUMP JUMPDEST POP SWAP1 JUMP JUMPDEST JUMPDEST DUP1 DUP3 GT ISZERO PUSH2 0x2A8A JUMPI PUSH1 0x0 DUP2 SSTORE PUSH1 0x1 ADD PUSH2 0x2A8F JUMP JUMPDEST PUSH1 0x0 PUSH1 0x20 DUP3 DUP5 SUB SLT ISZERO PUSH2 0x2AB4 JUMPI DUP1 DUP2 REVERT JUMPDEST DUP2 CALLDATALOAD PUSH2 0x296F DUP2 PUSH2 0x33C1 JUMP JUMPDEST PUSH1 0x0 PUSH1 0x20 DUP3 DUP5 SUB SLT ISZERO PUSH2 0x2AD0 JUMPI DUP1 DUP2 REVERT JUMPDEST DUP2 MLOAD PUSH2 0x296F DUP2 PUSH2 0x33C1 JUMP JUMPDEST PUSH1 0x0 DUP1 PUSH1 0x0 DUP1 PUSH1 0x0 PUSH1 0x80 DUP7 DUP9 SUB SLT ISZERO PUSH2 0x2AF2 JUMPI DUP1 DUP2 REVERT JUMPDEST DUP6 CALLDATALOAD PUSH2 0x2AFD DUP2 PUSH2 0x33C1 JUMP JUMPDEST SWAP5 POP PUSH1 0x20 DUP7 ADD CALLDATALOAD PUSH2 0x2B0D DUP2 PUSH2 0x33C1 JUMP JUMPDEST SWAP4 POP PUSH1 0x40 DUP7 ADD CALLDATALOAD SWAP3 POP PUSH1 0x60 DUP7 ADD CALLDATALOAD PUSH8 0xFFFFFFFFFFFFFFFF DUP1 DUP3 GT ISZERO PUSH2 0x2B30 JUMPI DUP3 DUP4 REVERT JUMPDEST DUP2 DUP9 ADD SWAP2 POP DUP9 PUSH1 0x1F DUP4 ADD SLT PUSH2 0x2B43 JUMPI DUP3 DUP4 REVERT JUMPDEST DUP2 CALLDATALOAD DUP2 DUP2 GT ISZERO PUSH2 0x2B51 JUMPI DUP4 DUP5 REVERT JUMPDEST DUP10 PUSH1 0x20 DUP3 DUP6 ADD ADD GT ISZERO PUSH2 0x2B62 JUMPI DUP4 DUP5 REVERT JUMPDEST SWAP7 SWAP10 SWAP6 SWAP9 POP SWAP4 SWAP7 POP PUSH1 0x20 ADD SWAP5 SWAP4 SWAP3 POP POP POP JUMP JUMPDEST PUSH1 0x0 DUP1 PUSH1 0x40 DUP4 DUP6 SUB SLT ISZERO PUSH2 0x2B87 JUMPI DUP2 DUP3 REVERT JUMPDEST DUP3 CALLDATALOAD PUSH2 0x2B92 DUP2 PUSH2 0x33C1 JUMP JUMPDEST SWAP5 PUSH1 0x20 SWAP4 SWAP1 SWAP4 ADD CALLDATALOAD SWAP4 POP POP POP JUMP JUMPDEST PUSH1 0x0 DUP1 PUSH1 0x0 DUP1 PUSH1 0x0 PUSH1 0xA0 DUP7 DUP9 SUB SLT ISZERO PUSH2 0x2BB7 JUMPI DUP1 DUP2 REVERT JUMPDEST DUP6 CALLDATALOAD PUSH2 0x2BC2 DUP2 PUSH2 0x33C1 JUMP JUMPDEST SWAP5 POP PUSH1 0x20 DUP7 ADD CALLDATALOAD SWAP4 POP PUSH1 0x40 DUP7 ADD CALLDATALOAD PUSH2 0x2BD9 DUP2 PUSH2 0x33C1 JUMP JUMPDEST SWAP5 SWAP8 SWAP4 SWAP7 POP SWAP4 SWAP5 PUSH1 0x60 DUP2 ADD CALLDATALOAD SWAP5 POP PUSH1 0x80 ADD CALLDATALOAD SWAP3 SWAP2 POP POP JUMP JUMPDEST PUSH1 0x0 DUP1 PUSH1 0x0 PUSH1 0x60 DUP5 DUP7 SUB SLT ISZERO PUSH2 0x2C05 JUMPI DUP3 DUP4 REVERT JUMPDEST DUP4 CALLDATALOAD PUSH2 0x2C10 DUP2 PUSH2 0x33C1 JUMP JUMPDEST SWAP3 POP PUSH1 0x20 DUP5 ADD CALLDATALOAD SWAP2 POP PUSH1 0x40 DUP5 ADD CALLDATALOAD PUSH1 0x6 DUP2 LT PUSH2 0x2C2A JUMPI DUP2 DUP3 REVERT JUMPDEST DUP1 SWAP2 POP POP SWAP3 POP SWAP3 POP SWAP3 JUMP JUMPDEST PUSH1 0x0 DUP1 PUSH1 0x0 PUSH1 0x60 DUP5 DUP7 SUB SLT ISZERO PUSH2 0x2C49 JUMPI DUP3 DUP4 REVERT JUMPDEST DUP4 CALLDATALOAD PUSH2 0x2C54 DUP2 PUSH2 0x33C1 JUMP JUMPDEST SWAP6 PUSH1 0x20 DUP6 ADD CALLDATALOAD SWAP6 POP PUSH1 0x40 SWAP1 SWAP5 ADD CALLDATALOAD SWAP4 SWAP3 POP POP POP JUMP JUMPDEST PUSH1 0x0 DUP1 PUSH1 0x0 DUP1 PUSH1 0x0 DUP1 PUSH1 0x0 PUSH1 0xE0 DUP9 DUP11 SUB SLT ISZERO PUSH2 0x2C83 JUMPI DUP2 DUP3 REVERT JUMPDEST DUP8 CALLDATALOAD PUSH2 0x2C8E DUP2 PUSH2 0x33C1 JUMP JUMPDEST SWAP10 PUSH1 0x20 DUP10 ADD CALLDATALOAD SWAP10 POP PUSH1 0x40 DUP10 ADD CALLDATALOAD SWAP9 PUSH1 0x60 DUP2 ADD CALLDATALOAD SWAP9 POP PUSH1 0x80 DUP2 ADD CALLDATALOAD SWAP8 POP PUSH1 0xA0 DUP2 ADD CALLDATALOAD SWAP7 POP PUSH1 0xC0 ADD CALLDATALOAD SWAP5 POP SWAP3 POP POP POP JUMP JUMPDEST PUSH1 0x0 PUSH1 0x20 DUP3 DUP5 SUB SLT ISZERO PUSH2 0x2CCE JUMPI DUP1 DUP2 REVERT JUMPDEST DUP2 MLOAD DUP1 ISZERO ISZERO DUP2 EQ PUSH2 0x296F JUMPI DUP2 DUP3 REVERT JUMPDEST PUSH1 0x0 PUSH1 0x20 DUP3 DUP5 SUB SLT ISZERO PUSH2 0x2CEE JUMPI DUP1 DUP2 REVERT JUMPDEST DUP2 MLOAD PUSH8 0xFFFFFFFFFFFFFFFF DUP1 DUP3 GT ISZERO PUSH2 0x2D05 JUMPI DUP3 DUP4 REVERT JUMPDEST DUP2 DUP5 ADD SWAP2 POP DUP5 PUSH1 0x1F DUP4 ADD SLT PUSH2 0x2D18 JUMPI DUP3 DUP4 REVERT JUMPDEST DUP2 MLOAD DUP2 DUP2 GT ISZERO PUSH2 0x2D2A JUMPI PUSH2 0x2D2A PUSH2 0x33AB JUMP JUMPDEST PUSH1 0x40 MLOAD PUSH1 0x1F DUP3 ADD PUSH1 0x1F NOT SWAP1 DUP2 AND PUSH1 0x3F ADD AND DUP2 ADD SWAP1 DUP4 DUP3 GT DUP2 DUP4 LT OR ISZERO PUSH2 0x2D52 JUMPI PUSH2 0x2D52 PUSH2 0x33AB JUMP JUMPDEST DUP2 PUSH1 0x40 MSTORE DUP3 DUP2 MSTORE DUP8 PUSH1 0x20 DUP5 DUP8 ADD ADD GT ISZERO PUSH2 0x2D6A JUMPI DUP6 DUP7 REVERT JUMPDEST PUSH2 0x2D7B DUP4 PUSH1 0x20 DUP4 ADD PUSH1 0x20 DUP9 ADD PUSH2 0x332A JUMP JUMPDEST SWAP8 SWAP7 POP POP POP POP POP POP POP JUMP JUMPDEST PUSH1 0x0 PUSH1 0x20 DUP3 DUP5 SUB SLT ISZERO PUSH2 0x2D97 JUMPI DUP1 DUP2 REVERT JUMPDEST POP CALLDATALOAD SWAP2 SWAP1 POP JUMP JUMPDEST PUSH1 0x0 DUP1 PUSH1 0x0 PUSH1 0x60 DUP5 DUP7 SUB SLT ISZERO PUSH2 0x2DB2 JUMPI DUP1 DUP2 REVERT JUMPDEST POP POP DUP2 CALLDATALOAD SWAP4 PUSH1 0x20 DUP4 ADD CALLDATALOAD SWAP4 POP PUSH1 0x40 SWAP1 SWAP3 ADD CALLDATALOAD SWAP2 SWAP1 POP JUMP JUMPDEST PUSH1 0x0 PUSH1 0x20 DUP3 DUP5 SUB SLT ISZERO PUSH2 0x2DDA JUMPI DUP1 DUP2 REVERT JUMPDEST DUP2 MLOAD PUSH1 0xFF DUP2 AND DUP2 EQ PUSH2 0x296F JUMPI DUP2 DUP3 REVERT JUMPDEST PUSH1 0x6 DUP2 LT PUSH2 0x2E08 JUMPI PUSH4 0x4E487B71 PUSH1 0xE0 SHL PUSH1 0x0 MSTORE PUSH1 0x21 PUSH1 0x4 MSTORE PUSH1 0x24 PUSH1 0x0 REVERT JUMPDEST SWAP1 MSTORE JUMP JUMPDEST PUSH1 0x0 DUP2 MLOAD DUP1 DUP5 MSTORE PUSH2 0x2E24 DUP2 PUSH1 0x20 DUP7 ADD PUSH1 0x20 DUP7 ADD PUSH2 0x332A JUMP JUMPDEST PUSH1 0x1F ADD PUSH1 0x1F NOT AND SWAP3 SWAP1 SWAP3 ADD PUSH1 0x20 ADD SWAP3 SWAP2 POP POP JUMP JUMPDEST PUSH1 0x1 PUSH1 0x1 PUSH1 0xA0 SHL SUB DUP10 DUP2 AND DUP3 MSTORE DUP9 AND PUSH1 0x20 DUP3 ADD MSTORE PUSH2 0x160 PUSH1 0x40 DUP3 ADD DUP2 SWAP1 MSTORE PUSH1 0x0 SWAP1 PUSH2 0x2E65 DUP4 DUP3 ADD DUP11 PUSH2 0x2E0C JUMP JUMPDEST PUSH1 0xFF DUP10 AND PUSH1 0x60 DUP6 ADD MSTORE DUP8 MLOAD PUSH1 0x80 DUP6 ADD MSTORE PUSH1 0x20 DUP9 ADD MLOAD PUSH1 0xA0 DUP6 ADD MSTORE SWAP2 POP PUSH2 0x2E88 SWAP1 POP JUMP JUMPDEST DUP5 MLOAD PUSH1 0xC0 DUP4 ADD MSTORE PUSH1 0x20 DUP6 ADD MLOAD PUSH1 0xE0 DUP4 ADD MSTORE DUP4 MLOAD PUSH2 0x100 DUP4 ADD MSTORE PUSH1 0x20 DUP5 ADD MLOAD PUSH2 0x120 DUP4 ADD MSTORE DUP3 ISZERO ISZERO PUSH2 0x140 DUP4 ADD MSTORE SWAP10 SWAP9 POP POP POP POP POP POP POP POP POP JUMP JUMPDEST PUSH1 0x1 PUSH1 0x1 PUSH1 0xA0 SHL SUB SWAP4 DUP5 AND DUP2 MSTORE SWAP2 SWAP1 SWAP3 AND PUSH1 0x20 DUP3 ADD MSTORE PUSH1 0x40 DUP2 ADD SWAP2 SWAP1 SWAP2 MSTORE PUSH1 0x60 ADD SWAP1 JUMP JUMPDEST PUSH1 0x1 PUSH1 0x1 PUSH1 0xA0 SHL SUB DUP13 DUP2 AND DUP3 MSTORE DUP12 DUP2 AND PUSH1 0x20 DUP4 ADD MSTORE PUSH1 0x40 DUP3 ADD DUP12 SWAP1 MSTORE DUP10 AND PUSH1 0x60 DUP3 ADD MSTORE PUSH1 0x80 DUP2 ADD DUP9 SWAP1 MSTORE PUSH1 0xA0 DUP2 ADD DUP8 SWAP1 MSTORE PUSH1 0xC0 DUP2 ADD DUP7 SWAP1 MSTORE PUSH1 0xE0 DUP2 ADD DUP6 SWAP1 MSTORE PUSH2 0x100 DUP2 ADD DUP5 SWAP1 MSTORE PUSH2 0x160 DUP2 ADD PUSH2 0x2F40 PUSH2 0x120 DUP4 ADD DUP6 PUSH2 0x2DEA JUMP JUMPDEST DUP3 PUSH2 0x140 DUP4 ADD MSTORE SWAP13 SWAP12 POP POP POP POP POP POP POP POP POP POP POP POP JUMP JUMPDEST PUSH1 0x1 PUSH1 0x1 PUSH1 0xA0 SHL SUB DUP11 AND DUP2 MSTORE PUSH2 0x120 PUSH1 0x20 DUP3 ADD DUP2 SWAP1 MSTORE PUSH1 0x0 SWAP1 PUSH2 0x2F7C DUP4 DUP3 ADD DUP13 PUSH2 0x2E0C JUMP JUMPDEST PUSH1 0xFF SWAP11 SWAP1 SWAP11 AND PUSH1 0x40 DUP5 ADD MSTORE POP POP PUSH1 0x60 DUP2 ADD SWAP7 SWAP1 SWAP7 MSTORE PUSH1 0x80 DUP7 ADD SWAP5 SWAP1 SWAP5 MSTORE PUSH1 0xA0 DUP6 ADD SWAP3 SWAP1 SWAP3 MSTORE PUSH1 0xC0 DUP5 ADD MSTORE PUSH1 0xE0 DUP4 ADD MSTORE PUSH2 0x100 SWAP1 SWAP2 ADD MSTORE SWAP3 SWAP2 POP POP JUMP JUMPDEST PUSH1 0x20 DUP1 DUP3 MSTORE PUSH1 0x15 SWAP1 DUP3 ADD MSTORE PUSH21 0x131BD85B881CDD185D19481A5CC81A5B9D985B1A59 PUSH1 0x5A SHL PUSH1 0x40 DUP3 ADD MSTORE PUSH1 0x60 ADD SWAP1 JUMP JUMPDEST PUSH1 0x20 DUP1 DUP3 MSTORE PUSH1 0x23 SWAP1 DUP3 ADD MSTORE PUSH32 0x61646472657373207A65726F206973206E6F7420612076616C69642061646472 PUSH1 0x40 DUP3 ADD MSTORE PUSH3 0x657373 PUSH1 0xE8 SHL PUSH1 0x60 DUP3 ADD MSTORE PUSH1 0x80 ADD SWAP1 JUMP JUMPDEST PUSH1 0x20 DUP1 DUP3 MSTORE PUSH1 0x1D SWAP1 DUP3 ADD MSTORE PUSH32 0x4E465420686173206E6F742075736520617320636F6C6C61746572616C000000 PUSH1 0x40 DUP3 ADD MSTORE PUSH1 0x60 ADD SWAP1 JUMP JUMPDEST PUSH1 0x20 DUP1 DUP3 MSTORE PUSH1 0x21 SWAP1 DUP3 ADD MSTORE PUSH32 0x546F6B656E206164647265737320697320746865207A65726F20616464726573 PUSH1 0x40 DUP3 ADD MSTORE PUSH1 0x73 PUSH1 0xF8 SHL PUSH1 0x60 DUP3 ADD MSTORE PUSH1 0x80 ADD SWAP1 JUMP JUMPDEST DUP2 MLOAD PUSH1 0x1 PUSH1 0x1 PUSH1 0xA0 SHL SUB AND DUP2 MSTORE PUSH2 0x160 DUP2 ADD PUSH1 0x20 DUP4 ADD MLOAD PUSH2 0x30CE PUSH1 0x20 DUP5 ADD DUP3 PUSH1 0x1 PUSH1 0x1 PUSH1 0xA0 SHL SUB AND SWAP1 MSTORE JUMP JUMPDEST POP PUSH1 0x40 DUP4 ADD MLOAD PUSH1 0x40 DUP4 ADD MSTORE PUSH1 0x60 DUP4 ADD MLOAD PUSH2 0x30F3 PUSH1 0x60 DUP5 ADD DUP3 PUSH1 0x1 PUSH1 0x1 PUSH1 0xA0 SHL SUB AND SWAP1 MSTORE JUMP JUMPDEST POP PUSH1 0x80 DUP4 ADD MLOAD PUSH1 0x80 DUP4 ADD MSTORE PUSH1 0xA0 DUP4 ADD MLOAD PUSH1 0xA0 DUP4 ADD MSTORE PUSH1 0xC0 DUP4 ADD MLOAD PUSH1 0xC0 DUP4 ADD MSTORE PUSH1 0xE0 DUP4 ADD MLOAD PUSH1 0xE0 DUP4 ADD MSTORE PUSH2 0x100 DUP1 DUP5 ADD MLOAD DUP2 DUP5 ADD MSTORE POP PUSH2 0x120 DUP1 DUP5 ADD MLOAD PUSH2 0x313B DUP3 DUP6 ADD DUP3 PUSH2 0x2DEA JUMP JUMPDEST POP POP PUSH2 0x140 SWAP3 DUP4 ADD MLOAD SWAP2 SWAP1 SWAP3 ADD MSTORE SWAP1 JUMP JUMPDEST PUSH1 0x20 DUP1 DUP3 MSTORE DUP3 MLOAD PUSH1 0x1 PUSH1 0x1 PUSH1 0xA0 SHL SUB AND DUP3 DUP3 ADD MSTORE DUP3 ADD MLOAD PUSH1 0x0 SWAP1 PUSH2 0x317B PUSH1 0x40 DUP5 ADD DUP3 PUSH1 0x1 PUSH1 0x1 PUSH1 0xA0 SHL SUB AND SWAP1 MSTORE JUMP JUMPDEST POP PUSH1 0x40 DUP4 ADD MLOAD PUSH2 0x160 DUP1 PUSH1 0x60 DUP6 ADD MSTORE PUSH2 0x3198 PUSH2 0x180 DUP6 ADD DUP4 PUSH2 0x2E0C JUMP JUMPDEST SWAP2 POP PUSH1 0x60 DUP6 ADD MLOAD PUSH2 0x31AE PUSH1 0x80 DUP7 ADD DUP3 PUSH1 0xFF AND SWAP1 MSTORE JUMP JUMPDEST POP PUSH1 0x80 DUP6 ADD MLOAD DUP1 MLOAD PUSH1 0xA0 DUP7 ADD MSTORE PUSH1 0x20 DUP2 ADD MLOAD PUSH1 0xC0 DUP7 ADD MSTORE POP PUSH1 0xA0 DUP6 ADD MLOAD DUP1 MLOAD PUSH1 0xE0 DUP7 ADD MSTORE PUSH1 0x20 DUP2 ADD MLOAD PUSH2 0x100 DUP7 ADD MSTORE POP PUSH1 0xC0 DUP6 ADD MLOAD DUP1 MLOAD PUSH2 0x120 DUP7 ADD MSTORE PUSH1 0x20 DUP2 ADD MLOAD PUSH2 0x140 DUP7 ADD MSTORE POP PUSH1 0xE0 DUP6 ADD MLOAD DUP1 ISZERO ISZERO DUP6 DUP4 ADD MSTORE POP SWAP1 SWAP5 SWAP4 POP POP POP POP JUMP JUMPDEST DUP11 DUP2 MSTORE PUSH1 0x1 PUSH1 0x1 PUSH1 0xA0 SHL SUB DUP11 DUP2 AND PUSH1 0x20 DUP4 ADD MSTORE DUP10 DUP2 AND PUSH1 0x40 DUP4 ADD MSTORE PUSH1 0x60 DUP3 ADD DUP10 SWAP1 MSTORE DUP8 AND PUSH1 0x80 DUP3 ADD MSTORE PUSH1 0xA0 DUP2 ADD DUP7 SWAP1 MSTORE PUSH1 0xC0 DUP2 ADD DUP6 SWAP1 MSTORE PUSH1 0xE0 DUP2 ADD DUP5 SWAP1 MSTORE PUSH2 0x140 DUP2 ADD PUSH2 0x325E PUSH2 0x100 DUP4 ADD DUP6 PUSH2 0x2DEA JUMP JUMPDEST DUP3 PUSH2 0x120 DUP4 ADD MSTORE SWAP12 SWAP11 POP POP POP POP POP POP POP POP POP POP POP JUMP JUMPDEST DUP4 DUP2 MSTORE PUSH1 0x60 DUP2 ADD PUSH2 0x3288 PUSH1 0x20 DUP4 ADD DUP6 PUSH2 0x2DEA JUMP JUMPDEST DUP3 PUSH1 0x40 DUP4 ADD MSTORE SWAP5 SWAP4 POP POP POP POP JUMP JUMPDEST DUP5 DUP2 MSTORE PUSH1 0x80 DUP2 ADD PUSH2 0x32AA PUSH1 0x20 DUP4 ADD DUP7 PUSH2 0x2DEA JUMP JUMPDEST PUSH1 0x40 DUP3 ADD SWAP4 SWAP1 SWAP4 MSTORE PUSH1 0x60 ADD MSTORE SWAP3 SWAP2 POP POP JUMP JUMPDEST PUSH1 0x0 DUP3 NOT DUP3 GT ISZERO PUSH2 0x32CF JUMPI PUSH2 0x32CF PUSH2 0x3395 JUMP JUMPDEST POP ADD SWAP1 JUMP JUMPDEST PUSH1 0x0 DUP3 PUSH2 0x32EF JUMPI PUSH4 0x4E487B71 PUSH1 0xE0 SHL DUP2 MSTORE PUSH1 0x12 PUSH1 0x4 MSTORE PUSH1 0x24 DUP2 REVERT JUMPDEST POP DIV SWAP1 JUMP JUMPDEST PUSH1 0x0 DUP2 PUSH1 0x0 NOT DIV DUP4 GT DUP3 ISZERO ISZERO AND ISZERO PUSH2 0x330E JUMPI PUSH2 0x330E PUSH2 0x3395 JUMP JUMPDEST POP MUL SWAP1 JUMP JUMPDEST PUSH1 0x0 DUP3 DUP3 LT ISZERO PUSH2 0x3325 JUMPI PUSH2 0x3325 PUSH2 0x3395 JUMP JUMPDEST POP SUB SWAP1 JUMP JUMPDEST PUSH1 0x0 JUMPDEST DUP4 DUP2 LT ISZERO PUSH2 0x3345 JUMPI DUP2 DUP2 ADD MLOAD DUP4 DUP3 ADD MSTORE PUSH1 0x20 ADD PUSH2 0x332D JUMP JUMPDEST DUP4 DUP2 GT ISZERO PUSH2 0x3354 JUMPI PUSH1 0x0 DUP5 DUP5 ADD MSTORE JUMPDEST POP POP POP POP JUMP JUMPDEST PUSH1 0x1 DUP2 DUP2 SHR SWAP1 DUP3 AND DUP1 PUSH2 0x336E JUMPI PUSH1 0x7F DUP3 AND SWAP2 POP JUMPDEST PUSH1 0x20 DUP3 LT DUP2 EQ ISZERO PUSH2 0x338F JUMPI PUSH4 0x4E487B71 PUSH1 0xE0 SHL PUSH1 0x0 MSTORE PUSH1 0x22 PUSH1 0x4 MSTORE PUSH1 0x24 PUSH1 0x0 REVERT JUMPDEST POP SWAP2 SWAP1 POP JUMP JUMPDEST PUSH4 0x4E487B71 PUSH1 0xE0 SHL PUSH1 0x0 MSTORE PUSH1 0x11 PUSH1 0x4 MSTORE PUSH1 0x24 PUSH1 0x0 REVERT JUMPDEST PUSH4 0x4E487B71 PUSH1 0xE0 SHL PUSH1 0x0 MSTORE PUSH1 0x41 PUSH1 0x4 MSTORE PUSH1 0x24 PUSH1 0x0 REVERT JUMPDEST PUSH1 0x1 PUSH1 0x1 PUSH1 0xA0 SHL SUB DUP2 AND DUP2 EQ PUSH2 0x24CA JUMPI PUSH1 0x0 DUP1 REVERT INVALID LOG2 PUSH5 0x6970667358 0x22 SLT KECCAK256 SGT 0x2D MSIZE PUSH2 0xEFC9 0xF6 PUSH26 0x7E140F44AD45C959D7B1D7ED555A14A68FA0C1F89AF3F796473 PUSH16 0x6C634300080400330000000000000000 "},"methodIdentifiers":{"TIME_DURATION()":"a48e84e3","_nftToLoanIds(address,uint256)":"3699e7d1","addToken(address,uint256,uint256,uint256,uint256,uint256,uint256)":"35c16bca","calculateFee(uint256,uint256,uint256)":"5357b989","calculateTotal(uint256,uint256,uint256)":"5af20a83","deposit(address,uint256)":"47e7ef24","extendLoan(address,uint256,uint256)":"f56cc915","getLoanAgreement(address,uint256)":"19dbb6d2","getLoanId(address,uint256)":"11615d30","getTokenErc(address)":"0be369b4","liquidate(address,uint256)":"bcbaf487","listingsToken(address)":"25ae2393","loanAgreements(uint256)":"c8304dfb","onERC721Received(address,address,uint256,bytes)":"150b7a02","owner()":"8da5cb5b","renounceOwnership()":"715018a6","repaiedEarly(address,uint256)":"29c7f9e0","repayLoan(address,uint256)":"93a595f5","requestLoan(address,uint256,address,uint256,uint256)":"b6805d20","setTime(uint256)":"3beb26c4","takeALoan(address,uint256,uint8)":"815083df","transferOwnership(address)":"f2fde38b","updateToken(address,uint256,uint256,uint256,uint256,uint256,uint256)":"bfd04a5d","withdraw(address,uint256)":"f3fef3a3"}}}}}